{
  "_format": "hh-sol-artifact-1",
  "contractName": "LotteryTest",
  "sourceName": "contracts/LotteryTest.sol",
  "abi": [
    {
      "inputs": [
        {
          "internalType": "address",
          "name": "_vrfCoordinator",
          "type": "address"
        },
        {
          "internalType": "uint256",
          "name": "_subscriptionId",
          "type": "uint256"
        }
      ],
      "stateMutability": "nonpayable",
      "type": "constructor"
    },
    {
      "inputs": [
        {
          "internalType": "address",
          "name": "have",
          "type": "address"
        },
        {
          "internalType": "address",
          "name": "want",
          "type": "address"
        }
      ],
      "name": "OnlyCoordinatorCanFulfill",
      "type": "error"
    },
    {
      "inputs": [
        {
          "internalType": "address",
          "name": "have",
          "type": "address"
        },
        {
          "internalType": "address",
          "name": "owner",
          "type": "address"
        },
        {
          "internalType": "address",
          "name": "coordinator",
          "type": "address"
        }
      ],
      "name": "OnlyOwnerOrCoordinator",
      "type": "error"
    },
    {
      "inputs": [],
      "name": "ZeroAddress",
      "type": "error"
    },
    {
      "anonymous": false,
      "inputs": [
        {
          "indexed": false,
          "internalType": "address",
          "name": "vrfCoordinator",
          "type": "address"
        }
      ],
      "name": "CoordinatorSet",
      "type": "event"
    },
    {
      "anonymous": false,
      "inputs": [
        {
          "indexed": true,
          "internalType": "address",
          "name": "owner",
          "type": "address"
        },
        {
          "indexed": true,
          "internalType": "uint256",
          "name": "amount",
          "type": "uint256"
        }
      ],
      "name": "Distribute",
      "type": "event"
    },
    {
      "anonymous": false,
      "inputs": [
        {
          "indexed": true,
          "internalType": "address",
          "name": "sender",
          "type": "address"
        },
        {
          "indexed": true,
          "internalType": "uint256",
          "name": "amount",
          "type": "uint256"
        }
      ],
      "name": "FundJackpot",
      "type": "event"
    },
    {
      "anonymous": false,
      "inputs": [
        {
          "indexed": true,
          "internalType": "address",
          "name": "owner",
          "type": "address"
        },
        {
          "indexed": true,
          "internalType": "uint256",
          "name": "amount",
          "type": "uint256"
        }
      ],
      "name": "JackpotWithdraw",
      "type": "event"
    },
    {
      "anonymous": false,
      "inputs": [
        {
          "indexed": true,
          "internalType": "address",
          "name": "owner",
          "type": "address"
        },
        {
          "indexed": true,
          "internalType": "uint256",
          "name": "amount",
          "type": "uint256"
        }
      ],
      "name": "OperationsBalanceWithdraw",
      "type": "event"
    },
    {
      "anonymous": false,
      "inputs": [
        {
          "indexed": true,
          "internalType": "address",
          "name": "owner",
          "type": "address"
        },
        {
          "indexed": true,
          "internalType": "uint256",
          "name": "amount",
          "type": "uint256"
        }
      ],
      "name": "OwnerBalanceWithdraw",
      "type": "event"
    },
    {
      "anonymous": false,
      "inputs": [
        {
          "indexed": true,
          "internalType": "address",
          "name": "from",
          "type": "address"
        },
        {
          "indexed": true,
          "internalType": "address",
          "name": "to",
          "type": "address"
        }
      ],
      "name": "OwnershipTransferRequested",
      "type": "event"
    },
    {
      "anonymous": false,
      "inputs": [
        {
          "indexed": true,
          "internalType": "address",
          "name": "from",
          "type": "address"
        },
        {
          "indexed": true,
          "internalType": "address",
          "name": "to",
          "type": "address"
        }
      ],
      "name": "OwnershipTransferred",
      "type": "event"
    },
    {
      "anonymous": false,
      "inputs": [
        {
          "indexed": true,
          "internalType": "address",
          "name": "player",
          "type": "address"
        },
        {
          "indexed": false,
          "internalType": "uint256[5]",
          "name": "combination",
          "type": "uint256[5]"
        }
      ],
      "name": "PlayerCombinationSubmitted",
      "type": "event"
    },
    {
      "anonymous": false,
      "inputs": [
        {
          "indexed": true,
          "internalType": "uint256",
          "name": "ticketId",
          "type": "uint256"
        }
      ],
      "name": "RandomNumberGenerated",
      "type": "event"
    },
    {
      "anonymous": false,
      "inputs": [
        {
          "indexed": true,
          "internalType": "uint256",
          "name": "requestId",
          "type": "uint256"
        },
        {
          "indexed": true,
          "internalType": "uint256",
          "name": "ticketId",
          "type": "uint256"
        }
      ],
      "name": "RandomWordsRequested",
      "type": "event"
    },
    {
      "anonymous": false,
      "inputs": [
        {
          "indexed": true,
          "internalType": "address",
          "name": "player",
          "type": "address"
        },
        {
          "indexed": true,
          "internalType": "uint256",
          "name": "ticketId",
          "type": "uint256"
        },
        {
          "indexed": true,
          "internalType": "uint256",
          "name": "amount",
          "type": "uint256"
        }
      ],
      "name": "RewardClaimed",
      "type": "event"
    },
    {
      "anonymous": false,
      "inputs": [
        {
          "indexed": true,
          "internalType": "address",
          "name": "player",
          "type": "address"
        },
        {
          "indexed": true,
          "internalType": "uint256",
          "name": "ticketNumber",
          "type": "uint256"
        }
      ],
      "name": "TicketPurchased",
      "type": "event"
    },
    {
      "anonymous": false,
      "inputs": [
        {
          "indexed": true,
          "internalType": "uint256",
          "name": "ticketNumber",
          "type": "uint256"
        },
        {
          "indexed": false,
          "internalType": "uint256[5]",
          "name": "combination",
          "type": "uint256[5]"
        }
      ],
      "name": "WinningCombinationGenerated",
      "type": "event"
    },
    {
      "stateMutability": "payable",
      "type": "fallback"
    },
    {
      "inputs": [],
      "name": "CALLBACK_GAS_LIMIT",
      "outputs": [
        {
          "internalType": "uint32",
          "name": "",
          "type": "uint32"
        }
      ],
      "stateMutability": "view",
      "type": "function"
    },
    {
      "inputs": [],
      "name": "NUMBER_OF_WORDS",
      "outputs": [
        {
          "internalType": "uint8",
          "name": "",
          "type": "uint8"
        }
      ],
      "stateMutability": "view",
      "type": "function"
    },
    {
      "inputs": [],
      "name": "NUMBER_RANGE",
      "outputs": [
        {
          "internalType": "uint8",
          "name": "",
          "type": "uint8"
        }
      ],
      "stateMutability": "view",
      "type": "function"
    },
    {
      "inputs": [],
      "name": "REQUEST_CONFIRMATIONS",
      "outputs": [
        {
          "internalType": "uint16",
          "name": "",
          "type": "uint16"
        }
      ],
      "stateMutability": "view",
      "type": "function"
    },
    {
      "inputs": [],
      "name": "TICKET_PRICE_WEI",
      "outputs": [
        {
          "internalType": "uint256",
          "name": "",
          "type": "uint256"
        }
      ],
      "stateMutability": "view",
      "type": "function"
    },
    {
      "inputs": [],
      "name": "acceptOwnership",
      "outputs": [],
      "stateMutability": "nonpayable",
      "type": "function"
    },
    {
      "inputs": [
        {
          "internalType": "uint256",
          "name": "",
          "type": "uint256"
        }
      ],
      "name": "allTicketIds",
      "outputs": [
        {
          "internalType": "uint256",
          "name": "",
          "type": "uint256"
        }
      ],
      "stateMutability": "view",
      "type": "function"
    },
    {
      "inputs": [],
      "name": "assignTestTicket",
      "outputs": [],
      "stateMutability": "nonpayable",
      "type": "function"
    },
    {
      "inputs": [],
      "name": "buyBatchTickets",
      "outputs": [
        {
          "components": [
            {
              "internalType": "uint256",
              "name": "id",
              "type": "uint256"
            },
            {
              "internalType": "address",
              "name": "owner",
              "type": "address"
            },
            {
              "internalType": "uint256",
              "name": "purchaseTimestamp",
              "type": "uint256"
            },
            {
              "internalType": "uint256[5]",
              "name": "playerCombination",
              "type": "uint256[5]"
            },
            {
              "internalType": "uint256[5]",
              "name": "winningCombination",
              "type": "uint256[5]"
            },
            {
              "internalType": "uint8",
              "name": "matchingNumbers",
              "type": "uint8"
            },
            {
              "internalType": "uint256",
              "name": "potentialReward",
              "type": "uint256"
            },
            {
              "internalType": "uint256",
              "name": "actualReward",
              "type": "uint256"
            },
            {
              "internalType": "bool",
              "name": "isRewardClaimed",
              "type": "bool"
            },
            {
              "internalType": "bool",
              "name": "playerCombinationSubmitted",
              "type": "bool"
            },
            {
              "internalType": "bool",
              "name": "winningCombinationGenerated",
              "type": "bool"
            },
            {
              "internalType": "bool",
              "name": "randomNumberRequested",
              "type": "bool"
            }
          ],
          "internalType": "struct LotteryTest.LotteryTicket[]",
          "name": "",
          "type": "tuple[]"
        }
      ],
      "stateMutability": "payable",
      "type": "function"
    },
    {
      "inputs": [],
      "name": "buyTicket",
      "outputs": [
        {
          "components": [
            {
              "internalType": "uint256",
              "name": "id",
              "type": "uint256"
            },
            {
              "internalType": "address",
              "name": "owner",
              "type": "address"
            },
            {
              "internalType": "uint256",
              "name": "purchaseTimestamp",
              "type": "uint256"
            },
            {
              "internalType": "uint256[5]",
              "name": "playerCombination",
              "type": "uint256[5]"
            },
            {
              "internalType": "uint256[5]",
              "name": "winningCombination",
              "type": "uint256[5]"
            },
            {
              "internalType": "uint8",
              "name": "matchingNumbers",
              "type": "uint8"
            },
            {
              "internalType": "uint256",
              "name": "potentialReward",
              "type": "uint256"
            },
            {
              "internalType": "uint256",
              "name": "actualReward",
              "type": "uint256"
            },
            {
              "internalType": "bool",
              "name": "isRewardClaimed",
              "type": "bool"
            },
            {
              "internalType": "bool",
              "name": "playerCombinationSubmitted",
              "type": "bool"
            },
            {
              "internalType": "bool",
              "name": "winningCombinationGenerated",
              "type": "bool"
            },
            {
              "internalType": "bool",
              "name": "randomNumberRequested",
              "type": "bool"
            }
          ],
          "internalType": "struct LotteryTest.LotteryTicket[]",
          "name": "",
          "type": "tuple[]"
        }
      ],
      "stateMutability": "payable",
      "type": "function"
    },
    {
      "inputs": [
        {
          "internalType": "uint8",
          "name": "count",
          "type": "uint8"
        }
      ],
      "name": "buyTickets",
      "outputs": [
        {
          "components": [
            {
              "internalType": "uint256",
              "name": "id",
              "type": "uint256"
            },
            {
              "internalType": "address",
              "name": "owner",
              "type": "address"
            },
            {
              "internalType": "uint256",
              "name": "purchaseTimestamp",
              "type": "uint256"
            },
            {
              "internalType": "uint256[5]",
              "name": "playerCombination",
              "type": "uint256[5]"
            },
            {
              "internalType": "uint256[5]",
              "name": "winningCombination",
              "type": "uint256[5]"
            },
            {
              "internalType": "uint8",
              "name": "matchingNumbers",
              "type": "uint8"
            },
            {
              "internalType": "uint256",
              "name": "potentialReward",
              "type": "uint256"
            },
            {
              "internalType": "uint256",
              "name": "actualReward",
              "type": "uint256"
            },
            {
              "internalType": "bool",
              "name": "isRewardClaimed",
              "type": "bool"
            },
            {
              "internalType": "bool",
              "name": "playerCombinationSubmitted",
              "type": "bool"
            },
            {
              "internalType": "bool",
              "name": "winningCombinationGenerated",
              "type": "bool"
            },
            {
              "internalType": "bool",
              "name": "randomNumberRequested",
              "type": "bool"
            }
          ],
          "internalType": "struct LotteryTest.LotteryTicket[]",
          "name": "",
          "type": "tuple[]"
        }
      ],
      "stateMutability": "payable",
      "type": "function"
    },
    {
      "inputs": [
        {
          "internalType": "uint256",
          "name": "ticketId",
          "type": "uint256"
        }
      ],
      "name": "claimReward",
      "outputs": [],
      "stateMutability": "nonpayable",
      "type": "function"
    },
    {
      "inputs": [
        {
          "internalType": "uint256",
          "name": "amount",
          "type": "uint256"
        }
      ],
      "name": "fundJackpot",
      "outputs": [],
      "stateMutability": "nonpayable",
      "type": "function"
    },
    {
      "inputs": [],
      "name": "getAllTickets",
      "outputs": [
        {
          "components": [
            {
              "internalType": "uint256",
              "name": "id",
              "type": "uint256"
            },
            {
              "internalType": "address",
              "name": "owner",
              "type": "address"
            },
            {
              "internalType": "uint256",
              "name": "purchaseTimestamp",
              "type": "uint256"
            },
            {
              "internalType": "uint256[5]",
              "name": "playerCombination",
              "type": "uint256[5]"
            },
            {
              "internalType": "uint256[5]",
              "name": "winningCombination",
              "type": "uint256[5]"
            },
            {
              "internalType": "uint8",
              "name": "matchingNumbers",
              "type": "uint8"
            },
            {
              "internalType": "uint256",
              "name": "potentialReward",
              "type": "uint256"
            },
            {
              "internalType": "uint256",
              "name": "actualReward",
              "type": "uint256"
            },
            {
              "internalType": "bool",
              "name": "isRewardClaimed",
              "type": "bool"
            },
            {
              "internalType": "bool",
              "name": "playerCombinationSubmitted",
              "type": "bool"
            },
            {
              "internalType": "bool",
              "name": "winningCombinationGenerated",
              "type": "bool"
            },
            {
              "internalType": "bool",
              "name": "randomNumberRequested",
              "type": "bool"
            }
          ],
          "internalType": "struct LotteryTest.LotteryTicket[]",
          "name": "",
          "type": "tuple[]"
        }
      ],
      "stateMutability": "view",
      "type": "function"
    },
    {
      "inputs": [],
      "name": "getContractOwner",
      "outputs": [
        {
          "internalType": "address",
          "name": "",
          "type": "address"
        }
      ],
      "stateMutability": "view",
      "type": "function"
    },
    {
      "inputs": [],
      "name": "getJackpot",
      "outputs": [
        {
          "internalType": "uint256",
          "name": "",
          "type": "uint256"
        }
      ],
      "stateMutability": "view",
      "type": "function"
    },
    {
      "inputs": [],
      "name": "getOperationsBalance",
      "outputs": [
        {
          "internalType": "uint256",
          "name": "",
          "type": "uint256"
        }
      ],
      "stateMutability": "view",
      "type": "function"
    },
    {
      "inputs": [],
      "name": "getOwnerBalance",
      "outputs": [
        {
          "internalType": "uint256",
          "name": "",
          "type": "uint256"
        }
      ],
      "stateMutability": "view",
      "type": "function"
    },
    {
      "inputs": [],
      "name": "getPlayerTickets",
      "outputs": [
        {
          "components": [
            {
              "internalType": "uint256",
              "name": "id",
              "type": "uint256"
            },
            {
              "internalType": "address",
              "name": "owner",
              "type": "address"
            },
            {
              "internalType": "uint256",
              "name": "purchaseTimestamp",
              "type": "uint256"
            },
            {
              "internalType": "uint256[5]",
              "name": "playerCombination",
              "type": "uint256[5]"
            },
            {
              "internalType": "uint256[5]",
              "name": "winningCombination",
              "type": "uint256[5]"
            },
            {
              "internalType": "uint8",
              "name": "matchingNumbers",
              "type": "uint8"
            },
            {
              "internalType": "uint256",
              "name": "potentialReward",
              "type": "uint256"
            },
            {
              "internalType": "uint256",
              "name": "actualReward",
              "type": "uint256"
            },
            {
              "internalType": "bool",
              "name": "isRewardClaimed",
              "type": "bool"
            },
            {
              "internalType": "bool",
              "name": "playerCombinationSubmitted",
              "type": "bool"
            },
            {
              "internalType": "bool",
              "name": "winningCombinationGenerated",
              "type": "bool"
            },
            {
              "internalType": "bool",
              "name": "randomNumberRequested",
              "type": "bool"
            }
          ],
          "internalType": "struct LotteryTest.LotteryTicket[]",
          "name": "",
          "type": "tuple[]"
        }
      ],
      "stateMutability": "view",
      "type": "function"
    },
    {
      "inputs": [],
      "name": "getTestTicket",
      "outputs": [
        {
          "components": [
            {
              "internalType": "uint256",
              "name": "id",
              "type": "uint256"
            },
            {
              "internalType": "address",
              "name": "owner",
              "type": "address"
            },
            {
              "internalType": "uint256",
              "name": "purchaseTimestamp",
              "type": "uint256"
            },
            {
              "internalType": "uint256[5]",
              "name": "playerCombination",
              "type": "uint256[5]"
            },
            {
              "internalType": "uint256[5]",
              "name": "winningCombination",
              "type": "uint256[5]"
            },
            {
              "internalType": "uint8",
              "name": "matchingNumbers",
              "type": "uint8"
            },
            {
              "internalType": "uint256",
              "name": "potentialReward",
              "type": "uint256"
            },
            {
              "internalType": "uint256",
              "name": "actualReward",
              "type": "uint256"
            },
            {
              "internalType": "bool",
              "name": "isRewardClaimed",
              "type": "bool"
            },
            {
              "internalType": "bool",
              "name": "playerCombinationSubmitted",
              "type": "bool"
            },
            {
              "internalType": "bool",
              "name": "winningCombinationGenerated",
              "type": "bool"
            },
            {
              "internalType": "bool",
              "name": "randomNumberRequested",
              "type": "bool"
            }
          ],
          "internalType": "struct LotteryTest.LotteryTicket",
          "name": "",
          "type": "tuple"
        }
      ],
      "stateMutability": "view",
      "type": "function"
    },
    {
      "inputs": [
        {
          "internalType": "uint256",
          "name": "ticketId",
          "type": "uint256"
        }
      ],
      "name": "getTicketById",
      "outputs": [
        {
          "components": [
            {
              "internalType": "uint256",
              "name": "id",
              "type": "uint256"
            },
            {
              "internalType": "address",
              "name": "owner",
              "type": "address"
            },
            {
              "internalType": "uint256",
              "name": "purchaseTimestamp",
              "type": "uint256"
            },
            {
              "internalType": "uint256[5]",
              "name": "playerCombination",
              "type": "uint256[5]"
            },
            {
              "internalType": "uint256[5]",
              "name": "winningCombination",
              "type": "uint256[5]"
            },
            {
              "internalType": "uint8",
              "name": "matchingNumbers",
              "type": "uint8"
            },
            {
              "internalType": "uint256",
              "name": "potentialReward",
              "type": "uint256"
            },
            {
              "internalType": "uint256",
              "name": "actualReward",
              "type": "uint256"
            },
            {
              "internalType": "bool",
              "name": "isRewardClaimed",
              "type": "bool"
            },
            {
              "internalType": "bool",
              "name": "playerCombinationSubmitted",
              "type": "bool"
            },
            {
              "internalType": "bool",
              "name": "winningCombinationGenerated",
              "type": "bool"
            },
            {
              "internalType": "bool",
              "name": "randomNumberRequested",
              "type": "bool"
            }
          ],
          "internalType": "struct LotteryTest.LotteryTicket",
          "name": "",
          "type": "tuple"
        }
      ],
      "stateMutability": "view",
      "type": "function"
    },
    {
      "inputs": [],
      "name": "getWinningCombination",
      "outputs": [
        {
          "internalType": "uint256[5]",
          "name": "",
          "type": "uint256[5]"
        }
      ],
      "stateMutability": "view",
      "type": "function"
    },
    {
      "inputs": [],
      "name": "jackpot",
      "outputs": [
        {
          "internalType": "uint256",
          "name": "",
          "type": "uint256"
        }
      ],
      "stateMutability": "view",
      "type": "function"
    },
    {
      "inputs": [],
      "name": "nextTicketId",
      "outputs": [
        {
          "internalType": "uint256",
          "name": "",
          "type": "uint256"
        }
      ],
      "stateMutability": "view",
      "type": "function"
    },
    {
      "inputs": [],
      "name": "owner",
      "outputs": [
        {
          "internalType": "address",
          "name": "",
          "type": "address"
        }
      ],
      "stateMutability": "view",
      "type": "function"
    },
    {
      "inputs": [
        {
          "internalType": "address",
          "name": "",
          "type": "address"
        },
        {
          "internalType": "uint256",
          "name": "",
          "type": "uint256"
        }
      ],
      "name": "playerTicketIds",
      "outputs": [
        {
          "internalType": "uint256",
          "name": "",
          "type": "uint256"
        }
      ],
      "stateMutability": "view",
      "type": "function"
    },
    {
      "inputs": [
        {
          "internalType": "uint256",
          "name": "requestId",
          "type": "uint256"
        },
        {
          "internalType": "uint256[]",
          "name": "randomWords",
          "type": "uint256[]"
        }
      ],
      "name": "rawFulfillRandomWords",
      "outputs": [],
      "stateMutability": "nonpayable",
      "type": "function"
    },
    {
      "inputs": [
        {
          "internalType": "uint256",
          "name": "",
          "type": "uint256"
        }
      ],
      "name": "requestIdToTicketId",
      "outputs": [
        {
          "internalType": "uint256",
          "name": "",
          "type": "uint256"
        }
      ],
      "stateMutability": "view",
      "type": "function"
    },
    {
      "inputs": [],
      "name": "s_vrfCoordinator",
      "outputs": [
        {
          "internalType": "contract IVRFCoordinatorV2Plus",
          "name": "",
          "type": "address"
        }
      ],
      "stateMutability": "view",
      "type": "function"
    },
    {
      "inputs": [
        {
          "internalType": "address",
          "name": "_vrfCoordinator",
          "type": "address"
        }
      ],
      "name": "setCoordinator",
      "outputs": [],
      "stateMutability": "nonpayable",
      "type": "function"
    },
    {
      "inputs": [
        {
          "internalType": "uint256",
          "name": "ticketId",
          "type": "uint256"
        },
        {
          "internalType": "uint256[5]",
          "name": "playerCombination",
          "type": "uint256[5]"
        }
      ],
      "name": "submitCombination",
      "outputs": [],
      "stateMutability": "nonpayable",
      "type": "function"
    },
    {
      "inputs": [
        {
          "internalType": "uint256",
          "name": "amount",
          "type": "uint256"
        }
      ],
      "name": "testDistribute",
      "outputs": [],
      "stateMutability": "nonpayable",
      "type": "function"
    },
    {
      "inputs": [],
      "name": "testTicket",
      "outputs": [
        {
          "internalType": "uint256",
          "name": "id",
          "type": "uint256"
        },
        {
          "internalType": "address",
          "name": "owner",
          "type": "address"
        },
        {
          "internalType": "uint256",
          "name": "purchaseTimestamp",
          "type": "uint256"
        },
        {
          "internalType": "uint8",
          "name": "matchingNumbers",
          "type": "uint8"
        },
        {
          "internalType": "uint256",
          "name": "potentialReward",
          "type": "uint256"
        },
        {
          "internalType": "uint256",
          "name": "actualReward",
          "type": "uint256"
        },
        {
          "internalType": "bool",
          "name": "isRewardClaimed",
          "type": "bool"
        },
        {
          "internalType": "bool",
          "name": "playerCombinationSubmitted",
          "type": "bool"
        },
        {
          "internalType": "bool",
          "name": "winningCombinationGenerated",
          "type": "bool"
        },
        {
          "internalType": "bool",
          "name": "randomNumberRequested",
          "type": "bool"
        }
      ],
      "stateMutability": "view",
      "type": "function"
    },
    {
      "inputs": [
        {
          "internalType": "uint8",
          "name": "matchingNumbers",
          "type": "uint8"
        }
      ],
      "name": "test_calculateReward",
      "outputs": [
        {
          "internalType": "uint256",
          "name": "",
          "type": "uint256"
        }
      ],
      "stateMutability": "view",
      "type": "function"
    },
    {
      "inputs": [
        {
          "internalType": "uint256[5]",
          "name": "playerCombination",
          "type": "uint256[5]"
        },
        {
          "internalType": "uint256[5]",
          "name": "winningCombination",
          "type": "uint256[5]"
        }
      ],
      "name": "test_checkWinningCombination",
      "outputs": [
        {
          "internalType": "uint8",
          "name": "",
          "type": "uint8"
        }
      ],
      "stateMutability": "pure",
      "type": "function"
    },
    {
      "inputs": [
        {
          "internalType": "uint256",
          "name": "requestId",
          "type": "uint256"
        },
        {
          "internalType": "uint256[]",
          "name": "randomWords",
          "type": "uint256[]"
        }
      ],
      "name": "test_fulfillRandomWords",
      "outputs": [],
      "stateMutability": "nonpayable",
      "type": "function"
    },
    {
      "inputs": [
        {
          "internalType": "uint256",
          "name": "randomWord",
          "type": "uint256"
        }
      ],
      "name": "test_generateWinningCombination",
      "outputs": [
        {
          "internalType": "uint256[5]",
          "name": "",
          "type": "uint256[5]"
        }
      ],
      "stateMutability": "pure",
      "type": "function"
    },
    {
      "inputs": [
        {
          "internalType": "uint256",
          "name": "ticketId",
          "type": "uint256"
        }
      ],
      "name": "test_requestRandomNumber",
      "outputs": [
        {
          "internalType": "uint256",
          "name": "",
          "type": "uint256"
        }
      ],
      "stateMutability": "nonpayable",
      "type": "function"
    },
    {
      "inputs": [
        {
          "internalType": "address",
          "name": "recipient",
          "type": "address"
        },
        {
          "internalType": "uint256",
          "name": "amount",
          "type": "uint256"
        }
      ],
      "name": "test_sendReward",
      "outputs": [],
      "stateMutability": "nonpayable",
      "type": "function"
    },
    {
      "inputs": [
        {
          "internalType": "uint256",
          "name": "ticketId",
          "type": "uint256"
        },
        {
          "internalType": "uint256[5]",
          "name": "combination",
          "type": "uint256[5]"
        }
      ],
      "name": "test_setWinningCombination",
      "outputs": [],
      "stateMutability": "nonpayable",
      "type": "function"
    },
    {
      "inputs": [
        {
          "internalType": "uint256",
          "name": "",
          "type": "uint256"
        }
      ],
      "name": "tickets",
      "outputs": [
        {
          "internalType": "uint256",
          "name": "id",
          "type": "uint256"
        },
        {
          "internalType": "address",
          "name": "owner",
          "type": "address"
        },
        {
          "internalType": "uint256",
          "name": "purchaseTimestamp",
          "type": "uint256"
        },
        {
          "internalType": "uint8",
          "name": "matchingNumbers",
          "type": "uint8"
        },
        {
          "internalType": "uint256",
          "name": "potentialReward",
          "type": "uint256"
        },
        {
          "internalType": "uint256",
          "name": "actualReward",
          "type": "uint256"
        },
        {
          "internalType": "bool",
          "name": "isRewardClaimed",
          "type": "bool"
        },
        {
          "internalType": "bool",
          "name": "playerCombinationSubmitted",
          "type": "bool"
        },
        {
          "internalType": "bool",
          "name": "winningCombinationGenerated",
          "type": "bool"
        },
        {
          "internalType": "bool",
          "name": "randomNumberRequested",
          "type": "bool"
        }
      ],
      "stateMutability": "view",
      "type": "function"
    },
    {
      "inputs": [
        {
          "internalType": "address",
          "name": "to",
          "type": "address"
        }
      ],
      "name": "transferOwnership",
      "outputs": [],
      "stateMutability": "nonpayable",
      "type": "function"
    },
    {
      "inputs": [],
      "name": "withdrawJackpot",
      "outputs": [],
      "stateMutability": "nonpayable",
      "type": "function"
    },
    {
      "inputs": [],
      "name": "withdrawOperationsBalance",
      "outputs": [],
      "stateMutability": "nonpayable",
      "type": "function"
    },
    {
      "inputs": [],
      "name": "withdrawOwnerBalance",
      "outputs": [],
      "stateMutability": "nonpayable",
      "type": "function"
    },
    {
      "stateMutability": "payable",
      "type": "receive"
    }
  ],
  "bytecode": "0x60e0604052600160185534801561001557600080fd5b506040516160e43803806160e48339818101604052810190610037919061041d565b81338060008073ffffffffffffffffffffffffffffffffffffffff168273ffffffffffffffffffffffffffffffffffffffff16036100aa576040517f08c379a00000000000000000000000000000000000000000000000000000000081526004016100a1906104ba565b60405180910390fd5b816000806101000a81548173ffffffffffffffffffffffffffffffffffffffff021916908373ffffffffffffffffffffffffffffffffffffffff160217905550600073ffffffffffffffffffffffffffffffffffffffff168173ffffffffffffffffffffffffffffffffffffffff161461012e5761012d8161025860201b60201c565b5b505050600073ffffffffffffffffffffffffffffffffffffffff168173ffffffffffffffffffffffffffffffffffffffff1603610197576040517fd92e233d00000000000000000000000000000000000000000000000000000000815260040160405180910390fd5b80600260006101000a81548173ffffffffffffffffffffffffffffffffffffffff021916908373ffffffffffffffffffffffffffffffffffffffff1602179055505060016003819055503373ffffffffffffffffffffffffffffffffffffffff1660808173ffffffffffffffffffffffffffffffffffffffff16815250508060a081815250508173ffffffffffffffffffffffffffffffffffffffff1660c08173ffffffffffffffffffffffffffffffffffffffff16815250505050610546565b3373ffffffffffffffffffffffffffffffffffffffff168173ffffffffffffffffffffffffffffffffffffffff16036102c6576040517f08c379a00000000000000000000000000000000000000000000000000000000081526004016102bd90610526565b60405180910390fd5b80600160006101000a81548173ffffffffffffffffffffffffffffffffffffffff021916908373ffffffffffffffffffffffffffffffffffffffff1602179055508073ffffffffffffffffffffffffffffffffffffffff1660008054906101000a900473ffffffffffffffffffffffffffffffffffffffff1673ffffffffffffffffffffffffffffffffffffffff167fed8889f560326eb138920d842192f0eb3dd22b4f139c87a2c57538e05bae127860405160405180910390a350565b600080fd5b600073ffffffffffffffffffffffffffffffffffffffff82169050919050565b60006103b482610389565b9050919050565b6103c4816103a9565b81146103cf57600080fd5b50565b6000815190506103e1816103bb565b92915050565b6000819050919050565b6103fa816103e7565b811461040557600080fd5b50565b600081519050610417816103f1565b92915050565b6000806040838503121561043457610433610384565b5b6000610442858286016103d2565b925050602061045385828601610408565b9150509250929050565b600082825260208201905092915050565b7f43616e6e6f7420736574206f776e657220746f207a65726f0000000000000000600082015250565b60006104a460188361045d565b91506104af8261046e565b602082019050919050565b600060208201905081810360008301526104d381610497565b9050919050565b7f43616e6e6f74207472616e7366657220746f2073656c66000000000000000000600082015250565b600061051060178361045d565b915061051b826104da565b602082019050919050565b6000602082019050818103600083015261053f81610503565b9050919050565b60805160a05160c051615b2c6105b8600039600050506000613c04015260008181610bae0152818161175e01528181611ffe015281816120e2015281816121ad01528181612bb001528181612c9401528181612d5f01528181612e4401528181612f280152612ff30152615b2c6000f3fe6080604052600436106102765760003560e01c8063864c407c1161014f578063c081edd8116100c1578063f163915a1161007a578063f163915a1461097d578063f2fde38b146109a8578063f403251d146109d1578063f8ccb9c5146109e8578063f926c5d814610a11578063fdab0b6c14610a3a57610286565b8063c081edd814610861578063c0b3870a14610891578063c3e9bf00146108a8578063d6296f75146108e5578063da8dc67414610922578063edca914c1461095f57610286565b806395e888c41161011357806395e888c41461077057806398fd29fb1461079b5780639eccacf6146107c4578063a32bb20f146107ef578063ae169a501461081a578063ae6b8ea91461084357610286565b8063864c407c1461069d5780638da5cb5b146106da5780638ea98117146107055780639329066c1461072e578063941b80ac1461075957610286565b80634e90d36d116101e857806367f082b0116101ac57806367f082b0146105b15780636b31ee01146105dc57806379ba5097146106075780638284190c1461061e5780638571c4411461064957806385c9d6731461067257610286565b80634e90d36d1461049b57806350b44712146104d8578063590791f21461051e5780635cc6f501146105495780636031a52f1461058657610286565b806327b7aabc1161023a57806327b7aabc1461039d5780632b4c5572146103da57806333d608f1146104035780633aac0fa91461042e5780633cac60e514610459578063442890d51461047057610286565b806301023e2b146102c157806303e96fe3146102ea5780631ade4244146103155780631bd3689b146103495780631fe543e31461037457610286565b366102865761028434610a77565b005b6040517f08c379a00000000000000000000000000000000000000000000000000000000081526004016102b890613f66565b60405180910390fd5b3480156102cd57600080fd5b506102e860048036038101906102e39190614117565b610b51565b005b3480156102f657600080fd5b506102ff610baa565b60405161030c9190614424565b60405180910390f35b34801561032157600080fd5b5061032a610ea9565b6040516103409a99989796959493929190614482565b60405180910390f35b34801561035557600080fd5b5061035e610f4c565b60405161036b9190614618565b60405180910390f35b34801561038057600080fd5b5061039b6004803603810190610396919061468f565b6110f8565b005b3480156103a957600080fd5b506103c460048036038101906103bf91906146ef565b6111be565b6040516103d19190614618565b60405180910390f35b3480156103e657600080fd5b5061040160048036038101906103fc919061468f565b6113f5565b005b34801561040f57600080fd5b50610418611405565b604051610425919061473b565b60405180910390f35b34801561043a57600080fd5b5061044361140c565b6040516104509190614756565b60405180910390f35b34801561046557600080fd5b5061046e611411565b005b34801561047c57600080fd5b5061048561175a565b6040516104929190614771565b60405180910390f35b3480156104a757600080fd5b506104c260048036038101906104bd919061478c565b611782565b6040516104cf9190614756565b60405180910390f35b3480156104e457600080fd5b506104ff60048036038101906104fa91906146ef565b611796565b6040516105159a99989796959493929190614482565b60405180910390f35b34801561052a57600080fd5b5061053361184a565b60405161054091906147cd565b60405180910390f35b34801561055557600080fd5b50610570600480360381019061056b91906146ef565b611854565b60405161057d919061484a565b60405180910390f35b34801561059257600080fd5b5061059b61186c565b6040516105a891906147cd565b60405180910390f35b3480156105bd57600080fd5b506105c6611872565b6040516105d39190614882565b60405180910390f35b3480156105e857600080fd5b506105f1611877565b6040516105fe91906147cd565b60405180910390f35b34801561061357600080fd5b5061061c61187d565b005b34801561062a57600080fd5b50610633611a12565b604051610640919061484a565b60405180910390f35b34801561065557600080fd5b50610670600480360381019061066b91906146ef565b611a60565b005b34801561067e57600080fd5b50610687611ac0565b6040516106949190614424565b60405180910390f35b3480156106a957600080fd5b506106c460048036038101906106bf91906148c9565b611db7565b6040516106d191906147cd565b60405180910390f35b3480156106e657600080fd5b506106ef611de8565b6040516106fc9190614771565b60405180910390f35b34801561071157600080fd5b5061072c60048036038101906107279190614909565b611e11565b005b34801561073a57600080fd5b50610743611ff2565b60405161075091906147cd565b60405180910390f35b34801561076557600080fd5b5061076e611ffc565b005b34801561077c57600080fd5b50610785612212565b6040516107929190614756565b60405180910390f35b3480156107a757600080fd5b506107c260048036038101906107bd91906146ef565b612217565b005b3480156107d057600080fd5b506107d9612223565b6040516107e69190614995565b60405180910390f35b3480156107fb57600080fd5b50610804612249565b60405161081191906147cd565b60405180910390f35b34801561082657600080fd5b50610841600480360381019061083c91906146ef565b612253565b005b61084b612671565b6040516108589190614424565b60405180910390f35b61087b600480360381019061087691906149dc565b612682565b6040516108889190614424565b60405180910390f35b34801561089d57600080fd5b506108a6612bae565b005b3480156108b457600080fd5b506108cf60048036038101906108ca91906146ef565b612dc4565b6040516108dc91906147cd565b60405180910390f35b3480156108f157600080fd5b5061090c600480360381019061090791906146ef565b612ddc565b60405161091991906147cd565b60405180910390f35b34801561092e57600080fd5b50610949600480360381019061094491906149dc565b612e00565b60405161095691906147cd565b60405180910390f35b610967612e12565b6040516109749190614424565b60405180910390f35b34801561098957600080fd5b50610992612e23565b60405161099f91906147cd565b60405180910390f35b3480156109b457600080fd5b506109cf60048036038101906109ca9190614909565b612e2e565b005b3480156109dd57600080fd5b506109e6612e42565b005b3480156109f457600080fd5b50610a0f6004803603810190610a0a91906148c9565b613058565b005b348015610a1d57600080fd5b50610a386004803603810190610a339190614117565b613066565b005b348015610a4657600080fd5b50610a616004803603810190610a5c91906146ef565b613390565b604051610a6e91906147cd565b60405180910390f35b6064605a82610a869190614a38565b610a909190614aa9565b60156000828254610aa19190614ada565b925050819055506064600582610ab79190614a38565b610ac19190614aa9565b60166000828254610ad29190614ada565b925050819055506064600582610ae89190614a38565b610af29190614aa9565b60176000828254610b039190614ada565b92505081905550803373ffffffffffffffffffffffffffffffffffffffff167fc1d32ad5cca423e7dda2123dbf8c482f8e77d00b631c06e903a47f2cec1334df60405160405180910390a350565b8060206000848152602001908152602001600020600801906005610b76929190613db7565b5060016020600084815260200190815260200160002060100160026101000a81548160ff0219169083151502179055505050565b60607f000000000000000000000000000000000000000000000000000000000000000073ffffffffffffffffffffffffffffffffffffffff163373ffffffffffffffffffffffffffffffffffffffff1614610c3a576040517f08c379a0000000000000000000000000000000000000000000000000000000008152600401610c3190614b5a565b60405180910390fd5b6000601980549050905060008167ffffffffffffffff811115610c6057610c5f613fe6565b5b604051908082528060200260200182016040528015610c9957816020015b610c86613df7565b815260200190600190039081610c7e5790505b50905060005b82811015610ea0576020600060198381548110610cbf57610cbe614b7a565b5b9060005260206000200154815260200190815260200160002060405180610180016040529081600082015481526020016001820160009054906101000a900473ffffffffffffffffffffffffffffffffffffffff1673ffffffffffffffffffffffffffffffffffffffff1673ffffffffffffffffffffffffffffffffffffffff1681526020016002820154815260200160038201600580602002604051908101604052809291908260058015610d8a576020028201915b815481526020019060010190808311610d76575b5050505050815260200160088201600580602002604051908101604052809291908260058015610dcf576020028201915b815481526020019060010190808311610dbb575b50505050508152602001600d820160009054906101000a900460ff1660ff1660ff168152602001600e8201548152602001600f82015481526020016010820160009054906101000a900460ff161515151581526020016010820160019054906101000a900460ff161515151581526020016010820160029054906101000a900460ff161515151581526020016010820160039054906101000a900460ff161515151581525050828281518110610e8857610e87614b7a565b5b60200260200101819052508080600101915050610c9f565b50809250505090565b60048060000154908060010160009054906101000a900473ffffffffffffffffffffffffffffffffffffffff169080600201549080600d0160009054906101000a900460ff169080600e01549080600f0154908060100160009054906101000a900460ff16908060100160019054906101000a900460ff16908060100160029054906101000a900460ff16908060100160039054906101000a900460ff1690508a565b610f54613df7565b600460405180610180016040529081600082015481526020016001820160009054906101000a900473ffffffffffffffffffffffffffffffffffffffff1673ffffffffffffffffffffffffffffffffffffffff1673ffffffffffffffffffffffffffffffffffffffff1681526020016002820154815260200160038201600580602002604051908101604052809291908260058015611008576020028201915b815481526020019060010190808311610ff4575b505050505081526020016008820160058060200260405190810160405280929190826005801561104d576020028201915b815481526020019060010190808311611039575b50505050508152602001600d820160009054906101000a900460ff1660ff1660ff168152602001600e8201548152602001600f82015481526020016010820160009054906101000a900460ff161515151581526020016010820160019054906101000a900460ff161515151581526020016010820160029054906101000a900460ff161515151581526020016010820160039054906101000a900460ff161515151581525050905090565b600260009054906101000a900473ffffffffffffffffffffffffffffffffffffffff1673ffffffffffffffffffffffffffffffffffffffff163373ffffffffffffffffffffffffffffffffffffffff16146111ae5733600260009054906101000a900473ffffffffffffffffffffffffffffffffffffffff166040517f1cf993f40000000000000000000000000000000000000000000000000000000081526004016111a5929190614ba9565b60405180910390fd5b6111b98383836133a2565b505050565b6111c6613df7565b60006020600084815260200190815260200160002060405180610180016040529081600082015481526020016001820160009054906101000a900473ffffffffffffffffffffffffffffffffffffffff1673ffffffffffffffffffffffffffffffffffffffff1673ffffffffffffffffffffffffffffffffffffffff168152602001600282015481526020016003820160058060200260405190810160405280929190826005801561128d576020028201915b815481526020019060010190808311611279575b50505050508152602001600882016005806020026040519081016040528092919082600580156112d2576020028201915b8154815260200190600101908083116112be575b50505050508152602001600d820160009054906101000a900460ff1660ff1660ff168152602001600e8201548152602001600f82015481526020016010820160009054906101000a900460ff161515151581526020016010820160019054906101000a900460ff161515151581526020016010820160029054906101000a900460ff161515151581526020016010820160039054906101000a900460ff16151515158152505090503373ffffffffffffffffffffffffffffffffffffffff16816020015173ffffffffffffffffffffffffffffffffffffffff16146113ec576040517f08c379a00000000000000000000000000000000000000000000000000000000081526004016113e390614c1e565b60405180910390fd5b80915050919050565b6114008383836133a2565b505050565b622625a081565b602581565b33600460010160006101000a81548173ffffffffffffffffffffffffffffffffffffffff021916908373ffffffffffffffffffffffffffffffffffffffff16021790555060006018600081548092919061146a90614c3e565b91905055905060006040518061018001604052808381526020013373ffffffffffffffffffffffffffffffffffffffff168152602001428152602001601a6005806020026040519081016040528092919082600580156114df576020028201915b8154815260200190600101908083116114cb575b50505050508152602001601a600580602002604051908101604052809291908260058015611522576020028201915b81548152602001906001019080831161150e575b50505050508152602001600060ff16815260200160008152602001600081526020016000151581526020016000151581526020016000151581526020016000151581525090508060206000836000015181526020019081526020016000206000820151816000015560208201518160010160006101000a81548173ffffffffffffffffffffffffffffffffffffffff021916908373ffffffffffffffffffffffffffffffffffffffff160217905550604082015181600201556060820151816003019060056115f2929190613db7565b5060808201518160080190600561160a929190613db7565b5060a082015181600d0160006101000a81548160ff021916908360ff16021790555060c082015181600e015560e082015181600f01556101008201518160100160006101000a81548160ff0219169083151502179055506101208201518160100160016101000a81548160ff0219169083151502179055506101408201518160100160026101000a81548160ff0219169083151502179055506101608201518160100160036101000a81548160ff021916908315150217905550905050601f60003373ffffffffffffffffffffffffffffffffffffffff1673ffffffffffffffffffffffffffffffffffffffff16815260200190815260200160002082908060018154018082558091505060019003906000526020600020016000909190919091505560198290806001815401808255809150506001900390600052602060002001600090919091909150555050565b60007f0000000000000000000000000000000000000000000000000000000000000000905090565b600061178e8383613576565b905092915050565b602080528060005260406000206000915090508060000154908060010160009054906101000a900473ffffffffffffffffffffffffffffffffffffffff169080600201549080600d0160009054906101000a900460ff169080600e01549080600f0154908060100160009054906101000a900460ff16908060100160019054906101000a900460ff16908060100160029054906101000a900460ff16908060100160039054906101000a900460ff1690508a565b6000601754905090565b61185c613e85565b61186582613671565b9050919050565b60185481565b600381565b60155481565b600160009054906101000a900473ffffffffffffffffffffffffffffffffffffffff1673ffffffffffffffffffffffffffffffffffffffff163373ffffffffffffffffffffffffffffffffffffffff161461190d576040517f08c379a000000000000000000000000000000000000000000000000000000000815260040161190490614cd2565b60405180910390fd5b60008060009054906101000a900473ffffffffffffffffffffffffffffffffffffffff169050336000806101000a81548173ffffffffffffffffffffffffffffffffffffffff021916908373ffffffffffffffffffffffffffffffffffffffff1602179055506000600160006101000a81548173ffffffffffffffffffffffffffffffffffffffff021916908373ffffffffffffffffffffffffffffffffffffffff1602179055503373ffffffffffffffffffffffffffffffffffffffff168173ffffffffffffffffffffffffffffffffffffffff167f8be0079c531659141344cd1fd0a4f28419497f9722a3daafe3b4186f6b6457e060405160405180910390a350565b611a1a613e85565b6004600801600580602002604051908101604052809291908260058015611a56576020028201915b815481526020019060010190808311611a42575b5050505050905090565b8060156000828254611a729190614ada565b92505081905550803373ffffffffffffffffffffffffffffffffffffffff167f670e95b8055d07efacb517c9eaf38144c6d3095de67c4aae5598c7679d71628760405160405180910390a350565b60606000601f60003373ffffffffffffffffffffffffffffffffffffffff1673ffffffffffffffffffffffffffffffffffffffff168152602001908152602001600020805480602002602001604051908101604052809291908181526020018280548015611b4d57602002820191906000526020600020905b815481526020019060010190808311611b39575b505050505090506000815167ffffffffffffffff811115611b7157611b70613fe6565b5b604051908082528060200260200182016040528015611baa57816020015b611b97613df7565b815260200190600190039081611b8f5790505b50905060005b8251811015611dae5760206000848381518110611bd057611bcf614b7a565b5b6020026020010151815260200190815260200160002060405180610180016040529081600082015481526020016001820160009054906101000a900473ffffffffffffffffffffffffffffffffffffffff1673ffffffffffffffffffffffffffffffffffffffff1673ffffffffffffffffffffffffffffffffffffffff1681526020016002820154815260200160038201600580602002604051908101604052809291908260058015611c98576020028201915b815481526020019060010190808311611c84575b5050505050815260200160088201600580602002604051908101604052809291908260058015611cdd576020028201915b815481526020019060010190808311611cc9575b50505050508152602001600d820160009054906101000a900460ff1660ff1660ff168152602001600e8201548152602001600f82015481526020016010820160009054906101000a900460ff161515151581526020016010820160019054906101000a900460ff161515151581526020016010820160029054906101000a900460ff161515151581526020016010820160039054906101000a900460ff161515151581525050828281518110611d9657611d95614b7a565b5b60200260200101819052508080600101915050611bb0565b50809250505090565b601f6020528160005260406000208181548110611dd357600080fd5b90600052602060002001600091509150505481565b60008060009054906101000a900473ffffffffffffffffffffffffffffffffffffffff16905090565b611e19611de8565b73ffffffffffffffffffffffffffffffffffffffff163373ffffffffffffffffffffffffffffffffffffffff1614158015611ea25750600260009054906101000a900473ffffffffffffffffffffffffffffffffffffffff1673ffffffffffffffffffffffffffffffffffffffff163373ffffffffffffffffffffffffffffffffffffffff1614155b15611f115733611eb0611de8565b600260009054906101000a900473ffffffffffffffffffffffffffffffffffffffff166040517f061db9c1000000000000000000000000000000000000000000000000000000008152600401611f0893929190614cf2565b60405180910390fd5b600073ffffffffffffffffffffffffffffffffffffffff168173ffffffffffffffffffffffffffffffffffffffff1603611f77576040517fd92e233d00000000000000000000000000000000000000000000000000000000815260040160405180910390fd5b80600260006101000a81548173ffffffffffffffffffffffffffffffffffffffff021916908373ffffffffffffffffffffffffffffffffffffffff1602179055507fd1a6a14209a385a964d036e404cb5cfb71f4000cdb03c9366292430787261be681604051611fe79190614771565b60405180910390a150565b6000601554905090565b7f000000000000000000000000000000000000000000000000000000000000000073ffffffffffffffffffffffffffffffffffffffff163373ffffffffffffffffffffffffffffffffffffffff161461208a576040517f08c379a000000000000000000000000000000000000000000000000000000000815260040161208190614b5a565b60405180910390fd5b6000601754116120cf576040517f08c379a00000000000000000000000000000000000000000000000000000000081526004016120c690614d75565b60405180910390fd5b60006017549050600060178190555060007f000000000000000000000000000000000000000000000000000000000000000073ffffffffffffffffffffffffffffffffffffffff168260405161212490614dc6565b60006040518083038185875af1925050503d8060008114612161576040519150601f19603f3d011682016040523d82523d6000602084013e612166565b606091505b50509050806121aa576040517f08c379a00000000000000000000000000000000000000000000000000000000081526004016121a190614e27565b60405180910390fd5b817f000000000000000000000000000000000000000000000000000000000000000073ffffffffffffffffffffffffffffffffffffffff167fa711dcbee5590122b88ae65f697adf2f2824e323782fa8df939898d7eb6c1c2b60405160405180910390a35050565b600181565b61222081610a77565b50565b600260009054906101000a900473ffffffffffffffffffffffffffffffffffffffff1681565b6000601654905090565b61225b6137c7565b60006020600083815260200190815260200160002090503373ffffffffffffffffffffffffffffffffffffffff168160010160009054906101000a900473ffffffffffffffffffffffffffffffffffffffff1673ffffffffffffffffffffffffffffffffffffffff1614612304576040517f08c379a00000000000000000000000000000000000000000000000000000000081526004016122fb90614e93565b60405180910390fd5b600073ffffffffffffffffffffffffffffffffffffffff168160010160009054906101000a900473ffffffffffffffffffffffffffffffffffffffff1673ffffffffffffffffffffffffffffffffffffffff1603612397576040517f08c379a000000000000000000000000000000000000000000000000000000000815260040161238e90614eff565b60405180910390fd5b8060100160019054906101000a900460ff166123e8576040517f08c379a00000000000000000000000000000000000000000000000000000000081526004016123df90614f6b565b60405180910390fd5b8060100160029054906101000a900460ff16612439576040517f08c379a000000000000000000000000000000000000000000000000000000000815260040161243090614fd7565b60405180910390fd5b8060100160009054906101000a900460ff161561248b576040517f08c379a000000000000000000000000000000000000000000000000000000000815260040161248290615043565b60405180910390fd5b6000612515826003016005806020026040519081016040528092919082600580156124cb576020028201915b8154815260200190600101908083116124b7575b50505050508360080160058060200260405190810160405280929190826005801561250b576020028201915b8154815260200190600101908083116124f7575b5050505050613576565b9050600061252282613816565b905060008111612567576040517f08c379a000000000000000000000000000000000000000000000000000000000815260040161255e906150af565b60405180910390fd5b600060155482111561257b5760155461257d565b815b905080601554101561259057600061259f565b8060155461259e91906150cf565b5b6015819055508084600f018190555060018460100160006101000a81548160ff0219169083151502179055506125f98460010160009054906101000a900473ffffffffffffffffffffffffffffffffffffffff16826138d3565b80858560010160009054906101000a900473ffffffffffffffffffffffffffffffffffffffff1673ffffffffffffffffffffffffffffffffffffffff167ff01da32686223933d8a18a391060918c7f11a3648639edd87ae013e2e273174360405160405180910390a45050505061266e6139c7565b50565b606061267d600a612682565b905090565b60603373ffffffffffffffffffffffffffffffffffffffff163273ffffffffffffffffffffffffffffffffffffffff16146126f2576040517f08c379a00000000000000000000000000000000000000000000000000000000081526004016126e99061514f565b60405180910390fd5b60008260ff1611612738576040517f08c379a000000000000000000000000000000000000000000000000000000000815260040161272f906151bb565b60405180910390fd5b60008260ff1666038d7ea4c680006127509190614a38565b9050600a8360ff160361277457600966038d7ea4c680006127719190614a38565b90505b8034146127b6576040517f08c379a00000000000000000000000000000000000000000000000000000000081526004016127ad90615227565b60405180910390fd5b60008360ff1667ffffffffffffffff8111156127d5576127d4613fe6565b5b60405190808252806020026020018201604052801561280e57816020015b6127fb613df7565b8152602001906001900390816127f35790505b50905060005b8460ff168160ff161015612b9a57600060405180610180016040528060185481526020013373ffffffffffffffffffffffffffffffffffffffff168152602001428152602001601a600580602002604051908101604052809291908260058015612893576020028201915b81548152602001906001019080831161287f575b50505050508152602001601a6005806020026040519081016040528092919082600580156128d6576020028201915b8154815260200190600101908083116128c2575b50505050508152602001600060ff1681526020016000815260200160008152602001600015158152602001600015158152602001600015158152602001600015158152509050806020600060185481526020019081526020016000206000820151816000015560208201518160010160006101000a81548173ffffffffffffffffffffffffffffffffffffffff021916908373ffffffffffffffffffffffffffffffffffffffff160217905550604082015181600201556060820151816003019060056129a4929190613db7565b506080820151816008019060056129bc929190613db7565b5060a082015181600d0160006101000a81548160ff021916908360ff16021790555060c082015181600e015560e082015181600f01556101008201518160100160006101000a81548160ff0219169083151502179055506101208201518160100160016101000a81548160ff0219169083151502179055506101408201518160100160026101000a81548160ff0219169083151502179055506101608201518160100160036101000a81548160ff021916908315150217905550905050601f60003373ffffffffffffffffffffffffffffffffffffffff1673ffffffffffffffffffffffffffffffffffffffff16815260200190815260200160002060185490806001815401808255809150506001900390600052602060002001600090919091909150556019601854908060018154018082558091505060019003906000526020600020016000909190919091505580838360ff1681518110612b2357612b22614b7a565b5b60200260200101819052506018543373ffffffffffffffffffffffffffffffffffffffff167f0668f5b446eb814fe35b3206f43f14bd8567ba04ddaf7a3ee56516929ab22ccb60405160405180910390a360186000815480929190612b8790614c3e565b9190505550508080600101915050612814565b50612ba434610a77565b8092505050919050565b7f000000000000000000000000000000000000000000000000000000000000000073ffffffffffffffffffffffffffffffffffffffff163373ffffffffffffffffffffffffffffffffffffffff1614612c3c576040517f08c379a0000000000000000000000000000000000000000000000000000000008152600401612c3390614b5a565b60405180910390fd5b600060155411612c81576040517f08c379a0000000000000000000000000000000000000000000000000000000008152600401612c7890614d75565b60405180910390fd5b60006015549050600060158190555060007f000000000000000000000000000000000000000000000000000000000000000073ffffffffffffffffffffffffffffffffffffffff1682604051612cd690614dc6565b60006040518083038185875af1925050503d8060008114612d13576040519150601f19603f3d011682016040523d82523d6000602084013e612d18565b606091505b5050905080612d5c576040517f08c379a0000000000000000000000000000000000000000000000000000000008152600401612d5390615293565b60405180910390fd5b817f000000000000000000000000000000000000000000000000000000000000000073ffffffffffffffffffffffffffffffffffffffff167fff984e4ec57c8aefc4fbea6499d5cb891883e5c1589aba926f8da3f675f0ee2f60405160405180910390a35050565b60216020528060005260406000206000915090505481565b60198181548110612dec57600080fd5b906000526020600020016000915090505481565b6000612e0b82613816565b9050919050565b6060612e1e6001612682565b905090565b66038d7ea4c6800081565b612e366139d1565b612e3f81613a61565b50565b7f000000000000000000000000000000000000000000000000000000000000000073ffffffffffffffffffffffffffffffffffffffff163373ffffffffffffffffffffffffffffffffffffffff1614612ed0576040517f08c379a0000000000000000000000000000000000000000000000000000000008152600401612ec790614b5a565b60405180910390fd5b600060165411612f15576040517f08c379a0000000000000000000000000000000000000000000000000000000008152600401612f0c90614d75565b60405180910390fd5b60006016549050600060168190555060007f000000000000000000000000000000000000000000000000000000000000000073ffffffffffffffffffffffffffffffffffffffff1682604051612f6a90614dc6565b60006040518083038185875af1925050503d8060008114612fa7576040519150601f19603f3d011682016040523d82523d6000602084013e612fac565b606091505b5050905080612ff0576040517f08c379a0000000000000000000000000000000000000000000000000000000008152600401612fe790615325565b60405180910390fd5b817f000000000000000000000000000000000000000000000000000000000000000073ffffffffffffffffffffffffffffffffffffffff167fa760777eb358393d33a518ec33e1187940af7f3cbffb09c53db5ee4b7e7e402560405160405180910390a35050565b61306282826138d3565b5050565b60006020600084815260200190815260200160002090503373ffffffffffffffffffffffffffffffffffffffff168160010160009054906101000a900473ffffffffffffffffffffffffffffffffffffffff1673ffffffffffffffffffffffffffffffffffffffff161461310f576040517f08c379a000000000000000000000000000000000000000000000000000000000815260040161310690615391565b60405180910390fd5b8060100160019054906101000a900460ff1615613161576040517f08c379a0000000000000000000000000000000000000000000000000000000008152600401613158906153fd565b60405180910390fd5b60005b600581101561329257600083826005811061318257613181614b7a565b5b6020020151101580156131ad575060248382600581106131a5576131a4614b7a565b5b602002015111155b6131ec576040517f08c379a00000000000000000000000000000000000000000000000000000000081526004016131e390615469565b60405180910390fd5b60006001826131fb9190614ada565b90505b60058110156132845783816005811061321a57613219614b7a565b5b602002015184836005811061323257613231614b7a565b5b602002015103613277576040517f08c379a000000000000000000000000000000000000000000000000000000000815260040161326e906154d5565b60405180910390fd5b80806001019150506131fe565b508080600101915050613164565b5081816003019060056132a6929190613db7565b5060018160100160016101000a81548160ff0219169083151502179055503373ffffffffffffffffffffffffffffffffffffffff167f26aa7c18051e08a0cf3f3b6f17d2953735d99eab33c5d55efdf08ef510de455e8360405161330a919061484a565b60405180910390a28060100160039054906101000a900460ff1615613364576040517f08c379a000000000000000000000000000000000000000000000000000000000815260040161335b90615541565b60405180910390fd5b60018160100160036101000a81548160ff02191690831515021790555061338a83613b8d565b50505050565b600061339b82613b8d565b9050919050565b60006021600085815260200190815260200160002054905060006020600083815260200190815260200160002090508060100160029054906101000a900460ff1615613423576040517f08c379a000000000000000000000000000000000000000000000000000000000815260040161341a906155ad565b60405180910390fd5b60008484600081811061343957613438614b7a565b5b90506020020135905060018260100160026101000a81548160ff02191690831515021790555061346881613671565b8260080190600561347a929190613db7565b50613503826003016005806020026040519081016040528092919082600580156134b9576020028201915b8154815260200190600101908083116134a5575b5050505050836008016005806020026040519081016040528092919082600580156134f9576020028201915b8154815260200190600101908083116134e5575b5050505050613576565b82600d0160006101000a81548160ff021916908360ff16021790555061353982600d0160009054906101000a900460ff16613816565b82600e0181905550827facb85192b17e57cdd6ffdc2af021cc70c3a2269771b37b82dd36695fec903af560405160405180910390a2505050505050565b60008060009050613585613ea7565b60005b60058160ff1610156136655760005b60058160ff16101561365157828160ff16600581106135b9576135b8614b7a565b5b60200201511580156135fe5750858160ff16600581106135dc576135db614b7a565b5b6020020151878360ff16600581106135f7576135f6614b7a565b5b6020020151145b1561363e5760018461361091906155cd565b93506001838260ff166005811061362a57613629614b7a565b5b602002019015159081151581525050613651565b808061364990615602565b915050613597565b50808061365d90615602565b915050613588565b50819250505092915050565b613679613e85565b613681613ec9565b613689613e85565b6000808560405160200161369d91906147cd565b60405160208183030381529060405280519060200120905060005b60058310156137ba5760208160ff16106136fc5781816040516020016136df929190615644565b604051602081830303815290604052805190602001209150600090505b60006025838360ff166020811061371657613715614b7a565b5b1a60f81b60f81c613727919061566d565b9050818061373490615602565b9250506000868260ff166025811061374f5761374e614b7a565b5b602002015160ff16036137b4576001868260ff166025811061377457613773614b7a565b5b602002019060ff16908160ff16815250508060ff1685856005811061379c5761379b614b7a565b5b60200201818152505083806137b090614c3e565b9450505b506136b8565b8395505050505050919050565b60026003540361380c576040517f08c379a0000000000000000000000000000000000000000000000000000000008152600401613803906156ea565b60405180910390fd5b6002600381905550565b600060058260ff16111561385f576040517f08c379a000000000000000000000000000000000000000000000000000000000815260040161385690615756565b60405180910390fd5b60006040518060c001604052806000815260200166027ca57357c000815260200166044364c5bb00008152602001662386f26fc10000815260200167016345785d8a000081526020016015548152509050808360ff16600681106138c6576138c5614b7a565b5b6020020151915050919050565b60008111613916576040517f08c379a000000000000000000000000000000000000000000000000000000000815260040161390d906157c2565b60405180910390fd5b60008273ffffffffffffffffffffffffffffffffffffffff168260405161393c90614dc6565b60006040518083038185875af1925050503d8060008114613979576040519150601f19603f3d011682016040523d82523d6000602084013e61397e565b606091505b50509050806139c2576040517f08c379a00000000000000000000000000000000000000000000000000000000081526004016139b99061582e565b60405180910390fd5b505050565b6001600381905550565b60008054906101000a900473ffffffffffffffffffffffffffffffffffffffff1673ffffffffffffffffffffffffffffffffffffffff163373ffffffffffffffffffffffffffffffffffffffff1614613a5f576040517f08c379a0000000000000000000000000000000000000000000000000000000008152600401613a569061589a565b60405180910390fd5b565b3373ffffffffffffffffffffffffffffffffffffffff168173ffffffffffffffffffffffffffffffffffffffff1603613acf576040517f08c379a0000000000000000000000000000000000000000000000000000000008152600401613ac690615906565b60405180910390fd5b80600160006101000a81548173ffffffffffffffffffffffffffffffffffffffff021916908373ffffffffffffffffffffffffffffffffffffffff1602179055508073ffffffffffffffffffffffffffffffffffffffff1660008054906101000a900473ffffffffffffffffffffffffffffffffffffffff1673ffffffffffffffffffffffffffffffffffffffff167fed8889f560326eb138920d842192f0eb3dd22b4f139c87a2c57538e05bae127860405160405180910390a350565b600080600260009054906101000a900473ffffffffffffffffffffffffffffffffffffffff1673ffffffffffffffffffffffffffffffffffffffff16639b1c385e6040518060c001604052807f787d74caea10b2b357790d5b5247c2f63d1d91572a9846f780606e4d953677ae60001b81526020017f00000000000000000000000000000000000000000000000000000000000000008152602001600361ffff168152602001622625a063ffffffff168152602001600160ff1663ffffffff168152602001613c6c604051806020016040528060001515815250613d1f565b8152506040518263ffffffff1660e01b8152600401613c8b9190615a5b565b6020604051808303816000875af1158015613caa573d6000803e3d6000fd5b505050506040513d601f19601f82011682018060405250810190613cce9190615a92565b905082602160008381526020019081526020016000208190555082817fc904ef81354df41ed9256aa2ab862017f6ab3f33f3f7ca50016a1786083d086d60405160405180910390a380915050919050565b60607f92fd13387c7fe7befbc38d303d6468778fb9731bc4583f17d92989c6fcfdeaaa82604051602401613d539190615adb565b604051602081830303815290604052907bffffffffffffffffffffffffffffffffffffffffffffffffffffffff19166020820180517bffffffffffffffffffffffffffffffffffffffffffffffffffffffff83818316178352505050509050919050565b8260058101928215613de6579160200282015b82811115613de5578251825591602001919060010190613dca565b5b509050613df39190613eec565b5090565b60405180610180016040528060008152602001600073ffffffffffffffffffffffffffffffffffffffff16815260200160008152602001613e36613e85565b8152602001613e43613e85565b8152602001600060ff16815260200160008152602001600081526020016000151581526020016000151581526020016000151581526020016000151581525090565b6040518060a00160405280600590602082028036833780820191505090505090565b6040518060a00160405280600590602082028036833780820191505090505090565b604051806104a00160405280602590602082028036833780820191505090505090565b5b80821115613f05576000816000905550600101613eed565b5090565b600082825260208201905092915050565b7f496e76616c69642063616c6c0000000000000000000000000000000000000000600082015250565b6000613f50600c83613f09565b9150613f5b82613f1a565b602082019050919050565b60006020820190508181036000830152613f7f81613f43565b9050919050565b6000604051905090565b600080fd5b600080fd5b6000819050919050565b613fad81613f9a565b8114613fb857600080fd5b50565b600081359050613fca81613fa4565b92915050565b600080fd5b6000601f19601f8301169050919050565b7f4e487b7100000000000000000000000000000000000000000000000000000000600052604160045260246000fd5b61401e82613fd5565b810181811067ffffffffffffffff8211171561403d5761403c613fe6565b5b80604052505050565b6000614050613f86565b905061405c8282614015565b919050565b600067ffffffffffffffff82111561407c5761407b613fe6565b5b602082029050919050565b600080fd5b600061409f61409a84614061565b614046565b905080602084028301858111156140b9576140b8614087565b5b835b818110156140e257806140ce8882613fbb565b8452602084019350506020810190506140bb565b5050509392505050565b600082601f83011261410157614100613fd0565b5b600561410e84828561408c565b91505092915050565b60008060c0838503121561412e5761412d613f90565b5b600061413c85828601613fbb565b925050602061414d858286016140ec565b9150509250929050565b600081519050919050565b600082825260208201905092915050565b6000819050602082019050919050565b61418c81613f9a565b82525050565b600073ffffffffffffffffffffffffffffffffffffffff82169050919050565b60006141bd82614192565b9050919050565b6141cd816141b2565b82525050565b600060059050919050565b600081905092915050565b6000819050919050565b60006141ff8383614183565b60208301905092915050565b6000602082019050919050565b614221816141d3565b61422b81846141de565b9250614236826141e9565b8060005b8381101561426757815161424e87826141f3565b96506142598361420b565b92505060018101905061423a565b505050505050565b600060ff82169050919050565b6142858161426f565b82525050565b60008115159050919050565b6142a08161428b565b82525050565b610280820160008201516142bd6000850182614183565b5060208201516142d060208501826141c4565b5060408201516142e36040850182614183565b5060608201516142f66060850182614218565b50608082015161430a610100850182614218565b5060a082015161431e6101a085018261427c565b5060c08201516143326101c0850182614183565b5060e08201516143466101e0850182614183565b5061010082015161435b610200850182614297565b50610120820151614370610220850182614297565b50610140820151614385610240850182614297565b5061016082015161439a610260850182614297565b50505050565b60006143ac83836142a6565b6102808301905092915050565b6000602082019050919050565b60006143d182614157565b6143db8185614162565b93506143e683614173565b8060005b838110156144175781516143fe88826143a0565b9750614409836143b9565b9250506001810190506143ea565b5085935050505092915050565b6000602082019050818103600083015261443e81846143c6565b905092915050565b61444f81613f9a565b82525050565b61445e816141b2565b82525050565b61446d8161426f565b82525050565b61447c8161428b565b82525050565b600061014082019050614498600083018d614446565b6144a5602083018c614455565b6144b2604083018b614446565b6144bf606083018a614464565b6144cc6080830189614446565b6144d960a0830188614446565b6144e660c0830187614473565b6144f360e0830186614473565b614501610100830185614473565b61450f610120830184614473565b9b9a5050505050505050505050565b610280820160008201516145356000850182614183565b50602082015161454860208501826141c4565b50604082015161455b6040850182614183565b50606082015161456e6060850182614218565b506080820151614582610100850182614218565b5060a08201516145966101a085018261427c565b5060c08201516145aa6101c0850182614183565b5060e08201516145be6101e0850182614183565b506101008201516145d3610200850182614297565b506101208201516145e8610220850182614297565b506101408201516145fd610240850182614297565b50610160820151614612610260850182614297565b50505050565b60006102808201905061462e600083018461451e565b92915050565b600080fd5b60008083601f84011261464f5761464e613fd0565b5b8235905067ffffffffffffffff81111561466c5761466b614634565b5b60208301915083602082028301111561468857614687614087565b5b9250929050565b6000806000604084860312156146a8576146a7613f90565b5b60006146b686828701613fbb565b935050602084013567ffffffffffffffff8111156146d7576146d6613f95565b5b6146e386828701614639565b92509250509250925092565b60006020828403121561470557614704613f90565b5b600061471384828501613fbb565b91505092915050565b600063ffffffff82169050919050565b6147358161471c565b82525050565b6000602082019050614750600083018461472c565b92915050565b600060208201905061476b6000830184614464565b92915050565b60006020820190506147866000830184614455565b92915050565b60008061014083850312156147a4576147a3613f90565b5b60006147b2858286016140ec565b92505060a06147c3858286016140ec565b9150509250929050565b60006020820190506147e26000830184614446565b92915050565b600081905092915050565b6147fc816141d3565b61480681846147e8565b9250614811826141e9565b8060005b8381101561484257815161482987826141f3565b96506148348361420b565b925050600181019050614815565b505050505050565b600060a08201905061485f60008301846147f3565b92915050565b600061ffff82169050919050565b61487c81614865565b82525050565b60006020820190506148976000830184614873565b92915050565b6148a6816141b2565b81146148b157600080fd5b50565b6000813590506148c38161489d565b92915050565b600080604083850312156148e0576148df613f90565b5b60006148ee858286016148b4565b92505060206148ff85828601613fbb565b9150509250929050565b60006020828403121561491f5761491e613f90565b5b600061492d848285016148b4565b91505092915050565b6000819050919050565b600061495b61495661495184614192565b614936565b614192565b9050919050565b600061496d82614940565b9050919050565b600061497f82614962565b9050919050565b61498f81614974565b82525050565b60006020820190506149aa6000830184614986565b92915050565b6149b98161426f565b81146149c457600080fd5b50565b6000813590506149d6816149b0565b92915050565b6000602082840312156149f2576149f1613f90565b5b6000614a00848285016149c7565b91505092915050565b7f4e487b7100000000000000000000000000000000000000000000000000000000600052601160045260246000fd5b6000614a4382613f9a565b9150614a4e83613f9a565b9250828202614a5c81613f9a565b91508282048414831517614a7357614a72614a09565b5b5092915050565b7f4e487b7100000000000000000000000000000000000000000000000000000000600052601260045260246000fd5b6000614ab482613f9a565b9150614abf83613f9a565b925082614acf57614ace614a7a565b5b828204905092915050565b6000614ae582613f9a565b9150614af083613f9a565b9250828201905080821115614b0857614b07614a09565b5b92915050565b7f4f6e6c7920666f72206f776e6572000000000000000000000000000000000000600082015250565b6000614b44600e83613f09565b9150614b4f82614b0e565b602082019050919050565b60006020820190508181036000830152614b7381614b37565b9050919050565b7f4e487b7100000000000000000000000000000000000000000000000000000000600052603260045260246000fd5b6000604082019050614bbe6000830185614455565b614bcb6020830184614455565b9392505050565b7f596f7520617265206e6f7420746865207469636b6574206f776e657200000000600082015250565b6000614c08601c83613f09565b9150614c1382614bd2565b602082019050919050565b60006020820190508181036000830152614c3781614bfb565b9050919050565b6000614c4982613f9a565b91507fffffffffffffffffffffffffffffffffffffffffffffffffffffffffffffffff8203614c7b57614c7a614a09565b5b600182019050919050565b7f4d7573742062652070726f706f736564206f776e657200000000000000000000600082015250565b6000614cbc601683613f09565b9150614cc782614c86565b602082019050919050565b60006020820190508181036000830152614ceb81614caf565b9050919050565b6000606082019050614d076000830186614455565b614d146020830185614455565b614d216040830184614455565b949350505050565b7f4e6f7468696e6720746f20776974686472617700000000000000000000000000600082015250565b6000614d5f601383613f09565b9150614d6a82614d29565b602082019050919050565b60006020820190508181036000830152614d8e81614d52565b9050919050565b600081905092915050565b50565b6000614db0600083614d95565b9150614dbb82614da0565b600082019050919050565b6000614dd182614da3565b9150819050919050565b7f4f776e657242616c616e6365207769746864726177616c206661696c65640000600082015250565b6000614e11601e83613f09565b9150614e1c82614ddb565b602082019050919050565b60006020820190508181036000830152614e4081614e04565b9050919050565b7f4f6e6c79207469636b6574206f776e65722063616e20636c61696d0000000000600082015250565b6000614e7d601b83613f09565b9150614e8882614e47565b602082019050919050565b60006020820190508181036000830152614eac81614e70565b9050919050565b7f5469636b657420646f6573206e6f742065786973740000000000000000000000600082015250565b6000614ee9601583613f09565b9150614ef482614eb3565b602082019050919050565b60006020820190508181036000830152614f1881614edc565b9050919050565b7f436f6d62696e6174696f6e206e6f74207375626d697474656400000000000000600082015250565b6000614f55601983613f09565b9150614f6082614f1f565b602082019050919050565b60006020820190508181036000830152614f8481614f48565b9050919050565b7f57696e6e696e67206e6f742067656e6572617465640000000000000000000000600082015250565b6000614fc1601583613f09565b9150614fcc82614f8b565b602082019050919050565b60006020820190508181036000830152614ff081614fb4565b9050919050565b7f52657761726420616c726561647920636c61696d656400000000000000000000600082015250565b600061502d601683613f09565b915061503882614ff7565b602082019050919050565b6000602082019050818103600083015261505c81615020565b9050919050565b7f4e6f2072657761726420746f20636c61696d0000000000000000000000000000600082015250565b6000615099601283613f09565b91506150a482615063565b602082019050919050565b600060208201905081810360008301526150c88161508c565b9050919050565b60006150da82613f9a565b91506150e583613f9a565b92508282039050818111156150fd576150fc614a09565b5b92915050565b7f4f6e6c79207265616c20706c6179657273210000000000000000000000000000600082015250565b6000615139601283613f09565b915061514482615103565b602082019050919050565b600060208201905081810360008301526151688161512c565b9050919050565b7f4d75737420627579206174206c65617374206f6e65207469636b657400000000600082015250565b60006151a5601c83613f09565b91506151b08261516f565b602082019050919050565b600060208201905081810360008301526151d481615198565b9050919050565b7f496e636f7272656374207472616e73616374696f6e2076616c75652100000000600082015250565b6000615211601c83613f09565b915061521c826151db565b602082019050919050565b6000602082019050818103600083015261524081615204565b9050919050565b7f4a61636b706f74207769746864726177616c206661696c656400000000000000600082015250565b600061527d601983613f09565b915061528882615247565b602082019050919050565b600060208201905081810360008301526152ac81615270565b9050919050565b7f4f7065726174696f6e7342616c616e6365207769746864726177616c2066616960008201527f6c65640000000000000000000000000000000000000000000000000000000000602082015250565b600061530f602383613f09565b915061531a826152b3565b604082019050919050565b6000602082019050818103600083015261533e81615302565b9050919050565b7f596f7520617265206e6f7420746865206f776e65720000000000000000000000600082015250565b600061537b601583613f09565b915061538682615345565b602082019050919050565b600060208201905081810360008301526153aa8161536e565b9050919050565b7f416c7265616479207375626d6974746564000000000000000000000000000000600082015250565b60006153e7601183613f09565b91506153f2826153b1565b602082019050919050565b60006020820190508181036000830152615416816153da565b9050919050565b7f4e756d626572206f7574206f662072616e67652028302d333629000000000000600082015250565b6000615453601a83613f09565b915061545e8261541d565b602082019050919050565b6000602082019050818103600083015261548281615446565b9050919050565b7f4475706c6963617465206e756d62657273206e6f7420616c6c6f776564000000600082015250565b60006154bf601d83613f09565b91506154ca82615489565b602082019050919050565b600060208201905081810360008301526154ee816154b2565b9050919050565b7f416c726561647920726571756573746564000000000000000000000000000000600082015250565b600061552b601183613f09565b9150615536826154f5565b602082019050919050565b6000602082019050818103600083015261555a8161551e565b9050919050565b7f416c72656164792067656e657261746564000000000000000000000000000000600082015250565b6000615597601183613f09565b91506155a282615561565b602082019050919050565b600060208201905081810360008301526155c68161558a565b9050919050565b60006155d88261426f565b91506155e38361426f565b9250828201905060ff8111156155fc576155fb614a09565b5b92915050565b600061560d8261426f565b915060ff82036156205761561f614a09565b5b600182019050919050565b6000819050919050565b61563e8161562b565b82525050565b60006040820190506156596000830185615635565b6156666020830184614464565b9392505050565b60006156788261426f565b91506156838361426f565b92508261569357615692614a7a565b5b828206905092915050565b7f5265656e7472616e637947756172643a207265656e7472616e742063616c6c00600082015250565b60006156d4601f83613f09565b91506156df8261569e565b602082019050919050565b60006020820190508181036000830152615703816156c7565b9050919050565b7f556e6578706563746564206d61746368696e67206e756d62657220636f756e74600082015250565b6000615740602083613f09565b915061574b8261570a565b602082019050919050565b6000602082019050818103600083015261576f81615733565b9050919050565b7f4e6f2072657761726420746f2073656e64000000000000000000000000000000600082015250565b60006157ac601183613f09565b91506157b782615776565b602082019050919050565b600060208201905081810360008301526157db8161579f565b9050919050565b7f526577617264207472616e73666572206661696c656400000000000000000000600082015250565b6000615818601683613f09565b9150615823826157e2565b602082019050919050565b600060208201905081810360008301526158478161580b565b9050919050565b7f4f6e6c792063616c6c61626c65206279206f776e657200000000000000000000600082015250565b6000615884601683613f09565b915061588f8261584e565b602082019050919050565b600060208201905081810360008301526158b381615877565b9050919050565b7f43616e6e6f74207472616e7366657220746f2073656c66000000000000000000600082015250565b60006158f0601783613f09565b91506158fb826158ba565b602082019050919050565b6000602082019050818103600083015261591f816158e3565b9050919050565b61592f8161562b565b82525050565b61593e81614865565b82525050565b61594d8161471c565b82525050565b600081519050919050565b600082825260208201905092915050565b60005b8381101561598d578082015181840152602081019050615972565b60008484015250505050565b60006159a482615953565b6159ae818561595e565b93506159be81856020860161596f565b6159c781613fd5565b840191505092915050565b600060c0830160008301516159ea6000860182615926565b5060208301516159fd6020860182614183565b506040830151615a106040860182615935565b506060830151615a236060860182615944565b506080830151615a366080860182615944565b5060a083015184820360a0860152615a4e8282615999565b9150508091505092915050565b60006020820190508181036000830152615a7581846159d2565b905092915050565b600081519050615a8c81613fa4565b92915050565b600060208284031215615aa857615aa7613f90565b5b6000615ab684828501615a7d565b91505092915050565b602082016000820151615ad56000850182614297565b50505050565b6000602082019050615af06000830184615abf565b9291505056fea2646970667358221220c16be998e86612073bca4b1683f69aee56e32b50a428de6bd54067f804f4b09264736f6c634300081c0033",
  "linkReferences": {},
  "deployedLinkReferences": {}
}