{
  "_format": "hh-sol-artifact-1",
  "contractName": "LotteryTest",
  "sourceName": "contracts/LotteryTest.sol",
  "abi": [
    {
      "inputs": [
        {
          "internalType": "address",
          "name": "_vrfCoordinator",
          "type": "address"
        },
        {
          "internalType": "uint256",
          "name": "_subscriptionId",
          "type": "uint256"
        }
      ],
      "stateMutability": "nonpayable",
      "type": "constructor"
    },
    {
      "inputs": [
        {
          "internalType": "address",
          "name": "have",
          "type": "address"
        },
        {
          "internalType": "address",
          "name": "want",
          "type": "address"
        }
      ],
      "name": "OnlyCoordinatorCanFulfill",
      "type": "error"
    },
    {
      "inputs": [
        {
          "internalType": "address",
          "name": "have",
          "type": "address"
        },
        {
          "internalType": "address",
          "name": "owner",
          "type": "address"
        },
        {
          "internalType": "address",
          "name": "coordinator",
          "type": "address"
        }
      ],
      "name": "OnlyOwnerOrCoordinator",
      "type": "error"
    },
    {
      "inputs": [],
      "name": "ZeroAddress",
      "type": "error"
    },
    {
      "anonymous": false,
      "inputs": [
        {
          "indexed": false,
          "internalType": "address",
          "name": "vrfCoordinator",
          "type": "address"
        }
      ],
      "name": "CoordinatorSet",
      "type": "event"
    },
    {
      "anonymous": false,
      "inputs": [
        {
          "indexed": true,
          "internalType": "address",
          "name": "owner",
          "type": "address"
        },
        {
          "indexed": true,
          "internalType": "uint256",
          "name": "amount",
          "type": "uint256"
        }
      ],
      "name": "Distribute",
      "type": "event"
    },
    {
      "anonymous": false,
      "inputs": [
        {
          "indexed": true,
          "internalType": "address",
          "name": "sender",
          "type": "address"
        },
        {
          "indexed": true,
          "internalType": "uint256",
          "name": "amount",
          "type": "uint256"
        }
      ],
      "name": "FundJackpot",
      "type": "event"
    },
    {
      "anonymous": false,
      "inputs": [
        {
          "indexed": true,
          "internalType": "address",
          "name": "owner",
          "type": "address"
        },
        {
          "indexed": true,
          "internalType": "uint256",
          "name": "amount",
          "type": "uint256"
        }
      ],
      "name": "JackpotWithdraw",
      "type": "event"
    },
    {
      "anonymous": false,
      "inputs": [
        {
          "indexed": true,
          "internalType": "address",
          "name": "owner",
          "type": "address"
        },
        {
          "indexed": true,
          "internalType": "uint256",
          "name": "ticketNumber",
          "type": "uint256"
        },
        {
          "indexed": false,
          "internalType": "uint256[5]",
          "name": "playerCombination",
          "type": "uint256[5]"
        },
        {
          "indexed": false,
          "internalType": "uint256[5]",
          "name": "winningCombination",
          "type": "uint256[5]"
        },
        {
          "indexed": false,
          "internalType": "uint8",
          "name": "matchingNumbers",
          "type": "uint8"
        },
        {
          "indexed": true,
          "internalType": "uint256",
          "name": "rewardAmount",
          "type": "uint256"
        }
      ],
      "name": "LotteryResults",
      "type": "event"
    },
    {
      "anonymous": false,
      "inputs": [
        {
          "indexed": true,
          "internalType": "address",
          "name": "owner",
          "type": "address"
        },
        {
          "indexed": true,
          "internalType": "uint256",
          "name": "amount",
          "type": "uint256"
        }
      ],
      "name": "OperationsBalanceWithdraw",
      "type": "event"
    },
    {
      "anonymous": false,
      "inputs": [
        {
          "indexed": true,
          "internalType": "address",
          "name": "owner",
          "type": "address"
        },
        {
          "indexed": true,
          "internalType": "uint256",
          "name": "amount",
          "type": "uint256"
        }
      ],
      "name": "OwnerBalanceWithdraw",
      "type": "event"
    },
    {
      "anonymous": false,
      "inputs": [
        {
          "indexed": true,
          "internalType": "address",
          "name": "from",
          "type": "address"
        },
        {
          "indexed": true,
          "internalType": "address",
          "name": "to",
          "type": "address"
        }
      ],
      "name": "OwnershipTransferRequested",
      "type": "event"
    },
    {
      "anonymous": false,
      "inputs": [
        {
          "indexed": true,
          "internalType": "address",
          "name": "from",
          "type": "address"
        },
        {
          "indexed": true,
          "internalType": "address",
          "name": "to",
          "type": "address"
        }
      ],
      "name": "OwnershipTransferred",
      "type": "event"
    },
    {
      "anonymous": false,
      "inputs": [
        {
          "indexed": true,
          "internalType": "address",
          "name": "player",
          "type": "address"
        },
        {
          "indexed": false,
          "internalType": "uint256[5]",
          "name": "combination",
          "type": "uint256[5]"
        }
      ],
      "name": "PlayerCombinationSubmitted",
      "type": "event"
    },
    {
      "anonymous": false,
      "inputs": [
        {
          "indexed": true,
          "internalType": "uint256",
          "name": "requestId",
          "type": "uint256"
        },
        {
          "indexed": true,
          "internalType": "uint256",
          "name": "ticketNumber",
          "type": "uint256"
        },
        {
          "indexed": false,
          "internalType": "uint256",
          "name": "number",
          "type": "uint256"
        }
      ],
      "name": "RandomNumberGenerated",
      "type": "event"
    },
    {
      "anonymous": false,
      "inputs": [
        {
          "indexed": true,
          "internalType": "uint256",
          "name": "requestId",
          "type": "uint256"
        },
        {
          "indexed": true,
          "internalType": "uint256",
          "name": "ticketId",
          "type": "uint256"
        }
      ],
      "name": "RandomWordsRequested",
      "type": "event"
    },
    {
      "anonymous": false,
      "inputs": [
        {
          "indexed": true,
          "internalType": "address",
          "name": "player",
          "type": "address"
        },
        {
          "indexed": true,
          "internalType": "uint256",
          "name": "ticketId",
          "type": "uint256"
        },
        {
          "indexed": true,
          "internalType": "uint256",
          "name": "amount",
          "type": "uint256"
        }
      ],
      "name": "RewardClaimed",
      "type": "event"
    },
    {
      "anonymous": false,
      "inputs": [
        {
          "indexed": true,
          "internalType": "address",
          "name": "player",
          "type": "address"
        },
        {
          "indexed": true,
          "internalType": "uint256",
          "name": "ticketNumber",
          "type": "uint256"
        }
      ],
      "name": "TicketPurchased",
      "type": "event"
    },
    {
      "anonymous": false,
      "inputs": [
        {
          "indexed": true,
          "internalType": "uint256",
          "name": "ticketNumber",
          "type": "uint256"
        },
        {
          "indexed": false,
          "internalType": "uint256[5]",
          "name": "combination",
          "type": "uint256[5]"
        }
      ],
      "name": "WinningCombinationGenerated",
      "type": "event"
    },
    {
      "stateMutability": "payable",
      "type": "fallback"
    },
    {
      "inputs": [],
      "name": "CALLBACK_GAS_LIMIT",
      "outputs": [
        {
          "internalType": "uint32",
          "name": "",
          "type": "uint32"
        }
      ],
      "stateMutability": "view",
      "type": "function"
    },
    {
      "inputs": [],
      "name": "NUMBER_OF_WORDS",
      "outputs": [
        {
          "internalType": "uint8",
          "name": "",
          "type": "uint8"
        }
      ],
      "stateMutability": "view",
      "type": "function"
    },
    {
      "inputs": [],
      "name": "NUMBER_RANGE",
      "outputs": [
        {
          "internalType": "uint8",
          "name": "",
          "type": "uint8"
        }
      ],
      "stateMutability": "view",
      "type": "function"
    },
    {
      "inputs": [],
      "name": "REQUEST_CONFIRMATIONS",
      "outputs": [
        {
          "internalType": "uint16",
          "name": "",
          "type": "uint16"
        }
      ],
      "stateMutability": "view",
      "type": "function"
    },
    {
      "inputs": [],
      "name": "TICKET_PRICE_WEI",
      "outputs": [
        {
          "internalType": "uint256",
          "name": "",
          "type": "uint256"
        }
      ],
      "stateMutability": "view",
      "type": "function"
    },
    {
      "inputs": [],
      "name": "acceptOwnership",
      "outputs": [],
      "stateMutability": "nonpayable",
      "type": "function"
    },
    {
      "inputs": [
        {
          "internalType": "uint256",
          "name": "",
          "type": "uint256"
        }
      ],
      "name": "allTicketIds",
      "outputs": [
        {
          "internalType": "uint256",
          "name": "",
          "type": "uint256"
        }
      ],
      "stateMutability": "view",
      "type": "function"
    },
    {
      "inputs": [],
      "name": "assignTestTicket",
      "outputs": [],
      "stateMutability": "nonpayable",
      "type": "function"
    },
    {
      "inputs": [],
      "name": "buyTicket",
      "outputs": [
        {
          "components": [
            {
              "internalType": "uint256",
              "name": "id",
              "type": "uint256"
            },
            {
              "internalType": "address",
              "name": "owner",
              "type": "address"
            },
            {
              "internalType": "uint256",
              "name": "purchaseTimestamp",
              "type": "uint256"
            },
            {
              "internalType": "uint256[5]",
              "name": "playerCombination",
              "type": "uint256[5]"
            },
            {
              "internalType": "uint256[5]",
              "name": "winningCombination",
              "type": "uint256[5]"
            },
            {
              "internalType": "uint8",
              "name": "matchingNumbers",
              "type": "uint8"
            },
            {
              "internalType": "uint256",
              "name": "potentialReward",
              "type": "uint256"
            },
            {
              "internalType": "uint256",
              "name": "actualReward",
              "type": "uint256"
            },
            {
              "internalType": "bool",
              "name": "isRewardClaimed",
              "type": "bool"
            },
            {
              "internalType": "bool",
              "name": "playerCombinationSubmitted",
              "type": "bool"
            },
            {
              "internalType": "bool",
              "name": "winningCombinationGenerated",
              "type": "bool"
            },
            {
              "internalType": "bool",
              "name": "randomNumberRequested",
              "type": "bool"
            }
          ],
          "internalType": "struct LotteryTest.LotteryTicket",
          "name": "",
          "type": "tuple"
        }
      ],
      "stateMutability": "payable",
      "type": "function"
    },
    {
      "inputs": [
        {
          "internalType": "uint256",
          "name": "ticketId",
          "type": "uint256"
        }
      ],
      "name": "claimReward",
      "outputs": [],
      "stateMutability": "nonpayable",
      "type": "function"
    },
    {
      "inputs": [
        {
          "internalType": "uint256",
          "name": "amount",
          "type": "uint256"
        }
      ],
      "name": "fundJackpot",
      "outputs": [],
      "stateMutability": "nonpayable",
      "type": "function"
    },
    {
      "inputs": [],
      "name": "getAllTickets",
      "outputs": [
        {
          "components": [
            {
              "internalType": "uint256",
              "name": "id",
              "type": "uint256"
            },
            {
              "internalType": "address",
              "name": "owner",
              "type": "address"
            },
            {
              "internalType": "uint256",
              "name": "purchaseTimestamp",
              "type": "uint256"
            },
            {
              "internalType": "uint256[5]",
              "name": "playerCombination",
              "type": "uint256[5]"
            },
            {
              "internalType": "uint256[5]",
              "name": "winningCombination",
              "type": "uint256[5]"
            },
            {
              "internalType": "uint8",
              "name": "matchingNumbers",
              "type": "uint8"
            },
            {
              "internalType": "uint256",
              "name": "potentialReward",
              "type": "uint256"
            },
            {
              "internalType": "uint256",
              "name": "actualReward",
              "type": "uint256"
            },
            {
              "internalType": "bool",
              "name": "isRewardClaimed",
              "type": "bool"
            },
            {
              "internalType": "bool",
              "name": "playerCombinationSubmitted",
              "type": "bool"
            },
            {
              "internalType": "bool",
              "name": "winningCombinationGenerated",
              "type": "bool"
            },
            {
              "internalType": "bool",
              "name": "randomNumberRequested",
              "type": "bool"
            }
          ],
          "internalType": "struct LotteryTest.LotteryTicket[]",
          "name": "",
          "type": "tuple[]"
        }
      ],
      "stateMutability": "view",
      "type": "function"
    },
    {
      "inputs": [],
      "name": "getContractOwner",
      "outputs": [
        {
          "internalType": "address",
          "name": "",
          "type": "address"
        }
      ],
      "stateMutability": "view",
      "type": "function"
    },
    {
      "inputs": [],
      "name": "getJackpot",
      "outputs": [
        {
          "internalType": "uint256",
          "name": "",
          "type": "uint256"
        }
      ],
      "stateMutability": "view",
      "type": "function"
    },
    {
      "inputs": [],
      "name": "getOperationsBalance",
      "outputs": [
        {
          "internalType": "uint256",
          "name": "",
          "type": "uint256"
        }
      ],
      "stateMutability": "view",
      "type": "function"
    },
    {
      "inputs": [],
      "name": "getOwnerBalance",
      "outputs": [
        {
          "internalType": "uint256",
          "name": "",
          "type": "uint256"
        }
      ],
      "stateMutability": "view",
      "type": "function"
    },
    {
      "inputs": [],
      "name": "getPlayerTickets",
      "outputs": [
        {
          "components": [
            {
              "internalType": "uint256",
              "name": "id",
              "type": "uint256"
            },
            {
              "internalType": "address",
              "name": "owner",
              "type": "address"
            },
            {
              "internalType": "uint256",
              "name": "purchaseTimestamp",
              "type": "uint256"
            },
            {
              "internalType": "uint256[5]",
              "name": "playerCombination",
              "type": "uint256[5]"
            },
            {
              "internalType": "uint256[5]",
              "name": "winningCombination",
              "type": "uint256[5]"
            },
            {
              "internalType": "uint8",
              "name": "matchingNumbers",
              "type": "uint8"
            },
            {
              "internalType": "uint256",
              "name": "potentialReward",
              "type": "uint256"
            },
            {
              "internalType": "uint256",
              "name": "actualReward",
              "type": "uint256"
            },
            {
              "internalType": "bool",
              "name": "isRewardClaimed",
              "type": "bool"
            },
            {
              "internalType": "bool",
              "name": "playerCombinationSubmitted",
              "type": "bool"
            },
            {
              "internalType": "bool",
              "name": "winningCombinationGenerated",
              "type": "bool"
            },
            {
              "internalType": "bool",
              "name": "randomNumberRequested",
              "type": "bool"
            }
          ],
          "internalType": "struct LotteryTest.LotteryTicket[]",
          "name": "",
          "type": "tuple[]"
        }
      ],
      "stateMutability": "view",
      "type": "function"
    },
    {
      "inputs": [],
      "name": "getTestTicket",
      "outputs": [
        {
          "components": [
            {
              "internalType": "uint256",
              "name": "id",
              "type": "uint256"
            },
            {
              "internalType": "address",
              "name": "owner",
              "type": "address"
            },
            {
              "internalType": "uint256",
              "name": "purchaseTimestamp",
              "type": "uint256"
            },
            {
              "internalType": "uint256[5]",
              "name": "playerCombination",
              "type": "uint256[5]"
            },
            {
              "internalType": "uint256[5]",
              "name": "winningCombination",
              "type": "uint256[5]"
            },
            {
              "internalType": "uint8",
              "name": "matchingNumbers",
              "type": "uint8"
            },
            {
              "internalType": "uint256",
              "name": "potentialReward",
              "type": "uint256"
            },
            {
              "internalType": "uint256",
              "name": "actualReward",
              "type": "uint256"
            },
            {
              "internalType": "bool",
              "name": "isRewardClaimed",
              "type": "bool"
            },
            {
              "internalType": "bool",
              "name": "playerCombinationSubmitted",
              "type": "bool"
            },
            {
              "internalType": "bool",
              "name": "winningCombinationGenerated",
              "type": "bool"
            },
            {
              "internalType": "bool",
              "name": "randomNumberRequested",
              "type": "bool"
            }
          ],
          "internalType": "struct LotteryTest.LotteryTicket",
          "name": "",
          "type": "tuple"
        }
      ],
      "stateMutability": "view",
      "type": "function"
    },
    {
      "inputs": [
        {
          "internalType": "uint256",
          "name": "ticketId",
          "type": "uint256"
        }
      ],
      "name": "getTicketById",
      "outputs": [
        {
          "components": [
            {
              "internalType": "uint256",
              "name": "id",
              "type": "uint256"
            },
            {
              "internalType": "address",
              "name": "owner",
              "type": "address"
            },
            {
              "internalType": "uint256",
              "name": "purchaseTimestamp",
              "type": "uint256"
            },
            {
              "internalType": "uint256[5]",
              "name": "playerCombination",
              "type": "uint256[5]"
            },
            {
              "internalType": "uint256[5]",
              "name": "winningCombination",
              "type": "uint256[5]"
            },
            {
              "internalType": "uint8",
              "name": "matchingNumbers",
              "type": "uint8"
            },
            {
              "internalType": "uint256",
              "name": "potentialReward",
              "type": "uint256"
            },
            {
              "internalType": "uint256",
              "name": "actualReward",
              "type": "uint256"
            },
            {
              "internalType": "bool",
              "name": "isRewardClaimed",
              "type": "bool"
            },
            {
              "internalType": "bool",
              "name": "playerCombinationSubmitted",
              "type": "bool"
            },
            {
              "internalType": "bool",
              "name": "winningCombinationGenerated",
              "type": "bool"
            },
            {
              "internalType": "bool",
              "name": "randomNumberRequested",
              "type": "bool"
            }
          ],
          "internalType": "struct LotteryTest.LotteryTicket",
          "name": "",
          "type": "tuple"
        }
      ],
      "stateMutability": "view",
      "type": "function"
    },
    {
      "inputs": [],
      "name": "getWinningCombination",
      "outputs": [
        {
          "internalType": "uint256[5]",
          "name": "",
          "type": "uint256[5]"
        }
      ],
      "stateMutability": "view",
      "type": "function"
    },
    {
      "inputs": [],
      "name": "jackpot",
      "outputs": [
        {
          "internalType": "uint256",
          "name": "",
          "type": "uint256"
        }
      ],
      "stateMutability": "view",
      "type": "function"
    },
    {
      "inputs": [],
      "name": "nextTicketId",
      "outputs": [
        {
          "internalType": "uint256",
          "name": "",
          "type": "uint256"
        }
      ],
      "stateMutability": "view",
      "type": "function"
    },
    {
      "inputs": [],
      "name": "owner",
      "outputs": [
        {
          "internalType": "address",
          "name": "",
          "type": "address"
        }
      ],
      "stateMutability": "view",
      "type": "function"
    },
    {
      "inputs": [
        {
          "internalType": "address",
          "name": "",
          "type": "address"
        },
        {
          "internalType": "uint256",
          "name": "",
          "type": "uint256"
        }
      ],
      "name": "playerTicketIds",
      "outputs": [
        {
          "internalType": "uint256",
          "name": "",
          "type": "uint256"
        }
      ],
      "stateMutability": "view",
      "type": "function"
    },
    {
      "inputs": [
        {
          "internalType": "uint256",
          "name": "requestId",
          "type": "uint256"
        },
        {
          "internalType": "uint256[]",
          "name": "randomWords",
          "type": "uint256[]"
        }
      ],
      "name": "rawFulfillRandomWords",
      "outputs": [],
      "stateMutability": "nonpayable",
      "type": "function"
    },
    {
      "inputs": [
        {
          "internalType": "uint256",
          "name": "",
          "type": "uint256"
        }
      ],
      "name": "requestIdToTicketId",
      "outputs": [
        {
          "internalType": "uint256",
          "name": "",
          "type": "uint256"
        }
      ],
      "stateMutability": "view",
      "type": "function"
    },
    {
      "inputs": [],
      "name": "s_vrfCoordinator",
      "outputs": [
        {
          "internalType": "contract IVRFCoordinatorV2Plus",
          "name": "",
          "type": "address"
        }
      ],
      "stateMutability": "view",
      "type": "function"
    },
    {
      "inputs": [
        {
          "internalType": "address",
          "name": "_vrfCoordinator",
          "type": "address"
        }
      ],
      "name": "setCoordinator",
      "outputs": [],
      "stateMutability": "nonpayable",
      "type": "function"
    },
    {
      "inputs": [
        {
          "internalType": "uint256",
          "name": "ticketId",
          "type": "uint256"
        },
        {
          "internalType": "uint256[5]",
          "name": "playerCombination",
          "type": "uint256[5]"
        }
      ],
      "name": "submitCombination",
      "outputs": [],
      "stateMutability": "nonpayable",
      "type": "function"
    },
    {
      "inputs": [
        {
          "internalType": "uint256",
          "name": "amount",
          "type": "uint256"
        }
      ],
      "name": "testDistribute",
      "outputs": [],
      "stateMutability": "nonpayable",
      "type": "function"
    },
    {
      "inputs": [],
      "name": "testTicket",
      "outputs": [
        {
          "internalType": "uint256",
          "name": "id",
          "type": "uint256"
        },
        {
          "internalType": "address",
          "name": "owner",
          "type": "address"
        },
        {
          "internalType": "uint256",
          "name": "purchaseTimestamp",
          "type": "uint256"
        },
        {
          "internalType": "uint8",
          "name": "matchingNumbers",
          "type": "uint8"
        },
        {
          "internalType": "uint256",
          "name": "potentialReward",
          "type": "uint256"
        },
        {
          "internalType": "uint256",
          "name": "actualReward",
          "type": "uint256"
        },
        {
          "internalType": "bool",
          "name": "isRewardClaimed",
          "type": "bool"
        },
        {
          "internalType": "bool",
          "name": "playerCombinationSubmitted",
          "type": "bool"
        },
        {
          "internalType": "bool",
          "name": "winningCombinationGenerated",
          "type": "bool"
        },
        {
          "internalType": "bool",
          "name": "randomNumberRequested",
          "type": "bool"
        }
      ],
      "stateMutability": "view",
      "type": "function"
    },
    {
      "inputs": [
        {
          "internalType": "uint8",
          "name": "matchingNumbers",
          "type": "uint8"
        }
      ],
      "name": "test_calculateReward",
      "outputs": [
        {
          "internalType": "uint256",
          "name": "",
          "type": "uint256"
        }
      ],
      "stateMutability": "view",
      "type": "function"
    },
    {
      "inputs": [
        {
          "internalType": "uint256[5]",
          "name": "playerCombination",
          "type": "uint256[5]"
        },
        {
          "internalType": "uint256[5]",
          "name": "winningCombination",
          "type": "uint256[5]"
        }
      ],
      "name": "test_checkWinningCombination",
      "outputs": [
        {
          "internalType": "uint8",
          "name": "",
          "type": "uint8"
        }
      ],
      "stateMutability": "pure",
      "type": "function"
    },
    {
      "inputs": [
        {
          "internalType": "uint256",
          "name": "requestId",
          "type": "uint256"
        },
        {
          "internalType": "uint256[]",
          "name": "randomWords",
          "type": "uint256[]"
        }
      ],
      "name": "test_fulfillRandomWords",
      "outputs": [],
      "stateMutability": "nonpayable",
      "type": "function"
    },
    {
      "inputs": [
        {
          "internalType": "uint256",
          "name": "randomWord",
          "type": "uint256"
        }
      ],
      "name": "test_generateWinningCombination",
      "outputs": [
        {
          "internalType": "uint256[5]",
          "name": "",
          "type": "uint256[5]"
        }
      ],
      "stateMutability": "pure",
      "type": "function"
    },
    {
      "inputs": [
        {
          "internalType": "uint256",
          "name": "ticketId",
          "type": "uint256"
        }
      ],
      "name": "test_requestRandomNumber",
      "outputs": [
        {
          "internalType": "uint256",
          "name": "",
          "type": "uint256"
        }
      ],
      "stateMutability": "nonpayable",
      "type": "function"
    },
    {
      "inputs": [
        {
          "internalType": "address",
          "name": "recipient",
          "type": "address"
        },
        {
          "internalType": "uint256",
          "name": "amount",
          "type": "uint256"
        }
      ],
      "name": "test_sendReward",
      "outputs": [],
      "stateMutability": "nonpayable",
      "type": "function"
    },
    {
      "inputs": [
        {
          "internalType": "uint256",
          "name": "ticketId",
          "type": "uint256"
        },
        {
          "internalType": "uint256[5]",
          "name": "combination",
          "type": "uint256[5]"
        }
      ],
      "name": "test_setWinningCombination",
      "outputs": [],
      "stateMutability": "nonpayable",
      "type": "function"
    },
    {
      "inputs": [
        {
          "internalType": "uint256",
          "name": "",
          "type": "uint256"
        }
      ],
      "name": "tickets",
      "outputs": [
        {
          "internalType": "uint256",
          "name": "id",
          "type": "uint256"
        },
        {
          "internalType": "address",
          "name": "owner",
          "type": "address"
        },
        {
          "internalType": "uint256",
          "name": "purchaseTimestamp",
          "type": "uint256"
        },
        {
          "internalType": "uint8",
          "name": "matchingNumbers",
          "type": "uint8"
        },
        {
          "internalType": "uint256",
          "name": "potentialReward",
          "type": "uint256"
        },
        {
          "internalType": "uint256",
          "name": "actualReward",
          "type": "uint256"
        },
        {
          "internalType": "bool",
          "name": "isRewardClaimed",
          "type": "bool"
        },
        {
          "internalType": "bool",
          "name": "playerCombinationSubmitted",
          "type": "bool"
        },
        {
          "internalType": "bool",
          "name": "winningCombinationGenerated",
          "type": "bool"
        },
        {
          "internalType": "bool",
          "name": "randomNumberRequested",
          "type": "bool"
        }
      ],
      "stateMutability": "view",
      "type": "function"
    },
    {
      "inputs": [
        {
          "internalType": "address",
          "name": "to",
          "type": "address"
        }
      ],
      "name": "transferOwnership",
      "outputs": [],
      "stateMutability": "nonpayable",
      "type": "function"
    },
    {
      "inputs": [],
      "name": "withdrawJackpot",
      "outputs": [],
      "stateMutability": "nonpayable",
      "type": "function"
    },
    {
      "inputs": [],
      "name": "withdrawOperationsBalance",
      "outputs": [],
      "stateMutability": "nonpayable",
      "type": "function"
    },
    {
      "inputs": [],
      "name": "withdrawOwnerBalance",
      "outputs": [],
      "stateMutability": "nonpayable",
      "type": "function"
    },
    {
      "stateMutability": "payable",
      "type": "receive"
    }
  ],
  "bytecode": "0x60e0604052600160185534801561001557600080fd5b50604051615eed380380615eed8339818101604052810190610037919061041d565b81338060008073ffffffffffffffffffffffffffffffffffffffff168273ffffffffffffffffffffffffffffffffffffffff16036100aa576040517f08c379a00000000000000000000000000000000000000000000000000000000081526004016100a1906104ba565b60405180910390fd5b816000806101000a81548173ffffffffffffffffffffffffffffffffffffffff021916908373ffffffffffffffffffffffffffffffffffffffff160217905550600073ffffffffffffffffffffffffffffffffffffffff168173ffffffffffffffffffffffffffffffffffffffff161461012e5761012d8161025860201b60201c565b5b505050600073ffffffffffffffffffffffffffffffffffffffff168173ffffffffffffffffffffffffffffffffffffffff1603610197576040517fd92e233d00000000000000000000000000000000000000000000000000000000815260040160405180910390fd5b80600260006101000a81548173ffffffffffffffffffffffffffffffffffffffff021916908373ffffffffffffffffffffffffffffffffffffffff1602179055505060016003819055503373ffffffffffffffffffffffffffffffffffffffff1660808173ffffffffffffffffffffffffffffffffffffffff16815250508060a081815250508173ffffffffffffffffffffffffffffffffffffffff1660c08173ffffffffffffffffffffffffffffffffffffffff16815250505050610546565b3373ffffffffffffffffffffffffffffffffffffffff168173ffffffffffffffffffffffffffffffffffffffff16036102c6576040517f08c379a00000000000000000000000000000000000000000000000000000000081526004016102bd90610526565b60405180910390fd5b80600160006101000a81548173ffffffffffffffffffffffffffffffffffffffff021916908373ffffffffffffffffffffffffffffffffffffffff1602179055508073ffffffffffffffffffffffffffffffffffffffff1660008054906101000a900473ffffffffffffffffffffffffffffffffffffffff1673ffffffffffffffffffffffffffffffffffffffff167fed8889f560326eb138920d842192f0eb3dd22b4f139c87a2c57538e05bae127860405160405180910390a350565b600080fd5b600073ffffffffffffffffffffffffffffffffffffffff82169050919050565b60006103b482610389565b9050919050565b6103c4816103a9565b81146103cf57600080fd5b50565b6000815190506103e1816103bb565b92915050565b6000819050919050565b6103fa816103e7565b811461040557600080fd5b50565b600081519050610417816103f1565b92915050565b6000806040838503121561043457610433610384565b5b6000610442858286016103d2565b925050602061045385828601610408565b9150509250929050565b600082825260208201905092915050565b7f43616e6e6f7420736574206f776e657220746f207a65726f0000000000000000600082015250565b60006104a460188361045d565b91506104af8261046e565b602082019050919050565b600060208201905081810360008301526104d381610497565b9050919050565b7f43616e6e6f74207472616e7366657220746f2073656c66000000000000000000600082015250565b600061051060178361045d565b915061051b826104da565b602082019050919050565b6000602082019050818103600083015261053f81610503565b9050919050565b60805160a05160c0516159356105b8600039600050506000613a79015260008181610b4a015281816116fa01528181611f9a0152818161207e015281816121490152818161260f015281816126f3015281816127be01528181612cad01528181612d910152612e5c01526159356000f3fe6080604052600436106102605760003560e01c806385c9d67311610144578063c0b3870a116100b6578063f163915a1161007a578063f163915a14610919578063f2fde38b14610944578063f403251d1461096d578063f8ccb9c514610984578063f926c5d8146109ad578063fdab0b6c146109d657610270565b8063c0b3870a1461082d578063c3e9bf0014610844578063d6296f7514610881578063da8dc674146108be578063edca914c146108fb57610270565b8063941b80ac11610108578063941b80ac1461074357806395e888c41461075a57806398fd29fb146107855780639eccacf6146107ae578063a32bb20f146107d9578063ae169a501461080457610270565b806385c9d6731461065c578063864c407c146106875780638da5cb5b146106c45780638ea98117146106ef5780639329066c1461071857610270565b8063442890d5116101dd5780636031a52f116101a15780636031a52f1461057057806367f082b01461059b5780636b31ee01146105c657806379ba5097146105f15780638284190c146106085780638571c4411461063357610270565b8063442890d51461045a5780634e90d36d1461048557806350b44712146104c2578063590791f2146105085780635cc6f5011461053357610270565b806327b7aabc1161022457806327b7aabc146103875780632b4c5572146103c457806333d608f1146103ed5780633aac0fa9146104185780633cac60e51461044357610270565b806301023e2b146102ab57806303e96fe3146102d45780631ade4244146102ff5780631bd3689b146103335780631fe543e31461035e57610270565b366102705761026e34610a13565b005b6040517f08c379a00000000000000000000000000000000000000000000000000000000081526004016102a290613ddb565b60405180910390fd5b3480156102b757600080fd5b506102d260048036038101906102cd9190613f8c565b610aed565b005b3480156102e057600080fd5b506102e9610b46565b6040516102f69190614299565b60405180910390f35b34801561030b57600080fd5b50610314610e45565b60405161032a9a999897969594939291906142f7565b60405180910390f35b34801561033f57600080fd5b50610348610ee8565b604051610355919061448d565b60405180910390f35b34801561036a57600080fd5b5061038560048036038101906103809190614504565b611094565b005b34801561039357600080fd5b506103ae60048036038101906103a99190614564565b61115a565b6040516103bb919061448d565b60405180910390f35b3480156103d057600080fd5b506103eb60048036038101906103e69190614504565b611391565b005b3480156103f957600080fd5b506104026113a1565b60405161040f91906145b0565b60405180910390f35b34801561042457600080fd5b5061042d6113a8565b60405161043a91906145cb565b60405180910390f35b34801561044f57600080fd5b506104586113ad565b005b34801561046657600080fd5b5061046f6116f6565b60405161047c91906145e6565b60405180910390f35b34801561049157600080fd5b506104ac60048036038101906104a79190614601565b61171e565b6040516104b991906145cb565b60405180910390f35b3480156104ce57600080fd5b506104e960048036038101906104e49190614564565b611732565b6040516104ff9a999897969594939291906142f7565b60405180910390f35b34801561051457600080fd5b5061051d6117e6565b60405161052a9190614642565b60405180910390f35b34801561053f57600080fd5b5061055a60048036038101906105559190614564565b6117f0565b60405161056791906146bf565b60405180910390f35b34801561057c57600080fd5b50610585611808565b6040516105929190614642565b60405180910390f35b3480156105a757600080fd5b506105b061180e565b6040516105bd91906146f7565b60405180910390f35b3480156105d257600080fd5b506105db611813565b6040516105e89190614642565b60405180910390f35b3480156105fd57600080fd5b50610606611819565b005b34801561061457600080fd5b5061061d6119ae565b60405161062a91906146bf565b60405180910390f35b34801561063f57600080fd5b5061065a60048036038101906106559190614564565b6119fc565b005b34801561066857600080fd5b50610671611a5c565b60405161067e9190614299565b60405180910390f35b34801561069357600080fd5b506106ae60048036038101906106a9919061473e565b611d53565b6040516106bb9190614642565b60405180910390f35b3480156106d057600080fd5b506106d9611d84565b6040516106e691906145e6565b60405180910390f35b3480156106fb57600080fd5b506107166004803603810190610711919061477e565b611dad565b005b34801561072457600080fd5b5061072d611f8e565b60405161073a9190614642565b60405180910390f35b34801561074f57600080fd5b50610758611f98565b005b34801561076657600080fd5b5061076f6121ae565b60405161077c91906145cb565b60405180910390f35b34801561079157600080fd5b506107ac60048036038101906107a79190614564565b6121b3565b005b3480156107ba57600080fd5b506107c36121bf565b6040516107d0919061480a565b60405180910390f35b3480156107e557600080fd5b506107ee6121e5565b6040516107fb9190614642565b60405180910390f35b34801561081057600080fd5b5061082b60048036038101906108269190614564565b6121ef565b005b34801561083957600080fd5b5061084261260d565b005b34801561085057600080fd5b5061086b60048036038101906108669190614564565b612823565b6040516108789190614642565b60405180910390f35b34801561088d57600080fd5b506108a860048036038101906108a39190614564565b61283b565b6040516108b59190614642565b60405180910390f35b3480156108ca57600080fd5b506108e560048036038101906108e09190614851565b61285f565b6040516108f29190614642565b60405180910390f35b610903612871565b604051610910919061448d565b60405180910390f35b34801561092557600080fd5b5061092e612c8c565b60405161093b9190614642565b60405180910390f35b34801561095057600080fd5b5061096b6004803603810190610966919061477e565b612c97565b005b34801561097957600080fd5b50610982612cab565b005b34801561099057600080fd5b506109ab60048036038101906109a6919061473e565b612ec1565b005b3480156109b957600080fd5b506109d460048036038101906109cf9190613f8c565b612ecf565b005b3480156109e257600080fd5b506109fd60048036038101906109f89190614564565b6131f9565b604051610a0a9190614642565b60405180910390f35b6064605a82610a2291906148ad565b610a2c919061491e565b60156000828254610a3d919061494f565b925050819055506064600582610a5391906148ad565b610a5d919061491e565b60166000828254610a6e919061494f565b925050819055506064600582610a8491906148ad565b610a8e919061491e565b60176000828254610a9f919061494f565b92505081905550803373ffffffffffffffffffffffffffffffffffffffff167fc1d32ad5cca423e7dda2123dbf8c482f8e77d00b631c06e903a47f2cec1334df60405160405180910390a350565b8060206000848152602001908152602001600020600801906005610b12929190613c2c565b5060016020600084815260200190815260200160002060100160026101000a81548160ff0219169083151502179055505050565b60607f000000000000000000000000000000000000000000000000000000000000000073ffffffffffffffffffffffffffffffffffffffff163373ffffffffffffffffffffffffffffffffffffffff1614610bd6576040517f08c379a0000000000000000000000000000000000000000000000000000000008152600401610bcd906149cf565b60405180910390fd5b6000601980549050905060008167ffffffffffffffff811115610bfc57610bfb613e5b565b5b604051908082528060200260200182016040528015610c3557816020015b610c22613c6c565b815260200190600190039081610c1a5790505b50905060005b82811015610e3c576020600060198381548110610c5b57610c5a6149ef565b5b9060005260206000200154815260200190815260200160002060405180610180016040529081600082015481526020016001820160009054906101000a900473ffffffffffffffffffffffffffffffffffffffff1673ffffffffffffffffffffffffffffffffffffffff1673ffffffffffffffffffffffffffffffffffffffff1681526020016002820154815260200160038201600580602002604051908101604052809291908260058015610d26576020028201915b815481526020019060010190808311610d12575b5050505050815260200160088201600580602002604051908101604052809291908260058015610d6b576020028201915b815481526020019060010190808311610d57575b50505050508152602001600d820160009054906101000a900460ff1660ff1660ff168152602001600e8201548152602001600f82015481526020016010820160009054906101000a900460ff161515151581526020016010820160019054906101000a900460ff161515151581526020016010820160029054906101000a900460ff161515151581526020016010820160039054906101000a900460ff161515151581525050828281518110610e2457610e236149ef565b5b60200260200101819052508080600101915050610c3b565b50809250505090565b60048060000154908060010160009054906101000a900473ffffffffffffffffffffffffffffffffffffffff169080600201549080600d0160009054906101000a900460ff169080600e01549080600f0154908060100160009054906101000a900460ff16908060100160019054906101000a900460ff16908060100160029054906101000a900460ff16908060100160039054906101000a900460ff1690508a565b610ef0613c6c565b600460405180610180016040529081600082015481526020016001820160009054906101000a900473ffffffffffffffffffffffffffffffffffffffff1673ffffffffffffffffffffffffffffffffffffffff1673ffffffffffffffffffffffffffffffffffffffff1681526020016002820154815260200160038201600580602002604051908101604052809291908260058015610fa4576020028201915b815481526020019060010190808311610f90575b5050505050815260200160088201600580602002604051908101604052809291908260058015610fe9576020028201915b815481526020019060010190808311610fd5575b50505050508152602001600d820160009054906101000a900460ff1660ff1660ff168152602001600e8201548152602001600f82015481526020016010820160009054906101000a900460ff161515151581526020016010820160019054906101000a900460ff161515151581526020016010820160029054906101000a900460ff161515151581526020016010820160039054906101000a900460ff161515151581525050905090565b600260009054906101000a900473ffffffffffffffffffffffffffffffffffffffff1673ffffffffffffffffffffffffffffffffffffffff163373ffffffffffffffffffffffffffffffffffffffff161461114a5733600260009054906101000a900473ffffffffffffffffffffffffffffffffffffffff166040517f1cf993f4000000000000000000000000000000000000000000000000000000008152600401611141929190614a1e565b60405180910390fd5b61115583838361320b565b505050565b611162613c6c565b60006020600084815260200190815260200160002060405180610180016040529081600082015481526020016001820160009054906101000a900473ffffffffffffffffffffffffffffffffffffffff1673ffffffffffffffffffffffffffffffffffffffff1673ffffffffffffffffffffffffffffffffffffffff1681526020016002820154815260200160038201600580602002604051908101604052809291908260058015611229576020028201915b815481526020019060010190808311611215575b505050505081526020016008820160058060200260405190810160405280929190826005801561126e576020028201915b81548152602001906001019080831161125a575b50505050508152602001600d820160009054906101000a900460ff1660ff1660ff168152602001600e8201548152602001600f82015481526020016010820160009054906101000a900460ff161515151581526020016010820160019054906101000a900460ff161515151581526020016010820160029054906101000a900460ff161515151581526020016010820160039054906101000a900460ff16151515158152505090503373ffffffffffffffffffffffffffffffffffffffff16816020015173ffffffffffffffffffffffffffffffffffffffff1614611388576040517f08c379a000000000000000000000000000000000000000000000000000000000815260040161137f90614a93565b60405180910390fd5b80915050919050565b61139c83838361320b565b505050565b622625a081565b602581565b33600460010160006101000a81548173ffffffffffffffffffffffffffffffffffffffff021916908373ffffffffffffffffffffffffffffffffffffffff16021790555060006018600081548092919061140690614ab3565b91905055905060006040518061018001604052808381526020013373ffffffffffffffffffffffffffffffffffffffff168152602001428152602001601a60058060200260405190810160405280929190826005801561147b576020028201915b815481526020019060010190808311611467575b50505050508152602001601a6005806020026040519081016040528092919082600580156114be576020028201915b8154815260200190600101908083116114aa575b50505050508152602001600060ff16815260200160008152602001600081526020016000151581526020016000151581526020016000151581526020016000151581525090508060206000836000015181526020019081526020016000206000820151816000015560208201518160010160006101000a81548173ffffffffffffffffffffffffffffffffffffffff021916908373ffffffffffffffffffffffffffffffffffffffff1602179055506040820151816002015560608201518160030190600561158e929190613c2c565b506080820151816008019060056115a6929190613c2c565b5060a082015181600d0160006101000a81548160ff021916908360ff16021790555060c082015181600e015560e082015181600f01556101008201518160100160006101000a81548160ff0219169083151502179055506101208201518160100160016101000a81548160ff0219169083151502179055506101408201518160100160026101000a81548160ff0219169083151502179055506101608201518160100160036101000a81548160ff021916908315150217905550905050601f60003373ffffffffffffffffffffffffffffffffffffffff1673ffffffffffffffffffffffffffffffffffffffff16815260200190815260200160002082908060018154018082558091505060019003906000526020600020016000909190919091505560198290806001815401808255809150506001900390600052602060002001600090919091909150555050565b60007f0000000000000000000000000000000000000000000000000000000000000000905090565b600061172a83836133eb565b905092915050565b602080528060005260406000206000915090508060000154908060010160009054906101000a900473ffffffffffffffffffffffffffffffffffffffff169080600201549080600d0160009054906101000a900460ff169080600e01549080600f0154908060100160009054906101000a900460ff16908060100160019054906101000a900460ff16908060100160029054906101000a900460ff16908060100160039054906101000a900460ff1690508a565b6000601754905090565b6117f8613cfa565b611801826134e6565b9050919050565b60185481565b600381565b60155481565b600160009054906101000a900473ffffffffffffffffffffffffffffffffffffffff1673ffffffffffffffffffffffffffffffffffffffff163373ffffffffffffffffffffffffffffffffffffffff16146118a9576040517f08c379a00000000000000000000000000000000000000000000000000000000081526004016118a090614b47565b60405180910390fd5b60008060009054906101000a900473ffffffffffffffffffffffffffffffffffffffff169050336000806101000a81548173ffffffffffffffffffffffffffffffffffffffff021916908373ffffffffffffffffffffffffffffffffffffffff1602179055506000600160006101000a81548173ffffffffffffffffffffffffffffffffffffffff021916908373ffffffffffffffffffffffffffffffffffffffff1602179055503373ffffffffffffffffffffffffffffffffffffffff168173ffffffffffffffffffffffffffffffffffffffff167f8be0079c531659141344cd1fd0a4f28419497f9722a3daafe3b4186f6b6457e060405160405180910390a350565b6119b6613cfa565b60046008016005806020026040519081016040528092919082600580156119f2576020028201915b8154815260200190600101908083116119de575b5050505050905090565b8060156000828254611a0e919061494f565b92505081905550803373ffffffffffffffffffffffffffffffffffffffff167f670e95b8055d07efacb517c9eaf38144c6d3095de67c4aae5598c7679d71628760405160405180910390a350565b60606000601f60003373ffffffffffffffffffffffffffffffffffffffff1673ffffffffffffffffffffffffffffffffffffffff168152602001908152602001600020805480602002602001604051908101604052809291908181526020018280548015611ae957602002820191906000526020600020905b815481526020019060010190808311611ad5575b505050505090506000815167ffffffffffffffff811115611b0d57611b0c613e5b565b5b604051908082528060200260200182016040528015611b4657816020015b611b33613c6c565b815260200190600190039081611b2b5790505b50905060005b8251811015611d4a5760206000848381518110611b6c57611b6b6149ef565b5b6020026020010151815260200190815260200160002060405180610180016040529081600082015481526020016001820160009054906101000a900473ffffffffffffffffffffffffffffffffffffffff1673ffffffffffffffffffffffffffffffffffffffff1673ffffffffffffffffffffffffffffffffffffffff1681526020016002820154815260200160038201600580602002604051908101604052809291908260058015611c34576020028201915b815481526020019060010190808311611c20575b5050505050815260200160088201600580602002604051908101604052809291908260058015611c79576020028201915b815481526020019060010190808311611c65575b50505050508152602001600d820160009054906101000a900460ff1660ff1660ff168152602001600e8201548152602001600f82015481526020016010820160009054906101000a900460ff161515151581526020016010820160019054906101000a900460ff161515151581526020016010820160029054906101000a900460ff161515151581526020016010820160039054906101000a900460ff161515151581525050828281518110611d3257611d316149ef565b5b60200260200101819052508080600101915050611b4c565b50809250505090565b601f6020528160005260406000208181548110611d6f57600080fd5b90600052602060002001600091509150505481565b60008060009054906101000a900473ffffffffffffffffffffffffffffffffffffffff16905090565b611db5611d84565b73ffffffffffffffffffffffffffffffffffffffff163373ffffffffffffffffffffffffffffffffffffffff1614158015611e3e5750600260009054906101000a900473ffffffffffffffffffffffffffffffffffffffff1673ffffffffffffffffffffffffffffffffffffffff163373ffffffffffffffffffffffffffffffffffffffff1614155b15611ead5733611e4c611d84565b600260009054906101000a900473ffffffffffffffffffffffffffffffffffffffff166040517f061db9c1000000000000000000000000000000000000000000000000000000008152600401611ea493929190614b67565b60405180910390fd5b600073ffffffffffffffffffffffffffffffffffffffff168173ffffffffffffffffffffffffffffffffffffffff1603611f13576040517fd92e233d00000000000000000000000000000000000000000000000000000000815260040160405180910390fd5b80600260006101000a81548173ffffffffffffffffffffffffffffffffffffffff021916908373ffffffffffffffffffffffffffffffffffffffff1602179055507fd1a6a14209a385a964d036e404cb5cfb71f4000cdb03c9366292430787261be681604051611f8391906145e6565b60405180910390a150565b6000601554905090565b7f000000000000000000000000000000000000000000000000000000000000000073ffffffffffffffffffffffffffffffffffffffff163373ffffffffffffffffffffffffffffffffffffffff1614612026576040517f08c379a000000000000000000000000000000000000000000000000000000000815260040161201d906149cf565b60405180910390fd5b60006017541161206b576040517f08c379a000000000000000000000000000000000000000000000000000000000815260040161206290614bea565b60405180910390fd5b60006017549050600060178190555060007f000000000000000000000000000000000000000000000000000000000000000073ffffffffffffffffffffffffffffffffffffffff16826040516120c090614c3b565b60006040518083038185875af1925050503d80600081146120fd576040519150601f19603f3d011682016040523d82523d6000602084013e612102565b606091505b5050905080612146576040517f08c379a000000000000000000000000000000000000000000000000000000000815260040161213d90614c9c565b60405180910390fd5b817f000000000000000000000000000000000000000000000000000000000000000073ffffffffffffffffffffffffffffffffffffffff167fa711dcbee5590122b88ae65f697adf2f2824e323782fa8df939898d7eb6c1c2b60405160405180910390a35050565b600181565b6121bc81610a13565b50565b600260009054906101000a900473ffffffffffffffffffffffffffffffffffffffff1681565b6000601654905090565b6121f761363c565b60006020600083815260200190815260200160002090503373ffffffffffffffffffffffffffffffffffffffff168160010160009054906101000a900473ffffffffffffffffffffffffffffffffffffffff1673ffffffffffffffffffffffffffffffffffffffff16146122a0576040517f08c379a000000000000000000000000000000000000000000000000000000000815260040161229790614d08565b60405180910390fd5b600073ffffffffffffffffffffffffffffffffffffffff168160010160009054906101000a900473ffffffffffffffffffffffffffffffffffffffff1673ffffffffffffffffffffffffffffffffffffffff1603612333576040517f08c379a000000000000000000000000000000000000000000000000000000000815260040161232a90614d74565b60405180910390fd5b8060100160019054906101000a900460ff16612384576040517f08c379a000000000000000000000000000000000000000000000000000000000815260040161237b90614de0565b60405180910390fd5b8060100160029054906101000a900460ff166123d5576040517f08c379a00000000000000000000000000000000000000000000000000000000081526004016123cc90614e4c565b60405180910390fd5b8060100160009054906101000a900460ff1615612427576040517f08c379a000000000000000000000000000000000000000000000000000000000815260040161241e90614eb8565b60405180910390fd5b60006124b182600301600580602002604051908101604052809291908260058015612467576020028201915b815481526020019060010190808311612453575b5050505050836008016005806020026040519081016040528092919082600580156124a7576020028201915b815481526020019060010190808311612493575b50505050506133eb565b905060006124be8261368b565b905060008111612503576040517f08c379a00000000000000000000000000000000000000000000000000000000081526004016124fa90614f24565b60405180910390fd5b600060155482111561251757601554612519565b815b905080601554101561252c57600061253b565b8060155461253a9190614f44565b5b6015819055508084600f018190555060018460100160006101000a81548160ff0219169083151502179055506125958460010160009054906101000a900473ffffffffffffffffffffffffffffffffffffffff1682613748565b80858560010160009054906101000a900473ffffffffffffffffffffffffffffffffffffffff1673ffffffffffffffffffffffffffffffffffffffff167ff01da32686223933d8a18a391060918c7f11a3648639edd87ae013e2e273174360405160405180910390a45050505061260a61383c565b50565b7f000000000000000000000000000000000000000000000000000000000000000073ffffffffffffffffffffffffffffffffffffffff163373ffffffffffffffffffffffffffffffffffffffff161461269b576040517f08c379a0000000000000000000000000000000000000000000000000000000008152600401612692906149cf565b60405180910390fd5b6000601554116126e0576040517f08c379a00000000000000000000000000000000000000000000000000000000081526004016126d790614bea565b60405180910390fd5b60006015549050600060158190555060007f000000000000000000000000000000000000000000000000000000000000000073ffffffffffffffffffffffffffffffffffffffff168260405161273590614c3b565b60006040518083038185875af1925050503d8060008114612772576040519150601f19603f3d011682016040523d82523d6000602084013e612777565b606091505b50509050806127bb576040517f08c379a00000000000000000000000000000000000000000000000000000000081526004016127b290614fc4565b60405180910390fd5b817f000000000000000000000000000000000000000000000000000000000000000073ffffffffffffffffffffffffffffffffffffffff167fff984e4ec57c8aefc4fbea6499d5cb891883e5c1589aba926f8da3f675f0ee2f60405160405180910390a35050565b60216020528060005260406000206000915090505481565b6019818154811061284b57600080fd5b906000526020600020016000915090505481565b600061286a8261368b565b9050919050565b612879613c6c565b3373ffffffffffffffffffffffffffffffffffffffff163273ffffffffffffffffffffffffffffffffffffffff16146128e7576040517f08c379a00000000000000000000000000000000000000000000000000000000081526004016128de90615030565b60405180910390fd5b66038d7ea4c680003414612930576040517f08c379a00000000000000000000000000000000000000000000000000000000081526004016129279061509c565b60405180910390fd5b600060405180610180016040528060185481526020013373ffffffffffffffffffffffffffffffffffffffff168152602001428152602001601a6005806020026040519081016040528092919082600580156129a1576020028201915b81548152602001906001019080831161298d575b50505050508152602001601a6005806020026040519081016040528092919082600580156129e4576020028201915b8154815260200190600101908083116129d0575b50505050508152602001600060ff16815260200160008152602001600081526020016000151581526020016000151581526020016000151581526020016000151581525090508060206000836000015181526020019081526020016000206000820151816000015560208201518160010160006101000a81548173ffffffffffffffffffffffffffffffffffffffff021916908373ffffffffffffffffffffffffffffffffffffffff16021790555060408201518160020155606082015181600301906005612ab4929190613c2c565b50608082015181600801906005612acc929190613c2c565b5060a082015181600d0160006101000a81548160ff021916908360ff16021790555060c082015181600e015560e082015181600f01556101008201518160100160006101000a81548160ff0219169083151502179055506101208201518160100160016101000a81548160ff0219169083151502179055506101408201518160100160026101000a81548160ff0219169083151502179055506101608201518160100160036101000a81548160ff021916908315150217905550905050601f60003373ffffffffffffffffffffffffffffffffffffffff1673ffffffffffffffffffffffffffffffffffffffff16815260200190815260200160002060185490806001815401808255809150506001900390600052602060002001600090919091909150556019601854908060018154018082558091505060019003906000526020600020016000909190919091505560186000815480929190612c2f90614ab3565b9190505550612c3d34610a13565b80600001513373ffffffffffffffffffffffffffffffffffffffff167f0668f5b446eb814fe35b3206f43f14bd8567ba04ddaf7a3ee56516929ab22ccb60405160405180910390a38091505090565b66038d7ea4c6800081565b612c9f613846565b612ca8816138d6565b50565b7f000000000000000000000000000000000000000000000000000000000000000073ffffffffffffffffffffffffffffffffffffffff163373ffffffffffffffffffffffffffffffffffffffff1614612d39576040517f08c379a0000000000000000000000000000000000000000000000000000000008152600401612d30906149cf565b60405180910390fd5b600060165411612d7e576040517f08c379a0000000000000000000000000000000000000000000000000000000008152600401612d7590614bea565b60405180910390fd5b60006016549050600060168190555060007f000000000000000000000000000000000000000000000000000000000000000073ffffffffffffffffffffffffffffffffffffffff1682604051612dd390614c3b565b60006040518083038185875af1925050503d8060008114612e10576040519150601f19603f3d011682016040523d82523d6000602084013e612e15565b606091505b5050905080612e59576040517f08c379a0000000000000000000000000000000000000000000000000000000008152600401612e509061512e565b60405180910390fd5b817f000000000000000000000000000000000000000000000000000000000000000073ffffffffffffffffffffffffffffffffffffffff167fa760777eb358393d33a518ec33e1187940af7f3cbffb09c53db5ee4b7e7e402560405160405180910390a35050565b612ecb8282613748565b5050565b60006020600084815260200190815260200160002090503373ffffffffffffffffffffffffffffffffffffffff168160010160009054906101000a900473ffffffffffffffffffffffffffffffffffffffff1673ffffffffffffffffffffffffffffffffffffffff1614612f78576040517f08c379a0000000000000000000000000000000000000000000000000000000008152600401612f6f9061519a565b60405180910390fd5b8060100160019054906101000a900460ff1615612fca576040517f08c379a0000000000000000000000000000000000000000000000000000000008152600401612fc190615206565b60405180910390fd5b60005b60058110156130fb576000838260058110612feb57612fea6149ef565b5b6020020151101580156130165750602483826005811061300e5761300d6149ef565b5b602002015111155b613055576040517f08c379a000000000000000000000000000000000000000000000000000000000815260040161304c90615272565b60405180910390fd5b6000600182613064919061494f565b90505b60058110156130ed57838160058110613083576130826149ef565b5b602002015184836005811061309b5761309a6149ef565b5b6020020151036130e0576040517f08c379a00000000000000000000000000000000000000000000000000000000081526004016130d7906152de565b60405180910390fd5b8080600101915050613067565b508080600101915050612fcd565b50818160030190600561310f929190613c2c565b5060018160100160016101000a81548160ff0219169083151502179055503373ffffffffffffffffffffffffffffffffffffffff167f26aa7c18051e08a0cf3f3b6f17d2953735d99eab33c5d55efdf08ef510de455e8360405161317391906146bf565b60405180910390a28060100160039054906101000a900460ff16156131cd576040517f08c379a00000000000000000000000000000000000000000000000000000000081526004016131c49061534a565b60405180910390fd5b60018160100160036101000a81548160ff0219169083151502179055506131f383613a02565b50505050565b600061320482613a02565b9050919050565b60006021600085815260200190815260200160002054905060006020600083815260200190815260200160002090508060100160029054906101000a900460ff161561328c576040517f08c379a0000000000000000000000000000000000000000000000000000000008152600401613283906153b6565b60405180910390fd5b6000848460008181106132a2576132a16149ef565b5b90506020020135905060018260100160026101000a81548160ff0219169083151502179055506132d1816134e6565b826008019060056132e3929190613c2c565b5061336c82600301600580602002604051908101604052809291908260058015613322576020028201915b81548152602001906001019080831161330e575b505050505083600801600580602002604051908101604052809291908260058015613362576020028201915b81548152602001906001019080831161334e575b50505050506133eb565b82600d0160006101000a81548160ff021916908360ff1602179055506133a282600d0160009054906101000a900460ff1661368b565b82600e018190555082867f86dc71b58256a2aebe2afe6d9153ce25cb709dff36adfd6807758636d89e0e44836040516133db9190614642565b60405180910390a3505050505050565b600080600090506133fa613d1c565b60005b60058160ff1610156134da5760005b60058160ff1610156134c657828160ff166005811061342e5761342d6149ef565b5b60200201511580156134735750858160ff1660058110613451576134506149ef565b5b6020020151878360ff166005811061346c5761346b6149ef565b5b6020020151145b156134b35760018461348591906153d6565b93506001838260ff166005811061349f5761349e6149ef565b5b6020020190151590811515815250506134c6565b80806134be9061540b565b91505061340c565b5080806134d29061540b565b9150506133fd565b50819250505092915050565b6134ee613cfa565b6134f6613d3e565b6134fe613cfa565b600080856040516020016135129190614642565b60405160208183030381529060405280519060200120905060005b600583101561362f5760208160ff161061357157818160405160200161355492919061544d565b604051602081830303815290604052805190602001209150600090505b60006025838360ff166020811061358b5761358a6149ef565b5b1a60f81b60f81c61359c9190615476565b905081806135a99061540b565b9250506000868260ff16602581106135c4576135c36149ef565b5b602002015160ff1603613629576001868260ff16602581106135e9576135e86149ef565b5b602002019060ff16908160ff16815250508060ff16858560058110613611576136106149ef565b5b602002018181525050838061362590614ab3565b9450505b5061352d565b8395505050505050919050565b600260035403613681576040517f08c379a0000000000000000000000000000000000000000000000000000000008152600401613678906154f3565b60405180910390fd5b6002600381905550565b600060058260ff1611156136d4576040517f08c379a00000000000000000000000000000000000000000000000000000000081526004016136cb9061555f565b60405180910390fd5b60006040518060c001604052806000815260200166027ca57357c000815260200166044364c5bb00008152602001662386f26fc10000815260200167016345785d8a000081526020016015548152509050808360ff166006811061373b5761373a6149ef565b5b6020020151915050919050565b6000811161378b576040517f08c379a0000000000000000000000000000000000000000000000000000000008152600401613782906155cb565b60405180910390fd5b60008273ffffffffffffffffffffffffffffffffffffffff16826040516137b190614c3b565b60006040518083038185875af1925050503d80600081146137ee576040519150601f19603f3d011682016040523d82523d6000602084013e6137f3565b606091505b5050905080613837576040517f08c379a000000000000000000000000000000000000000000000000000000000815260040161382e90615637565b60405180910390fd5b505050565b6001600381905550565b60008054906101000a900473ffffffffffffffffffffffffffffffffffffffff1673ffffffffffffffffffffffffffffffffffffffff163373ffffffffffffffffffffffffffffffffffffffff16146138d4576040517f08c379a00000000000000000000000000000000000000000000000000000000081526004016138cb906156a3565b60405180910390fd5b565b3373ffffffffffffffffffffffffffffffffffffffff168173ffffffffffffffffffffffffffffffffffffffff1603613944576040517f08c379a000000000000000000000000000000000000000000000000000000000815260040161393b9061570f565b60405180910390fd5b80600160006101000a81548173ffffffffffffffffffffffffffffffffffffffff021916908373ffffffffffffffffffffffffffffffffffffffff1602179055508073ffffffffffffffffffffffffffffffffffffffff1660008054906101000a900473ffffffffffffffffffffffffffffffffffffffff1673ffffffffffffffffffffffffffffffffffffffff167fed8889f560326eb138920d842192f0eb3dd22b4f139c87a2c57538e05bae127860405160405180910390a350565b600080600260009054906101000a900473ffffffffffffffffffffffffffffffffffffffff1673ffffffffffffffffffffffffffffffffffffffff16639b1c385e6040518060c001604052807f787d74caea10b2b357790d5b5247c2f63d1d91572a9846f780606e4d953677ae60001b81526020017f00000000000000000000000000000000000000000000000000000000000000008152602001600361ffff168152602001622625a063ffffffff168152602001600160ff1663ffffffff168152602001613ae1604051806020016040528060001515815250613b94565b8152506040518263ffffffff1660e01b8152600401613b009190615864565b6020604051808303816000875af1158015613b1f573d6000803e3d6000fd5b505050506040513d601f19601f82011682018060405250810190613b43919061589b565b905082602160008381526020019081526020016000208190555082817fc904ef81354df41ed9256aa2ab862017f6ab3f33f3f7ca50016a1786083d086d60405160405180910390a380915050919050565b60607f92fd13387c7fe7befbc38d303d6468778fb9731bc4583f17d92989c6fcfdeaaa82604051602401613bc891906158e4565b604051602081830303815290604052907bffffffffffffffffffffffffffffffffffffffffffffffffffffffff19166020820180517bffffffffffffffffffffffffffffffffffffffffffffffffffffffff83818316178352505050509050919050565b8260058101928215613c5b579160200282015b82811115613c5a578251825591602001919060010190613c3f565b5b509050613c689190613d61565b5090565b60405180610180016040528060008152602001600073ffffffffffffffffffffffffffffffffffffffff16815260200160008152602001613cab613cfa565b8152602001613cb8613cfa565b8152602001600060ff16815260200160008152602001600081526020016000151581526020016000151581526020016000151581526020016000151581525090565b6040518060a00160405280600590602082028036833780820191505090505090565b6040518060a00160405280600590602082028036833780820191505090505090565b604051806104a00160405280602590602082028036833780820191505090505090565b5b80821115613d7a576000816000905550600101613d62565b5090565b600082825260208201905092915050565b7f496e76616c69642063616c6c0000000000000000000000000000000000000000600082015250565b6000613dc5600c83613d7e565b9150613dd082613d8f565b602082019050919050565b60006020820190508181036000830152613df481613db8565b9050919050565b6000604051905090565b600080fd5b600080fd5b6000819050919050565b613e2281613e0f565b8114613e2d57600080fd5b50565b600081359050613e3f81613e19565b92915050565b600080fd5b6000601f19601f8301169050919050565b7f4e487b7100000000000000000000000000000000000000000000000000000000600052604160045260246000fd5b613e9382613e4a565b810181811067ffffffffffffffff82111715613eb257613eb1613e5b565b5b80604052505050565b6000613ec5613dfb565b9050613ed18282613e8a565b919050565b600067ffffffffffffffff821115613ef157613ef0613e5b565b5b602082029050919050565b600080fd5b6000613f14613f0f84613ed6565b613ebb565b90508060208402830185811115613f2e57613f2d613efc565b5b835b81811015613f575780613f438882613e30565b845260208401935050602081019050613f30565b5050509392505050565b600082601f830112613f7657613f75613e45565b5b6005613f83848285613f01565b91505092915050565b60008060c08385031215613fa357613fa2613e05565b5b6000613fb185828601613e30565b9250506020613fc285828601613f61565b9150509250929050565b600081519050919050565b600082825260208201905092915050565b6000819050602082019050919050565b61400181613e0f565b82525050565b600073ffffffffffffffffffffffffffffffffffffffff82169050919050565b600061403282614007565b9050919050565b61404281614027565b82525050565b600060059050919050565b600081905092915050565b6000819050919050565b60006140748383613ff8565b60208301905092915050565b6000602082019050919050565b61409681614048565b6140a08184614053565b92506140ab8261405e565b8060005b838110156140dc5781516140c38782614068565b96506140ce83614080565b9250506001810190506140af565b505050505050565b600060ff82169050919050565b6140fa816140e4565b82525050565b60008115159050919050565b61411581614100565b82525050565b610280820160008201516141326000850182613ff8565b5060208201516141456020850182614039565b5060408201516141586040850182613ff8565b50606082015161416b606085018261408d565b50608082015161417f61010085018261408d565b5060a08201516141936101a08501826140f1565b5060c08201516141a76101c0850182613ff8565b5060e08201516141bb6101e0850182613ff8565b506101008201516141d061020085018261410c565b506101208201516141e561022085018261410c565b506101408201516141fa61024085018261410c565b5061016082015161420f61026085018261410c565b50505050565b6000614221838361411b565b6102808301905092915050565b6000602082019050919050565b600061424682613fcc565b6142508185613fd7565b935061425b83613fe8565b8060005b8381101561428c5781516142738882614215565b975061427e8361422e565b92505060018101905061425f565b5085935050505092915050565b600060208201905081810360008301526142b3818461423b565b905092915050565b6142c481613e0f565b82525050565b6142d381614027565b82525050565b6142e2816140e4565b82525050565b6142f181614100565b82525050565b60006101408201905061430d600083018d6142bb565b61431a602083018c6142ca565b614327604083018b6142bb565b614334606083018a6142d9565b61434160808301896142bb565b61434e60a08301886142bb565b61435b60c08301876142e8565b61436860e08301866142e8565b6143766101008301856142e8565b6143846101208301846142e8565b9b9a5050505050505050505050565b610280820160008201516143aa6000850182613ff8565b5060208201516143bd6020850182614039565b5060408201516143d06040850182613ff8565b5060608201516143e3606085018261408d565b5060808201516143f761010085018261408d565b5060a082015161440b6101a08501826140f1565b5060c082015161441f6101c0850182613ff8565b5060e08201516144336101e0850182613ff8565b5061010082015161444861020085018261410c565b5061012082015161445d61022085018261410c565b5061014082015161447261024085018261410c565b5061016082015161448761026085018261410c565b50505050565b6000610280820190506144a36000830184614393565b92915050565b600080fd5b60008083601f8401126144c4576144c3613e45565b5b8235905067ffffffffffffffff8111156144e1576144e06144a9565b5b6020830191508360208202830111156144fd576144fc613efc565b5b9250929050565b60008060006040848603121561451d5761451c613e05565b5b600061452b86828701613e30565b935050602084013567ffffffffffffffff81111561454c5761454b613e0a565b5b614558868287016144ae565b92509250509250925092565b60006020828403121561457a57614579613e05565b5b600061458884828501613e30565b91505092915050565b600063ffffffff82169050919050565b6145aa81614591565b82525050565b60006020820190506145c560008301846145a1565b92915050565b60006020820190506145e060008301846142d9565b92915050565b60006020820190506145fb60008301846142ca565b92915050565b600080610140838503121561461957614618613e05565b5b600061462785828601613f61565b92505060a061463885828601613f61565b9150509250929050565b600060208201905061465760008301846142bb565b92915050565b600081905092915050565b61467181614048565b61467b818461465d565b92506146868261405e565b8060005b838110156146b757815161469e8782614068565b96506146a983614080565b92505060018101905061468a565b505050505050565b600060a0820190506146d46000830184614668565b92915050565b600061ffff82169050919050565b6146f1816146da565b82525050565b600060208201905061470c60008301846146e8565b92915050565b61471b81614027565b811461472657600080fd5b50565b60008135905061473881614712565b92915050565b6000806040838503121561475557614754613e05565b5b600061476385828601614729565b925050602061477485828601613e30565b9150509250929050565b60006020828403121561479457614793613e05565b5b60006147a284828501614729565b91505092915050565b6000819050919050565b60006147d06147cb6147c684614007565b6147ab565b614007565b9050919050565b60006147e2826147b5565b9050919050565b60006147f4826147d7565b9050919050565b614804816147e9565b82525050565b600060208201905061481f60008301846147fb565b92915050565b61482e816140e4565b811461483957600080fd5b50565b60008135905061484b81614825565b92915050565b60006020828403121561486757614866613e05565b5b60006148758482850161483c565b91505092915050565b7f4e487b7100000000000000000000000000000000000000000000000000000000600052601160045260246000fd5b60006148b882613e0f565b91506148c383613e0f565b92508282026148d181613e0f565b915082820484148315176148e8576148e761487e565b5b5092915050565b7f4e487b7100000000000000000000000000000000000000000000000000000000600052601260045260246000fd5b600061492982613e0f565b915061493483613e0f565b925082614944576149436148ef565b5b828204905092915050565b600061495a82613e0f565b915061496583613e0f565b925082820190508082111561497d5761497c61487e565b5b92915050565b7f4f6e6c7920666f72206f776e6572000000000000000000000000000000000000600082015250565b60006149b9600e83613d7e565b91506149c482614983565b602082019050919050565b600060208201905081810360008301526149e8816149ac565b9050919050565b7f4e487b7100000000000000000000000000000000000000000000000000000000600052603260045260246000fd5b6000604082019050614a3360008301856142ca565b614a4060208301846142ca565b9392505050565b7f596f7520617265206e6f7420746865207469636b6574206f776e657200000000600082015250565b6000614a7d601c83613d7e565b9150614a8882614a47565b602082019050919050565b60006020820190508181036000830152614aac81614a70565b9050919050565b6000614abe82613e0f565b91507fffffffffffffffffffffffffffffffffffffffffffffffffffffffffffffffff8203614af057614aef61487e565b5b600182019050919050565b7f4d7573742062652070726f706f736564206f776e657200000000000000000000600082015250565b6000614b31601683613d7e565b9150614b3c82614afb565b602082019050919050565b60006020820190508181036000830152614b6081614b24565b9050919050565b6000606082019050614b7c60008301866142ca565b614b8960208301856142ca565b614b9660408301846142ca565b949350505050565b7f4e6f7468696e6720746f20776974686472617700000000000000000000000000600082015250565b6000614bd4601383613d7e565b9150614bdf82614b9e565b602082019050919050565b60006020820190508181036000830152614c0381614bc7565b9050919050565b600081905092915050565b50565b6000614c25600083614c0a565b9150614c3082614c15565b600082019050919050565b6000614c4682614c18565b9150819050919050565b7f4f776e657242616c616e6365207769746864726177616c206661696c65640000600082015250565b6000614c86601e83613d7e565b9150614c9182614c50565b602082019050919050565b60006020820190508181036000830152614cb581614c79565b9050919050565b7f4f6e6c79207469636b6574206f776e65722063616e20636c61696d0000000000600082015250565b6000614cf2601b83613d7e565b9150614cfd82614cbc565b602082019050919050565b60006020820190508181036000830152614d2181614ce5565b9050919050565b7f5469636b657420646f6573206e6f742065786973740000000000000000000000600082015250565b6000614d5e601583613d7e565b9150614d6982614d28565b602082019050919050565b60006020820190508181036000830152614d8d81614d51565b9050919050565b7f436f6d62696e6174696f6e206e6f74207375626d697474656400000000000000600082015250565b6000614dca601983613d7e565b9150614dd582614d94565b602082019050919050565b60006020820190508181036000830152614df981614dbd565b9050919050565b7f57696e6e696e67206e6f742067656e6572617465640000000000000000000000600082015250565b6000614e36601583613d7e565b9150614e4182614e00565b602082019050919050565b60006020820190508181036000830152614e6581614e29565b9050919050565b7f52657761726420616c726561647920636c61696d656400000000000000000000600082015250565b6000614ea2601683613d7e565b9150614ead82614e6c565b602082019050919050565b60006020820190508181036000830152614ed181614e95565b9050919050565b7f4e6f2072657761726420746f20636c61696d0000000000000000000000000000600082015250565b6000614f0e601283613d7e565b9150614f1982614ed8565b602082019050919050565b60006020820190508181036000830152614f3d81614f01565b9050919050565b6000614f4f82613e0f565b9150614f5a83613e0f565b9250828203905081811115614f7257614f7161487e565b5b92915050565b7f4a61636b706f74207769746864726177616c206661696c656400000000000000600082015250565b6000614fae601983613d7e565b9150614fb982614f78565b602082019050919050565b60006020820190508181036000830152614fdd81614fa1565b9050919050565b7f4f6e6c79207265616c20706c6179657273210000000000000000000000000000600082015250565b600061501a601283613d7e565b915061502582614fe4565b602082019050919050565b600060208201905081810360008301526150498161500d565b9050919050565b7f5472616e73616374696f6e2076616c756520697320746f6f206c6f7721000000600082015250565b6000615086601d83613d7e565b915061509182615050565b602082019050919050565b600060208201905081810360008301526150b581615079565b9050919050565b7f4f7065726174696f6e7342616c616e6365207769746864726177616c2066616960008201527f6c65640000000000000000000000000000000000000000000000000000000000602082015250565b6000615118602383613d7e565b9150615123826150bc565b604082019050919050565b600060208201905081810360008301526151478161510b565b9050919050565b7f596f7520617265206e6f7420746865206f776e65720000000000000000000000600082015250565b6000615184601583613d7e565b915061518f8261514e565b602082019050919050565b600060208201905081810360008301526151b381615177565b9050919050565b7f416c7265616479207375626d6974746564000000000000000000000000000000600082015250565b60006151f0601183613d7e565b91506151fb826151ba565b602082019050919050565b6000602082019050818103600083015261521f816151e3565b9050919050565b7f4e756d626572206f7574206f662072616e67652028302d333629000000000000600082015250565b600061525c601a83613d7e565b915061526782615226565b602082019050919050565b6000602082019050818103600083015261528b8161524f565b9050919050565b7f4475706c6963617465206e756d62657273206e6f7420616c6c6f776564000000600082015250565b60006152c8601d83613d7e565b91506152d382615292565b602082019050919050565b600060208201905081810360008301526152f7816152bb565b9050919050565b7f416c726561647920726571756573746564000000000000000000000000000000600082015250565b6000615334601183613d7e565b915061533f826152fe565b602082019050919050565b6000602082019050818103600083015261536381615327565b9050919050565b7f416c72656164792067656e657261746564000000000000000000000000000000600082015250565b60006153a0601183613d7e565b91506153ab8261536a565b602082019050919050565b600060208201905081810360008301526153cf81615393565b9050919050565b60006153e1826140e4565b91506153ec836140e4565b9250828201905060ff8111156154055761540461487e565b5b92915050565b6000615416826140e4565b915060ff82036154295761542861487e565b5b600182019050919050565b6000819050919050565b61544781615434565b82525050565b6000604082019050615462600083018561543e565b61546f60208301846142d9565b9392505050565b6000615481826140e4565b915061548c836140e4565b92508261549c5761549b6148ef565b5b828206905092915050565b7f5265656e7472616e637947756172643a207265656e7472616e742063616c6c00600082015250565b60006154dd601f83613d7e565b91506154e8826154a7565b602082019050919050565b6000602082019050818103600083015261550c816154d0565b9050919050565b7f556e6578706563746564206d61746368696e67206e756d62657220636f756e74600082015250565b6000615549602083613d7e565b915061555482615513565b602082019050919050565b600060208201905081810360008301526155788161553c565b9050919050565b7f4e6f2072657761726420746f2073656e64000000000000000000000000000000600082015250565b60006155b5601183613d7e565b91506155c08261557f565b602082019050919050565b600060208201905081810360008301526155e4816155a8565b9050919050565b7f526577617264207472616e73666572206661696c656400000000000000000000600082015250565b6000615621601683613d7e565b915061562c826155eb565b602082019050919050565b6000602082019050818103600083015261565081615614565b9050919050565b7f4f6e6c792063616c6c61626c65206279206f776e657200000000000000000000600082015250565b600061568d601683613d7e565b915061569882615657565b602082019050919050565b600060208201905081810360008301526156bc81615680565b9050919050565b7f43616e6e6f74207472616e7366657220746f2073656c66000000000000000000600082015250565b60006156f9601783613d7e565b9150615704826156c3565b602082019050919050565b60006020820190508181036000830152615728816156ec565b9050919050565b61573881615434565b82525050565b615747816146da565b82525050565b61575681614591565b82525050565b600081519050919050565b600082825260208201905092915050565b60005b8381101561579657808201518184015260208101905061577b565b60008484015250505050565b60006157ad8261575c565b6157b78185615767565b93506157c7818560208601615778565b6157d081613e4a565b840191505092915050565b600060c0830160008301516157f3600086018261572f565b5060208301516158066020860182613ff8565b506040830151615819604086018261573e565b50606083015161582c606086018261574d565b50608083015161583f608086018261574d565b5060a083015184820360a086015261585782826157a2565b9150508091505092915050565b6000602082019050818103600083015261587e81846157db565b905092915050565b60008151905061589581613e19565b92915050565b6000602082840312156158b1576158b0613e05565b5b60006158bf84828501615886565b91505092915050565b6020820160008201516158de600085018261410c565b50505050565b60006020820190506158f960008301846158c8565b9291505056fea2646970667358221220297a59464e0d972fe8ec1e28dbf116361b98936625d67e0d7fa503661b948b8d64736f6c634300081c0033",
  "linkReferences": {},
  "deployedLinkReferences": {}
}