{
  "_format": "hh-sol-artifact-1",
  "contractName": "LotteryTest",
  "sourceName": "contracts/LotteryTest.sol",
  "abi": [
    {
      "inputs": [
        {
          "internalType": "address",
          "name": "_vrfCoordinator",
          "type": "address"
        },
        {
          "internalType": "uint256",
          "name": "_subscriptionId",
          "type": "uint256"
        }
      ],
      "stateMutability": "nonpayable",
      "type": "constructor"
    },
    {
      "inputs": [
        {
          "internalType": "address",
          "name": "have",
          "type": "address"
        },
        {
          "internalType": "address",
          "name": "want",
          "type": "address"
        }
      ],
      "name": "OnlyCoordinatorCanFulfill",
      "type": "error"
    },
    {
      "inputs": [
        {
          "internalType": "address",
          "name": "have",
          "type": "address"
        },
        {
          "internalType": "address",
          "name": "owner",
          "type": "address"
        },
        {
          "internalType": "address",
          "name": "coordinator",
          "type": "address"
        }
      ],
      "name": "OnlyOwnerOrCoordinator",
      "type": "error"
    },
    {
      "inputs": [],
      "name": "ZeroAddress",
      "type": "error"
    },
    {
      "anonymous": false,
      "inputs": [
        {
          "indexed": false,
          "internalType": "address",
          "name": "vrfCoordinator",
          "type": "address"
        }
      ],
      "name": "CoordinatorSet",
      "type": "event"
    },
    {
      "anonymous": false,
      "inputs": [
        {
          "indexed": true,
          "internalType": "address",
          "name": "owner",
          "type": "address"
        },
        {
          "indexed": true,
          "internalType": "uint256",
          "name": "amount",
          "type": "uint256"
        }
      ],
      "name": "Distribute",
      "type": "event"
    },
    {
      "anonymous": false,
      "inputs": [
        {
          "indexed": true,
          "internalType": "address",
          "name": "owner",
          "type": "address"
        },
        {
          "indexed": true,
          "internalType": "uint256",
          "name": "ticketNumber",
          "type": "uint256"
        },
        {
          "indexed": false,
          "internalType": "uint256[5]",
          "name": "playerCombination",
          "type": "uint256[5]"
        },
        {
          "indexed": false,
          "internalType": "uint256[5]",
          "name": "winningCombination",
          "type": "uint256[5]"
        },
        {
          "indexed": false,
          "internalType": "uint8",
          "name": "matchingNumbers",
          "type": "uint8"
        },
        {
          "indexed": true,
          "internalType": "uint256",
          "name": "rewardAmount",
          "type": "uint256"
        }
      ],
      "name": "LotteryResults",
      "type": "event"
    },
    {
      "anonymous": false,
      "inputs": [
        {
          "indexed": true,
          "internalType": "address",
          "name": "owner",
          "type": "address"
        },
        {
          "indexed": true,
          "internalType": "uint256",
          "name": "amount",
          "type": "uint256"
        }
      ],
      "name": "OperationsBalanceWithdraw",
      "type": "event"
    },
    {
      "anonymous": false,
      "inputs": [
        {
          "indexed": true,
          "internalType": "address",
          "name": "owner",
          "type": "address"
        },
        {
          "indexed": true,
          "internalType": "uint256",
          "name": "amount",
          "type": "uint256"
        }
      ],
      "name": "OwnerBalanceWithdraw",
      "type": "event"
    },
    {
      "anonymous": false,
      "inputs": [
        {
          "indexed": true,
          "internalType": "address",
          "name": "from",
          "type": "address"
        },
        {
          "indexed": true,
          "internalType": "address",
          "name": "to",
          "type": "address"
        }
      ],
      "name": "OwnershipTransferRequested",
      "type": "event"
    },
    {
      "anonymous": false,
      "inputs": [
        {
          "indexed": true,
          "internalType": "address",
          "name": "from",
          "type": "address"
        },
        {
          "indexed": true,
          "internalType": "address",
          "name": "to",
          "type": "address"
        }
      ],
      "name": "OwnershipTransferred",
      "type": "event"
    },
    {
      "anonymous": false,
      "inputs": [
        {
          "indexed": true,
          "internalType": "address",
          "name": "player",
          "type": "address"
        },
        {
          "indexed": false,
          "internalType": "uint256[5]",
          "name": "combination",
          "type": "uint256[5]"
        }
      ],
      "name": "PlayerCombinationSubmitted",
      "type": "event"
    },
    {
      "anonymous": false,
      "inputs": [
        {
          "indexed": true,
          "internalType": "uint256",
          "name": "requestId",
          "type": "uint256"
        },
        {
          "indexed": true,
          "internalType": "uint256",
          "name": "ticketNumber",
          "type": "uint256"
        },
        {
          "indexed": false,
          "internalType": "uint256",
          "name": "number",
          "type": "uint256"
        }
      ],
      "name": "RandomNumberGenerated",
      "type": "event"
    },
    {
      "anonymous": false,
      "inputs": [
        {
          "indexed": true,
          "internalType": "uint256",
          "name": "requestId",
          "type": "uint256"
        },
        {
          "indexed": true,
          "internalType": "uint256",
          "name": "ticketId",
          "type": "uint256"
        }
      ],
      "name": "RandomWordsRequested",
      "type": "event"
    },
    {
      "anonymous": false,
      "inputs": [
        {
          "indexed": true,
          "internalType": "address",
          "name": "player",
          "type": "address"
        },
        {
          "indexed": true,
          "internalType": "uint256",
          "name": "ticketId",
          "type": "uint256"
        },
        {
          "indexed": true,
          "internalType": "uint256",
          "name": "amount",
          "type": "uint256"
        }
      ],
      "name": "RewardClaimed",
      "type": "event"
    },
    {
      "anonymous": false,
      "inputs": [
        {
          "indexed": true,
          "internalType": "address",
          "name": "player",
          "type": "address"
        },
        {
          "indexed": true,
          "internalType": "uint256",
          "name": "ticketNumber",
          "type": "uint256"
        }
      ],
      "name": "TicketPurchased",
      "type": "event"
    },
    {
      "anonymous": false,
      "inputs": [
        {
          "indexed": true,
          "internalType": "uint256",
          "name": "ticketNumber",
          "type": "uint256"
        },
        {
          "indexed": false,
          "internalType": "uint256[5]",
          "name": "combination",
          "type": "uint256[5]"
        }
      ],
      "name": "WinningCombinationGenerated",
      "type": "event"
    },
    {
      "stateMutability": "payable",
      "type": "fallback"
    },
    {
      "inputs": [],
      "name": "CALLBACK_GAS_LIMIT",
      "outputs": [
        {
          "internalType": "uint32",
          "name": "",
          "type": "uint32"
        }
      ],
      "stateMutability": "view",
      "type": "function"
    },
    {
      "inputs": [],
      "name": "NUMBER_OF_WORDS",
      "outputs": [
        {
          "internalType": "uint8",
          "name": "",
          "type": "uint8"
        }
      ],
      "stateMutability": "view",
      "type": "function"
    },
    {
      "inputs": [],
      "name": "NUMBER_RANGE",
      "outputs": [
        {
          "internalType": "uint8",
          "name": "",
          "type": "uint8"
        }
      ],
      "stateMutability": "view",
      "type": "function"
    },
    {
      "inputs": [],
      "name": "REQUEST_CONFIRMATIONS",
      "outputs": [
        {
          "internalType": "uint16",
          "name": "",
          "type": "uint16"
        }
      ],
      "stateMutability": "view",
      "type": "function"
    },
    {
      "inputs": [],
      "name": "TICKET_PRICE_WEI",
      "outputs": [
        {
          "internalType": "uint256",
          "name": "",
          "type": "uint256"
        }
      ],
      "stateMutability": "view",
      "type": "function"
    },
    {
      "inputs": [],
      "name": "acceptOwnership",
      "outputs": [],
      "stateMutability": "nonpayable",
      "type": "function"
    },
    {
      "inputs": [],
      "name": "assignTestTicket",
      "outputs": [],
      "stateMutability": "nonpayable",
      "type": "function"
    },
    {
      "inputs": [],
      "name": "buyTicket",
      "outputs": [],
      "stateMutability": "payable",
      "type": "function"
    },
    {
      "inputs": [
        {
          "internalType": "uint256",
          "name": "ticketId",
          "type": "uint256"
        }
      ],
      "name": "claimReward",
      "outputs": [],
      "stateMutability": "nonpayable",
      "type": "function"
    },
    {
      "inputs": [],
      "name": "getContractOwner",
      "outputs": [
        {
          "internalType": "address",
          "name": "",
          "type": "address"
        }
      ],
      "stateMutability": "view",
      "type": "function"
    },
    {
      "inputs": [],
      "name": "getJackpot",
      "outputs": [
        {
          "internalType": "uint256",
          "name": "",
          "type": "uint256"
        }
      ],
      "stateMutability": "view",
      "type": "function"
    },
    {
      "inputs": [],
      "name": "getOperationsBalance",
      "outputs": [
        {
          "internalType": "uint256",
          "name": "",
          "type": "uint256"
        }
      ],
      "stateMutability": "view",
      "type": "function"
    },
    {
      "inputs": [],
      "name": "getOwnerBalance",
      "outputs": [
        {
          "internalType": "uint256",
          "name": "",
          "type": "uint256"
        }
      ],
      "stateMutability": "view",
      "type": "function"
    },
    {
      "inputs": [],
      "name": "getPlayerTickets",
      "outputs": [
        {
          "components": [
            {
              "internalType": "uint256",
              "name": "id",
              "type": "uint256"
            },
            {
              "internalType": "address",
              "name": "owner",
              "type": "address"
            },
            {
              "internalType": "uint256",
              "name": "purchaseTimestamp",
              "type": "uint256"
            },
            {
              "internalType": "uint256[5]",
              "name": "playerCombination",
              "type": "uint256[5]"
            },
            {
              "internalType": "uint256[5]",
              "name": "winningCombination",
              "type": "uint256[5]"
            },
            {
              "internalType": "bool",
              "name": "isRewardClaimed",
              "type": "bool"
            },
            {
              "internalType": "bool",
              "name": "playerCombinationSubmitted",
              "type": "bool"
            },
            {
              "internalType": "bool",
              "name": "winningCombinationGenerated",
              "type": "bool"
            }
          ],
          "internalType": "struct LotteryTest.LotteryTicket[]",
          "name": "",
          "type": "tuple[]"
        }
      ],
      "stateMutability": "view",
      "type": "function"
    },
    {
      "inputs": [],
      "name": "getTestTicket",
      "outputs": [
        {
          "components": [
            {
              "internalType": "uint256",
              "name": "id",
              "type": "uint256"
            },
            {
              "internalType": "address",
              "name": "owner",
              "type": "address"
            },
            {
              "internalType": "uint256",
              "name": "purchaseTimestamp",
              "type": "uint256"
            },
            {
              "internalType": "uint256[5]",
              "name": "playerCombination",
              "type": "uint256[5]"
            },
            {
              "internalType": "uint256[5]",
              "name": "winningCombination",
              "type": "uint256[5]"
            },
            {
              "internalType": "bool",
              "name": "isRewardClaimed",
              "type": "bool"
            },
            {
              "internalType": "bool",
              "name": "playerCombinationSubmitted",
              "type": "bool"
            },
            {
              "internalType": "bool",
              "name": "winningCombinationGenerated",
              "type": "bool"
            }
          ],
          "internalType": "struct LotteryTest.LotteryTicket",
          "name": "",
          "type": "tuple"
        }
      ],
      "stateMutability": "view",
      "type": "function"
    },
    {
      "inputs": [
        {
          "internalType": "uint256",
          "name": "ticketId",
          "type": "uint256"
        }
      ],
      "name": "getTicketById",
      "outputs": [
        {
          "components": [
            {
              "internalType": "uint256",
              "name": "id",
              "type": "uint256"
            },
            {
              "internalType": "address",
              "name": "owner",
              "type": "address"
            },
            {
              "internalType": "uint256",
              "name": "purchaseTimestamp",
              "type": "uint256"
            },
            {
              "internalType": "uint256[5]",
              "name": "playerCombination",
              "type": "uint256[5]"
            },
            {
              "internalType": "uint256[5]",
              "name": "winningCombination",
              "type": "uint256[5]"
            },
            {
              "internalType": "bool",
              "name": "isRewardClaimed",
              "type": "bool"
            },
            {
              "internalType": "bool",
              "name": "playerCombinationSubmitted",
              "type": "bool"
            },
            {
              "internalType": "bool",
              "name": "winningCombinationGenerated",
              "type": "bool"
            }
          ],
          "internalType": "struct LotteryTest.LotteryTicket",
          "name": "",
          "type": "tuple"
        }
      ],
      "stateMutability": "view",
      "type": "function"
    },
    {
      "inputs": [],
      "name": "getWinningCombination",
      "outputs": [
        {
          "internalType": "uint256[5]",
          "name": "",
          "type": "uint256[5]"
        }
      ],
      "stateMutability": "view",
      "type": "function"
    },
    {
      "inputs": [],
      "name": "jackpot",
      "outputs": [
        {
          "internalType": "uint256",
          "name": "",
          "type": "uint256"
        }
      ],
      "stateMutability": "view",
      "type": "function"
    },
    {
      "inputs": [],
      "name": "nextTicketId",
      "outputs": [
        {
          "internalType": "uint256",
          "name": "",
          "type": "uint256"
        }
      ],
      "stateMutability": "view",
      "type": "function"
    },
    {
      "inputs": [],
      "name": "owner",
      "outputs": [
        {
          "internalType": "address",
          "name": "",
          "type": "address"
        }
      ],
      "stateMutability": "view",
      "type": "function"
    },
    {
      "inputs": [
        {
          "internalType": "address",
          "name": "",
          "type": "address"
        },
        {
          "internalType": "uint256",
          "name": "",
          "type": "uint256"
        }
      ],
      "name": "playerTickets",
      "outputs": [
        {
          "internalType": "uint256",
          "name": "id",
          "type": "uint256"
        },
        {
          "internalType": "address",
          "name": "owner",
          "type": "address"
        },
        {
          "internalType": "uint256",
          "name": "purchaseTimestamp",
          "type": "uint256"
        },
        {
          "internalType": "bool",
          "name": "isRewardClaimed",
          "type": "bool"
        },
        {
          "internalType": "bool",
          "name": "playerCombinationSubmitted",
          "type": "bool"
        },
        {
          "internalType": "bool",
          "name": "winningCombinationGenerated",
          "type": "bool"
        }
      ],
      "stateMutability": "view",
      "type": "function"
    },
    {
      "inputs": [
        {
          "internalType": "uint256",
          "name": "ticketId",
          "type": "uint256"
        }
      ],
      "name": "previewResults",
      "outputs": [
        {
          "internalType": "uint8",
          "name": "matchingNumbers",
          "type": "uint8"
        },
        {
          "internalType": "uint256",
          "name": "rewardAmount",
          "type": "uint256"
        },
        {
          "internalType": "uint256[5]",
          "name": "playerCombination",
          "type": "uint256[5]"
        },
        {
          "internalType": "uint256[5]",
          "name": "winningCombination",
          "type": "uint256[5]"
        }
      ],
      "stateMutability": "view",
      "type": "function"
    },
    {
      "inputs": [
        {
          "internalType": "uint256",
          "name": "requestId",
          "type": "uint256"
        },
        {
          "internalType": "uint256[]",
          "name": "randomWords",
          "type": "uint256[]"
        }
      ],
      "name": "rawFulfillRandomWords",
      "outputs": [],
      "stateMutability": "nonpayable",
      "type": "function"
    },
    {
      "inputs": [
        {
          "internalType": "uint256",
          "name": "",
          "type": "uint256"
        }
      ],
      "name": "requestIdToTicketId",
      "outputs": [
        {
          "internalType": "uint256",
          "name": "",
          "type": "uint256"
        }
      ],
      "stateMutability": "view",
      "type": "function"
    },
    {
      "inputs": [],
      "name": "s_vrfCoordinator",
      "outputs": [
        {
          "internalType": "contract IVRFCoordinatorV2Plus",
          "name": "",
          "type": "address"
        }
      ],
      "stateMutability": "view",
      "type": "function"
    },
    {
      "inputs": [
        {
          "internalType": "address",
          "name": "_vrfCoordinator",
          "type": "address"
        }
      ],
      "name": "setCoordinator",
      "outputs": [],
      "stateMutability": "nonpayable",
      "type": "function"
    },
    {
      "inputs": [
        {
          "internalType": "uint256",
          "name": "ticketId",
          "type": "uint256"
        },
        {
          "internalType": "uint256[5]",
          "name": "playerCombination",
          "type": "uint256[5]"
        }
      ],
      "name": "submitCombination",
      "outputs": [],
      "stateMutability": "nonpayable",
      "type": "function"
    },
    {
      "inputs": [
        {
          "internalType": "uint256",
          "name": "amount",
          "type": "uint256"
        }
      ],
      "name": "testDistribute",
      "outputs": [],
      "stateMutability": "nonpayable",
      "type": "function"
    },
    {
      "inputs": [],
      "name": "testTicket",
      "outputs": [
        {
          "internalType": "uint256",
          "name": "id",
          "type": "uint256"
        },
        {
          "internalType": "address",
          "name": "owner",
          "type": "address"
        },
        {
          "internalType": "uint256",
          "name": "purchaseTimestamp",
          "type": "uint256"
        },
        {
          "internalType": "bool",
          "name": "isRewardClaimed",
          "type": "bool"
        },
        {
          "internalType": "bool",
          "name": "playerCombinationSubmitted",
          "type": "bool"
        },
        {
          "internalType": "bool",
          "name": "winningCombinationGenerated",
          "type": "bool"
        }
      ],
      "stateMutability": "view",
      "type": "function"
    },
    {
      "inputs": [
        {
          "internalType": "uint8",
          "name": "matchingNumbers",
          "type": "uint8"
        }
      ],
      "name": "test_calculateReward",
      "outputs": [
        {
          "internalType": "uint256",
          "name": "",
          "type": "uint256"
        }
      ],
      "stateMutability": "view",
      "type": "function"
    },
    {
      "inputs": [
        {
          "internalType": "uint256[5]",
          "name": "playerCombination",
          "type": "uint256[5]"
        },
        {
          "internalType": "uint256[5]",
          "name": "winningCombination",
          "type": "uint256[5]"
        }
      ],
      "name": "test_checkWinningCombination",
      "outputs": [
        {
          "internalType": "uint8",
          "name": "",
          "type": "uint8"
        }
      ],
      "stateMutability": "pure",
      "type": "function"
    },
    {
      "inputs": [
        {
          "internalType": "uint256",
          "name": "requestId",
          "type": "uint256"
        },
        {
          "internalType": "uint256[]",
          "name": "randomWords",
          "type": "uint256[]"
        }
      ],
      "name": "test_fulfillRandomWords",
      "outputs": [],
      "stateMutability": "nonpayable",
      "type": "function"
    },
    {
      "inputs": [
        {
          "internalType": "uint256",
          "name": "randomWord",
          "type": "uint256"
        }
      ],
      "name": "test_generateWinningCombination",
      "outputs": [
        {
          "internalType": "uint256[5]",
          "name": "",
          "type": "uint256[5]"
        }
      ],
      "stateMutability": "pure",
      "type": "function"
    },
    {
      "inputs": [
        {
          "internalType": "uint256",
          "name": "ticketId",
          "type": "uint256"
        }
      ],
      "name": "test_requestRandomNumber",
      "outputs": [
        {
          "internalType": "uint256",
          "name": "",
          "type": "uint256"
        }
      ],
      "stateMutability": "nonpayable",
      "type": "function"
    },
    {
      "inputs": [
        {
          "internalType": "address",
          "name": "recipient",
          "type": "address"
        },
        {
          "internalType": "uint256",
          "name": "amount",
          "type": "uint256"
        }
      ],
      "name": "test_sendReward",
      "outputs": [],
      "stateMutability": "nonpayable",
      "type": "function"
    },
    {
      "inputs": [
        {
          "internalType": "uint256",
          "name": "ticketId",
          "type": "uint256"
        },
        {
          "internalType": "uint256[5]",
          "name": "combination",
          "type": "uint256[5]"
        }
      ],
      "name": "test_setWinningCombination",
      "outputs": [],
      "stateMutability": "nonpayable",
      "type": "function"
    },
    {
      "inputs": [
        {
          "internalType": "uint256",
          "name": "",
          "type": "uint256"
        }
      ],
      "name": "tickets",
      "outputs": [
        {
          "internalType": "uint256",
          "name": "id",
          "type": "uint256"
        },
        {
          "internalType": "address",
          "name": "owner",
          "type": "address"
        },
        {
          "internalType": "uint256",
          "name": "purchaseTimestamp",
          "type": "uint256"
        },
        {
          "internalType": "bool",
          "name": "isRewardClaimed",
          "type": "bool"
        },
        {
          "internalType": "bool",
          "name": "playerCombinationSubmitted",
          "type": "bool"
        },
        {
          "internalType": "bool",
          "name": "winningCombinationGenerated",
          "type": "bool"
        }
      ],
      "stateMutability": "view",
      "type": "function"
    },
    {
      "inputs": [
        {
          "internalType": "address",
          "name": "to",
          "type": "address"
        }
      ],
      "name": "transferOwnership",
      "outputs": [],
      "stateMutability": "nonpayable",
      "type": "function"
    },
    {
      "inputs": [],
      "name": "withdrawOperationsBalance",
      "outputs": [],
      "stateMutability": "payable",
      "type": "function"
    },
    {
      "inputs": [],
      "name": "withdrawOwnerBalance",
      "outputs": [],
      "stateMutability": "payable",
      "type": "function"
    },
    {
      "stateMutability": "payable",
      "type": "receive"
    }
  ],
  "bytecode": "0x60e0604052600160155534801561001557600080fd5b506040516158853803806158858339818101604052810190610037919061041d565b81338060008073ffffffffffffffffffffffffffffffffffffffff168273ffffffffffffffffffffffffffffffffffffffff16036100aa576040517f08c379a00000000000000000000000000000000000000000000000000000000081526004016100a1906104ba565b60405180910390fd5b816000806101000a81548173ffffffffffffffffffffffffffffffffffffffff021916908373ffffffffffffffffffffffffffffffffffffffff160217905550600073ffffffffffffffffffffffffffffffffffffffff168173ffffffffffffffffffffffffffffffffffffffff161461012e5761012d8161025860201b60201c565b5b505050600073ffffffffffffffffffffffffffffffffffffffff168173ffffffffffffffffffffffffffffffffffffffff1603610197576040517fd92e233d00000000000000000000000000000000000000000000000000000000815260040160405180910390fd5b80600260006101000a81548173ffffffffffffffffffffffffffffffffffffffff021916908373ffffffffffffffffffffffffffffffffffffffff1602179055505060016003819055503373ffffffffffffffffffffffffffffffffffffffff1660808173ffffffffffffffffffffffffffffffffffffffff16815250508060a081815250508173ffffffffffffffffffffffffffffffffffffffff1660c08173ffffffffffffffffffffffffffffffffffffffff16815250505050610546565b3373ffffffffffffffffffffffffffffffffffffffff168173ffffffffffffffffffffffffffffffffffffffff16036102c6576040517f08c379a00000000000000000000000000000000000000000000000000000000081526004016102bd90610526565b60405180910390fd5b80600160006101000a81548173ffffffffffffffffffffffffffffffffffffffff021916908373ffffffffffffffffffffffffffffffffffffffff1602179055508073ffffffffffffffffffffffffffffffffffffffff1660008054906101000a900473ffffffffffffffffffffffffffffffffffffffff1673ffffffffffffffffffffffffffffffffffffffff167fed8889f560326eb138920d842192f0eb3dd22b4f139c87a2c57538e05bae127860405160405180910390a350565b600080fd5b600073ffffffffffffffffffffffffffffffffffffffff82169050919050565b60006103b482610389565b9050919050565b6103c4816103a9565b81146103cf57600080fd5b50565b6000815190506103e1816103bb565b92915050565b6000819050919050565b6103fa816103e7565b811461040557600080fd5b50565b600081519050610417816103f1565b92915050565b6000806040838503121561043457610433610384565b5b6000610442858286016103d2565b925050602061045385828601610408565b9150509250929050565b600082825260208201905092915050565b7f43616e6e6f7420736574206f776e657220746f207a65726f0000000000000000600082015250565b60006104a460188361045d565b91506104af8261046e565b602082019050919050565b600060208201905081810360008301526104d381610497565b9050919050565b7f43616e6e6f74207472616e7366657220746f2073656c66000000000000000000600082015250565b600061051060178361045d565b915061051b826104da565b602082019050919050565b6000602082019050818103600083015261053f81610503565b9050919050565b60805160a05160c0516152e961059c6000396000505060006135ac01526000818161139201528181611afb01528181611bdf01528181611caa01528181612910015281816129f40152612abf01526152e96000f3fe60806040526004361061023f5760003560e01c806385c9d6731161012e578063c3e9bf00116100ab578063f2fde38b1161006f578063f2fde38b14610897578063f403251d146108c0578063f8ccb9c5146108ca578063f926c5d8146108f3578063fdab0b6c1461091c5761024f565b8063c3e9bf00146107a8578063da8dc674146107e5578063edca914c14610822578063f163915a1461082c578063f2c45504146108575761024f565b806395e888c4116100f257806395e888c4146106d557806398fd29fb146107005780639eccacf614610729578063a32bb20f14610754578063ae169a501461077f5761024f565b806385c9d673146106215780638da5cb5b1461064c5780638ea98117146106775780639329066c146106a0578063941b80ac146106cb5761024f565b806344d855f1116101bc5780636031a52f116101805780636031a52f1461055e57806367f082b0146105895780636b31ee01146105b457806379ba5097146105df5780638284190c146105f65761024f565b806344d855f1146104355780634e90d36d1461047757806350b44712146104b4578063590791f2146104f65780635cc6f501146105215761024f565b80632b4c5572116102035780632b4c55721461037457806333d608f11461039d5780633aac0fa9146103c85780633cac60e5146103f3578063442890d51461040a5761024f565b806301023e2b1461028a5780631ade4244146102b35780631bd3689b146102e35780631fe543e31461030e57806327b7aabc146103375761024f565b3661024f5761024d34610959565b005b6040517f08c379a0000000000000000000000000000000000000000000000000000000008152600401610281906138ed565b60405180910390fd5b34801561029657600080fd5b506102b160048036038101906102ac9190613a9e565b610a33565b005b3480156102bf57600080fd5b506102c8610a8c565b6040516102da96959493929190613b49565b60405180910390f35b3480156102ef57600080fd5b506102f8610afd565b6040516103059190613d19565b60405180910390f35b34801561031a57600080fd5b5061033560048036038101906103309190613d90565b610c5d565b005b34801561034357600080fd5b5061035e60048036038101906103599190613df0565b610d23565b60405161036b9190613d19565b60405180910390f35b34801561038057600080fd5b5061039b60048036038101906103969190613d90565b610e96565b005b3480156103a957600080fd5b506103b2610ea6565b6040516103bf9190613e3c565b60405180910390f35b3480156103d457600080fd5b506103dd610ead565b6040516103ea9190613e73565b60405180910390f35b3480156103ff57600080fd5b50610408610eb2565b005b34801561041657600080fd5b5061041f61138e565b60405161042c9190613e8e565b60405180910390f35b34801561044157600080fd5b5061045c60048036038101906104579190613ed5565b6113b6565b60405161046e96959493929190613b49565b60405180910390f35b34801561048357600080fd5b5061049e60048036038101906104999190613f15565b611456565b6040516104ab9190613e73565b60405180910390f35b3480156104c057600080fd5b506104db60048036038101906104d69190613df0565b61146a565b6040516104ed96959493929190613b49565b60405180910390f35b34801561050257600080fd5b5061050b6114ed565b6040516105189190613f56565b60405180910390f35b34801561052d57600080fd5b5061054860048036038101906105439190613df0565b6114f7565b6040516105559190613fd3565b60405180910390f35b34801561056a57600080fd5b5061057361150f565b6040516105809190613f56565b60405180910390f35b34801561059557600080fd5b5061059e611515565b6040516105ab919061400b565b60405180910390f35b3480156105c057600080fd5b506105c961151a565b6040516105d69190613f56565b60405180910390f35b3480156105eb57600080fd5b506105f4611520565b005b34801561060257600080fd5b5061060b6116b5565b6040516106189190613fd3565b60405180910390f35b34801561062d57600080fd5b50610636611703565b604051610643919061417c565b60405180910390f35b34801561065857600080fd5b506106616118e5565b60405161066e9190613e8e565b60405180910390f35b34801561068357600080fd5b5061069e6004803603810190610699919061419e565b61190e565b005b3480156106ac57600080fd5b506106b5611aef565b6040516106c29190613f56565b60405180910390f35b6106d3611af9565b005b3480156106e157600080fd5b506106ea611d0f565b6040516106f79190613e73565b60405180910390f35b34801561070c57600080fd5b5061072760048036038101906107229190613df0565b611d14565b005b34801561073557600080fd5b5061073e611d20565b60405161074b919061422a565b60405180910390f35b34801561076057600080fd5b50610769611d46565b6040516107769190613f56565b60405180910390f35b34801561078b57600080fd5b506107a660048036038101906107a19190613df0565b611d50565b005b3480156107b457600080fd5b506107cf60048036038101906107ca9190613df0565b612161565b6040516107dc9190613f56565b60405180910390f35b3480156107f157600080fd5b5061080c60048036038101906108079190614271565b612179565b6040516108199190613f56565b60405180910390f35b61082a61218b565b005b34801561083857600080fd5b506108416125de565b60405161084e9190613f56565b60405180910390f35b34801561086357600080fd5b5061087e60048036038101906108799190613df0565b6125e8565b60405161088e949392919061429e565b60405180910390f35b3480156108a357600080fd5b506108be60048036038101906108b9919061419e565b6128fa565b005b6108c861290e565b005b3480156108d657600080fd5b506108f160048036038101906108ec9190613ed5565b612b24565b005b3480156108ff57600080fd5b5061091a60048036038101906109159190613a9e565b612b32565b005b34801561092857600080fd5b50610943600480360381019061093e9190613df0565b612ded565b6040516109509190613f56565b60405180910390f35b6064605a826109689190614313565b6109729190614384565b6012600082825461098391906143b5565b9250508190555060646005826109999190614313565b6109a39190614384565b601360008282546109b491906143b5565b9250508190555060646005826109ca9190614313565b6109d49190614384565b601460008282546109e591906143b5565b92505081905550803373ffffffffffffffffffffffffffffffffffffffff167fc1d32ad5cca423e7dda2123dbf8c482f8e77d00b631c06e903a47f2cec1334df60405160405180910390a350565b80601c6000848152602001908152602001600020600801906005610a5892919061375f565b506001601c6000848152602001908152602001600020600d0160026101000a81548160ff0219169083151502179055505050565b60048060000154908060010160009054906101000a900473ffffffffffffffffffffffffffffffffffffffff169080600201549080600d0160009054906101000a900460ff169080600d0160019054906101000a900460ff169080600d0160029054906101000a900460ff16905086565b610b0561379f565b600460405180610100016040529081600082015481526020016001820160009054906101000a900473ffffffffffffffffffffffffffffffffffffffff1673ffffffffffffffffffffffffffffffffffffffff1673ffffffffffffffffffffffffffffffffffffffff1681526020016002820154815260200160038201600580602002604051908101604052809291908260058015610bb9576020028201915b815481526020019060010190808311610ba5575b5050505050815260200160088201600580602002604051908101604052809291908260058015610bfe576020028201915b815481526020019060010190808311610bea575b50505050508152602001600d820160009054906101000a900460ff16151515158152602001600d820160019054906101000a900460ff16151515158152602001600d820160029054906101000a900460ff161515151581525050905090565b600260009054906101000a900473ffffffffffffffffffffffffffffffffffffffff1673ffffffffffffffffffffffffffffffffffffffff163373ffffffffffffffffffffffffffffffffffffffff1614610d135733600260009054906101000a900473ffffffffffffffffffffffffffffffffffffffff166040517f1cf993f4000000000000000000000000000000000000000000000000000000008152600401610d0a9291906143e9565b60405180910390fd5b610d1e838383612dff565b505050565b610d2b61379f565b601c600083815260200190815260200160002060405180610100016040529081600082015481526020016001820160009054906101000a900473ffffffffffffffffffffffffffffffffffffffff1673ffffffffffffffffffffffffffffffffffffffff1673ffffffffffffffffffffffffffffffffffffffff1681526020016002820154815260200160038201600580602002604051908101604052809291908260058015610df0576020028201915b815481526020019060010190808311610ddc575b5050505050815260200160088201600580602002604051908101604052809291908260058015610e35576020028201915b815481526020019060010190808311610e21575b50505050508152602001600d820160009054906101000a900460ff16151515158152602001600d820160019054906101000a900460ff16151515158152602001600d820160029054906101000a900460ff1615151515815250509050919050565b610ea1838383612dff565b505050565b622625a081565b602581565b33600460010160006101000a81548173ffffffffffffffffffffffffffffffffffffffff021916908373ffffffffffffffffffffffffffffffffffffffff160217905550600060156000815480929190610f0b90614412565b91905055905060006040518061010001604052808381526020013373ffffffffffffffffffffffffffffffffffffffff1681526020014281526020016016600580602002604051908101604052809291908260058015610f80576020028201915b815481526020019060010190808311610f6c575b505050505081526020016016600580602002604051908101604052809291908260058015610fc3576020028201915b815481526020019060010190808311610faf575b5050505050815260200160001515815260200160001515815260200160001515815250905080601c60008481526020019081526020016000206000820151816000015560208201518160010160006101000a81548173ffffffffffffffffffffffffffffffffffffffff021916908373ffffffffffffffffffffffffffffffffffffffff1602179055506040820151816002015560608201518160030190600561106e92919061375f565b5060808201518160080190600561108692919061375f565b5060a082015181600d0160006101000a81548160ff02191690831515021790555060c082015181600d0160016101000a81548160ff02191690831515021790555060e082015181600d0160026101000a81548160ff02191690831515021790555090505080601c6000836000015181526020019081526020016000206000820151816000015560208201518160010160006101000a81548173ffffffffffffffffffffffffffffffffffffffff021916908373ffffffffffffffffffffffffffffffffffffffff1602179055506040820151816002015560608201518160030190600561117492919061375f565b5060808201518160080190600561118c92919061375f565b5060a082015181600d0160006101000a81548160ff02191690831515021790555060c082015181600d0160016101000a81548160ff02191690831515021790555060e082015181600d0160026101000a81548160ff021916908315150217905550905050601b60003373ffffffffffffffffffffffffffffffffffffffff1673ffffffffffffffffffffffffffffffffffffffff1681526020019081526020016000208190806001815401808255809150506001900390600052602060002090600e02016000909190919091506000820151816000015560208201518160010160006101000a81548173ffffffffffffffffffffffffffffffffffffffff021916908373ffffffffffffffffffffffffffffffffffffffff160217905550604082015181600201556060820151816003019060056112cb92919061375f565b506080820151816008019060056112e392919061375f565b5060a082015181600d0160006101000a81548160ff02191690831515021790555060c082015181600d0160016101000a81548160ff02191690831515021790555060e082015181600d0160026101000a81548160ff0219169083151502179055505050813373ffffffffffffffffffffffffffffffffffffffff167f0668f5b446eb814fe35b3206f43f14bd8567ba04ddaf7a3ee56516929ab22ccb60405160405180910390a35050565b60007f0000000000000000000000000000000000000000000000000000000000000000905090565b601b60205281600052604060002081815481106113d257600080fd5b90600052602060002090600e0201600091509150508060000154908060010160009054906101000a900473ffffffffffffffffffffffffffffffffffffffff169080600201549080600d0160009054906101000a900460ff169080600d0160019054906101000a900460ff169080600d0160029054906101000a900460ff16905086565b60006114628383612ed3565b905092915050565b601c6020528060005260406000206000915090508060000154908060010160009054906101000a900473ffffffffffffffffffffffffffffffffffffffff169080600201549080600d0160009054906101000a900460ff169080600d0160019054906101000a900460ff169080600d0160029054906101000a900460ff16905086565b6000601454905090565b6114ff61380c565b61150882612fce565b9050919050565b60155481565b600381565b60125481565b600160009054906101000a900473ffffffffffffffffffffffffffffffffffffffff1673ffffffffffffffffffffffffffffffffffffffff163373ffffffffffffffffffffffffffffffffffffffff16146115b0576040517f08c379a00000000000000000000000000000000000000000000000000000000081526004016115a7906144a6565b60405180910390fd5b60008060009054906101000a900473ffffffffffffffffffffffffffffffffffffffff169050336000806101000a81548173ffffffffffffffffffffffffffffffffffffffff021916908373ffffffffffffffffffffffffffffffffffffffff1602179055506000600160006101000a81548173ffffffffffffffffffffffffffffffffffffffff021916908373ffffffffffffffffffffffffffffffffffffffff1602179055503373ffffffffffffffffffffffffffffffffffffffff168173ffffffffffffffffffffffffffffffffffffffff167f8be0079c531659141344cd1fd0a4f28419497f9722a3daafe3b4186f6b6457e060405160405180910390a350565b6116bd61380c565b60046008016005806020026040519081016040528092919082600580156116f9576020028201915b8154815260200190600101908083116116e5575b5050505050905090565b6060601b60003373ffffffffffffffffffffffffffffffffffffffff1673ffffffffffffffffffffffffffffffffffffffff168152602001908152602001600020805480602002602001604051908101604052809291908181526020016000905b828210156118dc57838290600052602060002090600e020160405180610100016040529081600082015481526020016001820160009054906101000a900473ffffffffffffffffffffffffffffffffffffffff1673ffffffffffffffffffffffffffffffffffffffff1673ffffffffffffffffffffffffffffffffffffffff168152602001600282015481526020016003820160058060200260405190810160405280929190826005801561182e576020028201915b81548152602001906001019080831161181a575b5050505050815260200160088201600580602002604051908101604052809291908260058015611873576020028201915b81548152602001906001019080831161185f575b50505050508152602001600d820160009054906101000a900460ff16151515158152602001600d820160019054906101000a900460ff16151515158152602001600d820160029054906101000a900460ff16151515158152505081526020019060010190611764565b50505050905090565b60008060009054906101000a900473ffffffffffffffffffffffffffffffffffffffff16905090565b6119166118e5565b73ffffffffffffffffffffffffffffffffffffffff163373ffffffffffffffffffffffffffffffffffffffff161415801561199f5750600260009054906101000a900473ffffffffffffffffffffffffffffffffffffffff1673ffffffffffffffffffffffffffffffffffffffff163373ffffffffffffffffffffffffffffffffffffffff1614155b15611a0e57336119ad6118e5565b600260009054906101000a900473ffffffffffffffffffffffffffffffffffffffff166040517f061db9c1000000000000000000000000000000000000000000000000000000008152600401611a05939291906144c6565b60405180910390fd5b600073ffffffffffffffffffffffffffffffffffffffff168173ffffffffffffffffffffffffffffffffffffffff1603611a74576040517fd92e233d00000000000000000000000000000000000000000000000000000000815260040160405180910390fd5b80600260006101000a81548173ffffffffffffffffffffffffffffffffffffffff021916908373ffffffffffffffffffffffffffffffffffffffff1602179055507fd1a6a14209a385a964d036e404cb5cfb71f4000cdb03c9366292430787261be681604051611ae49190613e8e565b60405180910390a150565b6000601254905090565b7f000000000000000000000000000000000000000000000000000000000000000073ffffffffffffffffffffffffffffffffffffffff163373ffffffffffffffffffffffffffffffffffffffff1614611b87576040517f08c379a0000000000000000000000000000000000000000000000000000000008152600401611b7e90614549565b60405180910390fd5b600060145411611bcc576040517f08c379a0000000000000000000000000000000000000000000000000000000008152600401611bc3906145b5565b60405180910390fd5b60006014549050600060148190555060007f000000000000000000000000000000000000000000000000000000000000000073ffffffffffffffffffffffffffffffffffffffff1682604051611c2190614606565b60006040518083038185875af1925050503d8060008114611c5e576040519150601f19603f3d011682016040523d82523d6000602084013e611c63565b606091505b5050905080611ca7576040517f08c379a0000000000000000000000000000000000000000000000000000000008152600401611c9e90614667565b60405180910390fd5b817f000000000000000000000000000000000000000000000000000000000000000073ffffffffffffffffffffffffffffffffffffffff167fa711dcbee5590122b88ae65f697adf2f2824e323782fa8df939898d7eb6c1c2b60405160405180910390a35050565b600181565b611d1d81610959565b50565b600260009054906101000a900473ffffffffffffffffffffffffffffffffffffffff1681565b6000601354905090565b611d58613124565b6000601c600083815260200190815260200160002090503373ffffffffffffffffffffffffffffffffffffffff168160010160009054906101000a900473ffffffffffffffffffffffffffffffffffffffff1673ffffffffffffffffffffffffffffffffffffffff1614611e01576040517f08c379a0000000000000000000000000000000000000000000000000000000008152600401611df8906146d3565b60405180910390fd5b600073ffffffffffffffffffffffffffffffffffffffff168160010160009054906101000a900473ffffffffffffffffffffffffffffffffffffffff1673ffffffffffffffffffffffffffffffffffffffff1603611e94576040517f08c379a0000000000000000000000000000000000000000000000000000000008152600401611e8b9061473f565b60405180910390fd5b80600d0160019054906101000a900460ff16611ee5576040517f08c379a0000000000000000000000000000000000000000000000000000000008152600401611edc906147ab565b60405180910390fd5b80600d0160029054906101000a900460ff16611f36576040517f08c379a0000000000000000000000000000000000000000000000000000000008152600401611f2d90614817565b60405180910390fd5b80600d0160009054906101000a900460ff1615611f88576040517f08c379a0000000000000000000000000000000000000000000000000000000008152600401611f7f90614883565b60405180910390fd5b600061201282600301600580602002604051908101604052809291908260058015611fc8576020028201915b815481526020019060010190808311611fb4575b505050505083600801600580602002604051908101604052809291908260058015612008576020028201915b815481526020019060010190808311611ff4575b5050505050612ed3565b9050600061201f82613173565b905060008111612064576040517f08c379a000000000000000000000000000000000000000000000000000000000815260040161205b906148ef565b60405180910390fd5b60008190508160125410612090578160126000828254612084919061490f565b9250508190555061209e565b601254905060006012819055505b600184600d0160006101000a81548160ff0219169083151502179055506120e98460010160009054906101000a900473ffffffffffffffffffffffffffffffffffffffff168261327b565b80858560010160009054906101000a900473ffffffffffffffffffffffffffffffffffffffff1673ffffffffffffffffffffffffffffffffffffffff167ff01da32686223933d8a18a391060918c7f11a3648639edd87ae013e2e273174360405160405180910390a45050505061215e61336f565b50565b601d6020528060005260406000206000915090505481565b600061218482613173565b9050919050565b3373ffffffffffffffffffffffffffffffffffffffff163273ffffffffffffffffffffffffffffffffffffffff16146121f9576040517f08c379a00000000000000000000000000000000000000000000000000000000081526004016121f09061498f565b60405180910390fd5b655af3107a40003414612241576040517f08c379a0000000000000000000000000000000000000000000000000000000008152600401612238906149fb565b60405180910390fd5b60006040518061010001604052806015600081548092919061226290614412565b9190505581526020013373ffffffffffffffffffffffffffffffffffffffff16815260200142815260200160166005806020026040519081016040528092919082600580156122c6576020028201915b8154815260200190600101908083116122b2575b505050505081526020016016600580602002604051908101604052809291908260058015612309576020028201915b8154815260200190600101908083116122f5575b5050505050815260200160001515815260200160001515815260200160001515815250905080601c6000836000015181526020019081526020016000206000820151816000015560208201518160010160006101000a81548173ffffffffffffffffffffffffffffffffffffffff021916908373ffffffffffffffffffffffffffffffffffffffff160217905550604082015181600201556060820151816003019060056123b892919061375f565b506080820151816008019060056123d092919061375f565b5060a082015181600d0160006101000a81548160ff02191690831515021790555060c082015181600d0160016101000a81548160ff02191690831515021790555060e082015181600d0160026101000a81548160ff021916908315150217905550905050601b60003373ffffffffffffffffffffffffffffffffffffffff1673ffffffffffffffffffffffffffffffffffffffff1681526020019081526020016000208190806001815401808255809150506001900390600052602060002090600e02016000909190919091506000820151816000015560208201518160010160006101000a81548173ffffffffffffffffffffffffffffffffffffffff021916908373ffffffffffffffffffffffffffffffffffffffff1602179055506040820151816002015560608201518160030190600561250f92919061375f565b5060808201518160080190600561252792919061375f565b5060a082015181600d0160006101000a81548160ff02191690831515021790555060c082015181600d0160016101000a81548160ff02191690831515021790555060e082015181600d0160026101000a81548160ff021916908315150217905550505061259334610959565b80600001513373ffffffffffffffffffffffffffffffffffffffff167f0668f5b446eb814fe35b3206f43f14bd8567ba04ddaf7a3ee56516929ab22ccb60405160405180910390a350565b655af3107a400081565b6000806125f361380c565b6125fb61380c565b6000601c600087815260200190815260200160002090503373ffffffffffffffffffffffffffffffffffffffff168160010160009054906101000a900473ffffffffffffffffffffffffffffffffffffffff1673ffffffffffffffffffffffffffffffffffffffff16146126a4576040517f08c379a000000000000000000000000000000000000000000000000000000000815260040161269b90614a67565b60405180910390fd5b600073ffffffffffffffffffffffffffffffffffffffff168160010160009054906101000a900473ffffffffffffffffffffffffffffffffffffffff1673ffffffffffffffffffffffffffffffffffffffff1603612737576040517f08c379a000000000000000000000000000000000000000000000000000000000815260040161272e9061473f565b60405180910390fd5b80600d0160019054906101000a900460ff16612788576040517f08c379a000000000000000000000000000000000000000000000000000000000815260040161277f906147ab565b60405180910390fd5b80600d0160029054906101000a900460ff166127d9576040517f08c379a00000000000000000000000000000000000000000000000000000000081526004016127d090614af9565b60405180910390fd5b61286181600301600580602002604051908101604052809291908260058015612817576020028201915b815481526020019060010190808311612803575b505050505082600801600580602002604051908101604052809291908260058015612857576020028201915b815481526020019060010190808311612843575b5050505050612ed3565b945061286c85613173565b9350806003016005806020026040519081016040528092919082600580156128a9576020028201915b815481526020019060010190808311612895575b50505050509250806008016005806020026040519081016040528092919082600580156128eb576020028201915b8154815260200190600101908083116128d7575b50505050509150509193509193565b612902613379565b61290b81613409565b50565b7f000000000000000000000000000000000000000000000000000000000000000073ffffffffffffffffffffffffffffffffffffffff163373ffffffffffffffffffffffffffffffffffffffff161461299c576040517f08c379a000000000000000000000000000000000000000000000000000000000815260040161299390614549565b60405180910390fd5b6000601354116129e1576040517f08c379a00000000000000000000000000000000000000000000000000000000081526004016129d8906145b5565b60405180910390fd5b60006013549050600060138190555060007f000000000000000000000000000000000000000000000000000000000000000073ffffffffffffffffffffffffffffffffffffffff1682604051612a3690614606565b60006040518083038185875af1925050503d8060008114612a73576040519150601f19603f3d011682016040523d82523d6000602084013e612a78565b606091505b5050905080612abc576040517f08c379a0000000000000000000000000000000000000000000000000000000008152600401612ab390614b8b565b60405180910390fd5b817f000000000000000000000000000000000000000000000000000000000000000073ffffffffffffffffffffffffffffffffffffffff167fa760777eb358393d33a518ec33e1187940af7f3cbffb09c53db5ee4b7e7e402560405160405180910390a35050565b612b2e828261327b565b5050565b6000601c600084815260200190815260200160002090503373ffffffffffffffffffffffffffffffffffffffff168160010160009054906101000a900473ffffffffffffffffffffffffffffffffffffffff1673ffffffffffffffffffffffffffffffffffffffff1614612bdb576040517f08c379a0000000000000000000000000000000000000000000000000000000008152600401612bd290614bf7565b60405180910390fd5b80600d0160019054906101000a900460ff1615612c2d576040517f08c379a0000000000000000000000000000000000000000000000000000000008152600401612c2490614c63565b60405180910390fd5b60005b6005811015612d5e576000838260058110612c4e57612c4d614c83565b5b602002015110158015612c7957506024838260058110612c7157612c70614c83565b5b602002015111155b612cb8576040517f08c379a0000000000000000000000000000000000000000000000000000000008152600401612caf90614cfe565b60405180910390fd5b6000600182612cc791906143b5565b90505b6005811015612d5057838160058110612ce657612ce5614c83565b5b6020020151848360058110612cfe57612cfd614c83565b5b602002015103612d43576040517f08c379a0000000000000000000000000000000000000000000000000000000008152600401612d3a90614d6a565b60405180910390fd5b8080600101915050612cca565b508080600101915050612c30565b508181600301906005612d7292919061375f565b50600181600d0160016101000a81548160ff0219169083151502179055503373ffffffffffffffffffffffffffffffffffffffff167f26aa7c18051e08a0cf3f3b6f17d2953735d99eab33c5d55efdf08ef510de455e83604051612dd69190613fd3565b60405180910390a2612de783613535565b50505050565b6000612df882613535565b9050919050565b6000601d6000858152602001908152602001600020549050600083836000818110612e2d57612e2c614c83565b5b905060200201359050612e3f81612fce565b601c6000848152602001908152602001600020600801906005612e6392919061375f565b506001601c6000848152602001908152602001600020600d0160026101000a81548160ff02191690831515021790555081857f86dc71b58256a2aebe2afe6d9153ce25cb709dff36adfd6807758636d89e0e4483604051612ec49190613f56565b60405180910390a35050505050565b60008060009050612ee261382e565b60005b60058160ff161015612fc25760005b60058160ff161015612fae57828160ff1660058110612f1657612f15614c83565b5b6020020151158015612f5b5750858160ff1660058110612f3957612f38614c83565b5b6020020151878360ff1660058110612f5457612f53614c83565b5b6020020151145b15612f9b57600184612f6d9190614d8a565b93506001838260ff1660058110612f8757612f86614c83565b5b602002019015159081151581525050612fae565b8080612fa690614dbf565b915050612ef4565b508080612fba90614dbf565b915050612ee5565b50819250505092915050565b612fd661380c565b612fde613850565b612fe661380c565b60008085604051602001612ffa9190613f56565b60405160208183030381529060405280519060200120905060005b60058310156131175760208160ff161061305957818160405160200161303c929190614e01565b604051602081830303815290604052805190602001209150600090505b60006025838360ff166020811061307357613072614c83565b5b1a60f81b60f81c6130849190614e2a565b9050818061309190614dbf565b9250506000868260ff16602581106130ac576130ab614c83565b5b602002015160ff1603613111576001868260ff16602581106130d1576130d0614c83565b5b602002019060ff16908160ff16815250508060ff168585600581106130f9576130f8614c83565b5b602002018181525050838061310d90614412565b9450505b50613015565b8395505050505050919050565b600260035403613169576040517f08c379a000000000000000000000000000000000000000000000000000000000815260040161316090614ea7565b60405180910390fd5b6002600381905550565b600060058260ff1611156131bc576040517f08c379a00000000000000000000000000000000000000000000000000000000081526004016131b390614f13565b60405180910390fd5b60008260ff16036131d05760009050613276565b60018260ff16036131e957655af3107a40009050613276565b60028260ff160361321657606460056012546132059190614313565b61320f9190614384565b9050613276565b60038260ff1603613243576064600a6012546132329190614313565b61323c9190614384565b9050613276565b60048260ff1603613270576064601e60125461325f9190614313565b6132699190614384565b9050613276565b60125490505b919050565b600081116132be576040517f08c379a00000000000000000000000000000000000000000000000000000000081526004016132b590614f7f565b60405180910390fd5b60008273ffffffffffffffffffffffffffffffffffffffff16826040516132e490614606565b60006040518083038185875af1925050503d8060008114613321576040519150601f19603f3d011682016040523d82523d6000602084013e613326565b606091505b505090508061336a576040517f08c379a000000000000000000000000000000000000000000000000000000000815260040161336190614feb565b60405180910390fd5b505050565b6001600381905550565b60008054906101000a900473ffffffffffffffffffffffffffffffffffffffff1673ffffffffffffffffffffffffffffffffffffffff163373ffffffffffffffffffffffffffffffffffffffff1614613407576040517f08c379a00000000000000000000000000000000000000000000000000000000081526004016133fe90615057565b60405180910390fd5b565b3373ffffffffffffffffffffffffffffffffffffffff168173ffffffffffffffffffffffffffffffffffffffff1603613477576040517f08c379a000000000000000000000000000000000000000000000000000000000815260040161346e906150c3565b60405180910390fd5b80600160006101000a81548173ffffffffffffffffffffffffffffffffffffffff021916908373ffffffffffffffffffffffffffffffffffffffff1602179055508073ffffffffffffffffffffffffffffffffffffffff1660008054906101000a900473ffffffffffffffffffffffffffffffffffffffff1673ffffffffffffffffffffffffffffffffffffffff167fed8889f560326eb138920d842192f0eb3dd22b4f139c87a2c57538e05bae127860405160405180910390a350565b600080600260009054906101000a900473ffffffffffffffffffffffffffffffffffffffff1673ffffffffffffffffffffffffffffffffffffffff16639b1c385e6040518060c001604052807f787d74caea10b2b357790d5b5247c2f63d1d91572a9846f780606e4d953677ae60001b81526020017f00000000000000000000000000000000000000000000000000000000000000008152602001600361ffff168152602001622625a063ffffffff168152602001600160ff1663ffffffff1681526020016136146040518060200160405280600015158152506136c7565b8152506040518263ffffffff1660e01b81526004016136339190615218565b6020604051808303816000875af1158015613652573d6000803e3d6000fd5b505050506040513d601f19601f82011682018060405250810190613676919061524f565b905082601d60008381526020019081526020016000208190555082817fc904ef81354df41ed9256aa2ab862017f6ab3f33f3f7ca50016a1786083d086d60405160405180910390a380915050919050565b60607f92fd13387c7fe7befbc38d303d6468778fb9731bc4583f17d92989c6fcfdeaaa826040516024016136fb9190615298565b604051602081830303815290604052907bffffffffffffffffffffffffffffffffffffffffffffffffffffffff19166020820180517bffffffffffffffffffffffffffffffffffffffffffffffffffffffff83818316178352505050509050919050565b826005810192821561378e579160200282015b8281111561378d578251825591602001919060010190613772565b5b50905061379b9190613873565b5090565b60405180610100016040528060008152602001600073ffffffffffffffffffffffffffffffffffffffff168152602001600081526020016137de61380c565b81526020016137eb61380c565b81526020016000151581526020016000151581526020016000151581525090565b6040518060a00160405280600590602082028036833780820191505090505090565b6040518060a00160405280600590602082028036833780820191505090505090565b604051806104a00160405280602590602082028036833780820191505090505090565b5b8082111561388c576000816000905550600101613874565b5090565b600082825260208201905092915050565b7f496e76616c69642063616c6c0000000000000000000000000000000000000000600082015250565b60006138d7600c83613890565b91506138e2826138a1565b602082019050919050565b60006020820190508181036000830152613906816138ca565b9050919050565b6000604051905090565b600080fd5b600080fd5b6000819050919050565b61393481613921565b811461393f57600080fd5b50565b6000813590506139518161392b565b92915050565b600080fd5b6000601f19601f8301169050919050565b7f4e487b7100000000000000000000000000000000000000000000000000000000600052604160045260246000fd5b6139a58261395c565b810181811067ffffffffffffffff821117156139c4576139c361396d565b5b80604052505050565b60006139d761390d565b90506139e3828261399c565b919050565b600067ffffffffffffffff821115613a0357613a0261396d565b5b602082029050919050565b600080fd5b6000613a26613a21846139e8565b6139cd565b90508060208402830185811115613a4057613a3f613a0e565b5b835b81811015613a695780613a558882613942565b845260208401935050602081019050613a42565b5050509392505050565b600082601f830112613a8857613a87613957565b5b6005613a95848285613a13565b91505092915050565b60008060c08385031215613ab557613ab4613917565b5b6000613ac385828601613942565b9250506020613ad485828601613a73565b9150509250929050565b613ae781613921565b82525050565b600073ffffffffffffffffffffffffffffffffffffffff82169050919050565b6000613b1882613aed565b9050919050565b613b2881613b0d565b82525050565b60008115159050919050565b613b4381613b2e565b82525050565b600060c082019050613b5e6000830189613ade565b613b6b6020830188613b1f565b613b786040830187613ade565b613b856060830186613b3a565b613b926080830185613b3a565b613b9f60a0830184613b3a565b979650505050505050565b613bb381613921565b82525050565b613bc281613b0d565b82525050565b600060059050919050565b600081905092915050565b6000819050919050565b6000613bf48383613baa565b60208301905092915050565b6000602082019050919050565b613c1681613bc8565b613c208184613bd3565b9250613c2b82613bde565b8060005b83811015613c5c578151613c438782613be8565b9650613c4e83613c00565b925050600181019050613c2f565b505050505050565b613c6d81613b2e565b82525050565b61020082016000820151613c8a6000850182613baa565b506020820151613c9d6020850182613bb9565b506040820151613cb06040850182613baa565b506060820151613cc36060850182613c0d565b506080820151613cd7610100850182613c0d565b5060a0820151613ceb6101a0850182613c64565b5060c0820151613cff6101c0850182613c64565b5060e0820151613d136101e0850182613c64565b50505050565b600061020082019050613d2f6000830184613c73565b92915050565b600080fd5b60008083601f840112613d5057613d4f613957565b5b8235905067ffffffffffffffff811115613d6d57613d6c613d35565b5b602083019150836020820283011115613d8957613d88613a0e565b5b9250929050565b600080600060408486031215613da957613da8613917565b5b6000613db786828701613942565b935050602084013567ffffffffffffffff811115613dd857613dd761391c565b5b613de486828701613d3a565b92509250509250925092565b600060208284031215613e0657613e05613917565b5b6000613e1484828501613942565b91505092915050565b600063ffffffff82169050919050565b613e3681613e1d565b82525050565b6000602082019050613e516000830184613e2d565b92915050565b600060ff82169050919050565b613e6d81613e57565b82525050565b6000602082019050613e886000830184613e64565b92915050565b6000602082019050613ea36000830184613b1f565b92915050565b613eb281613b0d565b8114613ebd57600080fd5b50565b600081359050613ecf81613ea9565b92915050565b60008060408385031215613eec57613eeb613917565b5b6000613efa85828601613ec0565b9250506020613f0b85828601613942565b9150509250929050565b6000806101408385031215613f2d57613f2c613917565b5b6000613f3b85828601613a73565b92505060a0613f4c85828601613a73565b9150509250929050565b6000602082019050613f6b6000830184613ade565b92915050565b600081905092915050565b613f8581613bc8565b613f8f8184613f71565b9250613f9a82613bde565b8060005b83811015613fcb578151613fb28782613be8565b9650613fbd83613c00565b925050600181019050613f9e565b505050505050565b600060a082019050613fe86000830184613f7c565b92915050565b600061ffff82169050919050565b61400581613fee565b82525050565b60006020820190506140206000830184613ffc565b92915050565b600081519050919050565b600082825260208201905092915050565b6000819050602082019050919050565b610200820160008201516140696000850182613baa565b50602082015161407c6020850182613bb9565b50604082015161408f6040850182613baa565b5060608201516140a26060850182613c0d565b5060808201516140b6610100850182613c0d565b5060a08201516140ca6101a0850182613c64565b5060c08201516140de6101c0850182613c64565b5060e08201516140f26101e0850182613c64565b50505050565b60006141048383614052565b6102008301905092915050565b6000602082019050919050565b600061412982614026565b6141338185614031565b935061413e83614042565b8060005b8381101561416f57815161415688826140f8565b975061416183614111565b925050600181019050614142565b5085935050505092915050565b60006020820190508181036000830152614196818461411e565b905092915050565b6000602082840312156141b4576141b3613917565b5b60006141c284828501613ec0565b91505092915050565b6000819050919050565b60006141f06141eb6141e684613aed565b6141cb565b613aed565b9050919050565b6000614202826141d5565b9050919050565b6000614214826141f7565b9050919050565b61422481614209565b82525050565b600060208201905061423f600083018461421b565b92915050565b61424e81613e57565b811461425957600080fd5b50565b60008135905061426b81614245565b92915050565b60006020828403121561428757614286613917565b5b60006142958482850161425c565b91505092915050565b6000610180820190506142b46000830187613e64565b6142c16020830186613ade565b6142ce6040830185613f7c565b6142db60e0830184613f7c565b95945050505050565b7f4e487b7100000000000000000000000000000000000000000000000000000000600052601160045260246000fd5b600061431e82613921565b915061432983613921565b925082820261433781613921565b9150828204841483151761434e5761434d6142e4565b5b5092915050565b7f4e487b7100000000000000000000000000000000000000000000000000000000600052601260045260246000fd5b600061438f82613921565b915061439a83613921565b9250826143aa576143a9614355565b5b828204905092915050565b60006143c082613921565b91506143cb83613921565b92508282019050808211156143e3576143e26142e4565b5b92915050565b60006040820190506143fe6000830185613b1f565b61440b6020830184613b1f565b9392505050565b600061441d82613921565b91507fffffffffffffffffffffffffffffffffffffffffffffffffffffffffffffffff820361444f5761444e6142e4565b5b600182019050919050565b7f4d7573742062652070726f706f736564206f776e657200000000000000000000600082015250565b6000614490601683613890565b915061449b8261445a565b602082019050919050565b600060208201905081810360008301526144bf81614483565b9050919050565b60006060820190506144db6000830186613b1f565b6144e86020830185613b1f565b6144f56040830184613b1f565b949350505050565b7f4f6e6c7920666f72206f776e6572000000000000000000000000000000000000600082015250565b6000614533600e83613890565b915061453e826144fd565b602082019050919050565b6000602082019050818103600083015261456281614526565b9050919050565b7f4e6f7468696e6720746f20776974686472617700000000000000000000000000600082015250565b600061459f601383613890565b91506145aa82614569565b602082019050919050565b600060208201905081810360008301526145ce81614592565b9050919050565b600081905092915050565b50565b60006145f06000836145d5565b91506145fb826145e0565b600082019050919050565b6000614611826145e3565b9150819050919050565b7f4f776e657242616c616e6365207769746864726177616c206661696c65640000600082015250565b6000614651601e83613890565b915061465c8261461b565b602082019050919050565b6000602082019050818103600083015261468081614644565b9050919050565b7f4f6e6c79207469636b6574206f776e65722063616e20636c61696d0000000000600082015250565b60006146bd601b83613890565b91506146c882614687565b602082019050919050565b600060208201905081810360008301526146ec816146b0565b9050919050565b7f5469636b657420646f6573206e6f742065786973740000000000000000000000600082015250565b6000614729601583613890565b9150614734826146f3565b602082019050919050565b600060208201905081810360008301526147588161471c565b9050919050565b7f436f6d62696e6174696f6e206e6f74207375626d697474656400000000000000600082015250565b6000614795601983613890565b91506147a08261475f565b602082019050919050565b600060208201905081810360008301526147c481614788565b9050919050565b7f57696e6e696e67206e6f742067656e6572617465640000000000000000000000600082015250565b6000614801601583613890565b915061480c826147cb565b602082019050919050565b60006020820190508181036000830152614830816147f4565b9050919050565b7f52657761726420616c726561647920636c61696d656400000000000000000000600082015250565b600061486d601683613890565b915061487882614837565b602082019050919050565b6000602082019050818103600083015261489c81614860565b9050919050565b7f4e6f2072657761726420746f20636c61696d0000000000000000000000000000600082015250565b60006148d9601283613890565b91506148e4826148a3565b602082019050919050565b60006020820190508181036000830152614908816148cc565b9050919050565b600061491a82613921565b915061492583613921565b925082820390508181111561493d5761493c6142e4565b5b92915050565b7f4f6e6c79207265616c20706c6179657273210000000000000000000000000000600082015250565b6000614979601283613890565b915061498482614943565b602082019050919050565b600060208201905081810360008301526149a88161496c565b9050919050565b7f5472616e73616374696f6e2076616c756520697320746f6f206c6f7721000000600082015250565b60006149e5601d83613890565b91506149f0826149af565b602082019050919050565b60006020820190508181036000830152614a14816149d8565b9050919050565b7f4f6e6c79207469636b6574206f776e65722063616e2076696577000000000000600082015250565b6000614a51601a83613890565b9150614a5c82614a1b565b602082019050919050565b60006020820190508181036000830152614a8081614a44565b9050919050565b7f57696e6e696e6720636f6d62696e6174696f6e206973206e6f742067656e657260008201527f6174656400000000000000000000000000000000000000000000000000000000602082015250565b6000614ae3602483613890565b9150614aee82614a87565b604082019050919050565b60006020820190508181036000830152614b1281614ad6565b9050919050565b7f4f7065726174696f6e7342616c616e6365207769746864726177616c2066616960008201527f6c65640000000000000000000000000000000000000000000000000000000000602082015250565b6000614b75602383613890565b9150614b8082614b19565b604082019050919050565b60006020820190508181036000830152614ba481614b68565b9050919050565b7f596f7520617265206e6f7420746865206f776e65720000000000000000000000600082015250565b6000614be1601583613890565b9150614bec82614bab565b602082019050919050565b60006020820190508181036000830152614c1081614bd4565b9050919050565b7f416c7265616479207375626d6974746564000000000000000000000000000000600082015250565b6000614c4d601183613890565b9150614c5882614c17565b602082019050919050565b60006020820190508181036000830152614c7c81614c40565b9050919050565b7f4e487b7100000000000000000000000000000000000000000000000000000000600052603260045260246000fd5b7f4e756d626572206f7574206f662072616e67652028302d333629000000000000600082015250565b6000614ce8601a83613890565b9150614cf382614cb2565b602082019050919050565b60006020820190508181036000830152614d1781614cdb565b9050919050565b7f4475706c6963617465206e756d62657273206e6f7420616c6c6f776564000000600082015250565b6000614d54601d83613890565b9150614d5f82614d1e565b602082019050919050565b60006020820190508181036000830152614d8381614d47565b9050919050565b6000614d9582613e57565b9150614da083613e57565b9250828201905060ff811115614db957614db86142e4565b5b92915050565b6000614dca82613e57565b915060ff8203614ddd57614ddc6142e4565b5b600182019050919050565b6000819050919050565b614dfb81614de8565b82525050565b6000604082019050614e166000830185614df2565b614e236020830184613e64565b9392505050565b6000614e3582613e57565b9150614e4083613e57565b925082614e5057614e4f614355565b5b828206905092915050565b7f5265656e7472616e637947756172643a207265656e7472616e742063616c6c00600082015250565b6000614e91601f83613890565b9150614e9c82614e5b565b602082019050919050565b60006020820190508181036000830152614ec081614e84565b9050919050565b7f556e6578706563746564206d61746368696e67206e756d62657220636f756e74600082015250565b6000614efd602083613890565b9150614f0882614ec7565b602082019050919050565b60006020820190508181036000830152614f2c81614ef0565b9050919050565b7f4e6f2072657761726420746f2073656e64000000000000000000000000000000600082015250565b6000614f69601183613890565b9150614f7482614f33565b602082019050919050565b60006020820190508181036000830152614f9881614f5c565b9050919050565b7f526577617264207472616e73666572206661696c656400000000000000000000600082015250565b6000614fd5601683613890565b9150614fe082614f9f565b602082019050919050565b6000602082019050818103600083015261500481614fc8565b9050919050565b7f4f6e6c792063616c6c61626c65206279206f776e657200000000000000000000600082015250565b6000615041601683613890565b915061504c8261500b565b602082019050919050565b6000602082019050818103600083015261507081615034565b9050919050565b7f43616e6e6f74207472616e7366657220746f2073656c66000000000000000000600082015250565b60006150ad601783613890565b91506150b882615077565b602082019050919050565b600060208201905081810360008301526150dc816150a0565b9050919050565b6150ec81614de8565b82525050565b6150fb81613fee565b82525050565b61510a81613e1d565b82525050565b600081519050919050565b600082825260208201905092915050565b60005b8381101561514a57808201518184015260208101905061512f565b60008484015250505050565b600061516182615110565b61516b818561511b565b935061517b81856020860161512c565b6151848161395c565b840191505092915050565b600060c0830160008301516151a760008601826150e3565b5060208301516151ba6020860182613baa565b5060408301516151cd60408601826150f2565b5060608301516151e06060860182615101565b5060808301516151f36080860182615101565b5060a083015184820360a086015261520b8282615156565b9150508091505092915050565b60006020820190508181036000830152615232818461518f565b905092915050565b6000815190506152498161392b565b92915050565b60006020828403121561526557615264613917565b5b60006152738482850161523a565b91505092915050565b6020820160008201516152926000850182613c64565b50505050565b60006020820190506152ad600083018461527c565b9291505056fea264697066735822122068381a9686a2e4d1b60d7d143cecd1fb318f90e053cfe383783a0b5a7adf45ff64736f6c634300081c0033",
  "linkReferences": {},
  "deployedLinkReferences": {}
}