{
  "_format": "hh-sol-artifact-1",
  "contractName": "VRFCoordinatorV2_5Mock",
  "sourceName": "contracts/VRFCoordinatorV2_5Mock.sol",
  "abi": [
    {
      "inputs": [
        {
          "internalType": "uint96",
          "name": "_baseFee",
          "type": "uint96"
        },
        {
          "internalType": "uint96",
          "name": "_gasPrice",
          "type": "uint96"
        },
        {
          "internalType": "int256",
          "name": "_weiPerUnitLink",
          "type": "int256"
        }
      ],
      "stateMutability": "nonpayable",
      "type": "constructor"
    },
    {
      "inputs": [
        {
          "internalType": "uint256",
          "name": "internalBalance",
          "type": "uint256"
        },
        {
          "internalType": "uint256",
          "name": "externalBalance",
          "type": "uint256"
        }
      ],
      "name": "BalanceInvariantViolated",
      "type": "error"
    },
    {
      "inputs": [],
      "name": "FailedToSendNative",
      "type": "error"
    },
    {
      "inputs": [],
      "name": "FailedToTransferLink",
      "type": "error"
    },
    {
      "inputs": [],
      "name": "IndexOutOfRange",
      "type": "error"
    },
    {
      "inputs": [],
      "name": "InsufficientBalance",
      "type": "error"
    },
    {
      "inputs": [],
      "name": "InvalidCalldata",
      "type": "error"
    },
    {
      "inputs": [
        {
          "internalType": "uint256",
          "name": "subId",
          "type": "uint256"
        },
        {
          "internalType": "address",
          "name": "consumer",
          "type": "address"
        }
      ],
      "name": "InvalidConsumer",
      "type": "error"
    },
    {
      "inputs": [],
      "name": "InvalidExtraArgsTag",
      "type": "error"
    },
    {
      "inputs": [],
      "name": "InvalidRandomWords",
      "type": "error"
    },
    {
      "inputs": [],
      "name": "InvalidRequest",
      "type": "error"
    },
    {
      "inputs": [],
      "name": "InvalidSubscription",
      "type": "error"
    },
    {
      "inputs": [],
      "name": "LinkAlreadySet",
      "type": "error"
    },
    {
      "inputs": [],
      "name": "LinkNotSet",
      "type": "error"
    },
    {
      "inputs": [
        {
          "internalType": "address",
          "name": "proposedOwner",
          "type": "address"
        }
      ],
      "name": "MustBeRequestedOwner",
      "type": "error"
    },
    {
      "inputs": [
        {
          "internalType": "address",
          "name": "owner",
          "type": "address"
        }
      ],
      "name": "MustBeSubOwner",
      "type": "error"
    },
    {
      "inputs": [],
      "name": "NotImplemented",
      "type": "error"
    },
    {
      "inputs": [],
      "name": "OnlyCallableFromLink",
      "type": "error"
    },
    {
      "inputs": [],
      "name": "PendingRequestExists",
      "type": "error"
    },
    {
      "inputs": [],
      "name": "Reentrant",
      "type": "error"
    },
    {
      "inputs": [],
      "name": "TooManyConsumers",
      "type": "error"
    },
    {
      "anonymous": false,
      "inputs": [],
      "name": "ConfigSet",
      "type": "event"
    },
    {
      "anonymous": false,
      "inputs": [
        {
          "indexed": false,
          "internalType": "address",
          "name": "to",
          "type": "address"
        },
        {
          "indexed": false,
          "internalType": "uint256",
          "name": "amount",
          "type": "uint256"
        }
      ],
      "name": "FundsRecovered",
      "type": "event"
    },
    {
      "anonymous": false,
      "inputs": [
        {
          "indexed": false,
          "internalType": "address",
          "name": "to",
          "type": "address"
        },
        {
          "indexed": false,
          "internalType": "uint256",
          "name": "amount",
          "type": "uint256"
        }
      ],
      "name": "NativeFundsRecovered",
      "type": "event"
    },
    {
      "anonymous": false,
      "inputs": [
        {
          "indexed": true,
          "internalType": "address",
          "name": "from",
          "type": "address"
        },
        {
          "indexed": true,
          "internalType": "address",
          "name": "to",
          "type": "address"
        }
      ],
      "name": "OwnershipTransferRequested",
      "type": "event"
    },
    {
      "anonymous": false,
      "inputs": [
        {
          "indexed": true,
          "internalType": "address",
          "name": "from",
          "type": "address"
        },
        {
          "indexed": true,
          "internalType": "address",
          "name": "to",
          "type": "address"
        }
      ],
      "name": "OwnershipTransferred",
      "type": "event"
    },
    {
      "anonymous": false,
      "inputs": [
        {
          "indexed": true,
          "internalType": "uint256",
          "name": "requestId",
          "type": "uint256"
        },
        {
          "indexed": false,
          "internalType": "uint256",
          "name": "outputSeed",
          "type": "uint256"
        },
        {
          "indexed": true,
          "internalType": "uint256",
          "name": "subId",
          "type": "uint256"
        },
        {
          "indexed": false,
          "internalType": "uint96",
          "name": "payment",
          "type": "uint96"
        },
        {
          "indexed": false,
          "internalType": "bool",
          "name": "nativePayment",
          "type": "bool"
        },
        {
          "indexed": false,
          "internalType": "bool",
          "name": "success",
          "type": "bool"
        },
        {
          "indexed": false,
          "internalType": "bool",
          "name": "onlyPremium",
          "type": "bool"
        }
      ],
      "name": "RandomWordsFulfilled",
      "type": "event"
    },
    {
      "anonymous": false,
      "inputs": [
        {
          "indexed": true,
          "internalType": "bytes32",
          "name": "keyHash",
          "type": "bytes32"
        },
        {
          "indexed": false,
          "internalType": "uint256",
          "name": "requestId",
          "type": "uint256"
        },
        {
          "indexed": false,
          "internalType": "uint256",
          "name": "preSeed",
          "type": "uint256"
        },
        {
          "indexed": true,
          "internalType": "uint256",
          "name": "subId",
          "type": "uint256"
        },
        {
          "indexed": false,
          "internalType": "uint16",
          "name": "minimumRequestConfirmations",
          "type": "uint16"
        },
        {
          "indexed": false,
          "internalType": "uint32",
          "name": "callbackGasLimit",
          "type": "uint32"
        },
        {
          "indexed": false,
          "internalType": "uint32",
          "name": "numWords",
          "type": "uint32"
        },
        {
          "indexed": false,
          "internalType": "bytes",
          "name": "extraArgs",
          "type": "bytes"
        },
        {
          "indexed": true,
          "internalType": "address",
          "name": "sender",
          "type": "address"
        }
      ],
      "name": "RandomWordsRequested",
      "type": "event"
    },
    {
      "anonymous": false,
      "inputs": [
        {
          "indexed": true,
          "internalType": "uint256",
          "name": "subId",
          "type": "uint256"
        },
        {
          "indexed": false,
          "internalType": "address",
          "name": "to",
          "type": "address"
        },
        {
          "indexed": false,
          "internalType": "uint256",
          "name": "amountLink",
          "type": "uint256"
        },
        {
          "indexed": false,
          "internalType": "uint256",
          "name": "amountNative",
          "type": "uint256"
        }
      ],
      "name": "SubscriptionCanceled",
      "type": "event"
    },
    {
      "anonymous": false,
      "inputs": [
        {
          "indexed": true,
          "internalType": "uint256",
          "name": "subId",
          "type": "uint256"
        },
        {
          "indexed": false,
          "internalType": "address",
          "name": "consumer",
          "type": "address"
        }
      ],
      "name": "SubscriptionConsumerAdded",
      "type": "event"
    },
    {
      "anonymous": false,
      "inputs": [
        {
          "indexed": true,
          "internalType": "uint256",
          "name": "subId",
          "type": "uint256"
        },
        {
          "indexed": false,
          "internalType": "address",
          "name": "consumer",
          "type": "address"
        }
      ],
      "name": "SubscriptionConsumerRemoved",
      "type": "event"
    },
    {
      "anonymous": false,
      "inputs": [
        {
          "indexed": true,
          "internalType": "uint256",
          "name": "subId",
          "type": "uint256"
        },
        {
          "indexed": false,
          "internalType": "address",
          "name": "owner",
          "type": "address"
        }
      ],
      "name": "SubscriptionCreated",
      "type": "event"
    },
    {
      "anonymous": false,
      "inputs": [
        {
          "indexed": true,
          "internalType": "uint256",
          "name": "subId",
          "type": "uint256"
        },
        {
          "indexed": false,
          "internalType": "uint256",
          "name": "oldBalance",
          "type": "uint256"
        },
        {
          "indexed": false,
          "internalType": "uint256",
          "name": "newBalance",
          "type": "uint256"
        }
      ],
      "name": "SubscriptionFunded",
      "type": "event"
    },
    {
      "anonymous": false,
      "inputs": [
        {
          "indexed": true,
          "internalType": "uint256",
          "name": "subId",
          "type": "uint256"
        },
        {
          "indexed": false,
          "internalType": "uint256",
          "name": "oldNativeBalance",
          "type": "uint256"
        },
        {
          "indexed": false,
          "internalType": "uint256",
          "name": "newNativeBalance",
          "type": "uint256"
        }
      ],
      "name": "SubscriptionFundedWithNative",
      "type": "event"
    },
    {
      "anonymous": false,
      "inputs": [
        {
          "indexed": true,
          "internalType": "uint256",
          "name": "subId",
          "type": "uint256"
        },
        {
          "indexed": false,
          "internalType": "address",
          "name": "from",
          "type": "address"
        },
        {
          "indexed": false,
          "internalType": "address",
          "name": "to",
          "type": "address"
        }
      ],
      "name": "SubscriptionOwnerTransferRequested",
      "type": "event"
    },
    {
      "anonymous": false,
      "inputs": [
        {
          "indexed": true,
          "internalType": "uint256",
          "name": "subId",
          "type": "uint256"
        },
        {
          "indexed": false,
          "internalType": "address",
          "name": "from",
          "type": "address"
        },
        {
          "indexed": false,
          "internalType": "address",
          "name": "to",
          "type": "address"
        }
      ],
      "name": "SubscriptionOwnerTransferred",
      "type": "event"
    },
    {
      "inputs": [],
      "name": "LINK",
      "outputs": [
        {
          "internalType": "contract LinkTokenInterface",
          "name": "",
          "type": "address"
        }
      ],
      "stateMutability": "view",
      "type": "function"
    },
    {
      "inputs": [],
      "name": "LINK_NATIVE_FEED",
      "outputs": [
        {
          "internalType": "contract AggregatorV3Interface",
          "name": "",
          "type": "address"
        }
      ],
      "stateMutability": "view",
      "type": "function"
    },
    {
      "inputs": [],
      "name": "MAX_CONSUMERS",
      "outputs": [
        {
          "internalType": "uint16",
          "name": "",
          "type": "uint16"
        }
      ],
      "stateMutability": "view",
      "type": "function"
    },
    {
      "inputs": [],
      "name": "acceptOwnership",
      "outputs": [],
      "stateMutability": "nonpayable",
      "type": "function"
    },
    {
      "inputs": [
        {
          "internalType": "uint256",
          "name": "subId",
          "type": "uint256"
        }
      ],
      "name": "acceptSubscriptionOwnerTransfer",
      "outputs": [],
      "stateMutability": "nonpayable",
      "type": "function"
    },
    {
      "inputs": [
        {
          "internalType": "uint256",
          "name": "subId",
          "type": "uint256"
        },
        {
          "internalType": "address",
          "name": "consumer",
          "type": "address"
        }
      ],
      "name": "addConsumer",
      "outputs": [],
      "stateMutability": "nonpayable",
      "type": "function"
    },
    {
      "inputs": [
        {
          "internalType": "uint256",
          "name": "_subId",
          "type": "uint256"
        },
        {
          "internalType": "address",
          "name": "_to",
          "type": "address"
        }
      ],
      "name": "cancelSubscription",
      "outputs": [],
      "stateMutability": "nonpayable",
      "type": "function"
    },
    {
      "inputs": [
        {
          "internalType": "uint256",
          "name": "_subId",
          "type": "uint256"
        },
        {
          "internalType": "address",
          "name": "_consumer",
          "type": "address"
        }
      ],
      "name": "consumerIsAdded",
      "outputs": [
        {
          "internalType": "bool",
          "name": "",
          "type": "bool"
        }
      ],
      "stateMutability": "view",
      "type": "function"
    },
    {
      "inputs": [],
      "name": "createSubscription",
      "outputs": [
        {
          "internalType": "uint256",
          "name": "subId",
          "type": "uint256"
        }
      ],
      "stateMutability": "nonpayable",
      "type": "function"
    },
    {
      "inputs": [
        {
          "internalType": "uint256",
          "name": "_requestId",
          "type": "uint256"
        },
        {
          "internalType": "address",
          "name": "_consumer",
          "type": "address"
        }
      ],
      "name": "fulfillRandomWords",
      "outputs": [],
      "stateMutability": "nonpayable",
      "type": "function"
    },
    {
      "inputs": [
        {
          "internalType": "uint256",
          "name": "_requestId",
          "type": "uint256"
        },
        {
          "internalType": "address",
          "name": "_consumer",
          "type": "address"
        },
        {
          "internalType": "uint256[]",
          "name": "_words",
          "type": "uint256[]"
        }
      ],
      "name": "fulfillRandomWordsWithOverride",
      "outputs": [],
      "stateMutability": "nonpayable",
      "type": "function"
    },
    {
      "inputs": [
        {
          "internalType": "uint256",
          "name": "_subId",
          "type": "uint256"
        },
        {
          "internalType": "uint256",
          "name": "_amount",
          "type": "uint256"
        }
      ],
      "name": "fundSubscription",
      "outputs": [],
      "stateMutability": "nonpayable",
      "type": "function"
    },
    {
      "inputs": [
        {
          "internalType": "uint256",
          "name": "subId",
          "type": "uint256"
        }
      ],
      "name": "fundSubscriptionWithNative",
      "outputs": [],
      "stateMutability": "payable",
      "type": "function"
    },
    {
      "inputs": [
        {
          "internalType": "uint256",
          "name": "startIndex",
          "type": "uint256"
        },
        {
          "internalType": "uint256",
          "name": "maxCount",
          "type": "uint256"
        }
      ],
      "name": "getActiveSubscriptionIds",
      "outputs": [
        {
          "internalType": "uint256[]",
          "name": "ids",
          "type": "uint256[]"
        }
      ],
      "stateMutability": "view",
      "type": "function"
    },
    {
      "inputs": [
        {
          "internalType": "uint256",
          "name": "subId",
          "type": "uint256"
        }
      ],
      "name": "getSubscription",
      "outputs": [
        {
          "internalType": "uint96",
          "name": "balance",
          "type": "uint96"
        },
        {
          "internalType": "uint96",
          "name": "nativeBalance",
          "type": "uint96"
        },
        {
          "internalType": "uint64",
          "name": "reqCount",
          "type": "uint64"
        },
        {
          "internalType": "address",
          "name": "subOwner",
          "type": "address"
        },
        {
          "internalType": "address[]",
          "name": "consumers",
          "type": "address[]"
        }
      ],
      "stateMutability": "view",
      "type": "function"
    },
    {
      "inputs": [],
      "name": "i_base_fee",
      "outputs": [
        {
          "internalType": "uint96",
          "name": "",
          "type": "uint96"
        }
      ],
      "stateMutability": "view",
      "type": "function"
    },
    {
      "inputs": [],
      "name": "i_gas_price",
      "outputs": [
        {
          "internalType": "uint96",
          "name": "",
          "type": "uint96"
        }
      ],
      "stateMutability": "view",
      "type": "function"
    },
    {
      "inputs": [],
      "name": "i_wei_per_unit_link",
      "outputs": [
        {
          "internalType": "int256",
          "name": "",
          "type": "int256"
        }
      ],
      "stateMutability": "view",
      "type": "function"
    },
    {
      "inputs": [
        {
          "internalType": "address",
          "name": "",
          "type": "address"
        },
        {
          "internalType": "uint256",
          "name": "amount",
          "type": "uint256"
        },
        {
          "internalType": "bytes",
          "name": "data",
          "type": "bytes"
        }
      ],
      "name": "onTokenTransfer",
      "outputs": [],
      "stateMutability": "nonpayable",
      "type": "function"
    },
    {
      "inputs": [],
      "name": "owner",
      "outputs": [
        {
          "internalType": "address",
          "name": "",
          "type": "address"
        }
      ],
      "stateMutability": "view",
      "type": "function"
    },
    {
      "inputs": [
        {
          "internalType": "uint256",
          "name": "subId",
          "type": "uint256"
        }
      ],
      "name": "ownerCancelSubscription",
      "outputs": [],
      "stateMutability": "nonpayable",
      "type": "function"
    },
    {
      "inputs": [
        {
          "internalType": "uint256",
          "name": "",
          "type": "uint256"
        }
      ],
      "name": "pendingRequestExists",
      "outputs": [
        {
          "internalType": "bool",
          "name": "",
          "type": "bool"
        }
      ],
      "stateMutability": "pure",
      "type": "function"
    },
    {
      "inputs": [
        {
          "internalType": "address",
          "name": "to",
          "type": "address"
        }
      ],
      "name": "recoverFunds",
      "outputs": [],
      "stateMutability": "nonpayable",
      "type": "function"
    },
    {
      "inputs": [
        {
          "internalType": "address payable",
          "name": "to",
          "type": "address"
        }
      ],
      "name": "recoverNativeFunds",
      "outputs": [],
      "stateMutability": "nonpayable",
      "type": "function"
    },
    {
      "inputs": [
        {
          "internalType": "uint256",
          "name": "_subId",
          "type": "uint256"
        },
        {
          "internalType": "address",
          "name": "_consumer",
          "type": "address"
        }
      ],
      "name": "removeConsumer",
      "outputs": [],
      "stateMutability": "nonpayable",
      "type": "function"
    },
    {
      "inputs": [
        {
          "components": [
            {
              "internalType": "bytes32",
              "name": "keyHash",
              "type": "bytes32"
            },
            {
              "internalType": "uint256",
              "name": "subId",
              "type": "uint256"
            },
            {
              "internalType": "uint16",
              "name": "requestConfirmations",
              "type": "uint16"
            },
            {
              "internalType": "uint32",
              "name": "callbackGasLimit",
              "type": "uint32"
            },
            {
              "internalType": "uint32",
              "name": "numWords",
              "type": "uint32"
            },
            {
              "internalType": "bytes",
              "name": "extraArgs",
              "type": "bytes"
            }
          ],
          "internalType": "struct VRFV2PlusClient.RandomWordsRequest",
          "name": "_req",
          "type": "tuple"
        }
      ],
      "name": "requestRandomWords",
      "outputs": [
        {
          "internalType": "uint256",
          "name": "",
          "type": "uint256"
        }
      ],
      "stateMutability": "nonpayable",
      "type": "function"
    },
    {
      "inputs": [
        {
          "internalType": "uint256",
          "name": "subId",
          "type": "uint256"
        },
        {
          "internalType": "address",
          "name": "newOwner",
          "type": "address"
        }
      ],
      "name": "requestSubscriptionOwnerTransfer",
      "outputs": [],
      "stateMutability": "nonpayable",
      "type": "function"
    },
    {
      "inputs": [],
      "name": "s_config",
      "outputs": [
        {
          "internalType": "uint16",
          "name": "minimumRequestConfirmations",
          "type": "uint16"
        },
        {
          "internalType": "uint32",
          "name": "maxGasLimit",
          "type": "uint32"
        },
        {
          "internalType": "bool",
          "name": "reentrancyLock",
          "type": "bool"
        },
        {
          "internalType": "uint32",
          "name": "stalenessSeconds",
          "type": "uint32"
        },
        {
          "internalType": "uint32",
          "name": "gasAfterPaymentCalculation",
          "type": "uint32"
        },
        {
          "internalType": "uint32",
          "name": "fulfillmentFlatFeeNativePPM",
          "type": "uint32"
        },
        {
          "internalType": "uint32",
          "name": "fulfillmentFlatFeeLinkDiscountPPM",
          "type": "uint32"
        },
        {
          "internalType": "uint8",
          "name": "nativePremiumPercentage",
          "type": "uint8"
        },
        {
          "internalType": "uint8",
          "name": "linkPremiumPercentage",
          "type": "uint8"
        }
      ],
      "stateMutability": "view",
      "type": "function"
    },
    {
      "inputs": [],
      "name": "s_currentSubNonce",
      "outputs": [
        {
          "internalType": "uint64",
          "name": "",
          "type": "uint64"
        }
      ],
      "stateMutability": "view",
      "type": "function"
    },
    {
      "inputs": [],
      "name": "s_totalBalance",
      "outputs": [
        {
          "internalType": "uint96",
          "name": "",
          "type": "uint96"
        }
      ],
      "stateMutability": "view",
      "type": "function"
    },
    {
      "inputs": [],
      "name": "s_totalNativeBalance",
      "outputs": [
        {
          "internalType": "uint96",
          "name": "",
          "type": "uint96"
        }
      ],
      "stateMutability": "view",
      "type": "function"
    },
    {
      "inputs": [],
      "name": "setConfig",
      "outputs": [],
      "stateMutability": "nonpayable",
      "type": "function"
    },
    {
      "inputs": [
        {
          "internalType": "address",
          "name": "link",
          "type": "address"
        },
        {
          "internalType": "address",
          "name": "linkNativeFeed",
          "type": "address"
        }
      ],
      "name": "setLINKAndLINKNativeFeed",
      "outputs": [],
      "stateMutability": "nonpayable",
      "type": "function"
    },
    {
      "inputs": [
        {
          "internalType": "address",
          "name": "to",
          "type": "address"
        }
      ],
      "name": "transferOwnership",
      "outputs": [],
      "stateMutability": "nonpayable",
      "type": "function"
    },
    {
      "inputs": [
        {
          "internalType": "address",
          "name": "recipient",
          "type": "address"
        }
      ],
      "name": "withdraw",
      "outputs": [],
      "stateMutability": "nonpayable",
      "type": "function"
    },
    {
      "inputs": [
        {
          "internalType": "address payable",
          "name": "recipient",
          "type": "address"
        }
      ],
      "name": "withdrawNative",
      "outputs": [],
      "stateMutability": "nonpayable",
      "type": "function"
    }
  ],
  "bytecode": "0x60e06040526001600e556064600f5534801561001a57600080fd5b506040516176ee3803806176ee833981810160405281019061003c919061070e565b338060008073ffffffffffffffffffffffffffffffffffffffff168273ffffffffffffffffffffffffffffffffffffffff16036100ae576040517f08c379a00000000000000000000000000000000000000000000000000000000081526004016100a5906107be565b60405180910390fd5b816000806101000a81548173ffffffffffffffffffffffffffffffffffffffff021916908373ffffffffffffffffffffffffffffffffffffffff160217905550600073ffffffffffffffffffffffffffffffffffffffff168173ffffffffffffffffffffffffffffffffffffffff1614610132576101318161023760201b60201c565b5b50505061014f67a9af37e16188383d60c01b61036360201b60201c565b61016967e59e96a511780bae60c01b61036360201b60201c565b826bffffffffffffffffffffffff166080816bffffffffffffffffffffffff16815250506101a767207bfd8add621cac60c01b61036360201b60201c565b816bffffffffffffffffffffffff1660a0816bffffffffffffffffffffffff16815250506101e5673cf5c83c94a95ae260c01b61036360201b60201c565b8060c0818152505061020767f98f6110ebc6d5bf60c01b61036360201b60201c565b61022167dc702242a965cb1960c01b61036360201b60201c565b61022f61036660201b60201c565b5050506108b6565b3373ffffffffffffffffffffffffffffffffffffffff168173ffffffffffffffffffffffffffffffffffffffff16036102a5576040517f08c379a000000000000000000000000000000000000000000000000000000000815260040161029c9061082a565b60405180910390fd5b80600160006101000a81548173ffffffffffffffffffffffffffffffffffffffff021916908373ffffffffffffffffffffffffffffffffffffffff1602179055508073ffffffffffffffffffffffffffffffffffffffff1660008054906101000a900473ffffffffffffffffffffffffffffffffffffffff1673ffffffffffffffffffffffffffffffffffffffff167fed8889f560326eb138920d842192f0eb3dd22b4f139c87a2c57538e05bae127860405160405180910390a350565b50565b61038067689f10d457c5813a60c01b61036360201b60201c565b61038e6105ff60201b60201c565b6103a86734ceaa9991e89ae560c01b61036360201b60201c565b6103c26717aa07df9a1e378660c01b61036360201b60201c565b6103dc67efd0535d4f681ef460c01b61036360201b60201c565b604051806101200160405280600061ffff168152602001600063ffffffff168152602001600015158152602001600063ffffffff168152602001600063ffffffff168152602001600063ffffffff168152602001600063ffffffff168152602001600060ff168152602001600060ff16815250600c60008201518160000160006101000a81548161ffff021916908361ffff16021790555060208201518160000160026101000a81548163ffffffff021916908363ffffffff16021790555060408201518160000160066101000a81548160ff02191690831515021790555060608201518160000160076101000a81548163ffffffff021916908363ffffffff160217905550608082015181600001600b6101000a81548163ffffffff021916908363ffffffff16021790555060a082015181600001600f6101000a81548163ffffffff021916908363ffffffff16021790555060c08201518160000160136101000a81548163ffffffff021916908363ffffffff16021790555060e08201518160000160176101000a81548160ff021916908360ff1602179055506101008201518160000160186101000a81548160ff021916908360ff1602179055509050506105b767b86af151f5a5ff6d60c01b61036360201b60201c565b6105d167b6bc4e91fcdb4fb960c01b61036360201b60201c565b7f4b2974a542484cba2783812ff8033f7fc682cac2fe0905c28c5e27869b3155be60405160405180910390a1565b60008054906101000a900473ffffffffffffffffffffffffffffffffffffffff1673ffffffffffffffffffffffffffffffffffffffff163373ffffffffffffffffffffffffffffffffffffffff161461068d576040517f08c379a000000000000000000000000000000000000000000000000000000000815260040161068490610896565b60405180910390fd5b565b600080fd5b60006bffffffffffffffffffffffff82169050919050565b6106b581610694565b81146106c057600080fd5b50565b6000815190506106d2816106ac565b92915050565b6000819050919050565b6106eb816106d8565b81146106f657600080fd5b50565b600081519050610708816106e2565b92915050565b6000806000606084860312156107275761072661068f565b5b6000610735868287016106c3565b9350506020610746868287016106c3565b9250506040610757868287016106f9565b9150509250925092565b600082825260208201905092915050565b7f43616e6e6f7420736574206f776e657220746f207a65726f0000000000000000600082015250565b60006107a8601883610761565b91506107b382610772565b602082019050919050565b600060208201905081810360008301526107d78161079b565b9050919050565b7f43616e6e6f74207472616e7366657220746f2073656c66000000000000000000600082015250565b6000610814601783610761565b915061081f826107de565b602082019050919050565b6000602082019050818103600083015261084381610807565b9050919050565b7f4f6e6c792063616c6c61626c65206279206f776e657200000000000000000000600082015250565b6000610880601683610761565b915061088b8261084a565b602082019050919050565b600060208201905081810360008301526108af81610873565b9050919050565b60805160a05160c051616df46108fa600039600081816110590152611733015260008181610f840152613ecc015260008181610fc9015261179b0152616df46000f3fe60806040526004361061020f5760003560e01c80638b673e7a11610118578063aefb212f116100a0578063dac83d291161006f578063dac83d2914610748578063dc311dd314610771578063dcab3dcf146107b2578063e72f6e30146107dd578063f2fde38b146108065761020f565b8063aefb212f14610690578063b2a7cac5146106cd578063bec4c08c146106f6578063cb6317971461071f5761020f565b80639b1c385e116100e75780639b1c385e146105ab5780639d40a6fd146105e8578063a21a23e414610613578063a4c0ed361461063e578063aa433aff146106675761020f565b80638b673e7a146105105780638da5cb5b14610527578063953e9c751461055257806395b55cfc1461058f5761020f565b806341af6c871161019b57806372e9d5651161016a57806372e9d5651461045157806379ba50971461047c578063808974ff146104935780638402595e146104bc57806386fe91c7146104e55761020f565b806341af6c871461039757806351cff8d9146103d457806364d51a2a146103fd57806365982744146104285761020f565b806313478329116101e257806313478329146102c257806318e3dd27146102ed5780631b6b6d23146103185780631eebc117146103435780632f622e6b1461036e5761020f565b8063088070f51461021457806308e3898e146102475780630ae0954014610270578063115e3c0d14610299575b600080fd5b34801561022057600080fd5b5061022961082f565b60405161023e9998979695949392919061557f565b60405180910390f35b34801561025357600080fd5b5061026e6004803603810190610269919061580d565b6108f0565b005b34801561027c57600080fd5b506102976004803603810190610292919061587c565b611201565b005b3480156102a557600080fd5b506102c060048036038101906102bb91906158bc565b611458565b005b3480156102ce57600080fd5b506102d7611731565b6040516102e49190615915565b60405180910390f35b3480156102f957600080fd5b50610302611755565b60405161030f9190615957565b60405180910390f35b34801561032457600080fd5b5061032d611773565b60405161033a91906159d1565b60405180910390f35b34801561034f57600080fd5b50610358611799565b6040516103659190615957565b60405180910390f35b34801561037a57600080fd5b5061039560048036038101906103909190615a2a565b6117bd565b005b3480156103a357600080fd5b506103be60048036038101906103b99190615a57565b6118ab565b6040516103cb9190615a84565b60405180910390f35b3480156103e057600080fd5b506103fb60048036038101906103f69190615a9f565b611907565b005b34801561040957600080fd5b50610412611b0d565b60405161041f9190615acc565b60405180910390f35b34801561043457600080fd5b5061044f600480360381019061044a9190615ae7565b611b12565b005b34801561045d57600080fd5b50610466611c28565b6040516104739190615b48565b60405180910390f35b34801561048857600080fd5b50610491611c4e565b005b34801561049f57600080fd5b506104ba60048036038101906104b5919061587c565b611de3565b005b3480156104c857600080fd5b506104e360048036038101906104de9190615a2a565b611ea7565b005b3480156104f157600080fd5b506104fa612024565b6040516105079190615957565b60405180910390f35b34801561051c57600080fd5b50610525612042565b005b34801561053357600080fd5b5061053c6122b1565b6040516105499190615b72565b60405180910390f35b34801561055e57600080fd5b506105796004803603810190610574919061587c565b6122da565b6040516105869190615a84565b60405180910390f35b6105a960048036038101906105a49190615a57565b612381565b005b3480156105b757600080fd5b506105d260048036038101906105cd9190615bb1565b612514565b6040516105df9190615c09565b60405180910390f35b3480156105f457600080fd5b506105fd612a99565b60405161060a9190615c47565b60405180910390f35b34801561061f57600080fd5b50610628612ab3565b6040516106359190615c09565b60405180910390f35b34801561064a57600080fd5b5061066560048036038101906106609190615cbd565b612deb565b005b34801561067357600080fd5b5061068e60048036038101906106899190615a57565b613059565b005b34801561069c57600080fd5b506106b760048036038101906106b291906158bc565b6130b3565b6040516106c49190615def565b60405180910390f35b3480156106d957600080fd5b506106f460048036038101906106ef9190615a57565b6131e1565b005b34801561070257600080fd5b5061071d6004803603810190610718919061587c565b6133f2565b005b34801561072b57600080fd5b506107466004803603810190610741919061587c565b613590565b005b34801561075457600080fd5b5061076f600480360381019061076a919061587c565b613c41565b005b34801561077d57600080fd5b5061079860048036038101906107939190615a57565b613d45565b6040516107a9959493929190615ecf565b60405180910390f35b3480156107be57600080fd5b506107c7613eca565b6040516107d49190615957565b60405180910390f35b3480156107e957600080fd5b5061080460048036038101906107ff9190615a9f565b613eee565b005b34801561081257600080fd5b5061082d60048036038101906108289190615a9f565b6141c0565b005b600c8060000160009054906101000a900461ffff16908060000160029054906101000a900463ffffffff16908060000160069054906101000a900460ff16908060000160079054906101000a900463ffffffff169080600001600b9054906101000a900463ffffffff169080600001600f9054906101000a900463ffffffff16908060000160139054906101000a900463ffffffff16908060000160179054906101000a900460ff16908060000160189054906101000a900460ff16905089565b610904679e431749807731f960c01b6141d4565b61091867e6ce864f39025fcb60c01b6141d4565b61092c675f8c37ee1fb1db0260c01b6141d4565b60005a90506109456707cd7d86d50aad3860c01b6141d4565b610959676cb0e6092e4084bd60c01b6141d4565b60006010600086815260200190815260200160002060000154036109d15761098b6738a3bcdf468a78b760c01b6141d4565b61099f671eb9d9977b9df14060c01b6141d4565b6040517f41abc80100000000000000000000000000000000000000000000000000000000815260040160405180910390fd5b6109e567b56e6cf813bd030160c01b6141d4565b6109f967fe3a8f49a81fdc8f60c01b6141d4565b610a0d67718c3c1f381eb41f60c01b6141d4565b600060106000868152602001908152602001600020604051806080016040529081600082015481526020016001820160009054906101000a900463ffffffff1663ffffffff1663ffffffff1681526020016001820160049054906101000a900463ffffffff1663ffffffff1663ffffffff168152602001600282018054610a9390615f58565b80601f0160208091040260200160405190810160405280929190818152602001828054610abf90615f58565b8015610b0c5780601f10610ae157610100808354040283529160200191610b0c565b820191906000526020600020905b815481529060010190602001808311610aef57829003601f168201915b5050505050815250509050610b2b67340fdda722bd83a360c01b6141d4565b610b3f672622e58779f1b4b460c01b6141d4565b6000835103610c7457610b5c67be54ac69d05f524360c01b6141d4565b610b70677aac9390d0ab29db60c01b6141d4565b806040015163ffffffff1667ffffffffffffffff811115610b9457610b936156ca565b5b604051908082528060200260200182016040528015610bc25781602001602082028036833780820191505090505b509250610bd967707c92aed5299a5760c01b6141d4565b610bed67f82e85f9b1c7f05860c01b6141d4565b60005b816040015163ffffffff16811015610c6e57610c16677c08f445ae97d35960c01b6141d4565b8581604051602001610c29929190615f89565b6040516020818303038152906040528051906020012060001c848281518110610c5557610c54615fb2565b5b6020026020010181815250508080600101915050610bf0565b50610d1d565b610c8867c440ab52bef9af4b60c01b6141d4565b610c9c6735a943fbbe6aad7260c01b6141d4565b806040015163ffffffff16835114610d0857610cc267132df29e035d80a360c01b6141d4565b610cd667a7ea45743d3edf9660c01b6141d4565b6040517f3f3df5b600000000000000000000000000000000000000000000000000000000815260040160405180910390fd5b610d1c67d6613bc7cdf8633960c01b6141d4565b5b610d3167d4da339814e37ca560c01b6141d4565b610d4567c45739bf29f4a4f360c01b6141d4565b6000610d5b67b4970d9f228de67a60c01b6141d4565b610d6f67d0f2d12d06a8718060c01b6141d4565b6000631fe543e360e01b8786604051602401610d8c929190615fe1565b604051602081830303815290604052907bffffffffffffffffffffffffffffffffffffffffffffffffffffffff19166020820180517bffffffffffffffffffffffffffffffffffffffffffffffffffffffff83818316178352505050509050610dff67a019f025d591c8e660c01b6141d4565b6001600c60000160066101000a81548160ff021916908315150217905550610e316759120ae3713acbdf60c01b6141d4565b610e4567eac6e1c6fa8f07cb60c01b6141d4565b60008673ffffffffffffffffffffffffffffffffffffffff16846020015163ffffffff1683604051610e779190616082565b60006040518083038160008787f1925050503d8060008114610eb5576040519150601f19603f3d011682016040523d82523d6000602084013e610eba565b606091505b50509050610ed2677eba97cbbc6b49d560c01b6141d4565b6000600c60000160066101000a81548160ff021916908315150217905550610f046762694ce883abb21b60c01b6141d4565b610f1867fae082980d34487960c01b6141d4565b6000600185606001516001876060015151610f3391906160c8565b81518110610f4457610f43615fb2565b5b602001015160f81c60f81b60f81c60ff16149050610f6c673863bb793f85045d60c01b6141d4565b610f806714ec3f444b5be4a560c01b6141d4565b60007f00000000000000000000000000000000000000000000000000000000000000006bffffffffffffffffffffffff165a88610fbd91906160c8565b610fc791906160fc565b7f00000000000000000000000000000000000000000000000000000000000000006bffffffffffffffffffffffff16611000919061613e565b9050611016672d9adc713ab088c160c01b6141d4565b61102a679934992c29c54b9c60c01b6141d4565b8161109d57611043679830b88cca03217060c01b6141d4565b61105767dee230047ae1866760c01b6141d4565b7f000000000000000000000000000000000000000000000000000000000000000081670de0b6b3a764000061108c91906160fc565b61109691906161a1565b90506110b2565b6110b16796ab0f82817c363160c01b6141d4565b5b6110c667c504595accd6c45060c01b6141d4565b6110da67ab59969052561c7960c01b6141d4565b60008190506110f367a552f9afce4d1b6f60c01b6141d4565b611107674768c75a7e7ca9fd60c01b6141d4565b611116818489600001516141d7565b61112a67a823d9d2e26517d760c01b6141d4565b601060008c81526020019081526020016000206000808201600090556001820160006101000a81549063ffffffff02191690556001820160046101000a81549063ffffffff021916905560028201600061118491906153ef565b505061119a67699cf6d37ddb7cb560c01b6141d4565b6111ae6717ea492982e2ada860c01b6141d4565b86600001518b7faeb4b4786571e184246d39587f659abf0e26f41f6a3358692250382c0cdb47b78d84878960006040516111ec9594939291906161d2565b60405180910390a35050505050505050505050565b61121567c49c00aa5bca860b60c01b6141d4565b8161121f8161460e565b6112336785ebd02e850ceaee60c01b6141d4565b61124767374609994ab8149560c01b6141d4565b61124f6146c6565b61126367fac64da4849c7c5d60c01b6141d4565b611277678d266dbad47844de60c01b6141d4565b61128b67cb3b1d4239e26d2b60c01b6141d4565b61129f6718f063d4587f31de60c01b6141d4565b6000806112ab85614712565b915091506112c3673b508f3c9acb52b860c01b6141d4565b6112d767db23e83d437466b660c01b6141d4565b60008473ffffffffffffffffffffffffffffffffffffffff16826bffffffffffffffffffffffff1660405161130b9061624b565b60006040518083038185875af1925050503d8060008114611348576040519150601f19603f3d011682016040523d82523d6000602084013e61134d565b606091505b50509050611365676cc6e7106fe0d70a60c01b6141d4565b61137967e58e32144ac21d3460c01b6141d4565b806113d8576113926785aab28a6e6a418060c01b6141d4565b6113a6670a48daf6a3270c4360c01b6141d4565b6040517f950b247900000000000000000000000000000000000000000000000000000000815260040160405180910390fd5b6113ec678ac547388c78345b60c01b6141d4565b61140067f3035d548bbefe8f60c01b6141d4565b61141467994eecef515bc47960c01b6141d4565b857f8c74ce8b8cf87f5eb001275c8be27eb34ea2b62bfab6814fcc62192bb63e81c486858560405161144893929190616291565b60405180910390a2505050505050565b61146c67dc45140d2c542e9a60c01b6141d4565b6114806722a72dcbbcabb01260c01b6141d4565b61149467ccaf4b61f293ad9c60c01b6141d4565b600073ffffffffffffffffffffffffffffffffffffffff166005600084815260200190815260200160002060000160009054906101000a900473ffffffffffffffffffffffffffffffffffffffff1673ffffffffffffffffffffffffffffffffffffffff160361155857611512678cd43f0a9719cbb460c01b6141d4565b61152667a0e5575eefc9de4660c01b6141d4565b6040517f1f6a65b600000000000000000000000000000000000000000000000000000000815260040160405180910390fd5b61156c67d3d88fa0b10dd5c460c01b6141d4565b61158067d67dbd479d02c85960c01b6141d4565b61159467fb88d14a5836e8a460c01b6141d4565b60006006600084815260200190815260200160002060000160009054906101000a90046bffffffffffffffffffffffff166bffffffffffffffffffffffff1690506115e967862adb2e628731b460c01b6141d4565b816006600085815260200190815260200160002060000160008282829054906101000a90046bffffffffffffffffffffffff1661162691906162c8565b92506101000a8154816bffffffffffffffffffffffff02191690836bffffffffffffffffffffffff160217905550611668676a74af26f437f46560c01b6141d4565b81600a60008282829054906101000a90046bffffffffffffffffffffffff1661169191906162c8565b92506101000a8154816bffffffffffffffffffffffff02191690836bffffffffffffffffffffffff1602179055506116d3674179f8cd72859d9b60c01b6141d4565b6116e767066912290527c20160c01b6141d4565b827f1ced9348ff549fceab2ac57cd3a9de38edaaab274b725ee82c23e8fc8c4eec7a828484611716919061613e565b604051611724929190615f89565b60405180910390a2505050565b7f000000000000000000000000000000000000000000000000000000000000000081565b600a600c9054906101000a90046bffffffffffffffffffffffff1681565b600260009054906101000a900473ffffffffffffffffffffffffffffffffffffffff1681565b7f000000000000000000000000000000000000000000000000000000000000000081565b6117c56146c6565b6117cd614a66565b6000600b600c9054906101000a90046bffffffffffffffffffffffff1690506118066000826bffffffffffffffffffffffff1611614af6565b6000600b600c6101000a8154816bffffffffffffffffffffffff02191690836bffffffffffffffffffffffff16021790555080600a600c8282829054906101000a90046bffffffffffffffffffffffff166118619190616308565b92506101000a8154816bffffffffffffffffffffffff02191690836bffffffffffffffffffffffff1602179055506118a782826bffffffffffffffffffffffff16614b30565b5050565b60006118c1678240cc5e837a742160c01b6141d4565b6118d56760c523687077e70d60c01b6141d4565b6040517fd623472500000000000000000000000000000000000000000000000000000000815260040160405180910390fd5b61190f6146c6565b611917614a66565b600073ffffffffffffffffffffffffffffffffffffffff16600260009054906101000a900473ffffffffffffffffffffffffffffffffffffffff1673ffffffffffffffffffffffffffffffffffffffff160361199f576040517fc1f0c0a100000000000000000000000000000000000000000000000000000000815260040160405180910390fd5b6000600b60009054906101000a90046bffffffffffffffffffffffff1690506119d86000826bffffffffffffffffffffffff1611614af6565b6000600b60006101000a8154816bffffffffffffffffffffffff02191690836bffffffffffffffffffffffff16021790555080600a60008282829054906101000a90046bffffffffffffffffffffffff16611a339190616308565b92506101000a8154816bffffffffffffffffffffffff02191690836bffffffffffffffffffffffff160217905550611b09600260009054906101000a900473ffffffffffffffffffffffffffffffffffffffff1673ffffffffffffffffffffffffffffffffffffffff1663a9059cbb84846040518363ffffffff1660e01b8152600401611ac1929190616348565b6020604051808303816000875af1158015611ae0573d6000803e3d6000fd5b505050506040513d601f19601f82011682018060405250810190611b04919061639d565b614af6565b5050565b606481565b611b1a614a66565b600073ffffffffffffffffffffffffffffffffffffffff16600260009054906101000a900473ffffffffffffffffffffffffffffffffffffffff1673ffffffffffffffffffffffffffffffffffffffff1614611ba2576040517f2d118a6e00000000000000000000000000000000000000000000000000000000815260040160405180910390fd5b81600260006101000a81548173ffffffffffffffffffffffffffffffffffffffff021916908373ffffffffffffffffffffffffffffffffffffffff16021790555080600360006101000a81548173ffffffffffffffffffffffffffffffffffffffff021916908373ffffffffffffffffffffffffffffffffffffffff1602179055505050565b600360009054906101000a900473ffffffffffffffffffffffffffffffffffffffff1681565b600160009054906101000a900473ffffffffffffffffffffffffffffffffffffffff1673ffffffffffffffffffffffffffffffffffffffff163373ffffffffffffffffffffffffffffffffffffffff1614611cde576040517f08c379a0000000000000000000000000000000000000000000000000000000008152600401611cd590616427565b60405180910390fd5b60008060009054906101000a900473ffffffffffffffffffffffffffffffffffffffff169050336000806101000a81548173ffffffffffffffffffffffffffffffffffffffff021916908373ffffffffffffffffffffffffffffffffffffffff1602179055506000600160006101000a81548173ffffffffffffffffffffffffffffffffffffffff021916908373ffffffffffffffffffffffffffffffffffffffff1602179055503373ffffffffffffffffffffffffffffffffffffffff168173ffffffffffffffffffffffffffffffffffffffff167f8be0079c531659141344cd1fd0a4f28419497f9722a3daafe3b4186f6b6457e060405160405180910390a350565b611df7679297b4e090a8e89060c01b6141d4565b611dff6146c6565b611e13678b940d851e85047360c01b6141d4565b611e2767f746cbb9f672948a60c01b6141d4565b611e3b67744b589ee388ac6860c01b6141d4565b611e4f678985f303abc555eb60c01b6141d4565b611ea38282600067ffffffffffffffff811115611e6f57611e6e6156ca565b5b604051908082528060200260200182016040528015611e9d5781602001602082028036833780820191505090505b506108f0565b5050565b611eaf614a66565b60004790506000600a600c9054906101000a90046bffffffffffffffffffffffff166bffffffffffffffffffffffff16905081811115611f285780826040517fa99da302000000000000000000000000000000000000000000000000000000008152600401611f1f929190615f89565b60405180910390fd5b8181101561201f5760008183611f3e91906160c8565b905060008473ffffffffffffffffffffffffffffffffffffffff1682604051611f669061624b565b60006040518083038185875af1925050503d8060008114611fa3576040519150601f19603f3d011682016040523d82523d6000602084013e611fa8565b606091505b5050905080611fe3576040517f950b247900000000000000000000000000000000000000000000000000000000815260040160405180910390fd5b7f4aed7c8eed0496c8c19ea2681fcca25741c1602342e38b045d9f1e8e905d2e9c8583604051612014929190616468565b60405180910390a150505b505050565b600a60009054906101000a90046bffffffffffffffffffffffff1681565b61205667689f10d457c5813a60c01b6141d4565b61205e614a66565b6120726734ceaa9991e89ae560c01b6141d4565b6120866717aa07df9a1e378660c01b6141d4565b61209a67efd0535d4f681ef460c01b6141d4565b604051806101200160405280600061ffff168152602001600063ffffffff168152602001600015158152602001600063ffffffff168152602001600063ffffffff168152602001600063ffffffff168152602001600063ffffffff168152602001600060ff168152602001600060ff16815250600c60008201518160000160006101000a81548161ffff021916908361ffff16021790555060208201518160000160026101000a81548163ffffffff021916908363ffffffff16021790555060408201518160000160066101000a81548160ff02191690831515021790555060608201518160000160076101000a81548163ffffffff021916908363ffffffff160217905550608082015181600001600b6101000a81548163ffffffff021916908363ffffffff16021790555060a082015181600001600f6101000a81548163ffffffff021916908363ffffffff16021790555060c08201518160000160136101000a81548163ffffffff021916908363ffffffff16021790555060e08201518160000160176101000a81548160ff021916908360ff1602179055506101008201518160000160186101000a81548160ff021916908360ff16021790555090505061226f67b86af151f5a5ff6d60c01b6141d4565b61228367b6bc4e91fcdb4fb960c01b6141d4565b7f4b2974a542484cba2783812ff8033f7fc682cac2fe0905c28c5e27869b3155be60405160405180910390a1565b60008060009054906101000a900473ffffffffffffffffffffffffffffffffffffffff16905090565b60006122f067f5eed1c40b40550660c01b6141d4565b61230467ee43bec8a990b78560c01b6141d4565b612318678b9139a1f9ebdabd60c01b6141d4565b600460008373ffffffffffffffffffffffffffffffffffffffff1673ffffffffffffffffffffffffffffffffffffffff168152602001908152602001600020600084815260200190815260200160002060000160009054906101000a900460ff16905092915050565b6123896146c6565b6123c86005600083815260200190815260200160002060000160009054906101000a900473ffffffffffffffffffffffffffffffffffffffff16614bd8565b600060066000838152602001908152602001600020600001600c9054906101000a90046bffffffffffffffffffffffff166bffffffffffffffffffffffff1690503460066000848152602001908152602001600020600001600c8282829054906101000a90046bffffffffffffffffffffffff1661244691906162c8565b92506101000a8154816bffffffffffffffffffffffff02191690836bffffffffffffffffffffffff16021790555034600a600c8282829054906101000a90046bffffffffffffffffffffffff1661249d91906162c8565b92506101000a8154816bffffffffffffffffffffffff02191690836bffffffffffffffffffffffff160217905550817f7603b205d03651ee812f803fccde89f1012e545a9c99f0abfea9cedd0fd8e9028234846124fa919061613e565b604051612508929190615f89565b60405180910390a25050565b600061252a67c3492450ac742b3260c01b6141d4565b6125326146c6565b61254667d19fef9df3ea79e560c01b6141d4565b61255a67d6fe8d8b454e3d9060c01b6141d4565b81602001353361257467e958cf16f8ddf99360c01b6141d4565b61258867985e3a670dc5c3ec60c01b6141d4565b61259c678e8276c0c1bf5d3660c01b6141d4565b6125a682826122da565b612611576125be674cc204812464972360c01b6141d4565b6125d26782afddd8a72022bf60c01b6141d4565b81816040517f79bfd401000000000000000000000000000000000000000000000000000000008152600401612608929190616491565b60405180910390fd5b612625678d1634a13f87b2eb60c01b6141d4565b61263967150ed5705ca89e4960c01b6141d4565b61264d6797a06ea603eef21a60c01b6141d4565b6126616764c67148656272e160c01b6141d4565b61267567526794ed86529e4660c01b6141d4565b61268967e54769b7a99f282f60c01b6141d4565b6000846020013590506126a667c7eb69afe0c758f960c01b6141d4565b6126ba6757be19a686e81cd460c01b6141d4565b600073ffffffffffffffffffffffffffffffffffffffff166005600083815260200190815260200160002060000160009054906101000a900473ffffffffffffffffffffffffffffffffffffffff1673ffffffffffffffffffffffffffffffffffffffff160361277e57612738675fa130f2e74fe05860c01b6141d4565b61274c67de44fe78bab6440060c01b6141d4565b6040517f1f6a65b600000000000000000000000000000000000000000000000000000000815260040160405180910390fd5b61279267649859b29b65f56760c01b6141d4565b6127a667a50d0f5dac3beb8a60c01b6141d4565b6127ba67288029a082baeb7660c01b6141d4565b6000600e60008154809291906127cf906164ba565b9190505590506127e967830959c0f780b05760c01b6141d4565b6127fd67e6123e8a935b2ced60c01b6141d4565b6000600f6000815480929190612812906164ba565b91905055905061282c67476d6019a79a8bb860c01b6141d4565b61284067bf02bb0f3ec4dc9660c01b6141d4565b600061286261285d898060a001906128589190616511565b614c41565b614e51565b90506128786764276592fd08e45760c01b6141d4565b6040518060800160405280896020013581526020018960600160208101906128a091906165a0565b63ffffffff1681526020018960800160208101906128be91906165a0565b63ffffffff168152602001898060a001906128d99190616511565b8080601f016020809104026020016040519081016040528093929190818152602001838380828437600081840152601f19601f82011690508083019250505050505050815250601060008581526020019081526020016000206000820151816000015560208201518160010160006101000a81548163ffffffff021916908363ffffffff16021790555060408201518160010160046101000a81548163ffffffff021916908363ffffffff160217905550606082015181600201908161299f919061676f565b509050506129b767d5d420242e0b4b8e60c01b6141d4565b6129cb67b2373b833dd0193d60c01b6141d4565b3373ffffffffffffffffffffffffffffffffffffffff16886020013589600001357feb0e3652e0f44f417695e6e90f2f42c99b65cd7169074c5a654b16b9748c3a4e86868d6040016020810190612a22919061686d565b8e6060016020810190612a3591906165a0565b8f6080016020810190612a4891906165a0565b89604051612a5b969594939291906168e4565b60405180910390a4612a7767a1c460d8f004669560c01b6141d4565b612a8b6724510943f924e04560c01b6141d4565b829650505050505050919050565b600760009054906101000a900467ffffffffffffffff1681565b6000612abd6146c6565b6000600760009054906101000a900467ffffffffffffffff16905033600143612ae691906160c8565b403083604051602001612afc94939291906169f5565b6040516020818303038152906040528051906020012060001c9150600181612b249190616a43565b600760006101000a81548167ffffffffffffffff021916908367ffffffffffffffff16021790555060008067ffffffffffffffff811115612b6857612b676156ca565b5b604051908082528060200260200182016040528015612b965781602001602082028036833780820191505090505b509050604051806060016040528060006bffffffffffffffffffffffff16815260200160006bffffffffffffffffffffffff168152602001600067ffffffffffffffff168152506006600085815260200190815260200160002060008201518160000160006101000a8154816bffffffffffffffffffffffff02191690836bffffffffffffffffffffffff160217905550602082015181600001600c6101000a8154816bffffffffffffffffffffffff02191690836bffffffffffffffffffffffff16021790555060408201518160000160186101000a81548167ffffffffffffffff021916908367ffffffffffffffff16021790555090505060405180606001604052803373ffffffffffffffffffffffffffffffffffffffff168152602001600073ffffffffffffffffffffffffffffffffffffffff168152602001828152506005600085815260200190815260200160002060008201518160000160006101000a81548173ffffffffffffffffffffffffffffffffffffffff021916908373ffffffffffffffffffffffffffffffffffffffff16021790555060208201518160010160006101000a81548173ffffffffffffffffffffffffffffffffffffffff021916908373ffffffffffffffffffffffffffffffffffffffff1602179055506040820151816002019080519060200190612d9592919061542f565b50905050612dad836008614ee990919063ffffffff16565b50827f1d3015d7ba850fa198dc7b1a3f5d42779313a681035f77c8c03764c61005518d33604051612dde9190615b72565b60405180910390a2505090565b612df36146c6565b600260009054906101000a900473ffffffffffffffffffffffffffffffffffffffff1673ffffffffffffffffffffffffffffffffffffffff163373ffffffffffffffffffffffffffffffffffffffff1614612e7a576040517f44b0e3c300000000000000000000000000000000000000000000000000000000815260040160405180910390fd5b60208282905014612eb7576040517f8129bbcd00000000000000000000000000000000000000000000000000000000815260040160405180910390fd5b60008282810190612ec89190615a57565b9050612f096005600083815260200190815260200160002060000160009054906101000a900473ffffffffffffffffffffffffffffffffffffffff16614bd8565b60006006600083815260200190815260200160002060000160009054906101000a90046bffffffffffffffffffffffff166bffffffffffffffffffffffff169050846006600084815260200190815260200160002060000160008282829054906101000a90046bffffffffffffffffffffffff16612f8791906162c8565b92506101000a8154816bffffffffffffffffffffffff02191690836bffffffffffffffffffffffff16021790555084600a60008282829054906101000a90046bffffffffffffffffffffffff16612fde91906162c8565b92506101000a8154816bffffffffffffffffffffffff02191690836bffffffffffffffffffffffff160217905550817f1ced9348ff549fceab2ac57cd3a9de38edaaab274b725ee82c23e8fc8c4eec7a82878461303b919061613e565b604051613049929190615f89565b60405180910390a2505050505050565b613061614a66565b60006005600083815260200190815260200160002060000160009054906101000a900473ffffffffffffffffffffffffffffffffffffffff1690506130a581614bd8565b6130af8282614f03565b5050565b606060006130c16008615097565b90508084106130fc576040517f1390f2a100000000000000000000000000000000000000000000000000000000815260040160405180910390fd5b6000838561310a919061613e565b90508181118061311a5750600084145b6131245780613126565b815b90506000858261313691906160c8565b90508067ffffffffffffffff811115613152576131516156ca565b5b6040519080825280602002602001820160405280156131805781602001602082028036833780820191505090505b50935060005b818110156131d7576131ad878261319d919061613e565b60086150ac90919063ffffffff16565b8582815181106131c0576131bf615fb2565b5b602002602001018181525050806001019050613186565b5050505092915050565b6131e96146c6565b60006005600083815260200190815260200160002060000160009054906101000a900473ffffffffffffffffffffffffffffffffffffffff16905061322d81614bd8565b3373ffffffffffffffffffffffffffffffffffffffff166005600084815260200190815260200160002060010160009054906101000a900473ffffffffffffffffffffffffffffffffffffffff1673ffffffffffffffffffffffffffffffffffffffff1614613309576005600083815260200190815260200160002060010160009054906101000a900473ffffffffffffffffffffffffffffffffffffffff166040517fd084e9750000000000000000000000000000000000000000000000000000000081526004016133009190615b72565b60405180910390fd5b336005600084815260200190815260200160002060000160006101000a81548173ffffffffffffffffffffffffffffffffffffffff021916908373ffffffffffffffffffffffffffffffffffffffff16021790555060006005600084815260200190815260200160002060010160006101000a81548173ffffffffffffffffffffffffffffffffffffffff021916908373ffffffffffffffffffffffffffffffffffffffff160217905550817fd4114ab6e9af9f597c52041f32d62dc57c5c4e4c0d4427006069635e216c938682336040516133e6929190616a7f565b60405180910390a25050565b816133fc8161460e565b6134046146c6565b6000600460008473ffffffffffffffffffffffffffffffffffffffff1673ffffffffffffffffffffffffffffffffffffffff168152602001908152602001600020600085815260200190815260200160002090508060000160009054906101000a900460ff1615613475575061358b565b6000600560008681526020019081526020016000206002019050606461ffff168180549050036134d1576040517f05a48e0f00000000000000000000000000000000000000000000000000000000815260040160405180910390fd5b60018260000160006101000a81548160ff02191690831515021790555080849080600181540180825580915050600190039060005260206000200160009091909190916101000a81548173ffffffffffffffffffffffffffffffffffffffff021916908373ffffffffffffffffffffffffffffffffffffffff160217905550847f1e980d04aa7648e205713e5e8ea3808672ac163d10936d36f91b2c88ac1575e1856040516135809190615b72565b60405180910390a250505b505050565b6135a4676bcb9ef8786fb9ba60c01b6141d4565b816135ae8161460e565b6135c267ddbf560b26db38d860c01b6141d4565b6135d667728892e3c6ccfc2960c01b6141d4565b82826135ec67e958cf16f8ddf99360c01b6141d4565b61360067985e3a670dc5c3ec60c01b6141d4565b613614678e8276c0c1bf5d3660c01b6141d4565b61361e82826122da565b61368957613636674cc204812464972360c01b6141d4565b61364a6782afddd8a72022bf60c01b6141d4565b81816040517f79bfd401000000000000000000000000000000000000000000000000000000008152600401613680929190616491565b60405180910390fd5b61369d678d1634a13f87b2eb60c01b6141d4565b6136b167150ed5705ca89e4960c01b6141d4565b6136c567edacec6229d006a860c01b6141d4565b6136d967fc0ca9d1fcb1153f60c01b6141d4565b6136e16146c6565b6136f5676363711bbf309b6f60c01b6141d4565b61370967532af4c81eaae2b560c01b6141d4565b61371d67d55f9e5173b0bc6860c01b6141d4565b61373167a5e1f8e1929d15f660c01b6141d4565b600460008573ffffffffffffffffffffffffffffffffffffffff1673ffffffffffffffffffffffffffffffffffffffff168152602001908152602001600020600086815260200190815260200160002060000160009054906101000a900460ff166137fd576137aa678e5f42cb3feb23b660c01b6141d4565b6137be67f4d8c61ec6c4f2c160c01b6141d4565b84846040517f79bfd4010000000000000000000000000000000000000000000000000000000081526004016137f4929190616491565b60405180910390fd5b61381167f323838c8b62466f60c01b6141d4565b6138256772bd571e8d145adb60c01b6141d4565b613839678dfeda825a175ba560c01b6141d4565b6000600560008781526020019081526020016000206002018054806020026020016040519081016040528092919081815260200182805480156138d157602002820191906000526020600020905b8160009054906101000a900473ffffffffffffffffffffffffffffffffffffffff1673ffffffffffffffffffffffffffffffffffffffff1681526020019060010190808311613887575b505050505090506138ec67aaca7846db4652b560c01b6141d4565b61390067b2345df10ca9662f60c01b6141d4565b60006001825161391091906160c8565b9050613926671b1b210e07ed6fd460c01b6141d4565b61393a67d45269f125842a2860c01b6141d4565b60005b8251811015613b575761395a6764e02abfc1a4371d60c01b6141d4565b61396e67d51c3b3f7ea305cc60c01b6141d4565b8673ffffffffffffffffffffffffffffffffffffffff1683828151811061399857613997615fb2565b5b602002602001015173ffffffffffffffffffffffffffffffffffffffff1603613b38576139cf670f5997d6cc3cbddf60c01b6141d4565b6139e3678f91848e5da8b84360c01b6141d4565b6139f7676b96d74ef7079cde60c01b6141d4565b6000838381518110613a0c57613a0b615fb2565b5b60200260200101519050613a2a67d4d000d61f4df72160c01b6141d4565b80600560008b81526020019081526020016000206002018381548110613a5357613a52615fb2565b5b9060005260206000200160006101000a81548173ffffffffffffffffffffffffffffffffffffffff021916908373ffffffffffffffffffffffffffffffffffffffff160217905550613aaf673554b29baf3b2e3e60c01b6141d4565b613ac3670e5dc10757cf953a60c01b6141d4565b600560008a8152602001908152602001600020600201805480613ae957613ae8616aa8565b5b6001900381819060005260206000200160006101000a81549073ffffffffffffffffffffffffffffffffffffffff02191690559055613b3267586a8d5082be2c1a60c01b6141d4565b50613b57565b613b4c672e8606b81379d3c160c01b6141d4565b80600101905061393d565b50613b6c675118e571abac728560c01b6141d4565b6000600460008873ffffffffffffffffffffffffffffffffffffffff1673ffffffffffffffffffffffffffffffffffffffff168152602001908152602001600020600089815260200190815260200160002060000160006101000a81548160ff021916908315150217905550613bec67f2cc16e82cec0ce860c01b6141d4565b613c0067346eb8a8a0c0533760c01b6141d4565b867f32158c6058347c1601b2d12bc696ac6901d8a9a9aa3ba10c27ab0a983e8425a787604051613c309190615b72565b60405180910390a250505050505050565b81613c4b8161460e565b613c536146c6565b60006005600085815260200190815260200160002090508273ffffffffffffffffffffffffffffffffffffffff168160010160009054906101000a900473ffffffffffffffffffffffffffffffffffffffff1673ffffffffffffffffffffffffffffffffffffffff1614613d3f57828160010160006101000a81548173ffffffffffffffffffffffffffffffffffffffff021916908373ffffffffffffffffffffffffffffffffffffffff160217905550837f21a4dad170a6bf476c31bbcf4a16628295b0e450672eec25d7c93308e05344a13385604051613d36929190616a7f565b60405180910390a25b50505050565b60008060008060606005600087815260200190815260200160002060000160009054906101000a900473ffffffffffffffffffffffffffffffffffffffff169150613d8f82614bd8565b6006600087815260200190815260200160002060000160009054906101000a90046bffffffffffffffffffffffff1660066000888152602001908152602001600020600001600c9054906101000a90046bffffffffffffffffffffffff166006600089815260200190815260200160002060000160189054906101000a900467ffffffffffffffff1684600560008b815260200190815260200160002060020180805480602002602001604051908101604052809291908181526020018280548015613eb057602002820191906000526020600020905b8160009054906101000a900473ffffffffffffffffffffffffffffffffffffffff1673ffffffffffffffffffffffffffffffffffffffff1681526020019060010190808311613e66575b505050505090509450945094509450945091939590929450565b7f000000000000000000000000000000000000000000000000000000000000000081565b613ef6614a66565b600073ffffffffffffffffffffffffffffffffffffffff16600260009054906101000a900473ffffffffffffffffffffffffffffffffffffffff1673ffffffffffffffffffffffffffffffffffffffff1603613f7e576040517fc1f0c0a100000000000000000000000000000000000000000000000000000000815260040160405180910390fd5b6000600260009054906101000a900473ffffffffffffffffffffffffffffffffffffffff1673ffffffffffffffffffffffffffffffffffffffff166370a08231306040518263ffffffff1660e01b8152600401613fdb9190615b72565b602060405180830381865afa158015613ff8573d6000803e3d6000fd5b505050506040513d601f19601f8201168201806040525081019061401c9190616aec565b90506000600a60009054906101000a90046bffffffffffffffffffffffff166bffffffffffffffffffffffff169050818111156140925780826040517fa99da302000000000000000000000000000000000000000000000000000000008152600401614089929190615f89565b60405180910390fd5b818110156141bb57600081836140a891906160c8565b9050600260009054906101000a900473ffffffffffffffffffffffffffffffffffffffff1673ffffffffffffffffffffffffffffffffffffffff1663a9059cbb85836040518363ffffffff1660e01b8152600401614107929190616b19565b6020604051808303816000875af1158015614126573d6000803e3d6000fd5b505050506040513d601f19601f8201168201806040525081019061414a919061639d565b614180576040517f7c07fc4c00000000000000000000000000000000000000000000000000000000815260040160405180910390fd5b7f59bfc682b673f8cbf945f1e454df9334834abf7dfe7f92237ca29ecb9b43660084826040516141b1929190616b19565b60405180910390a1505b505050565b6141c8614a66565b6141d1816150c6565b50565b50565b6141eb674671966f9869865960c01b6141d4565b6141ff678142fccd79f46a5e60c01b6141d4565b61421367c3f9eae82df9711660c01b6141d4565b600060066000838152602001908152602001600020905061423e67abc57c322fc6382260c01b6141d4565b6142526772e3639173939e6160c01b6141d4565b82156144325761426c6703a0612ab6941b7b60c01b6141d4565b614280676b5d49e7a2701f8e60c01b6141d4565b614294678a925aa8f3c3593f60c01b6141d4565b600081600001600c9054906101000a90046bffffffffffffffffffffffff1690506142c9676c867bb2586108be60c01b6141d4565b6142dd67713485a97871b5c460c01b6141d4565b846bffffffffffffffffffffffff16816bffffffffffffffffffffffff16101561435b5761431567ab8332297402cd1360c01b6141d4565b61432967df6af8720e55323a60c01b6141d4565b6040517ff4d678b800000000000000000000000000000000000000000000000000000000815260040160405180910390fd5b61436f6727829652a744401660c01b6141d4565b614383673765859e1593e10560c01b6141d4565b848161438f9190616308565b82600001600c6101000a8154816bffffffffffffffffffffffff02191690836bffffffffffffffffffffffff1602179055506143d567a4ffdeb31f50ca5260c01b6141d4565b84600b600c8282829054906101000a90046bffffffffffffffffffffffff166143fe91906162c8565b92506101000a8154816bffffffffffffffffffffffff02191690836bffffffffffffffffffffffff16021790555050614608565b61444667db6a0073a4ab4ace60c01b6141d4565b61445a67e0db2bb91c682fde60c01b6141d4565b61446e6716ed6dda4bbe9cea60c01b6141d4565b60008160000160009054906101000a90046bffffffffffffffffffffffff1690506144a367587097cd6a775fa960c01b6141d4565b6144b7676afbcf077d74605460c01b6141d4565b846bffffffffffffffffffffffff16816bffffffffffffffffffffffff161015614535576144ef6750a49b6280d2fe6b60c01b6141d4565b61450367d91bdcdd1ec46dda60c01b6141d4565b6040517ff4d678b800000000000000000000000000000000000000000000000000000000815260040160405180910390fd5b6145496763ce5f0f06787a6f60c01b6141d4565b61455d672cd842e631c2c81c60c01b6141d4565b84816145699190616308565b8260000160006101000a8154816bffffffffffffffffffffffff02191690836bffffffffffffffffffffffff1602179055506145af67017b9e3869da820e60c01b6141d4565b84600b60008282829054906101000a90046bffffffffffffffffffffffff166145d891906162c8565b92506101000a8154816bffffffffffffffffffffffff02191690836bffffffffffffffffffffffff160217905550505b50505050565b60006005600083815260200190815260200160002060000160009054906101000a900473ffffffffffffffffffffffffffffffffffffffff16905061465281614bd8565b8073ffffffffffffffffffffffffffffffffffffffff163373ffffffffffffffffffffffffffffffffffffffff16146146c257806040517fd8a3fb520000000000000000000000000000000000000000000000000000000081526004016146b99190615b72565b60405180910390fd5b5050565b600c60000160069054906101000a900460ff1615614710576040517fed3ba6a600000000000000000000000000000000000000000000000000000000815260040160405180910390fd5b565b60008060006005600085815260200190815260200160002060020190506006600085815260200190815260200160002060000160009054906101000a90046bffffffffffffffffffffffff16925060066000858152602001908152602001600020600001600c9054906101000a90046bffffffffffffffffffffffff16915060008180549050905060005b8181101561488a57600460008483815481106147bc576147bb615fb2565b5b9060005260206000200160009054906101000a900473ffffffffffffffffffffffffffffffffffffffff1673ffffffffffffffffffffffffffffffffffffffff1673ffffffffffffffffffffffffffffffffffffffff1681526020019081526020016000206000878152602001908152602001600020600080820160006101000a81549060ff02191690556000820160016101000a81549067ffffffffffffffff02191690556000820160096101000a81549067ffffffffffffffff0219169055505080600101905061479d565b5060056000868152602001908152602001600020600080820160006101000a81549073ffffffffffffffffffffffffffffffffffffffff02191690556001820160006101000a81549073ffffffffffffffffffffffffffffffffffffffff02191690556002820160006148fd91906154b9565b505060066000868152602001908152602001600020600080820160006101000a8154906bffffffffffffffffffffffff021916905560008201600c6101000a8154906bffffffffffffffffffffffff02191690556000820160186101000a81549067ffffffffffffffff021916905550506149828560086151f290919063ffffffff16565b506000846bffffffffffffffffffffffff16146149f15783600a60008282829054906101000a90046bffffffffffffffffffffffff166149c29190616308565b92506101000a8154816bffffffffffffffffffffffff02191690836bffffffffffffffffffffffff1602179055505b6000836bffffffffffffffffffffffff1614614a5f5782600a600c8282829054906101000a90046bffffffffffffffffffffffff16614a309190616308565b92506101000a8154816bffffffffffffffffffffffff02191690836bffffffffffffffffffffffff1602179055505b5050915091565b60008054906101000a900473ffffffffffffffffffffffffffffffffffffffff1673ffffffffffffffffffffffffffffffffffffffff163373ffffffffffffffffffffffffffffffffffffffff1614614af4576040517f08c379a0000000000000000000000000000000000000000000000000000000008152600401614aeb90616b8e565b60405180910390fd5b565b80614b2d576040517ff4d678b800000000000000000000000000000000000000000000000000000000815260040160405180910390fd5b50565b60008273ffffffffffffffffffffffffffffffffffffffff1682604051614b569061624b565b60006040518083038185875af1925050503d8060008114614b93576040519150601f19603f3d011682016040523d82523d6000602084013e614b98565b606091505b5050905080614bd3576040517f950b247900000000000000000000000000000000000000000000000000000000815260040160405180910390fd5b505050565b600073ffffffffffffffffffffffffffffffffffffffff168173ffffffffffffffffffffffffffffffffffffffff1603614c3e576040517f1f6a65b600000000000000000000000000000000000000000000000000000000815260040160405180910390fd5b50565b614c496154da565b614c5d672edbf74bb10e6a4c60c01b6141d4565b614c716732b9eaedbbd3ac7160c01b6141d4565b614c85677df064b771c2fad460c01b6141d4565b60008383905003614ce557614ca4679fde1ffc5093f01f60c01b6141d4565b614cb867cd0e5609f29cc94e60c01b6141d4565b614ccc676f64682822f2de1f60c01b6141d4565b6040518060200160405280600015158152509050614e4b565b614cf967952652f11af67c9760c01b6141d4565b614d0d67406b3650ebab2fc060c01b6141d4565b614d21673edb691629f00d2060c01b6141d4565b7f92fd13387c7fe7befbc38d303d6468778fb9731bc4583f17d92989c6fcfdeaaa7bffffffffffffffffffffffffffffffffffffffffffffffffffffffff1916838390614d6e9190616be5565b7bffffffffffffffffffffffffffffffffffffffffffffffffffffffff191614614dec57614da667204a96fd170e5de860c01b6141d4565b614dba673134f370d6ee930660c01b6141d4565b6040517f5247fdce00000000000000000000000000000000000000000000000000000000815260040160405180910390fd5b614e0067026d5886b86480d860c01b6141d4565b614e14676d9da445d7d602ee60c01b6141d4565b614e286780fef50a703d334860c01b6141d4565b82826004908092614e3b93929190616c4e565b810190614e489190616cdf565b90505b92915050565b60607f92fd13387c7fe7befbc38d303d6468778fb9731bc4583f17d92989c6fcfdeaaa82604051602401614e859190616d37565b604051602081830303815290604052907bffffffffffffffffffffffffffffffffffffffffffffffffffffffff19166020820180517bffffffffffffffffffffffffffffffffffffffffffffffffffffffff83818316178352505050509050919050565b6000614efb836000018360001b61520c565b905092915050565b600080614f0f84614712565b91509150600073ffffffffffffffffffffffffffffffffffffffff16600260009054906101000a900473ffffffffffffffffffffffffffffffffffffffff1673ffffffffffffffffffffffffffffffffffffffff1614158015614f8157506000826bffffffffffffffffffffffff1614155b1561503d5761503c600260009054906101000a900473ffffffffffffffffffffffffffffffffffffffff1673ffffffffffffffffffffffffffffffffffffffff1663a9059cbb85856bffffffffffffffffffffffff166040518363ffffffff1660e01b8152600401614ff4929190616b19565b6020604051808303816000875af1158015615013573d6000803e3d6000fd5b505050506040513d601f19601f82011682018060405250810190615037919061639d565b614af6565b5b61505583826bffffffffffffffffffffffff16614b30565b837f8c74ce8b8cf87f5eb001275c8be27eb34ea2b62bfab6814fcc62192bb63e81c484848460405161508993929190616291565b60405180910390a250505050565b60006150a58260000161527c565b9050919050565b60006150bb836000018361528d565b60001c905092915050565b3373ffffffffffffffffffffffffffffffffffffffff168173ffffffffffffffffffffffffffffffffffffffff1603615134576040517f08c379a000000000000000000000000000000000000000000000000000000000815260040161512b90616d9e565b60405180910390fd5b80600160006101000a81548173ffffffffffffffffffffffffffffffffffffffff021916908373ffffffffffffffffffffffffffffffffffffffff1602179055508073ffffffffffffffffffffffffffffffffffffffff1660008054906101000a900473ffffffffffffffffffffffffffffffffffffffff1673ffffffffffffffffffffffffffffffffffffffff167fed8889f560326eb138920d842192f0eb3dd22b4f139c87a2c57538e05bae127860405160405180910390a350565b6000615204836000018360001b6152b8565b905092915050565b600061521883836153cc565b615271578260000182908060018154018082558091505060019003906000526020600020016000909190919091505582600001805490508360010160008481526020019081526020016000208190555060019050615276565b600090505b92915050565b600081600001805490509050919050565b60008260000182815481106152a5576152a4615fb2565b5b9060005260206000200154905092915050565b600080836001016000848152602001908152602001600020549050600081146153c05760006001826152ea91906160c8565b905060006001866000018054905061530291906160c8565b905081811461537157600086600001828154811061532357615322615fb2565b5b906000526020600020015490508087600001848154811061534757615346615fb2565b5b90600052602060002001819055508387600101600083815260200190815260200160002081905550505b8560000180548061538557615384616aa8565b5b6001900381819060005260206000200160009055905585600101600086815260200190815260200160002060009055600193505050506153c6565b60009150505b92915050565b600080836001016000848152602001908152602001600020541415905092915050565b5080546153fb90615f58565b6000825580601f1061540d575061542c565b601f01602090049060005260206000209081019061542b91906154ef565b5b50565b8280548282559060005260206000209081019282156154a8579160200282015b828111156154a75782518260006101000a81548173ffffffffffffffffffffffffffffffffffffffff021916908373ffffffffffffffffffffffffffffffffffffffff1602179055509160200191906001019061544f565b5b5090506154b591906154ef565b5090565b50805460008255906000526020600020908101906154d791906154ef565b50565b60405180602001604052806000151581525090565b5b808211156155085760008160009055506001016154f0565b5090565b600061ffff82169050919050565b6155238161550c565b82525050565b600063ffffffff82169050919050565b61554281615529565b82525050565b60008115159050919050565b61555d81615548565b82525050565b600060ff82169050919050565b61557981615563565b82525050565b600061012082019050615595600083018c61551a565b6155a2602083018b615539565b6155af604083018a615554565b6155bc6060830189615539565b6155c96080830188615539565b6155d660a0830187615539565b6155e360c0830186615539565b6155f060e0830185615570565b6155fe610100830184615570565b9a9950505050505050505050565b6000604051905090565b600080fd5b600080fd5b6000819050919050565b61563381615620565b811461563e57600080fd5b50565b6000813590506156508161562a565b92915050565b600073ffffffffffffffffffffffffffffffffffffffff82169050919050565b600061568182615656565b9050919050565b61569181615676565b811461569c57600080fd5b50565b6000813590506156ae81615688565b92915050565b600080fd5b6000601f19601f8301169050919050565b7f4e487b7100000000000000000000000000000000000000000000000000000000600052604160045260246000fd5b615702826156b9565b810181811067ffffffffffffffff82111715615721576157206156ca565b5b80604052505050565b600061573461560c565b905061574082826156f9565b919050565b600067ffffffffffffffff8211156157605761575f6156ca565b5b602082029050602081019050919050565b600080fd5b600061578961578484615745565b61572a565b905080838252602082019050602084028301858111156157ac576157ab615771565b5b835b818110156157d557806157c18882615641565b8452602084019350506020810190506157ae565b5050509392505050565b600082601f8301126157f4576157f36156b4565b5b8135615804848260208601615776565b91505092915050565b60008060006060848603121561582657615825615616565b5b600061583486828701615641565b93505060206158458682870161569f565b925050604084013567ffffffffffffffff8111156158665761586561561b565b5b615872868287016157df565b9150509250925092565b6000806040838503121561589357615892615616565b5b60006158a185828601615641565b92505060206158b28582860161569f565b9150509250929050565b600080604083850312156158d3576158d2615616565b5b60006158e185828601615641565b92505060206158f285828601615641565b9150509250929050565b6000819050919050565b61590f816158fc565b82525050565b600060208201905061592a6000830184615906565b92915050565b60006bffffffffffffffffffffffff82169050919050565b61595181615930565b82525050565b600060208201905061596c6000830184615948565b92915050565b6000819050919050565b600061599761599261598d84615656565b615972565b615656565b9050919050565b60006159a98261597c565b9050919050565b60006159bb8261599e565b9050919050565b6159cb816159b0565b82525050565b60006020820190506159e660008301846159c2565b92915050565b60006159f782615656565b9050919050565b615a07816159ec565b8114615a1257600080fd5b50565b600081359050615a24816159fe565b92915050565b600060208284031215615a4057615a3f615616565b5b6000615a4e84828501615a15565b91505092915050565b600060208284031215615a6d57615a6c615616565b5b6000615a7b84828501615641565b91505092915050565b6000602082019050615a996000830184615554565b92915050565b600060208284031215615ab557615ab4615616565b5b6000615ac38482850161569f565b91505092915050565b6000602082019050615ae1600083018461551a565b92915050565b60008060408385031215615afe57615afd615616565b5b6000615b0c8582860161569f565b9250506020615b1d8582860161569f565b9150509250929050565b6000615b328261599e565b9050919050565b615b4281615b27565b82525050565b6000602082019050615b5d6000830184615b39565b92915050565b615b6c81615676565b82525050565b6000602082019050615b876000830184615b63565b92915050565b600080fd5b600060c08284031215615ba857615ba7615b8d565b5b81905092915050565b600060208284031215615bc757615bc6615616565b5b600082013567ffffffffffffffff811115615be557615be461561b565b5b615bf184828501615b92565b91505092915050565b615c0381615620565b82525050565b6000602082019050615c1e6000830184615bfa565b92915050565b600067ffffffffffffffff82169050919050565b615c4181615c24565b82525050565b6000602082019050615c5c6000830184615c38565b92915050565b600080fd5b60008083601f840112615c7d57615c7c6156b4565b5b8235905067ffffffffffffffff811115615c9a57615c99615c62565b5b602083019150836001820283011115615cb657615cb5615771565b5b9250929050565b60008060008060608587031215615cd757615cd6615616565b5b6000615ce58782880161569f565b9450506020615cf687828801615641565b935050604085013567ffffffffffffffff811115615d1757615d1661561b565b5b615d2387828801615c67565b925092505092959194509250565b600081519050919050565b600082825260208201905092915050565b6000819050602082019050919050565b615d6681615620565b82525050565b6000615d788383615d5d565b60208301905092915050565b6000602082019050919050565b6000615d9c82615d31565b615da68185615d3c565b9350615db183615d4d565b8060005b83811015615de2578151615dc98882615d6c565b9750615dd483615d84565b925050600181019050615db5565b5085935050505092915050565b60006020820190508181036000830152615e098184615d91565b905092915050565b600081519050919050565b600082825260208201905092915050565b6000819050602082019050919050565b615e4681615676565b82525050565b6000615e588383615e3d565b60208301905092915050565b6000602082019050919050565b6000615e7c82615e11565b615e868185615e1c565b9350615e9183615e2d565b8060005b83811015615ec2578151615ea98882615e4c565b9750615eb483615e64565b925050600181019050615e95565b5085935050505092915050565b600060a082019050615ee46000830188615948565b615ef16020830187615948565b615efe6040830186615c38565b615f0b6060830185615b63565b8181036080830152615f1d8184615e71565b90509695505050505050565b7f4e487b7100000000000000000000000000000000000000000000000000000000600052602260045260246000fd5b60006002820490506001821680615f7057607f821691505b602082108103615f8357615f82615f29565b5b50919050565b6000604082019050615f9e6000830185615bfa565b615fab6020830184615bfa565b9392505050565b7f4e487b7100000000000000000000000000000000000000000000000000000000600052603260045260246000fd5b6000604082019050615ff66000830185615bfa565b81810360208301526160088184615d91565b90509392505050565b600081519050919050565b600081905092915050565b60005b8381101561604557808201518184015260208101905061602a565b60008484015250505050565b600061605c82616011565b616066818561601c565b9350616076818560208601616027565b80840191505092915050565b600061608e8284616051565b915081905092915050565b7f4e487b7100000000000000000000000000000000000000000000000000000000600052601160045260246000fd5b60006160d382615620565b91506160de83615620565b92508282039050818111156160f6576160f5616099565b5b92915050565b600061610782615620565b915061611283615620565b925082820261612081615620565b9150828204841483151761613757616136616099565b5b5092915050565b600061614982615620565b915061615483615620565b925082820190508082111561616c5761616b616099565b5b92915050565b7f4e487b7100000000000000000000000000000000000000000000000000000000600052601260045260246000fd5b60006161ac82615620565b91506161b783615620565b9250826161c7576161c6616172565b5b828204905092915050565b600060a0820190506161e76000830188615bfa565b6161f46020830187615948565b6162016040830186615554565b61620e6060830185615554565b61621b6080830184615554565b9695505050505050565b50565b600061623560008361601c565b915061624082616225565b600082019050919050565b600061625682616228565b9150819050919050565b600061627b61627661627184615930565b615972565b615620565b9050919050565b61628b81616260565b82525050565b60006060820190506162a66000830186615b63565b6162b36020830185616282565b6162c06040830184616282565b949350505050565b60006162d382615930565b91506162de83615930565b925082820190506bffffffffffffffffffffffff81111561630257616301616099565b5b92915050565b600061631382615930565b915061631e83615930565b925082820390506bffffffffffffffffffffffff81111561634257616341616099565b5b92915050565b600060408201905061635d6000830185615b63565b61636a6020830184616282565b9392505050565b61637a81615548565b811461638557600080fd5b50565b60008151905061639781616371565b92915050565b6000602082840312156163b3576163b2615616565b5b60006163c184828501616388565b91505092915050565b600082825260208201905092915050565b7f4d7573742062652070726f706f736564206f776e657200000000000000000000600082015250565b60006164116016836163ca565b915061641c826163db565b602082019050919050565b6000602082019050818103600083015261644081616404565b9050919050565b60006164528261599e565b9050919050565b61646281616447565b82525050565b600060408201905061647d6000830185616459565b61648a6020830184615bfa565b9392505050565b60006040820190506164a66000830185615bfa565b6164b36020830184615b63565b9392505050565b60006164c582615620565b91507fffffffffffffffffffffffffffffffffffffffffffffffffffffffffffffffff82036164f7576164f6616099565b5b600182019050919050565b600080fd5b600080fd5b600080fd5b6000808335600160200384360303811261652e5761652d616502565b5b80840192508235915067ffffffffffffffff8211156165505761654f616507565b5b60208301925060018202360383131561656c5761656b61650c565b5b509250929050565b61657d81615529565b811461658857600080fd5b50565b60008135905061659a81616574565b92915050565b6000602082840312156165b6576165b5615616565b5b60006165c48482850161658b565b91505092915050565b60008190508160005260206000209050919050565b60006020601f8301049050919050565b600082821b905092915050565b60006008830261662f7fffffffffffffffffffffffffffffffffffffffffffffffffffffffffffffffff826165f2565b61663986836165f2565b95508019841693508086168417925050509392505050565b600061666c61666761666284615620565b615972565b615620565b9050919050565b6000819050919050565b61668683616651565b61669a61669282616673565b8484546165ff565b825550505050565b600090565b6166af6166a2565b6166ba81848461667d565b505050565b5b818110156166de576166d36000826166a7565b6001810190506166c0565b5050565b601f821115616723576166f4816165cd565b6166fd846165e2565b8101602085101561670c578190505b616720616718856165e2565b8301826166bf565b50505b505050565b600082821c905092915050565b600061674660001984600802616728565b1980831691505092915050565b600061675f8383616735565b9150826002028217905092915050565b61677882616011565b67ffffffffffffffff811115616791576167906156ca565b5b61679b8254615f58565b6167a68282856166e2565b600060209050601f8311600181146167d957600084156167c7578287015190505b6167d18582616753565b865550616839565b601f1984166167e7866165cd565b60005b8281101561680f578489015182556001820191506020850194506020810190506167ea565b8683101561682c5784890151616828601f891682616735565b8355505b6001600288020188555050505b505050505050565b61684a8161550c565b811461685557600080fd5b50565b60008135905061686781616841565b92915050565b60006020828403121561688357616882615616565b5b600061689184828501616858565b91505092915050565b600082825260208201905092915050565b60006168b682616011565b6168c0818561689a565b93506168d0818560208601616027565b6168d9816156b9565b840191505092915050565b600060c0820190506168f96000830189615bfa565b6169066020830188615bfa565b616913604083018761551a565b6169206060830186615539565b61692d6080830185615539565b81810360a083015261693f81846168ab565b9050979650505050505050565b60008160601b9050919050565b60006169648261694c565b9050919050565b600061697682616959565b9050919050565b61698e61698982615676565b61696b565b82525050565b6000819050919050565b6000819050919050565b6169b96169b482616994565b61699e565b82525050565b60008160c01b9050919050565b60006169d7826169bf565b9050919050565b6169ef6169ea82615c24565b6169cc565b82525050565b6000616a01828761697d565b601482019150616a1182866169a8565b602082019150616a21828561697d565b601482019150616a3182846169de565b60088201915081905095945050505050565b6000616a4e82615c24565b9150616a5983615c24565b9250828201905067ffffffffffffffff811115616a7957616a78616099565b5b92915050565b6000604082019050616a946000830185615b63565b616aa16020830184615b63565b9392505050565b7f4e487b7100000000000000000000000000000000000000000000000000000000600052603160045260246000fd5b600081519050616ae68161562a565b92915050565b600060208284031215616b0257616b01615616565b5b6000616b1084828501616ad7565b91505092915050565b6000604082019050616b2e6000830185615b63565b616b3b6020830184615bfa565b9392505050565b7f4f6e6c792063616c6c61626c65206279206f776e657200000000000000000000600082015250565b6000616b786016836163ca565b9150616b8382616b42565b602082019050919050565b60006020820190508181036000830152616ba781616b6b565b9050919050565b600082905092915050565b60007fffffffff0000000000000000000000000000000000000000000000000000000082169050919050565b6000616bf18383616bae565b82616bfc8135616bb9565b92506004821015616c3c57616c377fffffffff00000000000000000000000000000000000000000000000000000000836004036008026165f2565b831692505b505092915050565b600080fd5b600080fd5b60008085851115616c6257616c61616c44565b5b83861115616c7357616c72616c49565b5b6001850283019150848603905094509492505050565b600080fd5b600081359050616c9d81616371565b92915050565b600060208284031215616cb957616cb8616c89565b5b616cc3602061572a565b90506000616cd384828501616c8e565b60008301525092915050565b600060208284031215616cf557616cf4615616565b5b6000616d0384828501616ca3565b91505092915050565b616d1581615548565b82525050565b602082016000820151616d316000850182616d0c565b50505050565b6000602082019050616d4c6000830184616d1b565b92915050565b7f43616e6e6f74207472616e7366657220746f2073656c66000000000000000000600082015250565b6000616d886017836163ca565b9150616d9382616d52565b602082019050919050565b60006020820190508181036000830152616db781616d7b565b905091905056fea26469706673582212207bfa6a09a5efa091cfe57218f713777744ea94000067e49e9b1ca9fadfd62f3764736f6c634300081c0033",
  "linkReferences": {},
  "deployedLinkReferences": {}
}