{
  "_format": "hh-sol-artifact-1",
  "contractName": "Lottery",
  "sourceName": "contracts/Lottery.sol",
  "abi": [
    {
      "inputs": [
        {
          "internalType": "uint256",
          "name": "_subscriptionId",
          "type": "uint256"
        }
      ],
      "stateMutability": "nonpayable",
      "type": "constructor"
    },
    {
      "inputs": [
        {
          "internalType": "address",
          "name": "have",
          "type": "address"
        },
        {
          "internalType": "address",
          "name": "want",
          "type": "address"
        }
      ],
      "name": "OnlyCoordinatorCanFulfill",
      "type": "error"
    },
    {
      "inputs": [
        {
          "internalType": "address",
          "name": "have",
          "type": "address"
        },
        {
          "internalType": "address",
          "name": "owner",
          "type": "address"
        },
        {
          "internalType": "address",
          "name": "coordinator",
          "type": "address"
        }
      ],
      "name": "OnlyOwnerOrCoordinator",
      "type": "error"
    },
    {
      "inputs": [],
      "name": "ZeroAddress",
      "type": "error"
    },
    {
      "anonymous": false,
      "inputs": [
        {
          "indexed": false,
          "internalType": "address",
          "name": "vrfCoordinator",
          "type": "address"
        }
      ],
      "name": "CoordinatorSet",
      "type": "event"
    },
    {
      "anonymous": false,
      "inputs": [
        {
          "indexed": true,
          "internalType": "address",
          "name": "owner",
          "type": "address"
        },
        {
          "indexed": true,
          "internalType": "uint256",
          "name": "amount",
          "type": "uint256"
        }
      ],
      "name": "Distribute",
      "type": "event"
    },
    {
      "anonymous": false,
      "inputs": [
        {
          "indexed": true,
          "internalType": "address",
          "name": "sender",
          "type": "address"
        },
        {
          "indexed": true,
          "internalType": "uint256",
          "name": "amount",
          "type": "uint256"
        }
      ],
      "name": "FundJackpot",
      "type": "event"
    },
    {
      "anonymous": false,
      "inputs": [
        {
          "indexed": true,
          "internalType": "address",
          "name": "owner",
          "type": "address"
        },
        {
          "indexed": true,
          "internalType": "uint256",
          "name": "amount",
          "type": "uint256"
        }
      ],
      "name": "JackpotWithdraw",
      "type": "event"
    },
    {
      "anonymous": false,
      "inputs": [
        {
          "indexed": true,
          "internalType": "address",
          "name": "owner",
          "type": "address"
        },
        {
          "indexed": true,
          "internalType": "uint256",
          "name": "amount",
          "type": "uint256"
        }
      ],
      "name": "OperationsBalanceWithdraw",
      "type": "event"
    },
    {
      "anonymous": false,
      "inputs": [
        {
          "indexed": true,
          "internalType": "address",
          "name": "owner",
          "type": "address"
        },
        {
          "indexed": true,
          "internalType": "uint256",
          "name": "amount",
          "type": "uint256"
        }
      ],
      "name": "OwnerBalanceWithdraw",
      "type": "event"
    },
    {
      "anonymous": false,
      "inputs": [
        {
          "indexed": true,
          "internalType": "address",
          "name": "from",
          "type": "address"
        },
        {
          "indexed": true,
          "internalType": "address",
          "name": "to",
          "type": "address"
        }
      ],
      "name": "OwnershipTransferRequested",
      "type": "event"
    },
    {
      "anonymous": false,
      "inputs": [
        {
          "indexed": true,
          "internalType": "address",
          "name": "from",
          "type": "address"
        },
        {
          "indexed": true,
          "internalType": "address",
          "name": "to",
          "type": "address"
        }
      ],
      "name": "OwnershipTransferred",
      "type": "event"
    },
    {
      "anonymous": false,
      "inputs": [
        {
          "indexed": true,
          "internalType": "address",
          "name": "player",
          "type": "address"
        },
        {
          "indexed": false,
          "internalType": "uint256[5]",
          "name": "combination",
          "type": "uint256[5]"
        }
      ],
      "name": "PlayerCombinationSubmitted",
      "type": "event"
    },
    {
      "anonymous": false,
      "inputs": [
        {
          "indexed": true,
          "internalType": "uint256",
          "name": "ticketId",
          "type": "uint256"
        }
      ],
      "name": "RandomNumberGenerated",
      "type": "event"
    },
    {
      "anonymous": false,
      "inputs": [
        {
          "indexed": true,
          "internalType": "address",
          "name": "player",
          "type": "address"
        },
        {
          "indexed": true,
          "internalType": "uint256",
          "name": "ticketId",
          "type": "uint256"
        },
        {
          "indexed": true,
          "internalType": "uint256",
          "name": "amount",
          "type": "uint256"
        }
      ],
      "name": "RewardClaimed",
      "type": "event"
    },
    {
      "anonymous": false,
      "inputs": [
        {
          "indexed": true,
          "internalType": "address",
          "name": "player",
          "type": "address"
        },
        {
          "indexed": true,
          "internalType": "uint256",
          "name": "ticketNumber",
          "type": "uint256"
        }
      ],
      "name": "TicketPurchased",
      "type": "event"
    },
    {
      "stateMutability": "payable",
      "type": "fallback"
    },
    {
      "inputs": [],
      "name": "CALLBACK_GAS_LIMIT",
      "outputs": [
        {
          "internalType": "uint32",
          "name": "",
          "type": "uint32"
        }
      ],
      "stateMutability": "view",
      "type": "function"
    },
    {
      "inputs": [],
      "name": "NUMBER_OF_WORDS",
      "outputs": [
        {
          "internalType": "uint8",
          "name": "",
          "type": "uint8"
        }
      ],
      "stateMutability": "view",
      "type": "function"
    },
    {
      "inputs": [],
      "name": "NUMBER_RANGE",
      "outputs": [
        {
          "internalType": "uint8",
          "name": "",
          "type": "uint8"
        }
      ],
      "stateMutability": "view",
      "type": "function"
    },
    {
      "inputs": [],
      "name": "REQUEST_CONFIRMATIONS",
      "outputs": [
        {
          "internalType": "uint16",
          "name": "",
          "type": "uint16"
        }
      ],
      "stateMutability": "view",
      "type": "function"
    },
    {
      "inputs": [],
      "name": "TICKET_PRICE_WEI",
      "outputs": [
        {
          "internalType": "uint256",
          "name": "",
          "type": "uint256"
        }
      ],
      "stateMutability": "view",
      "type": "function"
    },
    {
      "inputs": [],
      "name": "acceptOwnership",
      "outputs": [],
      "stateMutability": "nonpayable",
      "type": "function"
    },
    {
      "inputs": [
        {
          "internalType": "uint256",
          "name": "",
          "type": "uint256"
        }
      ],
      "name": "allTicketIds",
      "outputs": [
        {
          "internalType": "uint256",
          "name": "",
          "type": "uint256"
        }
      ],
      "stateMutability": "view",
      "type": "function"
    },
    {
      "inputs": [],
      "name": "buyBatchTickets",
      "outputs": [
        {
          "components": [
            {
              "internalType": "uint256",
              "name": "id",
              "type": "uint256"
            },
            {
              "internalType": "address",
              "name": "owner",
              "type": "address"
            },
            {
              "internalType": "uint256",
              "name": "purchaseTimestamp",
              "type": "uint256"
            },
            {
              "internalType": "uint256[5]",
              "name": "playerCombination",
              "type": "uint256[5]"
            },
            {
              "internalType": "uint256[5]",
              "name": "winningCombination",
              "type": "uint256[5]"
            },
            {
              "internalType": "uint8",
              "name": "matchingNumbers",
              "type": "uint8"
            },
            {
              "internalType": "uint256",
              "name": "potentialReward",
              "type": "uint256"
            },
            {
              "internalType": "uint256",
              "name": "actualReward",
              "type": "uint256"
            },
            {
              "internalType": "bool",
              "name": "isRewardClaimed",
              "type": "bool"
            },
            {
              "internalType": "bool",
              "name": "playerCombinationSubmitted",
              "type": "bool"
            },
            {
              "internalType": "bool",
              "name": "winningCombinationGenerated",
              "type": "bool"
            },
            {
              "internalType": "bool",
              "name": "randomNumberRequested",
              "type": "bool"
            }
          ],
          "internalType": "struct Lottery.LotteryTicket[]",
          "name": "",
          "type": "tuple[]"
        }
      ],
      "stateMutability": "payable",
      "type": "function"
    },
    {
      "inputs": [],
      "name": "buyTicket",
      "outputs": [
        {
          "components": [
            {
              "internalType": "uint256",
              "name": "id",
              "type": "uint256"
            },
            {
              "internalType": "address",
              "name": "owner",
              "type": "address"
            },
            {
              "internalType": "uint256",
              "name": "purchaseTimestamp",
              "type": "uint256"
            },
            {
              "internalType": "uint256[5]",
              "name": "playerCombination",
              "type": "uint256[5]"
            },
            {
              "internalType": "uint256[5]",
              "name": "winningCombination",
              "type": "uint256[5]"
            },
            {
              "internalType": "uint8",
              "name": "matchingNumbers",
              "type": "uint8"
            },
            {
              "internalType": "uint256",
              "name": "potentialReward",
              "type": "uint256"
            },
            {
              "internalType": "uint256",
              "name": "actualReward",
              "type": "uint256"
            },
            {
              "internalType": "bool",
              "name": "isRewardClaimed",
              "type": "bool"
            },
            {
              "internalType": "bool",
              "name": "playerCombinationSubmitted",
              "type": "bool"
            },
            {
              "internalType": "bool",
              "name": "winningCombinationGenerated",
              "type": "bool"
            },
            {
              "internalType": "bool",
              "name": "randomNumberRequested",
              "type": "bool"
            }
          ],
          "internalType": "struct Lottery.LotteryTicket[]",
          "name": "",
          "type": "tuple[]"
        }
      ],
      "stateMutability": "payable",
      "type": "function"
    },
    {
      "inputs": [
        {
          "internalType": "uint8",
          "name": "count",
          "type": "uint8"
        }
      ],
      "name": "buyTickets",
      "outputs": [
        {
          "components": [
            {
              "internalType": "uint256",
              "name": "id",
              "type": "uint256"
            },
            {
              "internalType": "address",
              "name": "owner",
              "type": "address"
            },
            {
              "internalType": "uint256",
              "name": "purchaseTimestamp",
              "type": "uint256"
            },
            {
              "internalType": "uint256[5]",
              "name": "playerCombination",
              "type": "uint256[5]"
            },
            {
              "internalType": "uint256[5]",
              "name": "winningCombination",
              "type": "uint256[5]"
            },
            {
              "internalType": "uint8",
              "name": "matchingNumbers",
              "type": "uint8"
            },
            {
              "internalType": "uint256",
              "name": "potentialReward",
              "type": "uint256"
            },
            {
              "internalType": "uint256",
              "name": "actualReward",
              "type": "uint256"
            },
            {
              "internalType": "bool",
              "name": "isRewardClaimed",
              "type": "bool"
            },
            {
              "internalType": "bool",
              "name": "playerCombinationSubmitted",
              "type": "bool"
            },
            {
              "internalType": "bool",
              "name": "winningCombinationGenerated",
              "type": "bool"
            },
            {
              "internalType": "bool",
              "name": "randomNumberRequested",
              "type": "bool"
            }
          ],
          "internalType": "struct Lottery.LotteryTicket[]",
          "name": "",
          "type": "tuple[]"
        }
      ],
      "stateMutability": "payable",
      "type": "function"
    },
    {
      "inputs": [
        {
          "internalType": "uint256",
          "name": "ticketId",
          "type": "uint256"
        }
      ],
      "name": "claimReward",
      "outputs": [],
      "stateMutability": "nonpayable",
      "type": "function"
    },
    {
      "inputs": [
        {
          "internalType": "uint256",
          "name": "amount",
          "type": "uint256"
        }
      ],
      "name": "fundJackpot",
      "outputs": [],
      "stateMutability": "payable",
      "type": "function"
    },
    {
      "inputs": [],
      "name": "getAllTickets",
      "outputs": [
        {
          "components": [
            {
              "internalType": "uint256",
              "name": "id",
              "type": "uint256"
            },
            {
              "internalType": "address",
              "name": "owner",
              "type": "address"
            },
            {
              "internalType": "uint256",
              "name": "purchaseTimestamp",
              "type": "uint256"
            },
            {
              "internalType": "uint256[5]",
              "name": "playerCombination",
              "type": "uint256[5]"
            },
            {
              "internalType": "uint256[5]",
              "name": "winningCombination",
              "type": "uint256[5]"
            },
            {
              "internalType": "uint8",
              "name": "matchingNumbers",
              "type": "uint8"
            },
            {
              "internalType": "uint256",
              "name": "potentialReward",
              "type": "uint256"
            },
            {
              "internalType": "uint256",
              "name": "actualReward",
              "type": "uint256"
            },
            {
              "internalType": "bool",
              "name": "isRewardClaimed",
              "type": "bool"
            },
            {
              "internalType": "bool",
              "name": "playerCombinationSubmitted",
              "type": "bool"
            },
            {
              "internalType": "bool",
              "name": "winningCombinationGenerated",
              "type": "bool"
            },
            {
              "internalType": "bool",
              "name": "randomNumberRequested",
              "type": "bool"
            }
          ],
          "internalType": "struct Lottery.LotteryTicket[]",
          "name": "",
          "type": "tuple[]"
        }
      ],
      "stateMutability": "view",
      "type": "function"
    },
    {
      "inputs": [],
      "name": "getContractOwner",
      "outputs": [
        {
          "internalType": "address",
          "name": "",
          "type": "address"
        }
      ],
      "stateMutability": "view",
      "type": "function"
    },
    {
      "inputs": [],
      "name": "getJackpot",
      "outputs": [
        {
          "internalType": "uint256",
          "name": "",
          "type": "uint256"
        }
      ],
      "stateMutability": "view",
      "type": "function"
    },
    {
      "inputs": [],
      "name": "getPlayerTickets",
      "outputs": [
        {
          "components": [
            {
              "internalType": "uint256",
              "name": "id",
              "type": "uint256"
            },
            {
              "internalType": "address",
              "name": "owner",
              "type": "address"
            },
            {
              "internalType": "uint256",
              "name": "purchaseTimestamp",
              "type": "uint256"
            },
            {
              "internalType": "uint256[5]",
              "name": "playerCombination",
              "type": "uint256[5]"
            },
            {
              "internalType": "uint256[5]",
              "name": "winningCombination",
              "type": "uint256[5]"
            },
            {
              "internalType": "uint8",
              "name": "matchingNumbers",
              "type": "uint8"
            },
            {
              "internalType": "uint256",
              "name": "potentialReward",
              "type": "uint256"
            },
            {
              "internalType": "uint256",
              "name": "actualReward",
              "type": "uint256"
            },
            {
              "internalType": "bool",
              "name": "isRewardClaimed",
              "type": "bool"
            },
            {
              "internalType": "bool",
              "name": "playerCombinationSubmitted",
              "type": "bool"
            },
            {
              "internalType": "bool",
              "name": "winningCombinationGenerated",
              "type": "bool"
            },
            {
              "internalType": "bool",
              "name": "randomNumberRequested",
              "type": "bool"
            }
          ],
          "internalType": "struct Lottery.LotteryTicket[]",
          "name": "",
          "type": "tuple[]"
        }
      ],
      "stateMutability": "view",
      "type": "function"
    },
    {
      "inputs": [
        {
          "internalType": "uint256",
          "name": "ticketId",
          "type": "uint256"
        }
      ],
      "name": "getTicketById",
      "outputs": [
        {
          "components": [
            {
              "internalType": "uint256",
              "name": "id",
              "type": "uint256"
            },
            {
              "internalType": "address",
              "name": "owner",
              "type": "address"
            },
            {
              "internalType": "uint256",
              "name": "purchaseTimestamp",
              "type": "uint256"
            },
            {
              "internalType": "uint256[5]",
              "name": "playerCombination",
              "type": "uint256[5]"
            },
            {
              "internalType": "uint256[5]",
              "name": "winningCombination",
              "type": "uint256[5]"
            },
            {
              "internalType": "uint8",
              "name": "matchingNumbers",
              "type": "uint8"
            },
            {
              "internalType": "uint256",
              "name": "potentialReward",
              "type": "uint256"
            },
            {
              "internalType": "uint256",
              "name": "actualReward",
              "type": "uint256"
            },
            {
              "internalType": "bool",
              "name": "isRewardClaimed",
              "type": "bool"
            },
            {
              "internalType": "bool",
              "name": "playerCombinationSubmitted",
              "type": "bool"
            },
            {
              "internalType": "bool",
              "name": "winningCombinationGenerated",
              "type": "bool"
            },
            {
              "internalType": "bool",
              "name": "randomNumberRequested",
              "type": "bool"
            }
          ],
          "internalType": "struct Lottery.LotteryTicket",
          "name": "",
          "type": "tuple"
        }
      ],
      "stateMutability": "view",
      "type": "function"
    },
    {
      "inputs": [],
      "name": "jackpot",
      "outputs": [
        {
          "internalType": "uint256",
          "name": "",
          "type": "uint256"
        }
      ],
      "stateMutability": "view",
      "type": "function"
    },
    {
      "inputs": [],
      "name": "nextTicketId",
      "outputs": [
        {
          "internalType": "uint256",
          "name": "",
          "type": "uint256"
        }
      ],
      "stateMutability": "view",
      "type": "function"
    },
    {
      "inputs": [],
      "name": "owner",
      "outputs": [
        {
          "internalType": "address",
          "name": "",
          "type": "address"
        }
      ],
      "stateMutability": "view",
      "type": "function"
    },
    {
      "inputs": [
        {
          "internalType": "address",
          "name": "",
          "type": "address"
        },
        {
          "internalType": "uint256",
          "name": "",
          "type": "uint256"
        }
      ],
      "name": "playerTicketIds",
      "outputs": [
        {
          "internalType": "uint256",
          "name": "",
          "type": "uint256"
        }
      ],
      "stateMutability": "view",
      "type": "function"
    },
    {
      "inputs": [
        {
          "internalType": "uint256",
          "name": "requestId",
          "type": "uint256"
        },
        {
          "internalType": "uint256[]",
          "name": "randomWords",
          "type": "uint256[]"
        }
      ],
      "name": "rawFulfillRandomWords",
      "outputs": [],
      "stateMutability": "nonpayable",
      "type": "function"
    },
    {
      "inputs": [
        {
          "internalType": "uint256",
          "name": "",
          "type": "uint256"
        }
      ],
      "name": "requestIdToTicketId",
      "outputs": [
        {
          "internalType": "uint256",
          "name": "",
          "type": "uint256"
        }
      ],
      "stateMutability": "view",
      "type": "function"
    },
    {
      "inputs": [],
      "name": "s_vrfCoordinator",
      "outputs": [
        {
          "internalType": "contract IVRFCoordinatorV2Plus",
          "name": "",
          "type": "address"
        }
      ],
      "stateMutability": "view",
      "type": "function"
    },
    {
      "inputs": [
        {
          "internalType": "address",
          "name": "_vrfCoordinator",
          "type": "address"
        }
      ],
      "name": "setCoordinator",
      "outputs": [],
      "stateMutability": "nonpayable",
      "type": "function"
    },
    {
      "inputs": [
        {
          "internalType": "uint256",
          "name": "ticketId",
          "type": "uint256"
        },
        {
          "internalType": "uint256[5]",
          "name": "playerCombination",
          "type": "uint256[5]"
        }
      ],
      "name": "submitCombination",
      "outputs": [],
      "stateMutability": "nonpayable",
      "type": "function"
    },
    {
      "inputs": [
        {
          "internalType": "uint256",
          "name": "",
          "type": "uint256"
        }
      ],
      "name": "tickets",
      "outputs": [
        {
          "internalType": "uint256",
          "name": "id",
          "type": "uint256"
        },
        {
          "internalType": "address",
          "name": "owner",
          "type": "address"
        },
        {
          "internalType": "uint256",
          "name": "purchaseTimestamp",
          "type": "uint256"
        },
        {
          "internalType": "uint8",
          "name": "matchingNumbers",
          "type": "uint8"
        },
        {
          "internalType": "uint256",
          "name": "potentialReward",
          "type": "uint256"
        },
        {
          "internalType": "uint256",
          "name": "actualReward",
          "type": "uint256"
        },
        {
          "internalType": "bool",
          "name": "isRewardClaimed",
          "type": "bool"
        },
        {
          "internalType": "bool",
          "name": "playerCombinationSubmitted",
          "type": "bool"
        },
        {
          "internalType": "bool",
          "name": "winningCombinationGenerated",
          "type": "bool"
        },
        {
          "internalType": "bool",
          "name": "randomNumberRequested",
          "type": "bool"
        }
      ],
      "stateMutability": "view",
      "type": "function"
    },
    {
      "inputs": [
        {
          "internalType": "address",
          "name": "to",
          "type": "address"
        }
      ],
      "name": "transferOwnership",
      "outputs": [],
      "stateMutability": "nonpayable",
      "type": "function"
    },
    {
      "inputs": [],
      "name": "withdrawJackpot",
      "outputs": [],
      "stateMutability": "payable",
      "type": "function"
    },
    {
      "inputs": [],
      "name": "withdrawOperationsBalance",
      "outputs": [],
      "stateMutability": "payable",
      "type": "function"
    },
    {
      "inputs": [],
      "name": "withdrawOwnerBalance",
      "outputs": [],
      "stateMutability": "payable",
      "type": "function"
    },
    {
      "stateMutability": "payable",
      "type": "receive"
    }
  ],
  "bytecode": "0x60c060405234801561001057600080fd5b5060405161572138038061572183398181016040528101906100329190610399565b739ddfaca8183c41ad55329bdeed9f6a8d53168b1b338060008073ffffffffffffffffffffffffffffffffffffffff168273ffffffffffffffffffffffffffffffffffffffff16036100b9576040517f08c379a00000000000000000000000000000000000000000000000000000000081526004016100b090610423565b60405180910390fd5b816000806101000a81548173ffffffffffffffffffffffffffffffffffffffff021916908373ffffffffffffffffffffffffffffffffffffffff160217905550600073ffffffffffffffffffffffffffffffffffffffff168173ffffffffffffffffffffffffffffffffffffffff161461013d5761013c8161023260201b60201c565b5b505050600073ffffffffffffffffffffffffffffffffffffffff168173ffffffffffffffffffffffffffffffffffffffff16036101a6576040517fd92e233d00000000000000000000000000000000000000000000000000000000815260040160405180910390fd5b80600260006101000a81548173ffffffffffffffffffffffffffffffffffffffff021916908373ffffffffffffffffffffffffffffffffffffffff1602179055505060016003819055503373ffffffffffffffffffffffffffffffffffffffff1660808173ffffffffffffffffffffffffffffffffffffffff16815250508060a08181525050506104af565b3373ffffffffffffffffffffffffffffffffffffffff168173ffffffffffffffffffffffffffffffffffffffff16036102a0576040517f08c379a00000000000000000000000000000000000000000000000000000000081526004016102979061048f565b60405180910390fd5b80600160006101000a81548173ffffffffffffffffffffffffffffffffffffffff021916908373ffffffffffffffffffffffffffffffffffffffff1602179055508073ffffffffffffffffffffffffffffffffffffffff1660008054906101000a900473ffffffffffffffffffffffffffffffffffffffff1673ffffffffffffffffffffffffffffffffffffffff167fed8889f560326eb138920d842192f0eb3dd22b4f139c87a2c57538e05bae127860405160405180910390a350565b600080fd5b6000819050919050565b61037681610363565b811461038157600080fd5b50565b6000815190506103938161036d565b92915050565b6000602082840312156103af576103ae61035e565b5b60006103bd84828501610384565b91505092915050565b600082825260208201905092915050565b7f43616e6e6f7420736574206f776e657220746f207a65726f0000000000000000600082015250565b600061040d6018836103c6565b9150610418826103d7565b602082019050919050565b6000602082019050818103600083015261043c81610400565b9050919050565b7f43616e6e6f74207472616e7366657220746f2073656c66000000000000000000600082015250565b60006104796017836103c6565b915061048482610443565b602082019050919050565b600060208201905081810360008301526104a88161046c565b9050919050565b60805160a05161520761051a60003960006131200152600081816107f801528181610e000152818161165f015281816117430152818161180e015281816122540152818161233801528181612403015281816124d6015281816125ba015261268501526152076000f3fe6080604052600436106101dc5760003560e01c80638ea9811711610102578063c0b3870a11610095578063f163915a11610064578063f163915a14610693578063f2fde38b146106be578063f403251d146106e7578063f926c5d8146106f1576101ec565b8063c0b3870a146105f1578063c3e9bf00146105fb578063d6296f7514610638578063edca914c14610675576101ec565b80639eccacf6116100d15780639eccacf61461054f578063ae169a501461057a578063ae6b8ea9146105a3578063c081edd8146105c1576101ec565b80638ea98117146104c65780639329066c146104ef578063941b80ac1461051a57806395e888c414610524576101ec565b80636031a52f1161017a5780638571c441116101495780638571c4411461041757806385c9d67314610433578063864c407c1461045e5780638da5cb5b1461049b576101ec565b80636031a52f1461037f57806367f082b0146103aa5780636b31ee01146103d557806379ba509714610400576101ec565b806333d608f1116101b657806333d608f1146102b85780633aac0fa9146102e3578063442890d51461030e57806350b4471214610339576101ec565b806303e96fe3146102275780631fe543e31461025257806327b7aabc1461027b576101ec565b366101ec576101ea3461071a565b005b6040517f08c379a000000000000000000000000000000000000000000000000000000000815260040161021e906135aa565b60405180910390fd5b34801561023357600080fd5b5061023c6107f4565b60405161024991906138a1565b60405180910390f35b34801561025e57600080fd5b5061027960048036038101906102749190613968565b610af3565b005b34801561028757600080fd5b506102a2600480360381019061029d91906139c8565b610bb9565b6040516102af9190613aef565b60405180910390f35b3480156102c457600080fd5b506102cd610df0565b6040516102da9190613b2a565b60405180910390f35b3480156102ef57600080fd5b506102f8610df7565b6040516103059190613b54565b60405180910390f35b34801561031a57600080fd5b50610323610dfc565b6040516103309190613b7e565b60405180910390f35b34801561034557600080fd5b50610360600480360381019061035b91906139c8565b610e24565b6040516103769a99989796959493929190613bb7565b60405180910390f35b34801561038b57600080fd5b50610394610ed9565b6040516103a19190613c53565b60405180910390f35b3480156103b657600080fd5b506103bf610edf565b6040516103cc9190613c8b565b60405180910390f35b3480156103e157600080fd5b506103ea610ee4565b6040516103f79190613c53565b60405180910390f35b34801561040c57600080fd5b50610415610eea565b005b610431600480360381019061042c91906139c8565b61107f565b005b34801561043f57600080fd5b50610448611121565b60405161045591906138a1565b60405180910390f35b34801561046a57600080fd5b5061048560048036038101906104809190613cd2565b611418565b6040516104929190613c53565b60405180910390f35b3480156104a757600080fd5b506104b0611449565b6040516104bd9190613b7e565b60405180910390f35b3480156104d257600080fd5b506104ed60048036038101906104e89190613d12565b611472565b005b3480156104fb57600080fd5b50610504611653565b6040516105119190613c53565b60405180910390f35b61052261165d565b005b34801561053057600080fd5b50610539611873565b6040516105469190613b54565b60405180910390f35b34801561055b57600080fd5b50610564611878565b6040516105719190613d9e565b60405180910390f35b34801561058657600080fd5b506105a1600480360381019061059c91906139c8565b61189e565b005b6105ab611d15565b6040516105b891906138a1565b60405180910390f35b6105db60048036038101906105d69190613de5565b611d26565b6040516105e891906138a1565b60405180910390f35b6105f9612252565b005b34801561060757600080fd5b50610622600480360381019061061d91906139c8565b612468565b60405161062f9190613c53565b60405180910390f35b34801561064457600080fd5b5061065f600480360381019061065a91906139c8565b612480565b60405161066c9190613c53565b60405180910390f35b61067d6124a4565b60405161068a91906138a1565b60405180910390f35b34801561069f57600080fd5b506106a86124b5565b6040516106b59190613c53565b60405180910390f35b3480156106ca57600080fd5b506106e560048036038101906106e09190613d12565b6124c0565b005b6106ef6124d4565b005b3480156106fd57600080fd5b5061071860048036038101906107139190613f4f565b6126ea565b005b6064605a826107299190613fbe565b610733919061402f565b600460008282546107449190614060565b92505081905550606460058261075a9190613fbe565b610764919061402f565b600560008282546107759190614060565b92505081905550606460058261078b9190613fbe565b610795919061402f565b600660008282546107a69190614060565b92505081905550803373ffffffffffffffffffffffffffffffffffffffff167fc1d32ad5cca423e7dda2123dbf8c482f8e77d00b631c06e903a47f2cec1334df60405160405180910390a350565b60607f000000000000000000000000000000000000000000000000000000000000000073ffffffffffffffffffffffffffffffffffffffff163373ffffffffffffffffffffffffffffffffffffffff1614610884576040517f08c379a000000000000000000000000000000000000000000000000000000000815260040161087b906140e0565b60405180910390fd5b6000600880549050905060008167ffffffffffffffff8111156108aa576108a9613e23565b5b6040519080825280602002602001820160405280156108e357816020015b6108d06133fb565b8152602001906001900390816108c85790505b50905060005b82811015610aea57600f60006008838154811061090957610908614100565b5b9060005260206000200154815260200190815260200160002060405180610180016040529081600082015481526020016001820160009054906101000a900473ffffffffffffffffffffffffffffffffffffffff1673ffffffffffffffffffffffffffffffffffffffff1673ffffffffffffffffffffffffffffffffffffffff16815260200160028201548152602001600382016005806020026040519081016040528092919082600580156109d4576020028201915b8154815260200190600101908083116109c0575b5050505050815260200160088201600580602002604051908101604052809291908260058015610a19576020028201915b815481526020019060010190808311610a05575b50505050508152602001600d820160009054906101000a900460ff1660ff1660ff168152602001600e8201548152602001600f82015481526020016010820160009054906101000a900460ff161515151581526020016010820160019054906101000a900460ff161515151581526020016010820160029054906101000a900460ff161515151581526020016010820160039054906101000a900460ff161515151581525050828281518110610ad257610ad1614100565b5b602002602001018190525080806001019150506108e9565b50809250505090565b600260009054906101000a900473ffffffffffffffffffffffffffffffffffffffff1673ffffffffffffffffffffffffffffffffffffffff163373ffffffffffffffffffffffffffffffffffffffff1614610ba95733600260009054906101000a900473ffffffffffffffffffffffffffffffffffffffff166040517f1cf993f4000000000000000000000000000000000000000000000000000000008152600401610ba092919061412f565b60405180910390fd5b610bb4838383612a14565b505050565b610bc16133fb565b6000600f600084815260200190815260200160002060405180610180016040529081600082015481526020016001820160009054906101000a900473ffffffffffffffffffffffffffffffffffffffff1673ffffffffffffffffffffffffffffffffffffffff1673ffffffffffffffffffffffffffffffffffffffff1681526020016002820154815260200160038201600580602002604051908101604052809291908260058015610c88576020028201915b815481526020019060010190808311610c74575b5050505050815260200160088201600580602002604051908101604052809291908260058015610ccd576020028201915b815481526020019060010190808311610cb9575b50505050508152602001600d820160009054906101000a900460ff1660ff1660ff168152602001600e8201548152602001600f82015481526020016010820160009054906101000a900460ff161515151581526020016010820160019054906101000a900460ff161515151581526020016010820160029054906101000a900460ff161515151581526020016010820160039054906101000a900460ff16151515158152505090503373ffffffffffffffffffffffffffffffffffffffff16816020015173ffffffffffffffffffffffffffffffffffffffff1614610de7576040517f08c379a0000000000000000000000000000000000000000000000000000000008152600401610dde906141a4565b60405180910390fd5b80915050919050565b622625a081565b602581565b60007f0000000000000000000000000000000000000000000000000000000000000000905090565b600f6020528060005260406000206000915090508060000154908060010160009054906101000a900473ffffffffffffffffffffffffffffffffffffffff169080600201549080600d0160009054906101000a900460ff169080600e01549080600f0154908060100160009054906101000a900460ff16908060100160019054906101000a900460ff16908060100160029054906101000a900460ff16908060100160039054906101000a900460ff1690508a565b60075481565b600381565b60045481565b600160009054906101000a900473ffffffffffffffffffffffffffffffffffffffff1673ffffffffffffffffffffffffffffffffffffffff163373ffffffffffffffffffffffffffffffffffffffff1614610f7a576040517f08c379a0000000000000000000000000000000000000000000000000000000008152600401610f7190614210565b60405180910390fd5b60008060009054906101000a900473ffffffffffffffffffffffffffffffffffffffff169050336000806101000a81548173ffffffffffffffffffffffffffffffffffffffff021916908373ffffffffffffffffffffffffffffffffffffffff1602179055506000600160006101000a81548173ffffffffffffffffffffffffffffffffffffffff021916908373ffffffffffffffffffffffffffffffffffffffff1602179055503373ffffffffffffffffffffffffffffffffffffffff168173ffffffffffffffffffffffffffffffffffffffff167f8be0079c531659141344cd1fd0a4f28419497f9722a3daafe3b4186f6b6457e060405160405180910390a350565b8034146110c1576040517f08c379a00000000000000000000000000000000000000000000000000000000081526004016110b89061427c565b60405180910390fd5b80600460008282546110d39190614060565b92505081905550803373ffffffffffffffffffffffffffffffffffffffff167f670e95b8055d07efacb517c9eaf38144c6d3095de67c4aae5598c7679d71628760405160405180910390a350565b60606000600e60003373ffffffffffffffffffffffffffffffffffffffff1673ffffffffffffffffffffffffffffffffffffffff1681526020019081526020016000208054806020026020016040519081016040528092919081815260200182805480156111ae57602002820191906000526020600020905b81548152602001906001019080831161119a575b505050505090506000815167ffffffffffffffff8111156111d2576111d1613e23565b5b60405190808252806020026020018201604052801561120b57816020015b6111f86133fb565b8152602001906001900390816111f05790505b50905060005b825181101561140f57600f600084838151811061123157611230614100565b5b6020026020010151815260200190815260200160002060405180610180016040529081600082015481526020016001820160009054906101000a900473ffffffffffffffffffffffffffffffffffffffff1673ffffffffffffffffffffffffffffffffffffffff1673ffffffffffffffffffffffffffffffffffffffff16815260200160028201548152602001600382016005806020026040519081016040528092919082600580156112f9576020028201915b8154815260200190600101908083116112e5575b505050505081526020016008820160058060200260405190810160405280929190826005801561133e576020028201915b81548152602001906001019080831161132a575b50505050508152602001600d820160009054906101000a900460ff1660ff1660ff168152602001600e8201548152602001600f82015481526020016010820160009054906101000a900460ff161515151581526020016010820160019054906101000a900460ff161515151581526020016010820160029054906101000a900460ff161515151581526020016010820160039054906101000a900460ff1615151515815250508282815181106113f7576113f6614100565b5b60200260200101819052508080600101915050611211565b50809250505090565b600e602052816000526040600020818154811061143457600080fd5b90600052602060002001600091509150505481565b60008060009054906101000a900473ffffffffffffffffffffffffffffffffffffffff16905090565b61147a611449565b73ffffffffffffffffffffffffffffffffffffffff163373ffffffffffffffffffffffffffffffffffffffff16141580156115035750600260009054906101000a900473ffffffffffffffffffffffffffffffffffffffff1673ffffffffffffffffffffffffffffffffffffffff163373ffffffffffffffffffffffffffffffffffffffff1614155b156115725733611511611449565b600260009054906101000a900473ffffffffffffffffffffffffffffffffffffffff166040517f061db9c10000000000000000000000000000000000000000000000000000000081526004016115699392919061429c565b60405180910390fd5b600073ffffffffffffffffffffffffffffffffffffffff168173ffffffffffffffffffffffffffffffffffffffff16036115d8576040517fd92e233d00000000000000000000000000000000000000000000000000000000815260040160405180910390fd5b80600260006101000a81548173ffffffffffffffffffffffffffffffffffffffff021916908373ffffffffffffffffffffffffffffffffffffffff1602179055507fd1a6a14209a385a964d036e404cb5cfb71f4000cdb03c9366292430787261be6816040516116489190613b7e565b60405180910390a150565b6000600454905090565b7f000000000000000000000000000000000000000000000000000000000000000073ffffffffffffffffffffffffffffffffffffffff163373ffffffffffffffffffffffffffffffffffffffff16146116eb576040517f08c379a00000000000000000000000000000000000000000000000000000000081526004016116e2906140e0565b60405180910390fd5b600060065411611730576040517f08c379a00000000000000000000000000000000000000000000000000000000081526004016117279061431f565b60405180910390fd5b60006006549050600060068190555060007f000000000000000000000000000000000000000000000000000000000000000073ffffffffffffffffffffffffffffffffffffffff168260405161178590614370565b60006040518083038185875af1925050503d80600081146117c2576040519150601f19603f3d011682016040523d82523d6000602084013e6117c7565b606091505b505090508061180b576040517f08c379a0000000000000000000000000000000000000000000000000000000008152600401611802906143d1565b60405180910390fd5b817f000000000000000000000000000000000000000000000000000000000000000073ffffffffffffffffffffffffffffffffffffffff167fa711dcbee5590122b88ae65f697adf2f2824e323782fa8df939898d7eb6c1c2b60405160405180910390a35050565b600181565b600260009054906101000a900473ffffffffffffffffffffffffffffffffffffffff1681565b6118a6612be8565b6000600f600083815260200190815260200160002090503373ffffffffffffffffffffffffffffffffffffffff168160010160009054906101000a900473ffffffffffffffffffffffffffffffffffffffff1673ffffffffffffffffffffffffffffffffffffffff161461194f576040517f08c379a00000000000000000000000000000000000000000000000000000000081526004016119469061443d565b60405180910390fd5b600073ffffffffffffffffffffffffffffffffffffffff168160010160009054906101000a900473ffffffffffffffffffffffffffffffffffffffff1673ffffffffffffffffffffffffffffffffffffffff16036119e2576040517f08c379a00000000000000000000000000000000000000000000000000000000081526004016119d9906144a9565b60405180910390fd5b8060100160019054906101000a900460ff16611a33576040517f08c379a0000000000000000000000000000000000000000000000000000000008152600401611a2a90614515565b60405180910390fd5b8060100160029054906101000a900460ff16611a84576040517f08c379a0000000000000000000000000000000000000000000000000000000008152600401611a7b90614581565b60405180910390fd5b8060100160009054906101000a900460ff1615611ad6576040517f08c379a0000000000000000000000000000000000000000000000000000000008152600401611acd906145ed565b60405180910390fd5b6000611b6082600301600580602002604051908101604052809291908260058015611b16576020028201915b815481526020019060010190808311611b02575b505050505083600801600580602002604051908101604052809291908260058015611b56576020028201915b815481526020019060010190808311611b42575b5050505050612c37565b905081600d0160009054906101000a900460ff1660ff168160ff1614611bbb576040517f08c379a0000000000000000000000000000000000000000000000000000000008152600401611bb290614659565b60405180910390fd5b6000611bc682612d32565b905060008111611c0b576040517f08c379a0000000000000000000000000000000000000000000000000000000008152600401611c02906146c5565b60405180910390fd5b6000600454821115611c1f57600454611c21565b815b9050806004541015611c34576000611c43565b80600454611c4291906146e5565b5b6004819055508084600f018190555060018460100160006101000a81548160ff021916908315150217905550611c9d8460010160009054906101000a900473ffffffffffffffffffffffffffffffffffffffff1682612def565b80858560010160009054906101000a900473ffffffffffffffffffffffffffffffffffffffff1673ffffffffffffffffffffffffffffffffffffffff167ff01da32686223933d8a18a391060918c7f11a3648639edd87ae013e2e273174360405160405180910390a450505050611d12612ee3565b50565b6060611d21600a611d26565b905090565b60603373ffffffffffffffffffffffffffffffffffffffff163273ffffffffffffffffffffffffffffffffffffffff1614611d96576040517f08c379a0000000000000000000000000000000000000000000000000000000008152600401611d8d90614765565b60405180910390fd5b60008260ff1611611ddc576040517f08c379a0000000000000000000000000000000000000000000000000000000008152600401611dd3906147d1565b60405180910390fd5b60008260ff1666038d7ea4c68000611df49190613fbe565b9050600a8360ff1603611e1857600966038d7ea4c68000611e159190613fbe565b90505b803414611e5a576040517f08c379a0000000000000000000000000000000000000000000000000000000008152600401611e519061483d565b60405180910390fd5b60008360ff1667ffffffffffffffff811115611e7957611e78613e23565b5b604051908082528060200260200182016040528015611eb257816020015b611e9f6133fb565b815260200190600190039081611e975790505b50905060005b8460ff168160ff16101561223e57600060405180610180016040528060075481526020013373ffffffffffffffffffffffffffffffffffffffff1681526020014281526020016009600580602002604051908101604052809291908260058015611f37576020028201915b815481526020019060010190808311611f23575b505050505081526020016009600580602002604051908101604052809291908260058015611f7a576020028201915b815481526020019060010190808311611f66575b50505050508152602001600060ff168152602001600081526020016000815260200160001515815260200160001515815260200160001515815260200160001515815250905080600f600060075481526020019081526020016000206000820151816000015560208201518160010160006101000a81548173ffffffffffffffffffffffffffffffffffffffff021916908373ffffffffffffffffffffffffffffffffffffffff16021790555060408201518160020155606082015181600301906005612048929190613489565b50608082015181600801906005612060929190613489565b5060a082015181600d0160006101000a81548160ff021916908360ff16021790555060c082015181600e015560e082015181600f01556101008201518160100160006101000a81548160ff0219169083151502179055506101208201518160100160016101000a81548160ff0219169083151502179055506101408201518160100160026101000a81548160ff0219169083151502179055506101608201518160100160036101000a81548160ff021916908315150217905550905050600e60003373ffffffffffffffffffffffffffffffffffffffff1673ffffffffffffffffffffffffffffffffffffffff16815260200190815260200160002060075490806001815401808255809150506001900390600052602060002001600090919091909150556008600754908060018154018082558091505060019003906000526020600020016000909190919091505580838360ff16815181106121c7576121c6614100565b5b60200260200101819052506007543373ffffffffffffffffffffffffffffffffffffffff167f0668f5b446eb814fe35b3206f43f14bd8567ba04ddaf7a3ee56516929ab22ccb60405160405180910390a36007600081548092919061222b9061485d565b9190505550508080600101915050611eb8565b506122483461071a565b8092505050919050565b7f000000000000000000000000000000000000000000000000000000000000000073ffffffffffffffffffffffffffffffffffffffff163373ffffffffffffffffffffffffffffffffffffffff16146122e0576040517f08c379a00000000000000000000000000000000000000000000000000000000081526004016122d7906140e0565b60405180910390fd5b600060045411612325576040517f08c379a000000000000000000000000000000000000000000000000000000000815260040161231c9061431f565b60405180910390fd5b60006004549050600060048190555060007f000000000000000000000000000000000000000000000000000000000000000073ffffffffffffffffffffffffffffffffffffffff168260405161237a90614370565b60006040518083038185875af1925050503d80600081146123b7576040519150601f19603f3d011682016040523d82523d6000602084013e6123bc565b606091505b5050905080612400576040517f08c379a00000000000000000000000000000000000000000000000000000000081526004016123f7906148f1565b60405180910390fd5b817f000000000000000000000000000000000000000000000000000000000000000073ffffffffffffffffffffffffffffffffffffffff167fff984e4ec57c8aefc4fbea6499d5cb891883e5c1589aba926f8da3f675f0ee2f60405160405180910390a35050565b60106020528060005260406000206000915090505481565b6008818154811061249057600080fd5b906000526020600020016000915090505481565b60606124b06001611d26565b905090565b66038d7ea4c6800081565b6124c8612eed565b6124d181612f7d565b50565b7f000000000000000000000000000000000000000000000000000000000000000073ffffffffffffffffffffffffffffffffffffffff163373ffffffffffffffffffffffffffffffffffffffff1614612562576040517f08c379a0000000000000000000000000000000000000000000000000000000008152600401612559906140e0565b60405180910390fd5b6000600554116125a7576040517f08c379a000000000000000000000000000000000000000000000000000000000815260040161259e9061431f565b60405180910390fd5b60006005549050600060058190555060007f000000000000000000000000000000000000000000000000000000000000000073ffffffffffffffffffffffffffffffffffffffff16826040516125fc90614370565b60006040518083038185875af1925050503d8060008114612639576040519150601f19603f3d011682016040523d82523d6000602084013e61263e565b606091505b5050905080612682576040517f08c379a000000000000000000000000000000000000000000000000000000000815260040161267990614983565b60405180910390fd5b817f000000000000000000000000000000000000000000000000000000000000000073ffffffffffffffffffffffffffffffffffffffff167fa760777eb358393d33a518ec33e1187940af7f3cbffb09c53db5ee4b7e7e402560405160405180910390a35050565b6000600f600084815260200190815260200160002090503373ffffffffffffffffffffffffffffffffffffffff168160010160009054906101000a900473ffffffffffffffffffffffffffffffffffffffff1673ffffffffffffffffffffffffffffffffffffffff1614612793576040517f08c379a000000000000000000000000000000000000000000000000000000000815260040161278a906149ef565b60405180910390fd5b8060100160019054906101000a900460ff16156127e5576040517f08c379a00000000000000000000000000000000000000000000000000000000081526004016127dc90614a5b565b60405180910390fd5b60005b600581101561291657600083826005811061280657612805614100565b5b6020020151101580156128315750602483826005811061282957612828614100565b5b602002015111155b612870576040517f08c379a000000000000000000000000000000000000000000000000000000000815260040161286790614ac7565b60405180910390fd5b600060018261287f9190614060565b90505b60058110156129085783816005811061289e5761289d614100565b5b60200201518483600581106128b6576128b5614100565b5b6020020151036128fb576040517f08c379a00000000000000000000000000000000000000000000000000000000081526004016128f290614b33565b60405180910390fd5b8080600101915050612882565b5080806001019150506127e8565b50818160030190600561292a929190613489565b5060018160100160016101000a81548160ff0219169083151502179055503373ffffffffffffffffffffffffffffffffffffffff167f26aa7c18051e08a0cf3f3b6f17d2953735d99eab33c5d55efdf08ef510de455e8360405161298e9190614bb5565b60405180910390a28060100160039054906101000a900460ff16156129e8576040517f08c379a00000000000000000000000000000000000000000000000000000000081526004016129df90614c1c565b60405180910390fd5b60018160100160036101000a81548160ff021916908315150217905550612a0e836130a9565b50505050565b6000601060008581526020019081526020016000205490506000600f600083815260200190815260200160002090508060100160029054906101000a900460ff1615612a95576040517f08c379a0000000000000000000000000000000000000000000000000000000008152600401612a8c90614c88565b60405180910390fd5b600084846000818110612aab57612aaa614100565b5b90506020020135905060018260100160026101000a81548160ff021916908315150217905550612ada8161320d565b82600801906005612aec929190613489565b50612b7582600301600580602002604051908101604052809291908260058015612b2b576020028201915b815481526020019060010190808311612b17575b505050505083600801600580602002604051908101604052809291908260058015612b6b576020028201915b815481526020019060010190808311612b57575b5050505050612c37565b82600d0160006101000a81548160ff021916908360ff160217905550612bab82600d0160009054906101000a900460ff16612d32565b82600e0181905550827facb85192b17e57cdd6ffdc2af021cc70c3a2269771b37b82dd36695fec903af560405160405180910390a2505050505050565b600260035403612c2d576040517f08c379a0000000000000000000000000000000000000000000000000000000008152600401612c2490614cf4565b60405180910390fd5b6002600381905550565b60008060009050612c466134c9565b60005b60058160ff161015612d265760005b60058160ff161015612d1257828160ff1660058110612c7a57612c79614100565b5b6020020151158015612cbf5750858160ff1660058110612c9d57612c9c614100565b5b6020020151878360ff1660058110612cb857612cb7614100565b5b6020020151145b15612cff57600184612cd19190614d14565b93506001838260ff1660058110612ceb57612cea614100565b5b602002019015159081151581525050612d12565b8080612d0a90614d49565b915050612c58565b508080612d1e90614d49565b915050612c49565b50819250505092915050565b600060058260ff161115612d7b576040517f08c379a0000000000000000000000000000000000000000000000000000000008152600401612d7290614dbe565b60405180910390fd5b60006040518060c001604052806000815260200166027ca57357c000815260200166044364c5bb00008152602001662386f26fc10000815260200167016345785d8a000081526020016004548152509050808360ff1660068110612de257612de1614100565b5b6020020151915050919050565b60008111612e32576040517f08c379a0000000000000000000000000000000000000000000000000000000008152600401612e2990614e2a565b60405180910390fd5b60008273ffffffffffffffffffffffffffffffffffffffff1682604051612e5890614370565b60006040518083038185875af1925050503d8060008114612e95576040519150601f19603f3d011682016040523d82523d6000602084013e612e9a565b606091505b5050905080612ede576040517f08c379a0000000000000000000000000000000000000000000000000000000008152600401612ed590614e96565b60405180910390fd5b505050565b6001600381905550565b60008054906101000a900473ffffffffffffffffffffffffffffffffffffffff1673ffffffffffffffffffffffffffffffffffffffff163373ffffffffffffffffffffffffffffffffffffffff1614612f7b576040517f08c379a0000000000000000000000000000000000000000000000000000000008152600401612f7290614f02565b60405180910390fd5b565b3373ffffffffffffffffffffffffffffffffffffffff168173ffffffffffffffffffffffffffffffffffffffff1603612feb576040517f08c379a0000000000000000000000000000000000000000000000000000000008152600401612fe290614f6e565b60405180910390fd5b80600160006101000a81548173ffffffffffffffffffffffffffffffffffffffff021916908373ffffffffffffffffffffffffffffffffffffffff1602179055508073ffffffffffffffffffffffffffffffffffffffff1660008054906101000a900473ffffffffffffffffffffffffffffffffffffffff1673ffffffffffffffffffffffffffffffffffffffff167fed8889f560326eb138920d842192f0eb3dd22b4f139c87a2c57538e05bae127860405160405180910390a350565b600080600260009054906101000a900473ffffffffffffffffffffffffffffffffffffffff1673ffffffffffffffffffffffffffffffffffffffff16639b1c385e6040518060c001604052807f787d74caea10b2b357790d5b5247c2f63d1d91572a9846f780606e4d953677ae60001b81526020017f00000000000000000000000000000000000000000000000000000000000000008152602001600361ffff168152602001622625a063ffffffff168152602001600160ff1663ffffffff168152602001613188604051806020016040528060001515815250613363565b8152506040518263ffffffff1660e01b81526004016131a791906150cd565b6020604051808303816000875af11580156131c6573d6000803e3d6000fd5b505050506040513d601f19601f820116820180604052508101906131ea9190615104565b905082601060008381526020019081526020016000208190555080915050919050565b6132156134eb565b61321d61350d565b6132256134eb565b600080856040516020016132399190613c53565b60405160208183030381529060405280519060200120905060005b60058310156133565760208160ff161061329857818160405160200161327b929190615140565b604051602081830303815290604052805190602001209150600090505b60006025838360ff16602081106132b2576132b1614100565b5b1a60f81b60f81c6132c39190615169565b905081806132d090614d49565b9250506000868260ff16602581106132eb576132ea614100565b5b602002015160ff1603613350576001868260ff16602581106133105761330f614100565b5b602002019060ff16908160ff16815250508060ff1685856005811061333857613337614100565b5b602002018181525050838061334c9061485d565b9450505b50613254565b8395505050505050919050565b60607f92fd13387c7fe7befbc38d303d6468778fb9731bc4583f17d92989c6fcfdeaaa8260405160240161339791906151b6565b604051602081830303815290604052907bffffffffffffffffffffffffffffffffffffffffffffffffffffffff19166020820180517bffffffffffffffffffffffffffffffffffffffffffffffffffffffff83818316178352505050509050919050565b60405180610180016040528060008152602001600073ffffffffffffffffffffffffffffffffffffffff1681526020016000815260200161343a6134eb565b81526020016134476134eb565b8152602001600060ff16815260200160008152602001600081526020016000151581526020016000151581526020016000151581526020016000151581525090565b82600581019282156134b8579160200282015b828111156134b757825182559160200191906001019061349c565b5b5090506134c59190613530565b5090565b6040518060a00160405280600590602082028036833780820191505090505090565b6040518060a00160405280600590602082028036833780820191505090505090565b604051806104a00160405280602590602082028036833780820191505090505090565b5b80821115613549576000816000905550600101613531565b5090565b600082825260208201905092915050565b7f496e76616c69642063616c6c0000000000000000000000000000000000000000600082015250565b6000613594600c8361354d565b915061359f8261355e565b602082019050919050565b600060208201905081810360008301526135c381613587565b9050919050565b600081519050919050565b600082825260208201905092915050565b6000819050602082019050919050565b6000819050919050565b613609816135f6565b82525050565b600073ffffffffffffffffffffffffffffffffffffffff82169050919050565b600061363a8261360f565b9050919050565b61364a8161362f565b82525050565b600060059050919050565b600081905092915050565b6000819050919050565b600061367c8383613600565b60208301905092915050565b6000602082019050919050565b61369e81613650565b6136a8818461365b565b92506136b382613666565b8060005b838110156136e45781516136cb8782613670565b96506136d683613688565b9250506001810190506136b7565b505050505050565b600060ff82169050919050565b613702816136ec565b82525050565b60008115159050919050565b61371d81613708565b82525050565b6102808201600082015161373a6000850182613600565b50602082015161374d6020850182613641565b5060408201516137606040850182613600565b5060608201516137736060850182613695565b506080820151613787610100850182613695565b5060a082015161379b6101a08501826136f9565b5060c08201516137af6101c0850182613600565b5060e08201516137c36101e0850182613600565b506101008201516137d8610200850182613714565b506101208201516137ed610220850182613714565b50610140820151613802610240850182613714565b50610160820151613817610260850182613714565b50505050565b60006138298383613723565b6102808301905092915050565b6000602082019050919050565b600061384e826135ca565b61385881856135d5565b9350613863836135e6565b8060005b8381101561389457815161387b888261381d565b975061388683613836565b925050600181019050613867565b5085935050505092915050565b600060208201905081810360008301526138bb8184613843565b905092915050565b6000604051905090565b600080fd5b600080fd5b6138e0816135f6565b81146138eb57600080fd5b50565b6000813590506138fd816138d7565b92915050565b600080fd5b600080fd5b600080fd5b60008083601f84011261392857613927613903565b5b8235905067ffffffffffffffff81111561394557613944613908565b5b6020830191508360208202830111156139615761396061390d565b5b9250929050565b600080600060408486031215613981576139806138cd565b5b600061398f868287016138ee565b935050602084013567ffffffffffffffff8111156139b0576139af6138d2565b5b6139bc86828701613912565b92509250509250925092565b6000602082840312156139de576139dd6138cd565b5b60006139ec848285016138ee565b91505092915050565b61028082016000820151613a0c6000850182613600565b506020820151613a1f6020850182613641565b506040820151613a326040850182613600565b506060820151613a456060850182613695565b506080820151613a59610100850182613695565b5060a0820151613a6d6101a08501826136f9565b5060c0820151613a816101c0850182613600565b5060e0820151613a956101e0850182613600565b50610100820151613aaa610200850182613714565b50610120820151613abf610220850182613714565b50610140820151613ad4610240850182613714565b50610160820151613ae9610260850182613714565b50505050565b600061028082019050613b0560008301846139f5565b92915050565b600063ffffffff82169050919050565b613b2481613b0b565b82525050565b6000602082019050613b3f6000830184613b1b565b92915050565b613b4e816136ec565b82525050565b6000602082019050613b696000830184613b45565b92915050565b613b788161362f565b82525050565b6000602082019050613b936000830184613b6f565b92915050565b613ba2816135f6565b82525050565b613bb181613708565b82525050565b600061014082019050613bcd600083018d613b99565b613bda602083018c613b6f565b613be7604083018b613b99565b613bf4606083018a613b45565b613c016080830189613b99565b613c0e60a0830188613b99565b613c1b60c0830187613ba8565b613c2860e0830186613ba8565b613c36610100830185613ba8565b613c44610120830184613ba8565b9b9a5050505050505050505050565b6000602082019050613c686000830184613b99565b92915050565b600061ffff82169050919050565b613c8581613c6e565b82525050565b6000602082019050613ca06000830184613c7c565b92915050565b613caf8161362f565b8114613cba57600080fd5b50565b600081359050613ccc81613ca6565b92915050565b60008060408385031215613ce957613ce86138cd565b5b6000613cf785828601613cbd565b9250506020613d08858286016138ee565b9150509250929050565b600060208284031215613d2857613d276138cd565b5b6000613d3684828501613cbd565b91505092915050565b6000819050919050565b6000613d64613d5f613d5a8461360f565b613d3f565b61360f565b9050919050565b6000613d7682613d49565b9050919050565b6000613d8882613d6b565b9050919050565b613d9881613d7d565b82525050565b6000602082019050613db36000830184613d8f565b92915050565b613dc2816136ec565b8114613dcd57600080fd5b50565b600081359050613ddf81613db9565b92915050565b600060208284031215613dfb57613dfa6138cd565b5b6000613e0984828501613dd0565b91505092915050565b6000601f19601f8301169050919050565b7f4e487b7100000000000000000000000000000000000000000000000000000000600052604160045260246000fd5b613e5b82613e12565b810181811067ffffffffffffffff82111715613e7a57613e79613e23565b5b80604052505050565b6000613e8d6138c3565b9050613e998282613e52565b919050565b600067ffffffffffffffff821115613eb957613eb8613e23565b5b602082029050919050565b6000613ed7613ed284613e9e565b613e83565b90508060208402830185811115613ef157613ef061390d565b5b835b81811015613f1a5780613f0688826138ee565b845260208401935050602081019050613ef3565b5050509392505050565b600082601f830112613f3957613f38613903565b5b6005613f46848285613ec4565b91505092915050565b60008060c08385031215613f6657613f656138cd565b5b6000613f74858286016138ee565b9250506020613f8585828601613f24565b9150509250929050565b7f4e487b7100000000000000000000000000000000000000000000000000000000600052601160045260246000fd5b6000613fc9826135f6565b9150613fd4836135f6565b9250828202613fe2816135f6565b91508282048414831517613ff957613ff8613f8f565b5b5092915050565b7f4e487b7100000000000000000000000000000000000000000000000000000000600052601260045260246000fd5b600061403a826135f6565b9150614045836135f6565b92508261405557614054614000565b5b828204905092915050565b600061406b826135f6565b9150614076836135f6565b925082820190508082111561408e5761408d613f8f565b5b92915050565b7f4f6e6c7920666f72206f776e6572000000000000000000000000000000000000600082015250565b60006140ca600e8361354d565b91506140d582614094565b602082019050919050565b600060208201905081810360008301526140f9816140bd565b9050919050565b7f4e487b7100000000000000000000000000000000000000000000000000000000600052603260045260246000fd5b60006040820190506141446000830185613b6f565b6141516020830184613b6f565b9392505050565b7f596f7520617265206e6f7420746865207469636b6574206f776e657200000000600082015250565b600061418e601c8361354d565b915061419982614158565b602082019050919050565b600060208201905081810360008301526141bd81614181565b9050919050565b7f4d7573742062652070726f706f736564206f776e657200000000000000000000600082015250565b60006141fa60168361354d565b9150614205826141c4565b602082019050919050565b60006020820190508181036000830152614229816141ed565b9050919050565b7f496e636f72726563742045544820616d6f756e742073656e7400000000000000600082015250565b600061426660198361354d565b915061427182614230565b602082019050919050565b6000602082019050818103600083015261429581614259565b9050919050565b60006060820190506142b16000830186613b6f565b6142be6020830185613b6f565b6142cb6040830184613b6f565b949350505050565b7f4e6f7468696e6720746f20776974686472617700000000000000000000000000600082015250565b600061430960138361354d565b9150614314826142d3565b602082019050919050565b60006020820190508181036000830152614338816142fc565b9050919050565b600081905092915050565b50565b600061435a60008361433f565b91506143658261434a565b600082019050919050565b600061437b8261434d565b9150819050919050565b7f4f776e657242616c616e6365207769746864726177616c206661696c65640000600082015250565b60006143bb601e8361354d565b91506143c682614385565b602082019050919050565b600060208201905081810360008301526143ea816143ae565b9050919050565b7f4f6e6c79207469636b6574206f776e65722063616e20636c61696d0000000000600082015250565b6000614427601b8361354d565b9150614432826143f1565b602082019050919050565b600060208201905081810360008301526144568161441a565b9050919050565b7f5469636b657420646f6573206e6f742065786973740000000000000000000000600082015250565b600061449360158361354d565b915061449e8261445d565b602082019050919050565b600060208201905081810360008301526144c281614486565b9050919050565b7f436f6d62696e6174696f6e206e6f74207375626d697474656400000000000000600082015250565b60006144ff60198361354d565b915061450a826144c9565b602082019050919050565b6000602082019050818103600083015261452e816144f2565b9050919050565b7f57696e6e696e67206e6f742067656e6572617465640000000000000000000000600082015250565b600061456b60158361354d565b915061457682614535565b602082019050919050565b6000602082019050818103600083015261459a8161455e565b9050919050565b7f52657761726420616c726561647920636c61696d656400000000000000000000600082015250565b60006145d760168361354d565b91506145e2826145a1565b602082019050919050565b60006020820190508181036000830152614606816145ca565b9050919050565b7f54616d706572696e672064657465637465640000000000000000000000000000600082015250565b600061464360128361354d565b915061464e8261460d565b602082019050919050565b6000602082019050818103600083015261467281614636565b9050919050565b7f4e6f2072657761726420746f20636c61696d0000000000000000000000000000600082015250565b60006146af60128361354d565b91506146ba82614679565b602082019050919050565b600060208201905081810360008301526146de816146a2565b9050919050565b60006146f0826135f6565b91506146fb836135f6565b925082820390508181111561471357614712613f8f565b5b92915050565b7f4f6e6c79207265616c20706c6179657273210000000000000000000000000000600082015250565b600061474f60128361354d565b915061475a82614719565b602082019050919050565b6000602082019050818103600083015261477e81614742565b9050919050565b7f4d75737420627579206174206c65617374206f6e65207469636b657400000000600082015250565b60006147bb601c8361354d565b91506147c682614785565b602082019050919050565b600060208201905081810360008301526147ea816147ae565b9050919050565b7f496e636f7272656374207472616e73616374696f6e2076616c75652100000000600082015250565b6000614827601c8361354d565b9150614832826147f1565b602082019050919050565b600060208201905081810360008301526148568161481a565b9050919050565b6000614868826135f6565b91507fffffffffffffffffffffffffffffffffffffffffffffffffffffffffffffffff820361489a57614899613f8f565b5b600182019050919050565b7f4a61636b706f74207769746864726177616c206661696c656400000000000000600082015250565b60006148db60198361354d565b91506148e6826148a5565b602082019050919050565b6000602082019050818103600083015261490a816148ce565b9050919050565b7f4f7065726174696f6e7342616c616e6365207769746864726177616c2066616960008201527f6c65640000000000000000000000000000000000000000000000000000000000602082015250565b600061496d60238361354d565b915061497882614911565b604082019050919050565b6000602082019050818103600083015261499c81614960565b9050919050565b7f596f7520617265206e6f7420746865206f776e65720000000000000000000000600082015250565b60006149d960158361354d565b91506149e4826149a3565b602082019050919050565b60006020820190508181036000830152614a08816149cc565b9050919050565b7f416c7265616479207375626d6974746564000000000000000000000000000000600082015250565b6000614a4560118361354d565b9150614a5082614a0f565b602082019050919050565b60006020820190508181036000830152614a7481614a38565b9050919050565b7f4e756d626572206f7574206f662072616e67652028302d333629000000000000600082015250565b6000614ab1601a8361354d565b9150614abc82614a7b565b602082019050919050565b60006020820190508181036000830152614ae081614aa4565b9050919050565b7f4475706c6963617465206e756d62657273206e6f7420616c6c6f776564000000600082015250565b6000614b1d601d8361354d565b9150614b2882614ae7565b602082019050919050565b60006020820190508181036000830152614b4c81614b10565b9050919050565b600081905092915050565b614b6781613650565b614b718184614b53565b9250614b7c82613666565b8060005b83811015614bad578151614b948782613670565b9650614b9f83613688565b925050600181019050614b80565b505050505050565b600060a082019050614bca6000830184614b5e565b92915050565b7f416c726561647920726571756573746564000000000000000000000000000000600082015250565b6000614c0660118361354d565b9150614c1182614bd0565b602082019050919050565b60006020820190508181036000830152614c3581614bf9565b9050919050565b7f416c72656164792067656e657261746564000000000000000000000000000000600082015250565b6000614c7260118361354d565b9150614c7d82614c3c565b602082019050919050565b60006020820190508181036000830152614ca181614c65565b9050919050565b7f5265656e7472616e637947756172643a207265656e7472616e742063616c6c00600082015250565b6000614cde601f8361354d565b9150614ce982614ca8565b602082019050919050565b60006020820190508181036000830152614d0d81614cd1565b9050919050565b6000614d1f826136ec565b9150614d2a836136ec565b9250828201905060ff811115614d4357614d42613f8f565b5b92915050565b6000614d54826136ec565b915060ff8203614d6757614d66613f8f565b5b600182019050919050565b7f556e6578706563746564206d61746368696e67206e756d62657220636f756e74600082015250565b6000614da860208361354d565b9150614db382614d72565b602082019050919050565b60006020820190508181036000830152614dd781614d9b565b9050919050565b7f4e6f2072657761726420746f2073656e64000000000000000000000000000000600082015250565b6000614e1460118361354d565b9150614e1f82614dde565b602082019050919050565b60006020820190508181036000830152614e4381614e07565b9050919050565b7f526577617264207472616e73666572206661696c656400000000000000000000600082015250565b6000614e8060168361354d565b9150614e8b82614e4a565b602082019050919050565b60006020820190508181036000830152614eaf81614e73565b9050919050565b7f4f6e6c792063616c6c61626c65206279206f776e657200000000000000000000600082015250565b6000614eec60168361354d565b9150614ef782614eb6565b602082019050919050565b60006020820190508181036000830152614f1b81614edf565b9050919050565b7f43616e6e6f74207472616e7366657220746f2073656c66000000000000000000600082015250565b6000614f5860178361354d565b9150614f6382614f22565b602082019050919050565b60006020820190508181036000830152614f8781614f4b565b9050919050565b6000819050919050565b614fa181614f8e565b82525050565b614fb081613c6e565b82525050565b614fbf81613b0b565b82525050565b600081519050919050565b600082825260208201905092915050565b60005b83811015614fff578082015181840152602081019050614fe4565b60008484015250505050565b600061501682614fc5565b6150208185614fd0565b9350615030818560208601614fe1565b61503981613e12565b840191505092915050565b600060c08301600083015161505c6000860182614f98565b50602083015161506f6020860182613600565b5060408301516150826040860182614fa7565b5060608301516150956060860182614fb6565b5060808301516150a86080860182614fb6565b5060a083015184820360a08601526150c0828261500b565b9150508091505092915050565b600060208201905081810360008301526150e78184615044565b905092915050565b6000815190506150fe816138d7565b92915050565b60006020828403121561511a576151196138cd565b5b6000615128848285016150ef565b91505092915050565b61513a81614f8e565b82525050565b60006040820190506151556000830185615131565b6151626020830184613b45565b9392505050565b6000615174826136ec565b915061517f836136ec565b92508261518f5761518e614000565b5b828206905092915050565b6020820160008201516151b06000850182613714565b50505050565b60006020820190506151cb600083018461519a565b9291505056fea2646970667358221220a356acb3cb05598ec4363b5f43096d7a3c335e12024f1331850ff53ec8c6f42d64736f6c634300081c0033",
  "linkReferences": {},
  "deployedLinkReferences": {}
}