{
  "_format": "hh-sol-artifact-1",
  "contractName": "Lottery",
  "sourceName": "contracts/Lottery.sol",
  "abi": [
    {
      "inputs": [
        {
          "internalType": "uint256",
          "name": "_subscriptionId",
          "type": "uint256"
        }
      ],
      "stateMutability": "nonpayable",
      "type": "constructor"
    },
    {
      "inputs": [
        {
          "internalType": "address",
          "name": "have",
          "type": "address"
        },
        {
          "internalType": "address",
          "name": "want",
          "type": "address"
        }
      ],
      "name": "OnlyCoordinatorCanFulfill",
      "type": "error"
    },
    {
      "inputs": [
        {
          "internalType": "address",
          "name": "have",
          "type": "address"
        },
        {
          "internalType": "address",
          "name": "owner",
          "type": "address"
        },
        {
          "internalType": "address",
          "name": "coordinator",
          "type": "address"
        }
      ],
      "name": "OnlyOwnerOrCoordinator",
      "type": "error"
    },
    {
      "inputs": [],
      "name": "ZeroAddress",
      "type": "error"
    },
    {
      "anonymous": false,
      "inputs": [
        {
          "indexed": false,
          "internalType": "address",
          "name": "vrfCoordinator",
          "type": "address"
        }
      ],
      "name": "CoordinatorSet",
      "type": "event"
    },
    {
      "anonymous": false,
      "inputs": [
        {
          "indexed": true,
          "internalType": "address",
          "name": "owner",
          "type": "address"
        },
        {
          "indexed": true,
          "internalType": "uint256",
          "name": "amount",
          "type": "uint256"
        }
      ],
      "name": "Distribute",
      "type": "event"
    },
    {
      "anonymous": false,
      "inputs": [
        {
          "indexed": true,
          "internalType": "address",
          "name": "sender",
          "type": "address"
        },
        {
          "indexed": true,
          "internalType": "uint256",
          "name": "amount",
          "type": "uint256"
        }
      ],
      "name": "FundJackpot",
      "type": "event"
    },
    {
      "anonymous": false,
      "inputs": [
        {
          "indexed": true,
          "internalType": "address",
          "name": "owner",
          "type": "address"
        },
        {
          "indexed": true,
          "internalType": "uint256",
          "name": "amount",
          "type": "uint256"
        }
      ],
      "name": "JackpotWithdraw",
      "type": "event"
    },
    {
      "anonymous": false,
      "inputs": [
        {
          "indexed": true,
          "internalType": "address",
          "name": "owner",
          "type": "address"
        },
        {
          "indexed": true,
          "internalType": "uint256",
          "name": "ticketNumber",
          "type": "uint256"
        },
        {
          "indexed": false,
          "internalType": "uint256[5]",
          "name": "playerCombination",
          "type": "uint256[5]"
        },
        {
          "indexed": false,
          "internalType": "uint256[5]",
          "name": "winningCombination",
          "type": "uint256[5]"
        },
        {
          "indexed": false,
          "internalType": "uint8",
          "name": "matchingNumbers",
          "type": "uint8"
        },
        {
          "indexed": true,
          "internalType": "uint256",
          "name": "rewardAmount",
          "type": "uint256"
        }
      ],
      "name": "LotteryResults",
      "type": "event"
    },
    {
      "anonymous": false,
      "inputs": [
        {
          "indexed": true,
          "internalType": "address",
          "name": "owner",
          "type": "address"
        },
        {
          "indexed": true,
          "internalType": "uint256",
          "name": "amount",
          "type": "uint256"
        }
      ],
      "name": "OperationsBalanceWithdraw",
      "type": "event"
    },
    {
      "anonymous": false,
      "inputs": [
        {
          "indexed": true,
          "internalType": "address",
          "name": "owner",
          "type": "address"
        },
        {
          "indexed": true,
          "internalType": "uint256",
          "name": "amount",
          "type": "uint256"
        }
      ],
      "name": "OwnerBalanceWithdraw",
      "type": "event"
    },
    {
      "anonymous": false,
      "inputs": [
        {
          "indexed": true,
          "internalType": "address",
          "name": "from",
          "type": "address"
        },
        {
          "indexed": true,
          "internalType": "address",
          "name": "to",
          "type": "address"
        }
      ],
      "name": "OwnershipTransferRequested",
      "type": "event"
    },
    {
      "anonymous": false,
      "inputs": [
        {
          "indexed": true,
          "internalType": "address",
          "name": "from",
          "type": "address"
        },
        {
          "indexed": true,
          "internalType": "address",
          "name": "to",
          "type": "address"
        }
      ],
      "name": "OwnershipTransferred",
      "type": "event"
    },
    {
      "anonymous": false,
      "inputs": [
        {
          "indexed": true,
          "internalType": "address",
          "name": "player",
          "type": "address"
        },
        {
          "indexed": false,
          "internalType": "uint256[5]",
          "name": "combination",
          "type": "uint256[5]"
        }
      ],
      "name": "PlayerCombinationSubmitted",
      "type": "event"
    },
    {
      "anonymous": false,
      "inputs": [
        {
          "indexed": true,
          "internalType": "uint256",
          "name": "requestId",
          "type": "uint256"
        },
        {
          "indexed": true,
          "internalType": "uint256",
          "name": "ticketNumber",
          "type": "uint256"
        },
        {
          "indexed": false,
          "internalType": "uint256",
          "name": "number",
          "type": "uint256"
        }
      ],
      "name": "RandomNumberGenerated",
      "type": "event"
    },
    {
      "anonymous": false,
      "inputs": [
        {
          "indexed": true,
          "internalType": "address",
          "name": "player",
          "type": "address"
        },
        {
          "indexed": true,
          "internalType": "uint256",
          "name": "ticketId",
          "type": "uint256"
        },
        {
          "indexed": true,
          "internalType": "uint256",
          "name": "amount",
          "type": "uint256"
        }
      ],
      "name": "RewardClaimed",
      "type": "event"
    },
    {
      "anonymous": false,
      "inputs": [
        {
          "indexed": true,
          "internalType": "address",
          "name": "player",
          "type": "address"
        },
        {
          "indexed": true,
          "internalType": "uint256",
          "name": "ticketNumber",
          "type": "uint256"
        }
      ],
      "name": "TicketPurchased",
      "type": "event"
    },
    {
      "stateMutability": "payable",
      "type": "fallback"
    },
    {
      "inputs": [],
      "name": "CALLBACK_GAS_LIMIT",
      "outputs": [
        {
          "internalType": "uint32",
          "name": "",
          "type": "uint32"
        }
      ],
      "stateMutability": "view",
      "type": "function"
    },
    {
      "inputs": [],
      "name": "NUMBER_OF_WORDS",
      "outputs": [
        {
          "internalType": "uint8",
          "name": "",
          "type": "uint8"
        }
      ],
      "stateMutability": "view",
      "type": "function"
    },
    {
      "inputs": [],
      "name": "NUMBER_RANGE",
      "outputs": [
        {
          "internalType": "uint8",
          "name": "",
          "type": "uint8"
        }
      ],
      "stateMutability": "view",
      "type": "function"
    },
    {
      "inputs": [],
      "name": "REQUEST_CONFIRMATIONS",
      "outputs": [
        {
          "internalType": "uint16",
          "name": "",
          "type": "uint16"
        }
      ],
      "stateMutability": "view",
      "type": "function"
    },
    {
      "inputs": [],
      "name": "TICKET_PRICE_WEI",
      "outputs": [
        {
          "internalType": "uint256",
          "name": "",
          "type": "uint256"
        }
      ],
      "stateMutability": "view",
      "type": "function"
    },
    {
      "inputs": [],
      "name": "acceptOwnership",
      "outputs": [],
      "stateMutability": "nonpayable",
      "type": "function"
    },
    {
      "inputs": [
        {
          "internalType": "uint256",
          "name": "",
          "type": "uint256"
        }
      ],
      "name": "allTicketIds",
      "outputs": [
        {
          "internalType": "uint256",
          "name": "",
          "type": "uint256"
        }
      ],
      "stateMutability": "view",
      "type": "function"
    },
    {
      "inputs": [],
      "name": "buyTicket",
      "outputs": [
        {
          "components": [
            {
              "internalType": "uint256",
              "name": "id",
              "type": "uint256"
            },
            {
              "internalType": "address",
              "name": "owner",
              "type": "address"
            },
            {
              "internalType": "uint256",
              "name": "purchaseTimestamp",
              "type": "uint256"
            },
            {
              "internalType": "uint256[5]",
              "name": "playerCombination",
              "type": "uint256[5]"
            },
            {
              "internalType": "uint256[5]",
              "name": "winningCombination",
              "type": "uint256[5]"
            },
            {
              "internalType": "uint8",
              "name": "matchingNumbers",
              "type": "uint8"
            },
            {
              "internalType": "uint256",
              "name": "potentialReward",
              "type": "uint256"
            },
            {
              "internalType": "uint256",
              "name": "actualReward",
              "type": "uint256"
            },
            {
              "internalType": "bool",
              "name": "isRewardClaimed",
              "type": "bool"
            },
            {
              "internalType": "bool",
              "name": "playerCombinationSubmitted",
              "type": "bool"
            },
            {
              "internalType": "bool",
              "name": "winningCombinationGenerated",
              "type": "bool"
            },
            {
              "internalType": "bool",
              "name": "randomNumberRequested",
              "type": "bool"
            }
          ],
          "internalType": "struct Lottery.LotteryTicket",
          "name": "",
          "type": "tuple"
        }
      ],
      "stateMutability": "payable",
      "type": "function"
    },
    {
      "inputs": [
        {
          "internalType": "uint256",
          "name": "ticketId",
          "type": "uint256"
        }
      ],
      "name": "claimReward",
      "outputs": [],
      "stateMutability": "nonpayable",
      "type": "function"
    },
    {
      "inputs": [
        {
          "internalType": "uint256",
          "name": "amount",
          "type": "uint256"
        }
      ],
      "name": "fundJackpot",
      "outputs": [],
      "stateMutability": "nonpayable",
      "type": "function"
    },
    {
      "inputs": [],
      "name": "getAllTickets",
      "outputs": [
        {
          "components": [
            {
              "internalType": "uint256",
              "name": "id",
              "type": "uint256"
            },
            {
              "internalType": "address",
              "name": "owner",
              "type": "address"
            },
            {
              "internalType": "uint256",
              "name": "purchaseTimestamp",
              "type": "uint256"
            },
            {
              "internalType": "uint256[5]",
              "name": "playerCombination",
              "type": "uint256[5]"
            },
            {
              "internalType": "uint256[5]",
              "name": "winningCombination",
              "type": "uint256[5]"
            },
            {
              "internalType": "uint8",
              "name": "matchingNumbers",
              "type": "uint8"
            },
            {
              "internalType": "uint256",
              "name": "potentialReward",
              "type": "uint256"
            },
            {
              "internalType": "uint256",
              "name": "actualReward",
              "type": "uint256"
            },
            {
              "internalType": "bool",
              "name": "isRewardClaimed",
              "type": "bool"
            },
            {
              "internalType": "bool",
              "name": "playerCombinationSubmitted",
              "type": "bool"
            },
            {
              "internalType": "bool",
              "name": "winningCombinationGenerated",
              "type": "bool"
            },
            {
              "internalType": "bool",
              "name": "randomNumberRequested",
              "type": "bool"
            }
          ],
          "internalType": "struct Lottery.LotteryTicket[]",
          "name": "",
          "type": "tuple[]"
        }
      ],
      "stateMutability": "view",
      "type": "function"
    },
    {
      "inputs": [],
      "name": "getContractOwner",
      "outputs": [
        {
          "internalType": "address",
          "name": "",
          "type": "address"
        }
      ],
      "stateMutability": "view",
      "type": "function"
    },
    {
      "inputs": [],
      "name": "getJackpot",
      "outputs": [
        {
          "internalType": "uint256",
          "name": "",
          "type": "uint256"
        }
      ],
      "stateMutability": "view",
      "type": "function"
    },
    {
      "inputs": [],
      "name": "getPlayerTickets",
      "outputs": [
        {
          "components": [
            {
              "internalType": "uint256",
              "name": "id",
              "type": "uint256"
            },
            {
              "internalType": "address",
              "name": "owner",
              "type": "address"
            },
            {
              "internalType": "uint256",
              "name": "purchaseTimestamp",
              "type": "uint256"
            },
            {
              "internalType": "uint256[5]",
              "name": "playerCombination",
              "type": "uint256[5]"
            },
            {
              "internalType": "uint256[5]",
              "name": "winningCombination",
              "type": "uint256[5]"
            },
            {
              "internalType": "uint8",
              "name": "matchingNumbers",
              "type": "uint8"
            },
            {
              "internalType": "uint256",
              "name": "potentialReward",
              "type": "uint256"
            },
            {
              "internalType": "uint256",
              "name": "actualReward",
              "type": "uint256"
            },
            {
              "internalType": "bool",
              "name": "isRewardClaimed",
              "type": "bool"
            },
            {
              "internalType": "bool",
              "name": "playerCombinationSubmitted",
              "type": "bool"
            },
            {
              "internalType": "bool",
              "name": "winningCombinationGenerated",
              "type": "bool"
            },
            {
              "internalType": "bool",
              "name": "randomNumberRequested",
              "type": "bool"
            }
          ],
          "internalType": "struct Lottery.LotteryTicket[]",
          "name": "",
          "type": "tuple[]"
        }
      ],
      "stateMutability": "view",
      "type": "function"
    },
    {
      "inputs": [
        {
          "internalType": "uint256",
          "name": "ticketId",
          "type": "uint256"
        }
      ],
      "name": "getTicketById",
      "outputs": [
        {
          "components": [
            {
              "internalType": "uint256",
              "name": "id",
              "type": "uint256"
            },
            {
              "internalType": "address",
              "name": "owner",
              "type": "address"
            },
            {
              "internalType": "uint256",
              "name": "purchaseTimestamp",
              "type": "uint256"
            },
            {
              "internalType": "uint256[5]",
              "name": "playerCombination",
              "type": "uint256[5]"
            },
            {
              "internalType": "uint256[5]",
              "name": "winningCombination",
              "type": "uint256[5]"
            },
            {
              "internalType": "uint8",
              "name": "matchingNumbers",
              "type": "uint8"
            },
            {
              "internalType": "uint256",
              "name": "potentialReward",
              "type": "uint256"
            },
            {
              "internalType": "uint256",
              "name": "actualReward",
              "type": "uint256"
            },
            {
              "internalType": "bool",
              "name": "isRewardClaimed",
              "type": "bool"
            },
            {
              "internalType": "bool",
              "name": "playerCombinationSubmitted",
              "type": "bool"
            },
            {
              "internalType": "bool",
              "name": "winningCombinationGenerated",
              "type": "bool"
            },
            {
              "internalType": "bool",
              "name": "randomNumberRequested",
              "type": "bool"
            }
          ],
          "internalType": "struct Lottery.LotteryTicket",
          "name": "",
          "type": "tuple"
        }
      ],
      "stateMutability": "view",
      "type": "function"
    },
    {
      "inputs": [],
      "name": "jackpot",
      "outputs": [
        {
          "internalType": "uint256",
          "name": "",
          "type": "uint256"
        }
      ],
      "stateMutability": "view",
      "type": "function"
    },
    {
      "inputs": [],
      "name": "nextTicketId",
      "outputs": [
        {
          "internalType": "uint256",
          "name": "",
          "type": "uint256"
        }
      ],
      "stateMutability": "view",
      "type": "function"
    },
    {
      "inputs": [],
      "name": "owner",
      "outputs": [
        {
          "internalType": "address",
          "name": "",
          "type": "address"
        }
      ],
      "stateMutability": "view",
      "type": "function"
    },
    {
      "inputs": [
        {
          "internalType": "address",
          "name": "",
          "type": "address"
        },
        {
          "internalType": "uint256",
          "name": "",
          "type": "uint256"
        }
      ],
      "name": "playerTicketIds",
      "outputs": [
        {
          "internalType": "uint256",
          "name": "",
          "type": "uint256"
        }
      ],
      "stateMutability": "view",
      "type": "function"
    },
    {
      "inputs": [
        {
          "internalType": "uint256",
          "name": "requestId",
          "type": "uint256"
        },
        {
          "internalType": "uint256[]",
          "name": "randomWords",
          "type": "uint256[]"
        }
      ],
      "name": "rawFulfillRandomWords",
      "outputs": [],
      "stateMutability": "nonpayable",
      "type": "function"
    },
    {
      "inputs": [
        {
          "internalType": "uint256",
          "name": "",
          "type": "uint256"
        }
      ],
      "name": "requestIdToTicketId",
      "outputs": [
        {
          "internalType": "uint256",
          "name": "",
          "type": "uint256"
        }
      ],
      "stateMutability": "view",
      "type": "function"
    },
    {
      "inputs": [],
      "name": "s_vrfCoordinator",
      "outputs": [
        {
          "internalType": "contract IVRFCoordinatorV2Plus",
          "name": "",
          "type": "address"
        }
      ],
      "stateMutability": "view",
      "type": "function"
    },
    {
      "inputs": [
        {
          "internalType": "address",
          "name": "_vrfCoordinator",
          "type": "address"
        }
      ],
      "name": "setCoordinator",
      "outputs": [],
      "stateMutability": "nonpayable",
      "type": "function"
    },
    {
      "inputs": [
        {
          "internalType": "uint256",
          "name": "ticketId",
          "type": "uint256"
        },
        {
          "internalType": "uint256[5]",
          "name": "playerCombination",
          "type": "uint256[5]"
        }
      ],
      "name": "submitCombination",
      "outputs": [],
      "stateMutability": "nonpayable",
      "type": "function"
    },
    {
      "inputs": [
        {
          "internalType": "uint256",
          "name": "",
          "type": "uint256"
        }
      ],
      "name": "tickets",
      "outputs": [
        {
          "internalType": "uint256",
          "name": "id",
          "type": "uint256"
        },
        {
          "internalType": "address",
          "name": "owner",
          "type": "address"
        },
        {
          "internalType": "uint256",
          "name": "purchaseTimestamp",
          "type": "uint256"
        },
        {
          "internalType": "uint8",
          "name": "matchingNumbers",
          "type": "uint8"
        },
        {
          "internalType": "uint256",
          "name": "potentialReward",
          "type": "uint256"
        },
        {
          "internalType": "uint256",
          "name": "actualReward",
          "type": "uint256"
        },
        {
          "internalType": "bool",
          "name": "isRewardClaimed",
          "type": "bool"
        },
        {
          "internalType": "bool",
          "name": "playerCombinationSubmitted",
          "type": "bool"
        },
        {
          "internalType": "bool",
          "name": "winningCombinationGenerated",
          "type": "bool"
        },
        {
          "internalType": "bool",
          "name": "randomNumberRequested",
          "type": "bool"
        }
      ],
      "stateMutability": "view",
      "type": "function"
    },
    {
      "inputs": [
        {
          "internalType": "address",
          "name": "to",
          "type": "address"
        }
      ],
      "name": "transferOwnership",
      "outputs": [],
      "stateMutability": "nonpayable",
      "type": "function"
    },
    {
      "inputs": [],
      "name": "withdrawJackpot",
      "outputs": [],
      "stateMutability": "nonpayable",
      "type": "function"
    },
    {
      "inputs": [],
      "name": "withdrawOperationsBalance",
      "outputs": [],
      "stateMutability": "nonpayable",
      "type": "function"
    },
    {
      "inputs": [],
      "name": "withdrawOwnerBalance",
      "outputs": [],
      "stateMutability": "nonpayable",
      "type": "function"
    },
    {
      "stateMutability": "payable",
      "type": "receive"
    }
  ],
  "bytecode": "0x60c060405234801561001057600080fd5b5060405161545738038061545783398181016040528101906100329190610399565b739ddfaca8183c41ad55329bdeed9f6a8d53168b1b338060008073ffffffffffffffffffffffffffffffffffffffff168273ffffffffffffffffffffffffffffffffffffffff16036100b9576040517f08c379a00000000000000000000000000000000000000000000000000000000081526004016100b090610423565b60405180910390fd5b816000806101000a81548173ffffffffffffffffffffffffffffffffffffffff021916908373ffffffffffffffffffffffffffffffffffffffff160217905550600073ffffffffffffffffffffffffffffffffffffffff168173ffffffffffffffffffffffffffffffffffffffff161461013d5761013c8161023260201b60201c565b5b505050600073ffffffffffffffffffffffffffffffffffffffff168173ffffffffffffffffffffffffffffffffffffffff16036101a6576040517fd92e233d00000000000000000000000000000000000000000000000000000000815260040160405180910390fd5b80600260006101000a81548173ffffffffffffffffffffffffffffffffffffffff021916908373ffffffffffffffffffffffffffffffffffffffff1602179055505060016003819055503373ffffffffffffffffffffffffffffffffffffffff1660808173ffffffffffffffffffffffffffffffffffffffff16815250508060a08181525050506104af565b3373ffffffffffffffffffffffffffffffffffffffff168173ffffffffffffffffffffffffffffffffffffffff16036102a0576040517f08c379a00000000000000000000000000000000000000000000000000000000081526004016102979061048f565b60405180910390fd5b80600160006101000a81548173ffffffffffffffffffffffffffffffffffffffff021916908373ffffffffffffffffffffffffffffffffffffffff1602179055508073ffffffffffffffffffffffffffffffffffffffff1660008054906101000a900473ffffffffffffffffffffffffffffffffffffffff1673ffffffffffffffffffffffffffffffffffffffff167fed8889f560326eb138920d842192f0eb3dd22b4f139c87a2c57538e05bae127860405160405180910390a350565b600080fd5b6000819050919050565b61037681610363565b811461038157600080fd5b50565b6000815190506103938161036d565b92915050565b6000602082840312156103af576103ae61035e565b5b60006103bd84828501610384565b91505092915050565b600082825260208201905092915050565b7f43616e6e6f7420736574206f776e657220746f207a65726f0000000000000000600082015250565b600061040d6018836103c6565b9150610418826103d7565b602082019050919050565b6000602082019050818103600083015261043c81610400565b9050919050565b7f43616e6e6f74207472616e7366657220746f2073656c66000000000000000000600082015250565b60006104796017836103c6565b915061048482610443565b602082019050919050565b600060208201905081810360008301526104a88161046c565b9050919050565b60805160a051614f3d61051a6000396000612f870152600081816107c801528181610dd0015281816115ed015281816116d10152818161179c01528181611ca501528181611d8901528181611e54015281816123310152818161241501526124e00152614f3d6000f3fe6080604052600436106101c65760003560e01c80638da5cb5b116100f7578063c0b3870a11610095578063f163915a11610064578063f163915a14610656578063f2fde38b14610681578063f403251d146106aa578063f926c5d8146106c1576101d6565b8063c0b3870a146105a7578063c3e9bf00146105be578063d6296f75146105fb578063edca914c14610638576101d6565b8063941b80ac116100d1578063941b80ac1461051157806395e888c4146105285780639eccacf614610553578063ae169a501461057e576101d6565b80638da5cb5b146104925780638ea98117146104bd5780639329066c146104e6576101d6565b80636031a52f1161016457806379ba50971161013e57806379ba5097146103ea5780638571c4411461040157806385c9d6731461042a578063864c407c14610455576101d6565b80636031a52f1461036957806367f082b0146103945780636b31ee01146103bf576101d6565b806333d608f1116101a057806333d608f1146102a25780633aac0fa9146102cd578063442890d5146102f857806350b4471214610323576101d6565b806303e96fe3146102115780631fe543e31461023c57806327b7aabc14610265576101d6565b366101d6576101d4346106ea565b005b6040517f08c379a000000000000000000000000000000000000000000000000000000000815260040161020890613411565b60405180910390fd5b34801561021d57600080fd5b506102266107c4565b6040516102339190613708565b60405180910390f35b34801561024857600080fd5b50610263600480360381019061025e91906137cf565b610ac3565b005b34801561027157600080fd5b5061028c6004803603810190610287919061382f565b610b89565b6040516102999190613956565b60405180910390f35b3480156102ae57600080fd5b506102b7610dc0565b6040516102c49190613991565b60405180910390f35b3480156102d957600080fd5b506102e2610dc7565b6040516102ef91906139bb565b60405180910390f35b34801561030457600080fd5b5061030d610dcc565b60405161031a91906139e5565b60405180910390f35b34801561032f57600080fd5b5061034a6004803603810190610345919061382f565b610df4565b6040516103609a99989796959493929190613a1e565b60405180910390f35b34801561037557600080fd5b5061037e610ea9565b60405161038b9190613aba565b60405180910390f35b3480156103a057600080fd5b506103a9610eaf565b6040516103b69190613af2565b60405180910390f35b3480156103cb57600080fd5b506103d4610eb4565b6040516103e19190613aba565b60405180910390f35b3480156103f657600080fd5b506103ff610eba565b005b34801561040d57600080fd5b506104286004803603810190610423919061382f565b61104f565b005b34801561043657600080fd5b5061043f6110af565b60405161044c9190613708565b60405180910390f35b34801561046157600080fd5b5061047c60048036038101906104779190613b39565b6113a6565b6040516104899190613aba565b60405180910390f35b34801561049e57600080fd5b506104a76113d7565b6040516104b491906139e5565b60405180910390f35b3480156104c957600080fd5b506104e460048036038101906104df9190613b79565b611400565b005b3480156104f257600080fd5b506104fb6115e1565b6040516105089190613aba565b60405180910390f35b34801561051d57600080fd5b506105266115eb565b005b34801561053457600080fd5b5061053d611801565b60405161054a91906139bb565b60405180910390f35b34801561055f57600080fd5b50610568611806565b6040516105759190613c05565b60405180910390f35b34801561058a57600080fd5b506105a560048036038101906105a0919061382f565b61182c565b005b3480156105b357600080fd5b506105bc611ca3565b005b3480156105ca57600080fd5b506105e560048036038101906105e0919061382f565b611eb9565b6040516105f29190613aba565b60405180910390f35b34801561060757600080fd5b50610622600480360381019061061d919061382f565b611ed1565b60405161062f9190613aba565b60405180910390f35b610640611ef5565b60405161064d9190613956565b60405180910390f35b34801561066257600080fd5b5061066b612310565b6040516106789190613aba565b60405180910390f35b34801561068d57600080fd5b506106a860048036038101906106a39190613b79565b61231b565b005b3480156106b657600080fd5b506106bf61232f565b005b3480156106cd57600080fd5b506106e860048036038101906106e39190613d5d565b612545565b005b6064605a826106f99190613dcc565b6107039190613e3d565b600460008282546107149190613e6e565b92505081905550606460058261072a9190613dcc565b6107349190613e3d565b600560008282546107459190613e6e565b92505081905550606460058261075b9190613dcc565b6107659190613e3d565b600660008282546107769190613e6e565b92505081905550803373ffffffffffffffffffffffffffffffffffffffff167fc1d32ad5cca423e7dda2123dbf8c482f8e77d00b631c06e903a47f2cec1334df60405160405180910390a350565b60607f000000000000000000000000000000000000000000000000000000000000000073ffffffffffffffffffffffffffffffffffffffff163373ffffffffffffffffffffffffffffffffffffffff1614610854576040517f08c379a000000000000000000000000000000000000000000000000000000000815260040161084b90613eee565b60405180910390fd5b6000600880549050905060008167ffffffffffffffff81111561087a57610879613c31565b5b6040519080825280602002602001820160405280156108b357816020015b6108a0613262565b8152602001906001900390816108985790505b50905060005b82811015610aba57600f6000600883815481106108d9576108d8613f0e565b5b9060005260206000200154815260200190815260200160002060405180610180016040529081600082015481526020016001820160009054906101000a900473ffffffffffffffffffffffffffffffffffffffff1673ffffffffffffffffffffffffffffffffffffffff1673ffffffffffffffffffffffffffffffffffffffff16815260200160028201548152602001600382016005806020026040519081016040528092919082600580156109a4576020028201915b815481526020019060010190808311610990575b50505050508152602001600882016005806020026040519081016040528092919082600580156109e9576020028201915b8154815260200190600101908083116109d5575b50505050508152602001600d820160009054906101000a900460ff1660ff1660ff168152602001600e8201548152602001600f82015481526020016010820160009054906101000a900460ff161515151581526020016010820160019054906101000a900460ff161515151581526020016010820160029054906101000a900460ff161515151581526020016010820160039054906101000a900460ff161515151581525050828281518110610aa257610aa1613f0e565b5b602002602001018190525080806001019150506108b9565b50809250505090565b600260009054906101000a900473ffffffffffffffffffffffffffffffffffffffff1673ffffffffffffffffffffffffffffffffffffffff163373ffffffffffffffffffffffffffffffffffffffff1614610b795733600260009054906101000a900473ffffffffffffffffffffffffffffffffffffffff166040517f1cf993f4000000000000000000000000000000000000000000000000000000008152600401610b70929190613f3d565b60405180910390fd5b610b8483838361286f565b505050565b610b91613262565b6000600f600084815260200190815260200160002060405180610180016040529081600082015481526020016001820160009054906101000a900473ffffffffffffffffffffffffffffffffffffffff1673ffffffffffffffffffffffffffffffffffffffff1673ffffffffffffffffffffffffffffffffffffffff1681526020016002820154815260200160038201600580602002604051908101604052809291908260058015610c58576020028201915b815481526020019060010190808311610c44575b5050505050815260200160088201600580602002604051908101604052809291908260058015610c9d576020028201915b815481526020019060010190808311610c89575b50505050508152602001600d820160009054906101000a900460ff1660ff1660ff168152602001600e8201548152602001600f82015481526020016010820160009054906101000a900460ff161515151581526020016010820160019054906101000a900460ff161515151581526020016010820160029054906101000a900460ff161515151581526020016010820160039054906101000a900460ff16151515158152505090503373ffffffffffffffffffffffffffffffffffffffff16816020015173ffffffffffffffffffffffffffffffffffffffff1614610db7576040517f08c379a0000000000000000000000000000000000000000000000000000000008152600401610dae90613fb2565b60405180910390fd5b80915050919050565b622625a081565b602581565b60007f0000000000000000000000000000000000000000000000000000000000000000905090565b600f6020528060005260406000206000915090508060000154908060010160009054906101000a900473ffffffffffffffffffffffffffffffffffffffff169080600201549080600d0160009054906101000a900460ff169080600e01549080600f0154908060100160009054906101000a900460ff16908060100160019054906101000a900460ff16908060100160029054906101000a900460ff16908060100160039054906101000a900460ff1690508a565b60075481565b600381565b60045481565b600160009054906101000a900473ffffffffffffffffffffffffffffffffffffffff1673ffffffffffffffffffffffffffffffffffffffff163373ffffffffffffffffffffffffffffffffffffffff1614610f4a576040517f08c379a0000000000000000000000000000000000000000000000000000000008152600401610f419061401e565b60405180910390fd5b60008060009054906101000a900473ffffffffffffffffffffffffffffffffffffffff169050336000806101000a81548173ffffffffffffffffffffffffffffffffffffffff021916908373ffffffffffffffffffffffffffffffffffffffff1602179055506000600160006101000a81548173ffffffffffffffffffffffffffffffffffffffff021916908373ffffffffffffffffffffffffffffffffffffffff1602179055503373ffffffffffffffffffffffffffffffffffffffff168173ffffffffffffffffffffffffffffffffffffffff167f8be0079c531659141344cd1fd0a4f28419497f9722a3daafe3b4186f6b6457e060405160405180910390a350565b80600460008282546110619190613e6e565b92505081905550803373ffffffffffffffffffffffffffffffffffffffff167f670e95b8055d07efacb517c9eaf38144c6d3095de67c4aae5598c7679d71628760405160405180910390a350565b60606000600e60003373ffffffffffffffffffffffffffffffffffffffff1673ffffffffffffffffffffffffffffffffffffffff16815260200190815260200160002080548060200260200160405190810160405280929190818152602001828054801561113c57602002820191906000526020600020905b815481526020019060010190808311611128575b505050505090506000815167ffffffffffffffff8111156111605761115f613c31565b5b60405190808252806020026020018201604052801561119957816020015b611186613262565b81526020019060019003908161117e5790505b50905060005b825181101561139d57600f60008483815181106111bf576111be613f0e565b5b6020026020010151815260200190815260200160002060405180610180016040529081600082015481526020016001820160009054906101000a900473ffffffffffffffffffffffffffffffffffffffff1673ffffffffffffffffffffffffffffffffffffffff1673ffffffffffffffffffffffffffffffffffffffff1681526020016002820154815260200160038201600580602002604051908101604052809291908260058015611287576020028201915b815481526020019060010190808311611273575b50505050508152602001600882016005806020026040519081016040528092919082600580156112cc576020028201915b8154815260200190600101908083116112b8575b50505050508152602001600d820160009054906101000a900460ff1660ff1660ff168152602001600e8201548152602001600f82015481526020016010820160009054906101000a900460ff161515151581526020016010820160019054906101000a900460ff161515151581526020016010820160029054906101000a900460ff161515151581526020016010820160039054906101000a900460ff16151515158152505082828151811061138557611384613f0e565b5b6020026020010181905250808060010191505061119f565b50809250505090565b600e60205281600052604060002081815481106113c257600080fd5b90600052602060002001600091509150505481565b60008060009054906101000a900473ffffffffffffffffffffffffffffffffffffffff16905090565b6114086113d7565b73ffffffffffffffffffffffffffffffffffffffff163373ffffffffffffffffffffffffffffffffffffffff16141580156114915750600260009054906101000a900473ffffffffffffffffffffffffffffffffffffffff1673ffffffffffffffffffffffffffffffffffffffff163373ffffffffffffffffffffffffffffffffffffffff1614155b15611500573361149f6113d7565b600260009054906101000a900473ffffffffffffffffffffffffffffffffffffffff166040517f061db9c10000000000000000000000000000000000000000000000000000000081526004016114f79392919061403e565b60405180910390fd5b600073ffffffffffffffffffffffffffffffffffffffff168173ffffffffffffffffffffffffffffffffffffffff1603611566576040517fd92e233d00000000000000000000000000000000000000000000000000000000815260040160405180910390fd5b80600260006101000a81548173ffffffffffffffffffffffffffffffffffffffff021916908373ffffffffffffffffffffffffffffffffffffffff1602179055507fd1a6a14209a385a964d036e404cb5cfb71f4000cdb03c9366292430787261be6816040516115d691906139e5565b60405180910390a150565b6000600454905090565b7f000000000000000000000000000000000000000000000000000000000000000073ffffffffffffffffffffffffffffffffffffffff163373ffffffffffffffffffffffffffffffffffffffff1614611679576040517f08c379a000000000000000000000000000000000000000000000000000000000815260040161167090613eee565b60405180910390fd5b6000600654116116be576040517f08c379a00000000000000000000000000000000000000000000000000000000081526004016116b5906140c1565b60405180910390fd5b60006006549050600060068190555060007f000000000000000000000000000000000000000000000000000000000000000073ffffffffffffffffffffffffffffffffffffffff168260405161171390614112565b60006040518083038185875af1925050503d8060008114611750576040519150601f19603f3d011682016040523d82523d6000602084013e611755565b606091505b5050905080611799576040517f08c379a000000000000000000000000000000000000000000000000000000000815260040161179090614173565b60405180910390fd5b817f000000000000000000000000000000000000000000000000000000000000000073ffffffffffffffffffffffffffffffffffffffff167fa711dcbee5590122b88ae65f697adf2f2824e323782fa8df939898d7eb6c1c2b60405160405180910390a35050565b600181565b600260009054906101000a900473ffffffffffffffffffffffffffffffffffffffff1681565b611834612a4f565b6000600f600083815260200190815260200160002090503373ffffffffffffffffffffffffffffffffffffffff168160010160009054906101000a900473ffffffffffffffffffffffffffffffffffffffff1673ffffffffffffffffffffffffffffffffffffffff16146118dd576040517f08c379a00000000000000000000000000000000000000000000000000000000081526004016118d4906141df565b60405180910390fd5b600073ffffffffffffffffffffffffffffffffffffffff168160010160009054906101000a900473ffffffffffffffffffffffffffffffffffffffff1673ffffffffffffffffffffffffffffffffffffffff1603611970576040517f08c379a00000000000000000000000000000000000000000000000000000000081526004016119679061424b565b60405180910390fd5b8060100160019054906101000a900460ff166119c1576040517f08c379a00000000000000000000000000000000000000000000000000000000081526004016119b8906142b7565b60405180910390fd5b8060100160029054906101000a900460ff16611a12576040517f08c379a0000000000000000000000000000000000000000000000000000000008152600401611a0990614323565b60405180910390fd5b8060100160009054906101000a900460ff1615611a64576040517f08c379a0000000000000000000000000000000000000000000000000000000008152600401611a5b9061438f565b60405180910390fd5b6000611aee82600301600580602002604051908101604052809291908260058015611aa4576020028201915b815481526020019060010190808311611a90575b505050505083600801600580602002604051908101604052809291908260058015611ae4576020028201915b815481526020019060010190808311611ad0575b5050505050612a9e565b905081600d0160009054906101000a900460ff1660ff168160ff1614611b49576040517f08c379a0000000000000000000000000000000000000000000000000000000008152600401611b40906143fb565b60405180910390fd5b6000611b5482612b99565b905060008111611b99576040517f08c379a0000000000000000000000000000000000000000000000000000000008152600401611b9090614467565b60405180910390fd5b6000600454821115611bad57600454611baf565b815b9050806004541015611bc2576000611bd1565b80600454611bd09190614487565b5b6004819055508084600f018190555060018460100160006101000a81548160ff021916908315150217905550611c2b8460010160009054906101000a900473ffffffffffffffffffffffffffffffffffffffff1682612c56565b80858560010160009054906101000a900473ffffffffffffffffffffffffffffffffffffffff1673ffffffffffffffffffffffffffffffffffffffff167ff01da32686223933d8a18a391060918c7f11a3648639edd87ae013e2e273174360405160405180910390a450505050611ca0612d4a565b50565b7f000000000000000000000000000000000000000000000000000000000000000073ffffffffffffffffffffffffffffffffffffffff163373ffffffffffffffffffffffffffffffffffffffff1614611d31576040517f08c379a0000000000000000000000000000000000000000000000000000000008152600401611d2890613eee565b60405180910390fd5b600060045411611d76576040517f08c379a0000000000000000000000000000000000000000000000000000000008152600401611d6d906140c1565b60405180910390fd5b60006004549050600060048190555060007f000000000000000000000000000000000000000000000000000000000000000073ffffffffffffffffffffffffffffffffffffffff1682604051611dcb90614112565b60006040518083038185875af1925050503d8060008114611e08576040519150601f19603f3d011682016040523d82523d6000602084013e611e0d565b606091505b5050905080611e51576040517f08c379a0000000000000000000000000000000000000000000000000000000008152600401611e4890614507565b60405180910390fd5b817f000000000000000000000000000000000000000000000000000000000000000073ffffffffffffffffffffffffffffffffffffffff167fff984e4ec57c8aefc4fbea6499d5cb891883e5c1589aba926f8da3f675f0ee2f60405160405180910390a35050565b60106020528060005260406000206000915090505481565b60088181548110611ee157600080fd5b906000526020600020016000915090505481565b611efd613262565b3373ffffffffffffffffffffffffffffffffffffffff163273ffffffffffffffffffffffffffffffffffffffff1614611f6b576040517f08c379a0000000000000000000000000000000000000000000000000000000008152600401611f6290614573565b60405180910390fd5b66038d7ea4c680003414611fb4576040517f08c379a0000000000000000000000000000000000000000000000000000000008152600401611fab906145df565b60405180910390fd5b600060405180610180016040528060075481526020013373ffffffffffffffffffffffffffffffffffffffff1681526020014281526020016009600580602002604051908101604052809291908260058015612025576020028201915b815481526020019060010190808311612011575b505050505081526020016009600580602002604051908101604052809291908260058015612068576020028201915b815481526020019060010190808311612054575b50505050508152602001600060ff168152602001600081526020016000815260200160001515815260200160001515815260200160001515815260200160001515815250905080600f6000836000015181526020019081526020016000206000820151816000015560208201518160010160006101000a81548173ffffffffffffffffffffffffffffffffffffffff021916908373ffffffffffffffffffffffffffffffffffffffff160217905550604082015181600201556060820151816003019060056121389291906132f0565b506080820151816008019060056121509291906132f0565b5060a082015181600d0160006101000a81548160ff021916908360ff16021790555060c082015181600e015560e082015181600f01556101008201518160100160006101000a81548160ff0219169083151502179055506101208201518160100160016101000a81548160ff0219169083151502179055506101408201518160100160026101000a81548160ff0219169083151502179055506101608201518160100160036101000a81548160ff021916908315150217905550905050600e60003373ffffffffffffffffffffffffffffffffffffffff1673ffffffffffffffffffffffffffffffffffffffff168152602001908152602001600020600754908060018154018082558091505060019003906000526020600020016000909190919091505560086007549080600181540180825580915050600190039060005260206000200160009091909190915055600760008154809291906122b3906145ff565b91905055506122c1346106ea565b80600001513373ffffffffffffffffffffffffffffffffffffffff167f0668f5b446eb814fe35b3206f43f14bd8567ba04ddaf7a3ee56516929ab22ccb60405160405180910390a38091505090565b66038d7ea4c6800081565b612323612d54565b61232c81612de4565b50565b7f000000000000000000000000000000000000000000000000000000000000000073ffffffffffffffffffffffffffffffffffffffff163373ffffffffffffffffffffffffffffffffffffffff16146123bd576040517f08c379a00000000000000000000000000000000000000000000000000000000081526004016123b490613eee565b60405180910390fd5b600060055411612402576040517f08c379a00000000000000000000000000000000000000000000000000000000081526004016123f9906140c1565b60405180910390fd5b60006005549050600060058190555060007f000000000000000000000000000000000000000000000000000000000000000073ffffffffffffffffffffffffffffffffffffffff168260405161245790614112565b60006040518083038185875af1925050503d8060008114612494576040519150601f19603f3d011682016040523d82523d6000602084013e612499565b606091505b50509050806124dd576040517f08c379a00000000000000000000000000000000000000000000000000000000081526004016124d4906146b9565b60405180910390fd5b817f000000000000000000000000000000000000000000000000000000000000000073ffffffffffffffffffffffffffffffffffffffff167fa760777eb358393d33a518ec33e1187940af7f3cbffb09c53db5ee4b7e7e402560405160405180910390a35050565b6000600f600084815260200190815260200160002090503373ffffffffffffffffffffffffffffffffffffffff168160010160009054906101000a900473ffffffffffffffffffffffffffffffffffffffff1673ffffffffffffffffffffffffffffffffffffffff16146125ee576040517f08c379a00000000000000000000000000000000000000000000000000000000081526004016125e590614725565b60405180910390fd5b8060100160019054906101000a900460ff1615612640576040517f08c379a000000000000000000000000000000000000000000000000000000000815260040161263790614791565b60405180910390fd5b60005b600581101561277157600083826005811061266157612660613f0e565b5b60200201511015801561268c5750602483826005811061268457612683613f0e565b5b602002015111155b6126cb576040517f08c379a00000000000000000000000000000000000000000000000000000000081526004016126c2906147fd565b60405180910390fd5b60006001826126da9190613e6e565b90505b6005811015612763578381600581106126f9576126f8613f0e565b5b602002015184836005811061271157612710613f0e565b5b602002015103612756576040517f08c379a000000000000000000000000000000000000000000000000000000000815260040161274d90614869565b60405180910390fd5b80806001019150506126dd565b508080600101915050612643565b5081816003019060056127859291906132f0565b5060018160100160016101000a81548160ff0219169083151502179055503373ffffffffffffffffffffffffffffffffffffffff167f26aa7c18051e08a0cf3f3b6f17d2953735d99eab33c5d55efdf08ef510de455e836040516127e991906148eb565b60405180910390a28060100160039054906101000a900460ff1615612843576040517f08c379a000000000000000000000000000000000000000000000000000000000815260040161283a90614952565b60405180910390fd5b60018160100160036101000a81548160ff02191690831515021790555061286983612f10565b50505050565b6000601060008581526020019081526020016000205490506000600f600083815260200190815260200160002090508060100160029054906101000a900460ff16156128f0576040517f08c379a00000000000000000000000000000000000000000000000000000000081526004016128e7906149be565b60405180910390fd5b60008484600081811061290657612905613f0e565b5b90506020020135905060018260100160026101000a81548160ff02191690831515021790555061293581613074565b826008019060056129479291906132f0565b506129d082600301600580602002604051908101604052809291908260058015612986576020028201915b815481526020019060010190808311612972575b5050505050836008016005806020026040519081016040528092919082600580156129c6576020028201915b8154815260200190600101908083116129b2575b5050505050612a9e565b82600d0160006101000a81548160ff021916908360ff160217905550612a0682600d0160009054906101000a900460ff16612b99565b82600e018190555082867f86dc71b58256a2aebe2afe6d9153ce25cb709dff36adfd6807758636d89e0e4483604051612a3f9190613aba565b60405180910390a3505050505050565b600260035403612a94576040517f08c379a0000000000000000000000000000000000000000000000000000000008152600401612a8b90614a2a565b60405180910390fd5b6002600381905550565b60008060009050612aad613330565b60005b60058160ff161015612b8d5760005b60058160ff161015612b7957828160ff1660058110612ae157612ae0613f0e565b5b6020020151158015612b265750858160ff1660058110612b0457612b03613f0e565b5b6020020151878360ff1660058110612b1f57612b1e613f0e565b5b6020020151145b15612b6657600184612b389190614a4a565b93506001838260ff1660058110612b5257612b51613f0e565b5b602002019015159081151581525050612b79565b8080612b7190614a7f565b915050612abf565b508080612b8590614a7f565b915050612ab0565b50819250505092915050565b600060058260ff161115612be2576040517f08c379a0000000000000000000000000000000000000000000000000000000008152600401612bd990614af4565b60405180910390fd5b60006040518060c001604052806000815260200166027ca57357c000815260200166044364c5bb00008152602001662386f26fc10000815260200167016345785d8a000081526020016004548152509050808360ff1660068110612c4957612c48613f0e565b5b6020020151915050919050565b60008111612c99576040517f08c379a0000000000000000000000000000000000000000000000000000000008152600401612c9090614b60565b60405180910390fd5b60008273ffffffffffffffffffffffffffffffffffffffff1682604051612cbf90614112565b60006040518083038185875af1925050503d8060008114612cfc576040519150601f19603f3d011682016040523d82523d6000602084013e612d01565b606091505b5050905080612d45576040517f08c379a0000000000000000000000000000000000000000000000000000000008152600401612d3c90614bcc565b60405180910390fd5b505050565b6001600381905550565b60008054906101000a900473ffffffffffffffffffffffffffffffffffffffff1673ffffffffffffffffffffffffffffffffffffffff163373ffffffffffffffffffffffffffffffffffffffff1614612de2576040517f08c379a0000000000000000000000000000000000000000000000000000000008152600401612dd990614c38565b60405180910390fd5b565b3373ffffffffffffffffffffffffffffffffffffffff168173ffffffffffffffffffffffffffffffffffffffff1603612e52576040517f08c379a0000000000000000000000000000000000000000000000000000000008152600401612e4990614ca4565b60405180910390fd5b80600160006101000a81548173ffffffffffffffffffffffffffffffffffffffff021916908373ffffffffffffffffffffffffffffffffffffffff1602179055508073ffffffffffffffffffffffffffffffffffffffff1660008054906101000a900473ffffffffffffffffffffffffffffffffffffffff1673ffffffffffffffffffffffffffffffffffffffff167fed8889f560326eb138920d842192f0eb3dd22b4f139c87a2c57538e05bae127860405160405180910390a350565b600080600260009054906101000a900473ffffffffffffffffffffffffffffffffffffffff1673ffffffffffffffffffffffffffffffffffffffff16639b1c385e6040518060c001604052807f787d74caea10b2b357790d5b5247c2f63d1d91572a9846f780606e4d953677ae60001b81526020017f00000000000000000000000000000000000000000000000000000000000000008152602001600361ffff168152602001622625a063ffffffff168152602001600160ff1663ffffffff168152602001612fef6040518060200160405280600015158152506131ca565b8152506040518263ffffffff1660e01b815260040161300e9190614e03565b6020604051808303816000875af115801561302d573d6000803e3d6000fd5b505050506040513d601f19601f820116820180604052508101906130519190614e3a565b905082601060008381526020019081526020016000208190555080915050919050565b61307c613352565b613084613374565b61308c613352565b600080856040516020016130a09190613aba565b60405160208183030381529060405280519060200120905060005b60058310156131bd5760208160ff16106130ff5781816040516020016130e2929190614e76565b604051602081830303815290604052805190602001209150600090505b60006025838360ff166020811061311957613118613f0e565b5b1a60f81b60f81c61312a9190614e9f565b9050818061313790614a7f565b9250506000868260ff166025811061315257613151613f0e565b5b602002015160ff16036131b7576001868260ff166025811061317757613176613f0e565b5b602002019060ff16908160ff16815250508060ff1685856005811061319f5761319e613f0e565b5b60200201818152505083806131b3906145ff565b9450505b506130bb565b8395505050505050919050565b60607f92fd13387c7fe7befbc38d303d6468778fb9731bc4583f17d92989c6fcfdeaaa826040516024016131fe9190614eec565b604051602081830303815290604052907bffffffffffffffffffffffffffffffffffffffffffffffffffffffff19166020820180517bffffffffffffffffffffffffffffffffffffffffffffffffffffffff83818316178352505050509050919050565b60405180610180016040528060008152602001600073ffffffffffffffffffffffffffffffffffffffff168152602001600081526020016132a1613352565b81526020016132ae613352565b8152602001600060ff16815260200160008152602001600081526020016000151581526020016000151581526020016000151581526020016000151581525090565b826005810192821561331f579160200282015b8281111561331e578251825591602001919060010190613303565b5b50905061332c9190613397565b5090565b6040518060a00160405280600590602082028036833780820191505090505090565b6040518060a00160405280600590602082028036833780820191505090505090565b604051806104a00160405280602590602082028036833780820191505090505090565b5b808211156133b0576000816000905550600101613398565b5090565b600082825260208201905092915050565b7f496e76616c69642063616c6c0000000000000000000000000000000000000000600082015250565b60006133fb600c836133b4565b9150613406826133c5565b602082019050919050565b6000602082019050818103600083015261342a816133ee565b9050919050565b600081519050919050565b600082825260208201905092915050565b6000819050602082019050919050565b6000819050919050565b6134708161345d565b82525050565b600073ffffffffffffffffffffffffffffffffffffffff82169050919050565b60006134a182613476565b9050919050565b6134b181613496565b82525050565b600060059050919050565b600081905092915050565b6000819050919050565b60006134e38383613467565b60208301905092915050565b6000602082019050919050565b613505816134b7565b61350f81846134c2565b925061351a826134cd565b8060005b8381101561354b57815161353287826134d7565b965061353d836134ef565b92505060018101905061351e565b505050505050565b600060ff82169050919050565b61356981613553565b82525050565b60008115159050919050565b6135848161356f565b82525050565b610280820160008201516135a16000850182613467565b5060208201516135b460208501826134a8565b5060408201516135c76040850182613467565b5060608201516135da60608501826134fc565b5060808201516135ee6101008501826134fc565b5060a08201516136026101a0850182613560565b5060c08201516136166101c0850182613467565b5060e082015161362a6101e0850182613467565b5061010082015161363f61020085018261357b565b5061012082015161365461022085018261357b565b5061014082015161366961024085018261357b565b5061016082015161367e61026085018261357b565b50505050565b6000613690838361358a565b6102808301905092915050565b6000602082019050919050565b60006136b582613431565b6136bf818561343c565b93506136ca8361344d565b8060005b838110156136fb5781516136e28882613684565b97506136ed8361369d565b9250506001810190506136ce565b5085935050505092915050565b6000602082019050818103600083015261372281846136aa565b905092915050565b6000604051905090565b600080fd5b600080fd5b6137478161345d565b811461375257600080fd5b50565b6000813590506137648161373e565b92915050565b600080fd5b600080fd5b600080fd5b60008083601f84011261378f5761378e61376a565b5b8235905067ffffffffffffffff8111156137ac576137ab61376f565b5b6020830191508360208202830111156137c8576137c7613774565b5b9250929050565b6000806000604084860312156137e8576137e7613734565b5b60006137f686828701613755565b935050602084013567ffffffffffffffff81111561381757613816613739565b5b61382386828701613779565b92509250509250925092565b60006020828403121561384557613844613734565b5b600061385384828501613755565b91505092915050565b610280820160008201516138736000850182613467565b50602082015161388660208501826134a8565b5060408201516138996040850182613467565b5060608201516138ac60608501826134fc565b5060808201516138c06101008501826134fc565b5060a08201516138d46101a0850182613560565b5060c08201516138e86101c0850182613467565b5060e08201516138fc6101e0850182613467565b5061010082015161391161020085018261357b565b5061012082015161392661022085018261357b565b5061014082015161393b61024085018261357b565b5061016082015161395061026085018261357b565b50505050565b60006102808201905061396c600083018461385c565b92915050565b600063ffffffff82169050919050565b61398b81613972565b82525050565b60006020820190506139a66000830184613982565b92915050565b6139b581613553565b82525050565b60006020820190506139d060008301846139ac565b92915050565b6139df81613496565b82525050565b60006020820190506139fa60008301846139d6565b92915050565b613a098161345d565b82525050565b613a188161356f565b82525050565b600061014082019050613a34600083018d613a00565b613a41602083018c6139d6565b613a4e604083018b613a00565b613a5b606083018a6139ac565b613a686080830189613a00565b613a7560a0830188613a00565b613a8260c0830187613a0f565b613a8f60e0830186613a0f565b613a9d610100830185613a0f565b613aab610120830184613a0f565b9b9a5050505050505050505050565b6000602082019050613acf6000830184613a00565b92915050565b600061ffff82169050919050565b613aec81613ad5565b82525050565b6000602082019050613b076000830184613ae3565b92915050565b613b1681613496565b8114613b2157600080fd5b50565b600081359050613b3381613b0d565b92915050565b60008060408385031215613b5057613b4f613734565b5b6000613b5e85828601613b24565b9250506020613b6f85828601613755565b9150509250929050565b600060208284031215613b8f57613b8e613734565b5b6000613b9d84828501613b24565b91505092915050565b6000819050919050565b6000613bcb613bc6613bc184613476565b613ba6565b613476565b9050919050565b6000613bdd82613bb0565b9050919050565b6000613bef82613bd2565b9050919050565b613bff81613be4565b82525050565b6000602082019050613c1a6000830184613bf6565b92915050565b6000601f19601f8301169050919050565b7f4e487b7100000000000000000000000000000000000000000000000000000000600052604160045260246000fd5b613c6982613c20565b810181811067ffffffffffffffff82111715613c8857613c87613c31565b5b80604052505050565b6000613c9b61372a565b9050613ca78282613c60565b919050565b600067ffffffffffffffff821115613cc757613cc6613c31565b5b602082029050919050565b6000613ce5613ce084613cac565b613c91565b90508060208402830185811115613cff57613cfe613774565b5b835b81811015613d285780613d148882613755565b845260208401935050602081019050613d01565b5050509392505050565b600082601f830112613d4757613d4661376a565b5b6005613d54848285613cd2565b91505092915050565b60008060c08385031215613d7457613d73613734565b5b6000613d8285828601613755565b9250506020613d9385828601613d32565b9150509250929050565b7f4e487b7100000000000000000000000000000000000000000000000000000000600052601160045260246000fd5b6000613dd78261345d565b9150613de28361345d565b9250828202613df08161345d565b91508282048414831517613e0757613e06613d9d565b5b5092915050565b7f4e487b7100000000000000000000000000000000000000000000000000000000600052601260045260246000fd5b6000613e488261345d565b9150613e538361345d565b925082613e6357613e62613e0e565b5b828204905092915050565b6000613e798261345d565b9150613e848361345d565b9250828201905080821115613e9c57613e9b613d9d565b5b92915050565b7f4f6e6c7920666f72206f776e6572000000000000000000000000000000000000600082015250565b6000613ed8600e836133b4565b9150613ee382613ea2565b602082019050919050565b60006020820190508181036000830152613f0781613ecb565b9050919050565b7f4e487b7100000000000000000000000000000000000000000000000000000000600052603260045260246000fd5b6000604082019050613f5260008301856139d6565b613f5f60208301846139d6565b9392505050565b7f596f7520617265206e6f7420746865207469636b6574206f776e657200000000600082015250565b6000613f9c601c836133b4565b9150613fa782613f66565b602082019050919050565b60006020820190508181036000830152613fcb81613f8f565b9050919050565b7f4d7573742062652070726f706f736564206f776e657200000000000000000000600082015250565b60006140086016836133b4565b915061401382613fd2565b602082019050919050565b6000602082019050818103600083015261403781613ffb565b9050919050565b600060608201905061405360008301866139d6565b61406060208301856139d6565b61406d60408301846139d6565b949350505050565b7f4e6f7468696e6720746f20776974686472617700000000000000000000000000600082015250565b60006140ab6013836133b4565b91506140b682614075565b602082019050919050565b600060208201905081810360008301526140da8161409e565b9050919050565b600081905092915050565b50565b60006140fc6000836140e1565b9150614107826140ec565b600082019050919050565b600061411d826140ef565b9150819050919050565b7f4f776e657242616c616e6365207769746864726177616c206661696c65640000600082015250565b600061415d601e836133b4565b915061416882614127565b602082019050919050565b6000602082019050818103600083015261418c81614150565b9050919050565b7f4f6e6c79207469636b6574206f776e65722063616e20636c61696d0000000000600082015250565b60006141c9601b836133b4565b91506141d482614193565b602082019050919050565b600060208201905081810360008301526141f8816141bc565b9050919050565b7f5469636b657420646f6573206e6f742065786973740000000000000000000000600082015250565b60006142356015836133b4565b9150614240826141ff565b602082019050919050565b6000602082019050818103600083015261426481614228565b9050919050565b7f436f6d62696e6174696f6e206e6f74207375626d697474656400000000000000600082015250565b60006142a16019836133b4565b91506142ac8261426b565b602082019050919050565b600060208201905081810360008301526142d081614294565b9050919050565b7f57696e6e696e67206e6f742067656e6572617465640000000000000000000000600082015250565b600061430d6015836133b4565b9150614318826142d7565b602082019050919050565b6000602082019050818103600083015261433c81614300565b9050919050565b7f52657761726420616c726561647920636c61696d656400000000000000000000600082015250565b60006143796016836133b4565b915061438482614343565b602082019050919050565b600060208201905081810360008301526143a88161436c565b9050919050565b7f54616d706572696e672064657465637465640000000000000000000000000000600082015250565b60006143e56012836133b4565b91506143f0826143af565b602082019050919050565b60006020820190508181036000830152614414816143d8565b9050919050565b7f4e6f2072657761726420746f20636c61696d0000000000000000000000000000600082015250565b60006144516012836133b4565b915061445c8261441b565b602082019050919050565b6000602082019050818103600083015261448081614444565b9050919050565b60006144928261345d565b915061449d8361345d565b92508282039050818111156144b5576144b4613d9d565b5b92915050565b7f4a61636b706f74207769746864726177616c206661696c656400000000000000600082015250565b60006144f16019836133b4565b91506144fc826144bb565b602082019050919050565b60006020820190508181036000830152614520816144e4565b9050919050565b7f4f6e6c79207265616c20706c6179657273210000000000000000000000000000600082015250565b600061455d6012836133b4565b915061456882614527565b602082019050919050565b6000602082019050818103600083015261458c81614550565b9050919050565b7f5472616e73616374696f6e2076616c756520697320746f6f206c6f7721000000600082015250565b60006145c9601d836133b4565b91506145d482614593565b602082019050919050565b600060208201905081810360008301526145f8816145bc565b9050919050565b600061460a8261345d565b91507fffffffffffffffffffffffffffffffffffffffffffffffffffffffffffffffff820361463c5761463b613d9d565b5b600182019050919050565b7f4f7065726174696f6e7342616c616e6365207769746864726177616c2066616960008201527f6c65640000000000000000000000000000000000000000000000000000000000602082015250565b60006146a36023836133b4565b91506146ae82614647565b604082019050919050565b600060208201905081810360008301526146d281614696565b9050919050565b7f596f7520617265206e6f7420746865206f776e65720000000000000000000000600082015250565b600061470f6015836133b4565b915061471a826146d9565b602082019050919050565b6000602082019050818103600083015261473e81614702565b9050919050565b7f416c7265616479207375626d6974746564000000000000000000000000000000600082015250565b600061477b6011836133b4565b915061478682614745565b602082019050919050565b600060208201905081810360008301526147aa8161476e565b9050919050565b7f4e756d626572206f7574206f662072616e67652028302d333629000000000000600082015250565b60006147e7601a836133b4565b91506147f2826147b1565b602082019050919050565b60006020820190508181036000830152614816816147da565b9050919050565b7f4475706c6963617465206e756d62657273206e6f7420616c6c6f776564000000600082015250565b6000614853601d836133b4565b915061485e8261481d565b602082019050919050565b6000602082019050818103600083015261488281614846565b9050919050565b600081905092915050565b61489d816134b7565b6148a78184614889565b92506148b2826134cd565b8060005b838110156148e35781516148ca87826134d7565b96506148d5836134ef565b9250506001810190506148b6565b505050505050565b600060a0820190506149006000830184614894565b92915050565b7f416c726561647920726571756573746564000000000000000000000000000000600082015250565b600061493c6011836133b4565b915061494782614906565b602082019050919050565b6000602082019050818103600083015261496b8161492f565b9050919050565b7f416c72656164792067656e657261746564000000000000000000000000000000600082015250565b60006149a86011836133b4565b91506149b382614972565b602082019050919050565b600060208201905081810360008301526149d78161499b565b9050919050565b7f5265656e7472616e637947756172643a207265656e7472616e742063616c6c00600082015250565b6000614a14601f836133b4565b9150614a1f826149de565b602082019050919050565b60006020820190508181036000830152614a4381614a07565b9050919050565b6000614a5582613553565b9150614a6083613553565b9250828201905060ff811115614a7957614a78613d9d565b5b92915050565b6000614a8a82613553565b915060ff8203614a9d57614a9c613d9d565b5b600182019050919050565b7f556e6578706563746564206d61746368696e67206e756d62657220636f756e74600082015250565b6000614ade6020836133b4565b9150614ae982614aa8565b602082019050919050565b60006020820190508181036000830152614b0d81614ad1565b9050919050565b7f4e6f2072657761726420746f2073656e64000000000000000000000000000000600082015250565b6000614b4a6011836133b4565b9150614b5582614b14565b602082019050919050565b60006020820190508181036000830152614b7981614b3d565b9050919050565b7f526577617264207472616e73666572206661696c656400000000000000000000600082015250565b6000614bb66016836133b4565b9150614bc182614b80565b602082019050919050565b60006020820190508181036000830152614be581614ba9565b9050919050565b7f4f6e6c792063616c6c61626c65206279206f776e657200000000000000000000600082015250565b6000614c226016836133b4565b9150614c2d82614bec565b602082019050919050565b60006020820190508181036000830152614c5181614c15565b9050919050565b7f43616e6e6f74207472616e7366657220746f2073656c66000000000000000000600082015250565b6000614c8e6017836133b4565b9150614c9982614c58565b602082019050919050565b60006020820190508181036000830152614cbd81614c81565b9050919050565b6000819050919050565b614cd781614cc4565b82525050565b614ce681613ad5565b82525050565b614cf581613972565b82525050565b600081519050919050565b600082825260208201905092915050565b60005b83811015614d35578082015181840152602081019050614d1a565b60008484015250505050565b6000614d4c82614cfb565b614d568185614d06565b9350614d66818560208601614d17565b614d6f81613c20565b840191505092915050565b600060c083016000830151614d926000860182614cce565b506020830151614da56020860182613467565b506040830151614db86040860182614cdd565b506060830151614dcb6060860182614cec565b506080830151614dde6080860182614cec565b5060a083015184820360a0860152614df68282614d41565b9150508091505092915050565b60006020820190508181036000830152614e1d8184614d7a565b905092915050565b600081519050614e348161373e565b92915050565b600060208284031215614e5057614e4f613734565b5b6000614e5e84828501614e25565b91505092915050565b614e7081614cc4565b82525050565b6000604082019050614e8b6000830185614e67565b614e9860208301846139ac565b9392505050565b6000614eaa82613553565b9150614eb583613553565b925082614ec557614ec4613e0e565b5b828206905092915050565b602082016000820151614ee6600085018261357b565b50505050565b6000602082019050614f016000830184614ed0565b9291505056fea26469706673582212200db09724428032510ec8908e389b2f27cd0692cea6354e93fcd65ca6abe88ad364736f6c634300081c0033",
  "linkReferences": {},
  "deployedLinkReferences": {}
}