{
  "_format": "hh-sol-artifact-1",
  "contractName": "Lottery",
  "sourceName": "contracts/Lottery.sol",
  "abi": [
    {
      "inputs": [
        {
          "internalType": "uint256",
          "name": "_subscriptionId",
          "type": "uint256"
        }
      ],
      "stateMutability": "nonpayable",
      "type": "constructor"
    },
    {
      "inputs": [
        {
          "internalType": "address",
          "name": "have",
          "type": "address"
        },
        {
          "internalType": "address",
          "name": "want",
          "type": "address"
        }
      ],
      "name": "OnlyCoordinatorCanFulfill",
      "type": "error"
    },
    {
      "inputs": [
        {
          "internalType": "address",
          "name": "have",
          "type": "address"
        },
        {
          "internalType": "address",
          "name": "owner",
          "type": "address"
        },
        {
          "internalType": "address",
          "name": "coordinator",
          "type": "address"
        }
      ],
      "name": "OnlyOwnerOrCoordinator",
      "type": "error"
    },
    {
      "inputs": [],
      "name": "ZeroAddress",
      "type": "error"
    },
    {
      "anonymous": false,
      "inputs": [
        {
          "indexed": false,
          "internalType": "address",
          "name": "vrfCoordinator",
          "type": "address"
        }
      ],
      "name": "CoordinatorSet",
      "type": "event"
    },
    {
      "anonymous": false,
      "inputs": [
        {
          "indexed": true,
          "internalType": "address",
          "name": "owner",
          "type": "address"
        },
        {
          "indexed": true,
          "internalType": "uint256",
          "name": "amount",
          "type": "uint256"
        }
      ],
      "name": "Distribute",
      "type": "event"
    },
    {
      "anonymous": false,
      "inputs": [
        {
          "indexed": true,
          "internalType": "address",
          "name": "owner",
          "type": "address"
        },
        {
          "indexed": true,
          "internalType": "uint256",
          "name": "ticketNumber",
          "type": "uint256"
        },
        {
          "indexed": false,
          "internalType": "uint256[5]",
          "name": "playerCombination",
          "type": "uint256[5]"
        },
        {
          "indexed": false,
          "internalType": "uint256[5]",
          "name": "winningCombination",
          "type": "uint256[5]"
        },
        {
          "indexed": false,
          "internalType": "uint8",
          "name": "matchingNumbers",
          "type": "uint8"
        },
        {
          "indexed": true,
          "internalType": "uint256",
          "name": "rewardAmount",
          "type": "uint256"
        }
      ],
      "name": "LotteryResults",
      "type": "event"
    },
    {
      "anonymous": false,
      "inputs": [
        {
          "indexed": true,
          "internalType": "address",
          "name": "owner",
          "type": "address"
        },
        {
          "indexed": true,
          "internalType": "uint256",
          "name": "amount",
          "type": "uint256"
        }
      ],
      "name": "OperationsBalanceWithdraw",
      "type": "event"
    },
    {
      "anonymous": false,
      "inputs": [
        {
          "indexed": true,
          "internalType": "address",
          "name": "owner",
          "type": "address"
        },
        {
          "indexed": true,
          "internalType": "uint256",
          "name": "amount",
          "type": "uint256"
        }
      ],
      "name": "OwnerBalanceWithdraw",
      "type": "event"
    },
    {
      "anonymous": false,
      "inputs": [
        {
          "indexed": true,
          "internalType": "address",
          "name": "from",
          "type": "address"
        },
        {
          "indexed": true,
          "internalType": "address",
          "name": "to",
          "type": "address"
        }
      ],
      "name": "OwnershipTransferRequested",
      "type": "event"
    },
    {
      "anonymous": false,
      "inputs": [
        {
          "indexed": true,
          "internalType": "address",
          "name": "from",
          "type": "address"
        },
        {
          "indexed": true,
          "internalType": "address",
          "name": "to",
          "type": "address"
        }
      ],
      "name": "OwnershipTransferred",
      "type": "event"
    },
    {
      "anonymous": false,
      "inputs": [
        {
          "indexed": true,
          "internalType": "address",
          "name": "player",
          "type": "address"
        },
        {
          "indexed": false,
          "internalType": "uint256[5]",
          "name": "combination",
          "type": "uint256[5]"
        }
      ],
      "name": "PlayerCombinationSubmitted",
      "type": "event"
    },
    {
      "anonymous": false,
      "inputs": [
        {
          "indexed": true,
          "internalType": "uint256",
          "name": "requestId",
          "type": "uint256"
        },
        {
          "indexed": true,
          "internalType": "uint256",
          "name": "ticketNumber",
          "type": "uint256"
        },
        {
          "indexed": false,
          "internalType": "uint256",
          "name": "number",
          "type": "uint256"
        }
      ],
      "name": "RandomNumberGenerated",
      "type": "event"
    },
    {
      "anonymous": false,
      "inputs": [
        {
          "indexed": true,
          "internalType": "address",
          "name": "player",
          "type": "address"
        },
        {
          "indexed": true,
          "internalType": "uint256",
          "name": "ticketId",
          "type": "uint256"
        },
        {
          "indexed": true,
          "internalType": "uint256",
          "name": "amount",
          "type": "uint256"
        }
      ],
      "name": "RewardClaimed",
      "type": "event"
    },
    {
      "anonymous": false,
      "inputs": [
        {
          "indexed": true,
          "internalType": "address",
          "name": "player",
          "type": "address"
        },
        {
          "indexed": true,
          "internalType": "uint256",
          "name": "ticketNumber",
          "type": "uint256"
        }
      ],
      "name": "TicketPurchased",
      "type": "event"
    },
    {
      "stateMutability": "payable",
      "type": "fallback"
    },
    {
      "inputs": [],
      "name": "CALLBACK_GAS_LIMIT",
      "outputs": [
        {
          "internalType": "uint32",
          "name": "",
          "type": "uint32"
        }
      ],
      "stateMutability": "view",
      "type": "function"
    },
    {
      "inputs": [],
      "name": "NUMBER_OF_WORDS",
      "outputs": [
        {
          "internalType": "uint8",
          "name": "",
          "type": "uint8"
        }
      ],
      "stateMutability": "view",
      "type": "function"
    },
    {
      "inputs": [],
      "name": "NUMBER_RANGE",
      "outputs": [
        {
          "internalType": "uint8",
          "name": "",
          "type": "uint8"
        }
      ],
      "stateMutability": "view",
      "type": "function"
    },
    {
      "inputs": [],
      "name": "REQUEST_CONFIRMATIONS",
      "outputs": [
        {
          "internalType": "uint16",
          "name": "",
          "type": "uint16"
        }
      ],
      "stateMutability": "view",
      "type": "function"
    },
    {
      "inputs": [],
      "name": "TICKET_PRICE_WEI",
      "outputs": [
        {
          "internalType": "uint256",
          "name": "",
          "type": "uint256"
        }
      ],
      "stateMutability": "view",
      "type": "function"
    },
    {
      "inputs": [],
      "name": "acceptOwnership",
      "outputs": [],
      "stateMutability": "nonpayable",
      "type": "function"
    },
    {
      "inputs": [],
      "name": "buyTicket",
      "outputs": [],
      "stateMutability": "payable",
      "type": "function"
    },
    {
      "inputs": [
        {
          "internalType": "uint256",
          "name": "ticketId",
          "type": "uint256"
        }
      ],
      "name": "claimReward",
      "outputs": [],
      "stateMutability": "nonpayable",
      "type": "function"
    },
    {
      "inputs": [],
      "name": "getContractOwner",
      "outputs": [
        {
          "internalType": "address",
          "name": "",
          "type": "address"
        }
      ],
      "stateMutability": "view",
      "type": "function"
    },
    {
      "inputs": [],
      "name": "getJackpot",
      "outputs": [
        {
          "internalType": "uint256",
          "name": "",
          "type": "uint256"
        }
      ],
      "stateMutability": "view",
      "type": "function"
    },
    {
      "inputs": [],
      "name": "getPlayerTickets",
      "outputs": [
        {
          "components": [
            {
              "internalType": "uint256",
              "name": "id",
              "type": "uint256"
            },
            {
              "internalType": "address",
              "name": "owner",
              "type": "address"
            },
            {
              "internalType": "uint256",
              "name": "purchaseTimestamp",
              "type": "uint256"
            },
            {
              "internalType": "uint256[5]",
              "name": "playerCombination",
              "type": "uint256[5]"
            },
            {
              "internalType": "uint256[5]",
              "name": "winningCombination",
              "type": "uint256[5]"
            },
            {
              "internalType": "bool",
              "name": "isRewardClaimed",
              "type": "bool"
            },
            {
              "internalType": "bool",
              "name": "playerCombinationSubmitted",
              "type": "bool"
            },
            {
              "internalType": "bool",
              "name": "winningCombinationGenerated",
              "type": "bool"
            }
          ],
          "internalType": "struct Lottery.LotteryTicket[]",
          "name": "",
          "type": "tuple[]"
        }
      ],
      "stateMutability": "view",
      "type": "function"
    },
    {
      "inputs": [],
      "name": "jackpot",
      "outputs": [
        {
          "internalType": "uint256",
          "name": "",
          "type": "uint256"
        }
      ],
      "stateMutability": "view",
      "type": "function"
    },
    {
      "inputs": [],
      "name": "nextTicketId",
      "outputs": [
        {
          "internalType": "uint256",
          "name": "",
          "type": "uint256"
        }
      ],
      "stateMutability": "view",
      "type": "function"
    },
    {
      "inputs": [],
      "name": "owner",
      "outputs": [
        {
          "internalType": "address",
          "name": "",
          "type": "address"
        }
      ],
      "stateMutability": "view",
      "type": "function"
    },
    {
      "inputs": [
        {
          "internalType": "address",
          "name": "",
          "type": "address"
        },
        {
          "internalType": "uint256",
          "name": "",
          "type": "uint256"
        }
      ],
      "name": "playerTickets",
      "outputs": [
        {
          "internalType": "uint256",
          "name": "id",
          "type": "uint256"
        },
        {
          "internalType": "address",
          "name": "owner",
          "type": "address"
        },
        {
          "internalType": "uint256",
          "name": "purchaseTimestamp",
          "type": "uint256"
        },
        {
          "internalType": "bool",
          "name": "isRewardClaimed",
          "type": "bool"
        },
        {
          "internalType": "bool",
          "name": "playerCombinationSubmitted",
          "type": "bool"
        },
        {
          "internalType": "bool",
          "name": "winningCombinationGenerated",
          "type": "bool"
        }
      ],
      "stateMutability": "view",
      "type": "function"
    },
    {
      "inputs": [
        {
          "internalType": "uint256",
          "name": "ticketId",
          "type": "uint256"
        }
      ],
      "name": "previewResults",
      "outputs": [
        {
          "internalType": "uint8",
          "name": "matchingNumbers",
          "type": "uint8"
        },
        {
          "internalType": "uint256",
          "name": "rewardAmount",
          "type": "uint256"
        },
        {
          "internalType": "uint256[5]",
          "name": "playerCombination",
          "type": "uint256[5]"
        },
        {
          "internalType": "uint256[5]",
          "name": "winningCombination",
          "type": "uint256[5]"
        }
      ],
      "stateMutability": "view",
      "type": "function"
    },
    {
      "inputs": [
        {
          "internalType": "uint256",
          "name": "requestId",
          "type": "uint256"
        },
        {
          "internalType": "uint256[]",
          "name": "randomWords",
          "type": "uint256[]"
        }
      ],
      "name": "rawFulfillRandomWords",
      "outputs": [],
      "stateMutability": "nonpayable",
      "type": "function"
    },
    {
      "inputs": [
        {
          "internalType": "uint256",
          "name": "",
          "type": "uint256"
        }
      ],
      "name": "requestIdToTicketId",
      "outputs": [
        {
          "internalType": "uint256",
          "name": "",
          "type": "uint256"
        }
      ],
      "stateMutability": "view",
      "type": "function"
    },
    {
      "inputs": [],
      "name": "s_vrfCoordinator",
      "outputs": [
        {
          "internalType": "contract IVRFCoordinatorV2Plus",
          "name": "",
          "type": "address"
        }
      ],
      "stateMutability": "view",
      "type": "function"
    },
    {
      "inputs": [
        {
          "internalType": "address",
          "name": "_vrfCoordinator",
          "type": "address"
        }
      ],
      "name": "setCoordinator",
      "outputs": [],
      "stateMutability": "nonpayable",
      "type": "function"
    },
    {
      "inputs": [
        {
          "internalType": "uint256",
          "name": "ticketId",
          "type": "uint256"
        },
        {
          "internalType": "uint256[5]",
          "name": "playerCombination",
          "type": "uint256[5]"
        }
      ],
      "name": "submitCombination",
      "outputs": [],
      "stateMutability": "nonpayable",
      "type": "function"
    },
    {
      "inputs": [
        {
          "internalType": "uint256",
          "name": "",
          "type": "uint256"
        }
      ],
      "name": "tickets",
      "outputs": [
        {
          "internalType": "uint256",
          "name": "id",
          "type": "uint256"
        },
        {
          "internalType": "address",
          "name": "owner",
          "type": "address"
        },
        {
          "internalType": "uint256",
          "name": "purchaseTimestamp",
          "type": "uint256"
        },
        {
          "internalType": "bool",
          "name": "isRewardClaimed",
          "type": "bool"
        },
        {
          "internalType": "bool",
          "name": "playerCombinationSubmitted",
          "type": "bool"
        },
        {
          "internalType": "bool",
          "name": "winningCombinationGenerated",
          "type": "bool"
        }
      ],
      "stateMutability": "view",
      "type": "function"
    },
    {
      "inputs": [
        {
          "internalType": "address",
          "name": "to",
          "type": "address"
        }
      ],
      "name": "transferOwnership",
      "outputs": [],
      "stateMutability": "nonpayable",
      "type": "function"
    },
    {
      "inputs": [],
      "name": "withdrawOperationsBalance",
      "outputs": [],
      "stateMutability": "payable",
      "type": "function"
    },
    {
      "inputs": [],
      "name": "withdrawOwnerBalance",
      "outputs": [],
      "stateMutability": "payable",
      "type": "function"
    },
    {
      "stateMutability": "payable",
      "type": "receive"
    }
  ],
  "bytecode": "0x60c060405234801561001057600080fd5b5060405161602b38038061602b833981810160405281019061003291906103ea565b739ddfaca8183c41ad55329bdeed9f6a8d53168b1b338060008073ffffffffffffffffffffffffffffffffffffffff168273ffffffffffffffffffffffffffffffffffffffff16036100b9576040517f08c379a00000000000000000000000000000000000000000000000000000000081526004016100b090610474565b60405180910390fd5b816000806101000a81548173ffffffffffffffffffffffffffffffffffffffff021916908373ffffffffffffffffffffffffffffffffffffffff160217905550600073ffffffffffffffffffffffffffffffffffffffff168173ffffffffffffffffffffffffffffffffffffffff161461013d5761013c8161028060201b60201c565b5b505050600073ffffffffffffffffffffffffffffffffffffffff168173ffffffffffffffffffffffffffffffffffffffff16036101a6576040517fd92e233d00000000000000000000000000000000000000000000000000000000815260040160405180910390fd5b80600260006101000a81548173ffffffffffffffffffffffffffffffffffffffff021916908373ffffffffffffffffffffffffffffffffffffffff16021790555050600160038190555061020a6736b90f84b40e565a60c01b6103ac60201b60201c565b61022467c79ed516ff42e88860c01b6103ac60201b60201c565b3373ffffffffffffffffffffffffffffffffffffffff1660808173ffffffffffffffffffffffffffffffffffffffff16815250506102726779cc51aea181d9bc60c01b6103ac60201b60201c565b8060a0818152505050610500565b3373ffffffffffffffffffffffffffffffffffffffff168173ffffffffffffffffffffffffffffffffffffffff16036102ee576040517f08c379a00000000000000000000000000000000000000000000000000000000081526004016102e5906104e0565b60405180910390fd5b80600160006101000a81548173ffffffffffffffffffffffffffffffffffffffff021916908373ffffffffffffffffffffffffffffffffffffffff1602179055508073ffffffffffffffffffffffffffffffffffffffff1660008054906101000a900473ffffffffffffffffffffffffffffffffffffffff1673ffffffffffffffffffffffffffffffffffffffff167fed8889f560326eb138920d842192f0eb3dd22b4f139c87a2c57538e05bae127860405160405180910390a350565b50565b600080fd5b6000819050919050565b6103c7816103b4565b81146103d257600080fd5b50565b6000815190506103e4816103be565b92915050565b600060208284031215610400576103ff6103af565b5b600061040e848285016103d5565b91505092915050565b600082825260208201905092915050565b7f43616e6e6f7420736574206f776e657220746f207a65726f0000000000000000600082015250565b600061045e601883610417565b915061046982610428565b602082019050919050565b6000602082019050818103600083015261048d81610451565b9050919050565b7f43616e6e6f74207472616e7366657220746f2073656c66000000000000000000600082015250565b60006104ca601783610417565b91506104d582610494565b602082019050919050565b600060208201905081810360008301526104f9816104bd565b9050919050565b60805160a051615adc61054f6000396000613b8d015260008181610873015281816110340152818161121c0152818161135f015281816126e1015281816128c90152612a0c0152615adc6000f3fe60806040526004361061016a5760003560e01c80638ea98117116100d1578063c3e9bf001161008a578063f2c4550411610064578063f2c4550414610570578063f2fde38b146105b0578063f403251d146105d9578063f926c5d8146105e35761018e565b8063c3e9bf00146104fe578063edca914c1461053b578063f163915a146105455761018e565b80638ea98117146104215780639329066c1461044a578063941b80ac1461047557806395e888c41461047f5780639eccacf6146104aa578063ae169a50146104d55761018e565b80636031a52f116101235780636031a52f1461033357806367f082b01461035e5780636b31ee011461038957806379ba5097146103b457806385c9d673146103cb5780638da5cb5b146103f65761018e565b80631fe543e31461020557806333d608f11461022e5780633aac0fa914610259578063442890d51461028457806344d855f1146102af57806350b44712146102f15761018e565b3661018e576101836755d35674b6e1122160c01b61060c565b61018c3461060f565b005b6101a267967b04917a4aa1f760c01b61060c565b6101b66727e022260245145b60c01b61060c565b6101ca67bc385cb8d03e421a60c01b61060c565b6040517f08c379a00000000000000000000000000000000000000000000000000000000081526004016101fc9061423c565b60405180910390fd5b34801561021157600080fd5b5061022c6004803603810190610227919061430b565b610761565b005b34801561023a57600080fd5b50610243610827565b604051610250919061438a565b60405180910390f35b34801561026557600080fd5b5061026e61082e565b60405161027b91906143c1565b60405180910390f35b34801561029057600080fd5b50610299610833565b6040516102a6919061441d565b60405180910390f35b3480156102bb57600080fd5b506102d660048036038101906102d19190614464565b610897565b6040516102e8969594939291906144ce565b60405180910390f35b3480156102fd57600080fd5b506103186004803603810190610313919061452f565b610937565b60405161032a969594939291906144ce565b60405180910390f35b34801561033f57600080fd5b506103486109ba565b604051610355919061455c565b60405180910390f35b34801561036a57600080fd5b506103736109c0565b6040516103809190614594565b60405180910390f35b34801561039557600080fd5b5061039e6109c5565b6040516103ab919061455c565b60405180910390f35b3480156103c057600080fd5b506103c96109cb565b005b3480156103d757600080fd5b506103e0610b60565b6040516103ed91906147ce565b60405180910390f35b34801561040257600080fd5b5061040b610d7e565b604051610418919061441d565b60405180910390f35b34801561042d57600080fd5b50610448600480360381019061044391906147f0565b610da7565b005b34801561045657600080fd5b5061045f610f88565b60405161046c919061455c565b60405180910390f35b61047d610fce565b005b34801561048b57600080fd5b506104946113c4565b6040516104a191906143c1565b60405180910390f35b3480156104b657600080fd5b506104bf6113c9565b6040516104cc919061487c565b60405180910390f35b3480156104e157600080fd5b506104fc60048036038101906104f7919061452f565b6113ef565b005b34801561050a57600080fd5b506105256004803603810190610520919061452f565b611bac565b604051610532919061455c565b60405180910390f35b610543611bc4565b005b34801561055157600080fd5b5061055a61217f565b604051610567919061455c565b60405180910390f35b34801561057c57600080fd5b506105976004803603810190610592919061452f565b612189565b6040516105a794939291906148f9565b60405180910390f35b3480156105bc57600080fd5b506105d760048036038101906105d291906147f0565b612667565b005b6105e161267b565b005b3480156105ef57600080fd5b5061060a60048036038101906106059190614a7c565b612a71565b005b50565b61062367a96a21b7e3eec2c260c01b61060c565b6106376709cd89f1e6be038860c01b61060c565b6064605a826106469190614aeb565b6106509190614b5c565b600460008282546106619190614b8d565b9250508190555061067c676c12361b25bdbdab60c01b61060c565b606460058261068b9190614aeb565b6106959190614b5c565b600560008282546106a69190614b8d565b925050819055506106c167fd670ccf2963b47860c01b61060c565b60646005826106d09190614aeb565b6106da9190614b5c565b600660008282546106eb9190614b8d565b925050819055506107066723a15ae333e5826760c01b61060c565b61071a67e35ce3089052fa4560c01b61060c565b803373ffffffffffffffffffffffffffffffffffffffff167fc1d32ad5cca423e7dda2123dbf8c482f8e77d00b631c06e903a47f2cec1334df60405160405180910390a350565b600260009054906101000a900473ffffffffffffffffffffffffffffffffffffffff1673ffffffffffffffffffffffffffffffffffffffff163373ffffffffffffffffffffffffffffffffffffffff16146108175733600260009054906101000a900473ffffffffffffffffffffffffffffffffffffffff166040517f1cf993f400000000000000000000000000000000000000000000000000000000815260040161080e929190614bc1565b60405180910390fd5b610822838383612f70565b505050565b622625a081565b602581565b6000610849671c556e1928550fdd60c01b61060c565b61085d67b208df7b28dff5e360c01b61060c565b610871678038934b7d0c59a860c01b61060c565b7f0000000000000000000000000000000000000000000000000000000000000000905090565b600d60205281600052604060002081815481106108b357600080fd5b90600052602060002090600e0201600091509150508060000154908060010160009054906101000a900473ffffffffffffffffffffffffffffffffffffffff169080600201549080600d0160009054906101000a900460ff169080600d0160019054906101000a900460ff169080600d0160029054906101000a900460ff16905086565b600e6020528060005260406000206000915090508060000154908060010160009054906101000a900473ffffffffffffffffffffffffffffffffffffffff169080600201549080600d0160009054906101000a900460ff169080600d0160019054906101000a900460ff169080600d0160029054906101000a900460ff16905086565b60075481565b600381565b60045481565b600160009054906101000a900473ffffffffffffffffffffffffffffffffffffffff1673ffffffffffffffffffffffffffffffffffffffff163373ffffffffffffffffffffffffffffffffffffffff1614610a5b576040517f08c379a0000000000000000000000000000000000000000000000000000000008152600401610a5290614c36565b60405180910390fd5b60008060009054906101000a900473ffffffffffffffffffffffffffffffffffffffff169050336000806101000a81548173ffffffffffffffffffffffffffffffffffffffff021916908373ffffffffffffffffffffffffffffffffffffffff1602179055506000600160006101000a81548173ffffffffffffffffffffffffffffffffffffffff021916908373ffffffffffffffffffffffffffffffffffffffff1602179055503373ffffffffffffffffffffffffffffffffffffffff168173ffffffffffffffffffffffffffffffffffffffff167f8be0079c531659141344cd1fd0a4f28419497f9722a3daafe3b4186f6b6457e060405160405180910390a350565b6060610b76674200a277b15a0e4c60c01b61060c565b610b8a677e2802b16308e5d560c01b61060c565b610b9e676afcba8678a3347e60c01b61060c565b600d60003373ffffffffffffffffffffffffffffffffffffffff1673ffffffffffffffffffffffffffffffffffffffff168152602001908152602001600020805480602002602001604051908101604052809291908181526020016000905b82821015610d7557838290600052602060002090600e020160405180610100016040529081600082015481526020016001820160009054906101000a900473ffffffffffffffffffffffffffffffffffffffff1673ffffffffffffffffffffffffffffffffffffffff1673ffffffffffffffffffffffffffffffffffffffff1681526020016002820154815260200160038201600580602002604051908101604052809291908260058015610cc7576020028201915b815481526020019060010190808311610cb3575b5050505050815260200160088201600580602002604051908101604052809291908260058015610d0c576020028201915b815481526020019060010190808311610cf8575b50505050508152602001600d820160009054906101000a900460ff16151515158152602001600d820160019054906101000a900460ff16151515158152602001600d820160029054906101000a900460ff16151515158152505081526020019060010190610bfd565b50505050905090565b60008060009054906101000a900473ffffffffffffffffffffffffffffffffffffffff16905090565b610daf610d7e565b73ffffffffffffffffffffffffffffffffffffffff163373ffffffffffffffffffffffffffffffffffffffff1614158015610e385750600260009054906101000a900473ffffffffffffffffffffffffffffffffffffffff1673ffffffffffffffffffffffffffffffffffffffff163373ffffffffffffffffffffffffffffffffffffffff1614155b15610ea75733610e46610d7e565b600260009054906101000a900473ffffffffffffffffffffffffffffffffffffffff166040517f061db9c1000000000000000000000000000000000000000000000000000000008152600401610e9e93929190614c56565b60405180910390fd5b600073ffffffffffffffffffffffffffffffffffffffff168173ffffffffffffffffffffffffffffffffffffffff1603610f0d576040517fd92e233d00000000000000000000000000000000000000000000000000000000815260040160405180910390fd5b80600260006101000a81548173ffffffffffffffffffffffffffffffffffffffff021916908373ffffffffffffffffffffffffffffffffffffffff1602179055507fd1a6a14209a385a964d036e404cb5cfb71f4000cdb03c9366292430787261be681604051610f7d919061441d565b60405180910390a150565b6000610f9e67892ce605a1ab8c8860c01b61060c565b610fb2671f36a32beba9788c60c01b61060c565b610fc6676ddb94fa0d19b34560c01b61060c565b600454905090565b610fe26744a0f5e5afc051e560c01b61060c565b610ff667c7fad5b2221b45a060c01b61060c565b61100a677fef156b286e0ce160c01b61060c565b61101e67f6485866bfcb2b1e60c01b61060c565b61103267c2d71774eeb2461660c01b61060c565b7f000000000000000000000000000000000000000000000000000000000000000073ffffffffffffffffffffffffffffffffffffffff163373ffffffffffffffffffffffffffffffffffffffff16146110c0576040517f08c379a00000000000000000000000000000000000000000000000000000000081526004016110b790614cd9565b60405180910390fd5b6110d4676f1c3d051be4e1a760c01b61060c565b6110e8678755c485f68ce03560c01b61060c565b6110fc6790fc2ad512ccc97560c01b61060c565b6111106741bab411498acc7960c01b61060c565b611124674b1a8b37978bcb0260c01b61060c565b611138672f68c78987684e3960c01b61060c565b61114c67e53b04ebb118c01560c01b61060c565b600060065411611191576040517f08c379a000000000000000000000000000000000000000000000000000000000815260040161118890614d45565b60405180910390fd5b6111a567e36b81597d32c10260c01b61060c565b6111b967c54dbdb563d8fb6d60c01b61060c565b6111cd6767b5ba5ea5f9403360c01b61060c565b600060065490506111e867e7fa78f1e13f44a460c01b61060c565b600060068190555061120467b25f1638ba78324460c01b61060c565b611218678243bfed1b1d2a6d60c01b61060c565b60007f000000000000000000000000000000000000000000000000000000000000000073ffffffffffffffffffffffffffffffffffffffff168260405161125e90614d96565b60006040518083038185875af1925050503d806000811461129b576040519150601f19603f3d011682016040523d82523d6000602084013e6112a0565b606091505b505090506112b867a2f1ca87be00022a60c01b61060c565b6112cc67c039616bf9771e9660c01b61060c565b6112e067de3fd5f2ad73880060c01b61060c565b80611320576040517f08c379a000000000000000000000000000000000000000000000000000000000815260040161131790614df7565b60405180910390fd5b611334675abcdf38fa1525d460c01b61060c565b61134867daf74f4f3be6996f60c01b61060c565b61135c67450edeb366c95fb960c01b61060c565b817f000000000000000000000000000000000000000000000000000000000000000073ffffffffffffffffffffffffffffffffffffffff167fa711dcbee5590122b88ae65f697adf2f2824e323782fa8df939898d7eb6c1c2b60405160405180910390a35050565b600181565b600260009054906101000a900473ffffffffffffffffffffffffffffffffffffffff1681565b611403672109b7b6970dfbab60c01b61060c565b61140b6130f8565b61141f672b91c671e4d68a3060c01b61060c565b611433670f04bc5549bfefaa60c01b61060c565b61144767d3991ff81ccd648c60c01b61060c565b61145b67e4f163db2cd653dd60c01b61060c565b6000600e6000838152602001908152602001600020905061148667c4afbeb1c824446d60c01b61060c565b61149a670b31e374d60a0e6260c01b61060c565b6114ae6739cb3a24816004aa60c01b61060c565b3373ffffffffffffffffffffffffffffffffffffffff168160010160009054906101000a900473ffffffffffffffffffffffffffffffffffffffff1673ffffffffffffffffffffffffffffffffffffffff1614611540576040517f08c379a000000000000000000000000000000000000000000000000000000000815260040161153790614e63565b60405180910390fd5b61155467d50a131d21bab10260c01b61060c565b61156867a6dfa7e8757e3bad60c01b61060c565b61157c67c336340ae7c3653a60c01b61060c565b6115906728d7ab0066295a7860c01b61060c565b600073ffffffffffffffffffffffffffffffffffffffff168160010160009054906101000a900473ffffffffffffffffffffffffffffffffffffffff1673ffffffffffffffffffffffffffffffffffffffff1603611623576040517f08c379a000000000000000000000000000000000000000000000000000000000815260040161161a90614ecf565b60405180910390fd5b61163767a46144136fbe373260c01b61060c565b61164b6782d8896d6d62095260c01b61060c565b61165f670df00ec22586f99d60c01b61060c565b61167367dccec6275e8c17a360c01b61060c565b80600d0160019054906101000a900460ff166116c4576040517f08c379a00000000000000000000000000000000000000000000000000000000081526004016116bb90614f3b565b60405180910390fd5b6116d867dcdd2f1e4afd0f4460c01b61060c565b6116ec6763cdb3ab9e77bbc160c01b61060c565b61170067ceff572b232538e960c01b61060c565b611714679fdcb1ebce469b5260c01b61060c565b80600d0160029054906101000a900460ff16611765576040517f08c379a000000000000000000000000000000000000000000000000000000000815260040161175c90614fa7565b60405180910390fd5b6117796755192924f759ea4060c01b61060c565b61178d67c04c941d44b793bb60c01b61060c565b6117a16793c41186da81d4fd60c01b61060c565b6117b567011c4d8ccc5edb3d60c01b61060c565b80600d0160009054906101000a900460ff1615611807576040517f08c379a00000000000000000000000000000000000000000000000000000000081526004016117fe90615013565b60405180910390fd5b61181b67136b0efc49d876ad60c01b61060c565b61182f67c4c3d5ef9577db9160c01b61060c565b61184367bd51d80b59e1191b60c01b61060c565b60006118cd82600301600580602002604051908101604052809291908260058015611883576020028201915b81548152602001906001019080831161186f575b5050505050836008016005806020026040519081016040528092919082600580156118c3576020028201915b8154815260200190600101908083116118af575b5050505050613147565b90506118e367e1fd34c4e1847bfc60c01b61060c565b6118f767cddf54c3f19ec21a60c01b61060c565b6000611902826133a7565b90506119186715110ed979455a9b60c01b61060c565b61192c674ff1c8addf5f2ab860c01b61060c565b61194067b5af5263423c0b9a60c01b61060c565b60008111611983576040517f08c379a000000000000000000000000000000000000000000000000000000000815260040161197a9061507f565b60405180910390fd5b61199767ed48590824ee00a760c01b61060c565b6119ab67e99c16f01232828860c01b61060c565b6119bf67d1a5b7e3e090164660c01b61060c565b60008190506119d8677544204b81f7890760c01b61060c565b6119ec679d7de9a788b0a90560c01b61060c565b8160045410611a3b57611a0967c79d413f9734040f60c01b61060c565b611a1d673df0e4bfbf8034ca60c01b61060c565b8160046000828254611a2f919061509f565b92505081905550611a85565b611a4f67af6002705f71488f60c01b61060c565b611a63674ab5db23b8aa900760c01b61060c565b6004549050611a7c679e8826ce92d3df5860c01b61060c565b60006004819055505b611a99675858daf8cb1ae57560c01b61060c565b600184600d0160006101000a81548160ff021916908315150217905550611aca67fc9868b5b9a8010f60c01b61060c565b611ade6727839e31bc0425ea60c01b61060c565b611b0c8460010160009054906101000a900473ffffffffffffffffffffffffffffffffffffffff1682613743565b611b20674ef0fef4056fa80360c01b61060c565b611b346776749bc13091b13a60c01b61060c565b80858560010160009054906101000a900473ffffffffffffffffffffffffffffffffffffffff1673ffffffffffffffffffffffffffffffffffffffff167ff01da32686223933d8a18a391060918c7f11a3648639edd87ae013e2e273174360405160405180910390a450505050611ba9613913565b50565b600f6020528060005260406000206000915090505481565b611bd8676bc3ab80ea23ec0260c01b61060c565b611bec670f2d65c90befeb8760c01b61060c565b611c0067c1d13486c937a96360c01b61060c565b611c1467ab0f68f8357c474f60c01b61060c565b3373ffffffffffffffffffffffffffffffffffffffff163273ffffffffffffffffffffffffffffffffffffffff1614611c82576040517f08c379a0000000000000000000000000000000000000000000000000000000008152600401611c799061511f565b60405180910390fd5b611c96670839f2ec4418ef6c60c01b61060c565b611caa6781ac21a9c40b612760c01b61060c565b611cbe674aa3c6dca016549760c01b61060c565b611cd267d62eaf71f4e787d460c01b61060c565b655af3107a40003414611d1a576040517f08c379a0000000000000000000000000000000000000000000000000000000008152600401611d119061518b565b60405180910390fd5b611d2e6799544b3fb1c80f5960c01b61060c565b611d42671f75487d753dc1c560c01b61060c565b611d566762d8d0ec58f0e8c860c01b61060c565b600060405180610100016040528060076000815480929190611d77906151ab565b9190505581526020013373ffffffffffffffffffffffffffffffffffffffff1681526020014281526020016008600580602002604051908101604052809291908260058015611ddb576020028201915b815481526020019060010190808311611dc7575b505050505081526020016008600580602002604051908101604052809291908260058015611e1e576020028201915b815481526020019060010190808311611e0a575b50505050508152602001600015158152602001600015158152602001600015158152509050611e57676db9b489783aa62460c01b61060c565b80600e6000836000015181526020019081526020016000206000820151816000015560208201518160010160006101000a81548173ffffffffffffffffffffffffffffffffffffffff021916908373ffffffffffffffffffffffffffffffffffffffff16021790555060408201518160020155606082015181600301906005611ee192919061411b565b50608082015181600801906005611ef992919061411b565b5060a082015181600d0160006101000a81548160ff02191690831515021790555060c082015181600d0160016101000a81548160ff02191690831515021790555060e082015181600d0160026101000a81548160ff021916908315150217905550905050611f71673690b3b2448c1d0060c01b61060c565b611f85676c010614da30852960c01b61060c565b600d60003373ffffffffffffffffffffffffffffffffffffffff1673ffffffffffffffffffffffffffffffffffffffff1681526020019081526020016000208190806001815401808255809150506001900390600052602060002090600e02016000909190919091506000820151816000015560208201518160010160006101000a81548173ffffffffffffffffffffffffffffffffffffffff021916908373ffffffffffffffffffffffffffffffffffffffff1602179055506040820151816002015560608201518160030190600561206092919061411b565b5060808201518160080190600561207892919061411b565b5060a082015181600d0160006101000a81548160ff02191690831515021790555060c082015181600d0160016101000a81548160ff02191690831515021790555060e082015181600d0160026101000a81548160ff02191690831515021790555050506120ef67d710ba3649293aee60c01b61060c565b61210367107b900459c485b360c01b61060c565b61210c3461060f565b6121206731ece00a8bea571360c01b61060c565b6121346785d0fd0f0ad6226360c01b61060c565b80600001513373ffffffffffffffffffffffffffffffffffffffff167f0668f5b446eb814fe35b3206f43f14bd8567ba04ddaf7a3ee56516929ab22ccb60405160405180910390a350565b655af3107a400081565b60008061219461415b565b61219c61415b565b6121b067b235d8f59a8d474560c01b61060c565b6121c4675b8d66a447af172160c01b61060c565b6121d867af596256e9d0a13b60c01b61060c565b6000600e600087815260200190815260200160002090506122036710ae49dc62d726b560c01b61060c565b6122176781d97b374595114260c01b61060c565b61222b677bfc73bdb9d1753260c01b61060c565b3373ffffffffffffffffffffffffffffffffffffffff168160010160009054906101000a900473ffffffffffffffffffffffffffffffffffffffff1673ffffffffffffffffffffffffffffffffffffffff16146122bd576040517f08c379a00000000000000000000000000000000000000000000000000000000081526004016122b49061523f565b60405180910390fd5b6122d1670941aa68e9cdc94160c01b61060c565b6122e567cf16015d2f1d5bc360c01b61060c565b6122f96754503b071acd4dbc60c01b61060c565b61230d67e864566acf4f592360c01b61060c565b600073ffffffffffffffffffffffffffffffffffffffff168160010160009054906101000a900473ffffffffffffffffffffffffffffffffffffffff1673ffffffffffffffffffffffffffffffffffffffff16036123a0576040517f08c379a000000000000000000000000000000000000000000000000000000000815260040161239790614ecf565b60405180910390fd5b6123b467e688dc3813077f8d60c01b61060c565b6123c867c0e62aaccfa4962060c01b61060c565b6123dc67b2d7ca6a8555253e60c01b61060c565b6123f06782e26530f1d4856860c01b61060c565b80600d0160019054906101000a900460ff16612441576040517f08c379a000000000000000000000000000000000000000000000000000000000815260040161243890614f3b565b60405180910390fd5b612455672daff0c161d0849860c01b61060c565b61246967864f426b7eaed61e60c01b61060c565b61247d67814e1131b06dfccb60c01b61060c565b6124916740d9d986793c1d5f60c01b61060c565b80600d0160029054906101000a900460ff166124e2576040517f08c379a00000000000000000000000000000000000000000000000000000000081526004016124d9906152d1565b60405180910390fd5b6124f667cd26722f198ccbfe60c01b61060c565b61250a67c0db8c36c93df44460c01b61060c565b61259281600301600580602002604051908101604052809291908260058015612548576020028201915b815481526020019060010190808311612534575b505050505082600801600580602002604051908101604052809291908260058015612588576020028201915b815481526020019060010190808311612574575b5050505050613147565b94506125a8672a36099381e96df060c01b61060c565b6125b1856133a7565b93506125c767a6d480519f55efff60c01b61060c565b80600301600580602002604051908101604052809291908260058015612602576020028201915b8154815260200190600101908083116125ee575b5050505050925061261d6752095138fba7462e60c01b61060c565b80600801600580602002604051908101604052809291908260058015612658576020028201915b815481526020019060010190808311612644575b50505050509150509193509193565b61266f61391d565b612678816139ad565b50565b61268f67fd4affff2333c29260c01b61060c565b6126a367c7fad5b2221b45a060c01b61060c565b6126b7677fef156b286e0ce160c01b61060c565b6126cb67f6485866bfcb2b1e60c01b61060c565b6126df67c2d71774eeb2461660c01b61060c565b7f000000000000000000000000000000000000000000000000000000000000000073ffffffffffffffffffffffffffffffffffffffff163373ffffffffffffffffffffffffffffffffffffffff161461276d576040517f08c379a000000000000000000000000000000000000000000000000000000000815260040161276490614cd9565b60405180910390fd5b612781676f1c3d051be4e1a760c01b61060c565b612795678755c485f68ce03560c01b61060c565b6127a967303fb86dc6d9679b60c01b61060c565b6127bd67058bcba930de64a260c01b61060c565b6127d167de6beaa1b1d20eb760c01b61060c565b6127e56722a6817395fa32b260c01b61060c565b6127f9677d3abf55f061b74c60c01b61060c565b60006005541161283e576040517f08c379a000000000000000000000000000000000000000000000000000000000815260040161283590614d45565b60405180910390fd5b612852676e462ad5594cc1f760c01b61060c565b61286667e3f0c7c88a38808e60c01b61060c565b61287a671725b77d199230d560c01b61060c565b60006005549050612895677a9cf5b7f136991d60c01b61060c565b60006005819055506128b1678f544923c5ee185b60c01b61060c565b6128c56704ac231ed511abdf60c01b61060c565b60007f000000000000000000000000000000000000000000000000000000000000000073ffffffffffffffffffffffffffffffffffffffff168260405161290b90614d96565b60006040518083038185875af1925050503d8060008114612948576040519150601f19603f3d011682016040523d82523d6000602084013e61294d565b606091505b50509050612965676bb077aed4d2f0de60c01b61060c565b61297967f13543c634aaf2c260c01b61060c565b61298d67947cb65b2a7cca7860c01b61060c565b806129cd576040517f08c379a00000000000000000000000000000000000000000000000000000000081526004016129c490615363565b60405180910390fd5b6129e167cee7f358d3a3d3b860c01b61060c565b6129f56763e99480b209379b60c01b61060c565b612a096760896eb0c2dd36d460c01b61060c565b817f000000000000000000000000000000000000000000000000000000000000000073ffffffffffffffffffffffffffffffffffffffff167fa760777eb358393d33a518ec33e1187940af7f3cbffb09c53db5ee4b7e7e402560405160405180910390a35050565b612a85670c84fe4376cfde4360c01b61060c565b612a9967bb4081ee02a2629860c01b61060c565b612aad677021c267b50d6fef60c01b61060c565b6000600e60008481526020019081526020016000209050612ad86747276bea146fac2360c01b61060c565b612aec679a03f9d5f4864b3e60c01b61060c565b612b0067e06e3acf007cf66260c01b61060c565b3373ffffffffffffffffffffffffffffffffffffffff168160010160009054906101000a900473ffffffffffffffffffffffffffffffffffffffff1673ffffffffffffffffffffffffffffffffffffffff1614612b92576040517f08c379a0000000000000000000000000000000000000000000000000000000008152600401612b89906153cf565b60405180910390fd5b612ba6673243ab74d41f9bb160c01b61060c565b612bba67e0ad0d9931080df360c01b61060c565b612bce67bd103864ad6e59e360c01b61060c565b612be267ec3176627b669bb560c01b61060c565b80600d0160019054906101000a900460ff1615612c34576040517f08c379a0000000000000000000000000000000000000000000000000000000008152600401612c2b9061543b565b60405180910390fd5b612c48677a12c94cfb6707c060c01b61060c565b612c5c672d9e5fbca553c2ab60c01b61060c565b612c70670d641886b75d0c1260c01b61060c565b60005b6005811015612e6957612c906764d9546fb54c3d3f60c01b61060c565b612ca46735c40e4032c1870e60c01b61060c565b612cb867c18b967233924f3260c01b61060c565b6000838260058110612ccd57612ccc61545b565b5b602002015110158015612cf857506024838260058110612cf057612cef61545b565b5b602002015111155b612d37576040517f08c379a0000000000000000000000000000000000000000000000000000000008152600401612d2e906154d6565b60405180910390fd5b612d4b670e8fb34675fe944360c01b61060c565b612d5f6777e7938d0f1ee0d560c01b61060c565b612d7367ed06dccc7328e4d360c01b61060c565b6000600182612d829190614b8d565b90505b6005811015612e5b57612da267a4a3e7040692622260c01b61060c565b612db667338fc1b9f4e92a2060c01b61060c565b612dca67efbacbd852a5ebf760c01b61060c565b838160058110612ddd57612ddc61545b565b5b6020020151848360058110612df557612df461545b565b5b602002015103612e3a576040517f08c379a0000000000000000000000000000000000000000000000000000000008152600401612e3190615542565b60405180910390fd5b612e4e67c1a0d43de5b2132760c01b61060c565b8080600101915050612d85565b508080600101915050612c73565b50612e7e67fcebcaff1b307e5860c01b61060c565b8181600301906005612e9192919061411b565b50612ea667ceb9279a09d3499060c01b61060c565b600181600d0160016101000a81548160ff021916908315150217905550612ed7676ee84c47627a2db260c01b61060c565b612eeb67d739111f71f14d4560c01b61060c565b3373ffffffffffffffffffffffffffffffffffffffff167f26aa7c18051e08a0cf3f3b6f17d2953735d99eab33c5d55efdf08ef510de455e83604051612f319190615562565b60405180910390a2612f4d67485ba715cf349ff260c01b61060c565b612f616779da5af42d04516d60c01b61060c565b612f6a83613ad9565b50505050565b612f8467745dbafe64bd985260c01b61060c565b612f9867bfc583c4312a442360c01b61060c565b612fac671bec0d57114f047360c01b61060c565b6000600f6000858152602001908152602001600020549050612fd867a58c62cdf440601f60c01b61060c565b612fec674d73ccbf54cfd16760c01b61060c565b6000838360008181106130025761300161545b565b5b90506020020135905061301f671e3b3f4dc5e615df60c01b61060c565b61302881613cb6565b600e600084815260200190815260200160002060080190600561304c92919061411b565b5061306167f61a1586a8b55c3f60c01b61060c565b6001600e6000848152602001908152602001600020600d0160026101000a81548160ff0219169083151502179055506130a467a6ff126653b29a6660c01b61060c565b6130b867cb9cb145a369959c60c01b61060c565b81857f86dc71b58256a2aebe2afe6d9153ce25cb709dff36adfd6807758636d89e0e44836040516130e9919061455c565b60405180910390a35050505050565b60026003540361313d576040517f08c379a0000000000000000000000000000000000000000000000000000000008152600401613134906155c9565b60405180910390fd5b6002600381905550565b600061315d67d3b11ec594df781160c01b61060c565b61317167f670fc8e242c4e7260c01b61060c565b61318567d4eebff96d8041d760c01b61060c565b600061319b67328a694bec6be2b260c01b61060c565b6131af67d155b48aa91e94c960c01b61060c565b6131b761417d565b6131cb67a83f13f960f2df0d60c01b61060c565b6131df67a26f567305c4329760c01b61060c565b60005b60058160ff161015613373576132026759d1daeed9b5f98b60c01b61060c565b613216678db6511104b31aaa60c01b61060c565b60005b60058160ff16101561335f57613239672721f047be45fe5f60c01b61060c565b61324d67fdde9ab7ea8ea25a60c01b61060c565b828160ff16600581106132635761326261545b565b5b60200201511580156132a85750858160ff16600581106132865761328561545b565b5b6020020151878360ff16600581106132a1576132a061545b565b5b6020020151145b15613338576132c1673b9b131751d68d2560c01b61060c565b6132d5671548cfcfc421e4c560c01b61060c565b6001846132e291906155e9565b93506132f867956474ef4f9451d260c01b61060c565b6001838260ff16600581106133105761330f61545b565b5b602002019015159081151581525050613333677db2aaedca1b6eeb60c01b61060c565b61335f565b61334c6741e8932564d9c32260c01b61060c565b80806133579061561e565b915050613219565b50808061336b9061561e565b9150506131e2565b506133886733655b047a4b8b5f60c01b61060c565b61339c67722472b1090f672b60c01b61060c565b819250505092915050565b60006133bd674b12af9d60cda8d060c01b61060c565b6133d167d39ab39b7841de0260c01b61060c565b6133e567d3c1c25cdd1e97f160c01b61060c565b6133f967118f20d191a598cd60c01b61060c565b60058260ff161115613440576040517f08c379a000000000000000000000000000000000000000000000000000000000815260040161343790615693565b60405180910390fd5b613454671be61f1d62edf91360c01b61060c565b6134686702ff5e5048aeb37460c01b61060c565b61347c6764abc9d4b8a6480260c01b61060c565b60008260ff16036134cc5761349b67cbc010eb43a1e40960c01b61060c565b6134af671e89c94fc7bc650b60c01b61060c565b6134c3674b7b80c62468ce6160c01b61060c565b6000905061373e565b6134e0675aa2d402554d519c60c01b61060c565b6134f4672e8c5e57a31eb6f460c01b61060c565b60018260ff16036135495761351367c18e04c2ecdb0c8860c01b61060c565b61352767fed9afc78b985d8360c01b61060c565b61353b67316a88cb9655963b60c01b61060c565b655af3107a4000905061373e565b61355d67f761a1287d8de20160c01b61060c565b61357167bebd797df6eabef460c01b61060c565b60028260ff16036135da576135906776e76697de217c8660c01b61060c565b6135a4671356c74914580f2160c01b61060c565b6135b86782034b11b23ee8fe60c01b61060c565b606460056004546135c99190614aeb565b6135d39190614b5c565b905061373e565b6135ee672f0ca50a94ec818c60c01b61060c565b61360267e7e11726c6b78d0c60c01b61060c565b60038260ff160361366b5761362167b4876b335c782d0160c01b61060c565b61363567f103e249436b89f060c01b61060c565b6136496773be1e20136bc0a560c01b61060c565b6064600a60045461365a9190614aeb565b6136649190614b5c565b905061373e565b61367f678be4096f14b3b56a60c01b61060c565b61369367f378238b632ddbcf60c01b61060c565b60048260ff16036136fc576136b2672a43ea1473a7d2a760c01b61060c565b6136c6674de29f784aa08a5860c01b61060c565b6136da67f7d766ba9f8cc84060c01b61060c565b6064601e6004546136eb9190614aeb565b6136f59190614b5c565b905061373e565b613710675a35a70c08773a1460c01b61060c565b613724679a663e7f97e9ed9c60c01b61060c565b613738672abfe2e4db143d7d60c01b61060c565b60045490505b919050565b61375767ab2fc12540a0631b60c01b61060c565b61376b67888d37edbda962cb60c01b61060c565b61377f675147a824fd4b654960c01b61060c565b61379367ae3cd61f637ef7ce60c01b61060c565b600081116137d6576040517f08c379a00000000000000000000000000000000000000000000000000000000081526004016137cd906156ff565b60405180910390fd5b6137ea674e9137496457ffa560c01b61060c565b6137fe67f0d1bdb1a4787efd60c01b61060c565b61381267a4699234d7ae8b9a60c01b61060c565b60008273ffffffffffffffffffffffffffffffffffffffff168260405161383890614d96565b60006040518083038185875af1925050503d8060008114613875576040519150601f19603f3d011682016040523d82523d6000602084013e61387a565b606091505b505090506138926704e6b1c2fb33a91c60c01b61060c565b6138a667b20c064e305c171660c01b61060c565b6138ba670318979a25b6ab3660c01b61060c565b806138fa576040517f08c379a00000000000000000000000000000000000000000000000000000000081526004016138f19061576b565b60405180910390fd5b61390e67948042b1d1887c8060c01b61060c565b505050565b6001600381905550565b60008054906101000a900473ffffffffffffffffffffffffffffffffffffffff1673ffffffffffffffffffffffffffffffffffffffff163373ffffffffffffffffffffffffffffffffffffffff16146139ab576040517f08c379a00000000000000000000000000000000000000000000000000000000081526004016139a2906157d7565b60405180910390fd5b565b3373ffffffffffffffffffffffffffffffffffffffff168173ffffffffffffffffffffffffffffffffffffffff1603613a1b576040517f08c379a0000000000000000000000000000000000000000000000000000000008152600401613a1290615843565b60405180910390fd5b80600160006101000a81548173ffffffffffffffffffffffffffffffffffffffff021916908373ffffffffffffffffffffffffffffffffffffffff1602179055508073ffffffffffffffffffffffffffffffffffffffff1660008054906101000a900473ffffffffffffffffffffffffffffffffffffffff1673ffffffffffffffffffffffffffffffffffffffff167fed8889f560326eb138920d842192f0eb3dd22b4f139c87a2c57538e05bae127860405160405180910390a350565b6000613aef67ba2226bc7fae1cfd60c01b61060c565b613b036706f2fec183d2350d60c01b61060c565b613b1767a60c655142d7ee8860c01b61060c565b6000600260009054906101000a900473ffffffffffffffffffffffffffffffffffffffff1673ffffffffffffffffffffffffffffffffffffffff16639b1c385e6040518060c001604052807f787d74caea10b2b357790d5b5247c2f63d1d91572a9846f780606e4d953677ae60001b81526020017f00000000000000000000000000000000000000000000000000000000000000008152602001600361ffff168152602001622625a063ffffffff168152602001600160ff1663ffffffff168152602001613bf5604051806020016040528060001515815250614083565b8152506040518263ffffffff1660e01b8152600401613c1491906159a2565b6020604051808303816000875af1158015613c33573d6000803e3d6000fd5b505050506040513d601f19601f82011682018060405250810190613c5791906159d9565b9050613c6d67aa0adb4a2ea7cea660c01b61060c565b82600f600083815260200190815260200160002081905550613c9967c9f2f85cf17b7f2e60c01b61060c565b613cad674ea34e711fa11ef960c01b61060c565b80915050919050565b613cbe61415b565b613cd267c62cef5a161af43b60c01b61060c565b613ce667aa7bec9863cc497460c01b61060c565b613cfa6738a056ff038bb3b260c01b61060c565b613d0261419f565b613d16670e70ab448841855c60c01b61060c565b613d2a671f4710e0a656b26d60c01b61060c565b613d3261415b565b613d4667bbafbe5dbb86bea560c01b61060c565b613d5a67ad9765d84e2ba60160c01b61060c565b6000613d70673b211ccc151da7b460c01b61060c565b613d846797bbe58f46a5054e60c01b61060c565b600085604051602001613d97919061455c565b604051602081830303815290604052805190602001209050613dc36713d868ca35850ac660c01b61060c565b613dd76704574b7ae43964f360c01b61060c565b6000613ded679ea42d404292dcbb60c01b61060c565b613e01674b578a0b697b31df60c01b61060c565b5b600583101561404e57613e1f67921b5f179620d18760c01b61060c565b613e33676e2dc9f0c854ccb360c01b61060c565b60208160ff1610613eae57613e526786d623667b66818f60c01b61060c565b613e66673010bbdde194d6d760c01b61060c565b8181604051602001613e79929190615a15565b604051602081830303815290604052805190602001209150613ea567253f00305671227260c01b61060c565b60009050613ec3565b613ec267657dae58215d5ddb60c01b61060c565b5b613ed767e4145eb72d6c9d8760c01b61060c565b613eeb677259965dd72e82ac60c01b61060c565b60006025838360ff1660208110613f0557613f0461545b565b5b1a60f81b60f81c613f169190615a3e565b9050613f2c6714bcfcb1ead7059560c01b61060c565b8180613f379061561e565b925050613f4e67ba235f18c900c07c60c01b61060c565b613f6267e624d8f18ca63cce60c01b61060c565b6000868260ff1660258110613f7a57613f7961545b565b5b602002015160ff160361403357613f9b67f1472479b7558d3460c01b61060c565b613faf679ab6b21e18cfb08a60c01b61060c565b6001868260ff1660258110613fc757613fc661545b565b5b602002019060ff16908160ff1681525050613fec679c3a7459dc04272260c01b61060c565b8060ff168585600581106140035761400261545b565b5b602002018181525050614020674c57ccb421cbf2cc60c01b61060c565b838061402b906151ab565b945050614048565b614047672b42c2caf4b1e91760c01b61060c565b5b50613e02565b61406267f9c466d0df3239b660c01b61060c565b6140766746bb1fee5d5c7aa760c01b61060c565b8395505050505050919050565b60607f92fd13387c7fe7befbc38d303d6468778fb9731bc4583f17d92989c6fcfdeaaa826040516024016140b79190615a8b565b604051602081830303815290604052907bffffffffffffffffffffffffffffffffffffffffffffffffffffffff19166020820180517bffffffffffffffffffffffffffffffffffffffffffffffffffffffff83818316178352505050509050919050565b826005810192821561414a579160200282015b8281111561414957825182559160200191906001019061412e565b5b50905061415791906141c2565b5090565b6040518060a00160405280600590602082028036833780820191505090505090565b6040518060a00160405280600590602082028036833780820191505090505090565b604051806104a00160405280602590602082028036833780820191505090505090565b5b808211156141db5760008160009055506001016141c3565b5090565b600082825260208201905092915050565b7f496e76616c69642063616c6c0000000000000000000000000000000000000000600082015250565b6000614226600c836141df565b9150614231826141f0565b602082019050919050565b6000602082019050818103600083015261425581614219565b9050919050565b6000604051905090565b600080fd5b600080fd5b6000819050919050565b61428381614270565b811461428e57600080fd5b50565b6000813590506142a08161427a565b92915050565b600080fd5b600080fd5b600080fd5b60008083601f8401126142cb576142ca6142a6565b5b8235905067ffffffffffffffff8111156142e8576142e76142ab565b5b602083019150836020820283011115614304576143036142b0565b5b9250929050565b60008060006040848603121561432457614323614266565b5b600061433286828701614291565b935050602084013567ffffffffffffffff8111156143535761435261426b565b5b61435f868287016142b5565b92509250509250925092565b600063ffffffff82169050919050565b6143848161436b565b82525050565b600060208201905061439f600083018461437b565b92915050565b600060ff82169050919050565b6143bb816143a5565b82525050565b60006020820190506143d660008301846143b2565b92915050565b600073ffffffffffffffffffffffffffffffffffffffff82169050919050565b6000614407826143dc565b9050919050565b614417816143fc565b82525050565b6000602082019050614432600083018461440e565b92915050565b614441816143fc565b811461444c57600080fd5b50565b60008135905061445e81614438565b92915050565b6000806040838503121561447b5761447a614266565b5b60006144898582860161444f565b925050602061449a85828601614291565b9150509250929050565b6144ad81614270565b82525050565b60008115159050919050565b6144c8816144b3565b82525050565b600060c0820190506144e360008301896144a4565b6144f0602083018861440e565b6144fd60408301876144a4565b61450a60608301866144bf565b61451760808301856144bf565b61452460a08301846144bf565b979650505050505050565b60006020828403121561454557614544614266565b5b600061455384828501614291565b91505092915050565b600060208201905061457160008301846144a4565b92915050565b600061ffff82169050919050565b61458e81614577565b82525050565b60006020820190506145a96000830184614585565b92915050565b600081519050919050565b600082825260208201905092915050565b6000819050602082019050919050565b6145e481614270565b82525050565b6145f3816143fc565b82525050565b600060059050919050565b600081905092915050565b6000819050919050565b600061462583836145db565b60208301905092915050565b6000602082019050919050565b614647816145f9565b6146518184614604565b925061465c8261460f565b8060005b8381101561468d5781516146748782614619565b965061467f83614631565b925050600181019050614660565b505050505050565b61469e816144b3565b82525050565b610200820160008201516146bb60008501826145db565b5060208201516146ce60208501826145ea565b5060408201516146e160408501826145db565b5060608201516146f4606085018261463e565b50608082015161470861010085018261463e565b5060a082015161471c6101a0850182614695565b5060c08201516147306101c0850182614695565b5060e08201516147446101e0850182614695565b50505050565b600061475683836146a4565b6102008301905092915050565b6000602082019050919050565b600061477b826145af565b61478581856145ba565b9350614790836145cb565b8060005b838110156147c15781516147a8888261474a565b97506147b383614763565b925050600181019050614794565b5085935050505092915050565b600060208201905081810360008301526147e88184614770565b905092915050565b60006020828403121561480657614805614266565b5b60006148148482850161444f565b91505092915050565b6000819050919050565b600061484261483d614838846143dc565b61481d565b6143dc565b9050919050565b600061485482614827565b9050919050565b600061486682614849565b9050919050565b6148768161485b565b82525050565b6000602082019050614891600083018461486d565b92915050565b600081905092915050565b6148ab816145f9565b6148b58184614897565b92506148c08261460f565b8060005b838110156148f15781516148d88782614619565b96506148e383614631565b9250506001810190506148c4565b505050505050565b60006101808201905061490f60008301876143b2565b61491c60208301866144a4565b61492960408301856148a2565b61493660e08301846148a2565b95945050505050565b6000601f19601f8301169050919050565b7f4e487b7100000000000000000000000000000000000000000000000000000000600052604160045260246000fd5b6149888261493f565b810181811067ffffffffffffffff821117156149a7576149a6614950565b5b80604052505050565b60006149ba61425c565b90506149c6828261497f565b919050565b600067ffffffffffffffff8211156149e6576149e5614950565b5b602082029050919050565b6000614a046149ff846149cb565b6149b0565b90508060208402830185811115614a1e57614a1d6142b0565b5b835b81811015614a475780614a338882614291565b845260208401935050602081019050614a20565b5050509392505050565b600082601f830112614a6657614a656142a6565b5b6005614a738482856149f1565b91505092915050565b60008060c08385031215614a9357614a92614266565b5b6000614aa185828601614291565b9250506020614ab285828601614a51565b9150509250929050565b7f4e487b7100000000000000000000000000000000000000000000000000000000600052601160045260246000fd5b6000614af682614270565b9150614b0183614270565b9250828202614b0f81614270565b91508282048414831517614b2657614b25614abc565b5b5092915050565b7f4e487b7100000000000000000000000000000000000000000000000000000000600052601260045260246000fd5b6000614b6782614270565b9150614b7283614270565b925082614b8257614b81614b2d565b5b828204905092915050565b6000614b9882614270565b9150614ba383614270565b9250828201905080821115614bbb57614bba614abc565b5b92915050565b6000604082019050614bd6600083018561440e565b614be3602083018461440e565b9392505050565b7f4d7573742062652070726f706f736564206f776e657200000000000000000000600082015250565b6000614c206016836141df565b9150614c2b82614bea565b602082019050919050565b60006020820190508181036000830152614c4f81614c13565b9050919050565b6000606082019050614c6b600083018661440e565b614c78602083018561440e565b614c85604083018461440e565b949350505050565b7f4f6e6c7920666f72206f776e6572000000000000000000000000000000000000600082015250565b6000614cc3600e836141df565b9150614cce82614c8d565b602082019050919050565b60006020820190508181036000830152614cf281614cb6565b9050919050565b7f4e6f7468696e6720746f20776974686472617700000000000000000000000000600082015250565b6000614d2f6013836141df565b9150614d3a82614cf9565b602082019050919050565b60006020820190508181036000830152614d5e81614d22565b9050919050565b600081905092915050565b50565b6000614d80600083614d65565b9150614d8b82614d70565b600082019050919050565b6000614da182614d73565b9150819050919050565b7f4f776e657242616c616e6365207769746864726177616c206661696c65640000600082015250565b6000614de1601e836141df565b9150614dec82614dab565b602082019050919050565b60006020820190508181036000830152614e1081614dd4565b9050919050565b7f4f6e6c79207469636b6574206f776e65722063616e20636c61696d0000000000600082015250565b6000614e4d601b836141df565b9150614e5882614e17565b602082019050919050565b60006020820190508181036000830152614e7c81614e40565b9050919050565b7f5469636b657420646f6573206e6f742065786973740000000000000000000000600082015250565b6000614eb96015836141df565b9150614ec482614e83565b602082019050919050565b60006020820190508181036000830152614ee881614eac565b9050919050565b7f436f6d62696e6174696f6e206e6f74207375626d697474656400000000000000600082015250565b6000614f256019836141df565b9150614f3082614eef565b602082019050919050565b60006020820190508181036000830152614f5481614f18565b9050919050565b7f57696e6e696e67206e6f742067656e6572617465640000000000000000000000600082015250565b6000614f916015836141df565b9150614f9c82614f5b565b602082019050919050565b60006020820190508181036000830152614fc081614f84565b9050919050565b7f52657761726420616c726561647920636c61696d656400000000000000000000600082015250565b6000614ffd6016836141df565b915061500882614fc7565b602082019050919050565b6000602082019050818103600083015261502c81614ff0565b9050919050565b7f4e6f2072657761726420746f20636c61696d0000000000000000000000000000600082015250565b60006150696012836141df565b915061507482615033565b602082019050919050565b600060208201905081810360008301526150988161505c565b9050919050565b60006150aa82614270565b91506150b583614270565b92508282039050818111156150cd576150cc614abc565b5b92915050565b7f4f6e6c79207265616c20706c6179657273210000000000000000000000000000600082015250565b60006151096012836141df565b9150615114826150d3565b602082019050919050565b60006020820190508181036000830152615138816150fc565b9050919050565b7f5472616e73616374696f6e2076616c756520697320746f6f206c6f7721000000600082015250565b6000615175601d836141df565b91506151808261513f565b602082019050919050565b600060208201905081810360008301526151a481615168565b9050919050565b60006151b682614270565b91507fffffffffffffffffffffffffffffffffffffffffffffffffffffffffffffffff82036151e8576151e7614abc565b5b600182019050919050565b7f4f6e6c79207469636b6574206f776e65722063616e2076696577000000000000600082015250565b6000615229601a836141df565b9150615234826151f3565b602082019050919050565b600060208201905081810360008301526152588161521c565b9050919050565b7f57696e6e696e6720636f6d62696e6174696f6e206973206e6f742067656e657260008201527f6174656400000000000000000000000000000000000000000000000000000000602082015250565b60006152bb6024836141df565b91506152c68261525f565b604082019050919050565b600060208201905081810360008301526152ea816152ae565b9050919050565b7f4f7065726174696f6e7342616c616e6365207769746864726177616c2066616960008201527f6c65640000000000000000000000000000000000000000000000000000000000602082015250565b600061534d6023836141df565b9150615358826152f1565b604082019050919050565b6000602082019050818103600083015261537c81615340565b9050919050565b7f596f7520617265206e6f7420746865206f776e65720000000000000000000000600082015250565b60006153b96015836141df565b91506153c482615383565b602082019050919050565b600060208201905081810360008301526153e8816153ac565b9050919050565b7f416c7265616479207375626d6974746564000000000000000000000000000000600082015250565b60006154256011836141df565b9150615430826153ef565b602082019050919050565b6000602082019050818103600083015261545481615418565b9050919050565b7f4e487b7100000000000000000000000000000000000000000000000000000000600052603260045260246000fd5b7f4e756d626572206f7574206f662072616e67652028302d333629000000000000600082015250565b60006154c0601a836141df565b91506154cb8261548a565b602082019050919050565b600060208201905081810360008301526154ef816154b3565b9050919050565b7f4475706c6963617465206e756d62657273206e6f7420616c6c6f776564000000600082015250565b600061552c601d836141df565b9150615537826154f6565b602082019050919050565b6000602082019050818103600083015261555b8161551f565b9050919050565b600060a08201905061557760008301846148a2565b92915050565b7f5265656e7472616e637947756172643a207265656e7472616e742063616c6c00600082015250565b60006155b3601f836141df565b91506155be8261557d565b602082019050919050565b600060208201905081810360008301526155e2816155a6565b9050919050565b60006155f4826143a5565b91506155ff836143a5565b9250828201905060ff81111561561857615617614abc565b5b92915050565b6000615629826143a5565b915060ff820361563c5761563b614abc565b5b600182019050919050565b7f556e6578706563746564206d61746368696e67206e756d62657220636f756e74600082015250565b600061567d6020836141df565b915061568882615647565b602082019050919050565b600060208201905081810360008301526156ac81615670565b9050919050565b7f4e6f2072657761726420746f2073656e64000000000000000000000000000000600082015250565b60006156e96011836141df565b91506156f4826156b3565b602082019050919050565b60006020820190508181036000830152615718816156dc565b9050919050565b7f526577617264207472616e73666572206661696c656400000000000000000000600082015250565b60006157556016836141df565b91506157608261571f565b602082019050919050565b6000602082019050818103600083015261578481615748565b9050919050565b7f4f6e6c792063616c6c61626c65206279206f776e657200000000000000000000600082015250565b60006157c16016836141df565b91506157cc8261578b565b602082019050919050565b600060208201905081810360008301526157f0816157b4565b9050919050565b7f43616e6e6f74207472616e7366657220746f2073656c66000000000000000000600082015250565b600061582d6017836141df565b9150615838826157f7565b602082019050919050565b6000602082019050818103600083015261585c81615820565b9050919050565b6000819050919050565b61587681615863565b82525050565b61588581614577565b82525050565b6158948161436b565b82525050565b600081519050919050565b600082825260208201905092915050565b60005b838110156158d45780820151818401526020810190506158b9565b60008484015250505050565b60006158eb8261589a565b6158f581856158a5565b93506159058185602086016158b6565b61590e8161493f565b840191505092915050565b600060c083016000830151615931600086018261586d565b50602083015161594460208601826145db565b506040830151615957604086018261587c565b50606083015161596a606086018261588b565b50608083015161597d608086018261588b565b5060a083015184820360a086015261599582826158e0565b9150508091505092915050565b600060208201905081810360008301526159bc8184615919565b905092915050565b6000815190506159d38161427a565b92915050565b6000602082840312156159ef576159ee614266565b5b60006159fd848285016159c4565b91505092915050565b615a0f81615863565b82525050565b6000604082019050615a2a6000830185615a06565b615a3760208301846143b2565b9392505050565b6000615a49826143a5565b9150615a54836143a5565b925082615a6457615a63614b2d565b5b828206905092915050565b602082016000820151615a856000850182614695565b50505050565b6000602082019050615aa06000830184615a6f565b9291505056fea2646970667358221220608db0f41a44c59d4f535939bdbff201ac256a85600bac7398602a15becd3a7f64736f6c634300081c0033",
  "linkReferences": {},
  "deployedLinkReferences": {}
}