{
  "_format": "hh-sol-artifact-1",
  "contractName": "Lottery",
  "sourceName": "contracts/Lottery.sol",
  "abi": [
    {
      "inputs": [
        {
          "internalType": "uint256",
          "name": "_subscriptionId",
          "type": "uint256"
        }
      ],
      "stateMutability": "nonpayable",
      "type": "constructor"
    },
    {
      "inputs": [
        {
          "internalType": "address",
          "name": "have",
          "type": "address"
        },
        {
          "internalType": "address",
          "name": "want",
          "type": "address"
        }
      ],
      "name": "OnlyCoordinatorCanFulfill",
      "type": "error"
    },
    {
      "inputs": [
        {
          "internalType": "address",
          "name": "have",
          "type": "address"
        },
        {
          "internalType": "address",
          "name": "owner",
          "type": "address"
        },
        {
          "internalType": "address",
          "name": "coordinator",
          "type": "address"
        }
      ],
      "name": "OnlyOwnerOrCoordinator",
      "type": "error"
    },
    {
      "inputs": [],
      "name": "ZeroAddress",
      "type": "error"
    },
    {
      "anonymous": false,
      "inputs": [
        {
          "indexed": false,
          "internalType": "address",
          "name": "vrfCoordinator",
          "type": "address"
        }
      ],
      "name": "CoordinatorSet",
      "type": "event"
    },
    {
      "anonymous": false,
      "inputs": [
        {
          "indexed": true,
          "internalType": "address",
          "name": "owner",
          "type": "address"
        },
        {
          "indexed": true,
          "internalType": "uint256",
          "name": "amount",
          "type": "uint256"
        }
      ],
      "name": "Distribute",
      "type": "event"
    },
    {
      "anonymous": false,
      "inputs": [
        {
          "indexed": true,
          "internalType": "address",
          "name": "sender",
          "type": "address"
        },
        {
          "indexed": true,
          "internalType": "uint256",
          "name": "amount",
          "type": "uint256"
        }
      ],
      "name": "FundJackpot",
      "type": "event"
    },
    {
      "anonymous": false,
      "inputs": [
        {
          "indexed": true,
          "internalType": "address",
          "name": "owner",
          "type": "address"
        },
        {
          "indexed": true,
          "internalType": "uint256",
          "name": "amount",
          "type": "uint256"
        }
      ],
      "name": "JackpotWithdraw",
      "type": "event"
    },
    {
      "anonymous": false,
      "inputs": [
        {
          "indexed": true,
          "internalType": "address",
          "name": "owner",
          "type": "address"
        },
        {
          "indexed": true,
          "internalType": "uint256",
          "name": "amount",
          "type": "uint256"
        }
      ],
      "name": "OperationsBalanceWithdraw",
      "type": "event"
    },
    {
      "anonymous": false,
      "inputs": [
        {
          "indexed": true,
          "internalType": "address",
          "name": "owner",
          "type": "address"
        },
        {
          "indexed": true,
          "internalType": "uint256",
          "name": "amount",
          "type": "uint256"
        }
      ],
      "name": "OwnerBalanceWithdraw",
      "type": "event"
    },
    {
      "anonymous": false,
      "inputs": [
        {
          "indexed": true,
          "internalType": "address",
          "name": "from",
          "type": "address"
        },
        {
          "indexed": true,
          "internalType": "address",
          "name": "to",
          "type": "address"
        }
      ],
      "name": "OwnershipTransferRequested",
      "type": "event"
    },
    {
      "anonymous": false,
      "inputs": [
        {
          "indexed": true,
          "internalType": "address",
          "name": "from",
          "type": "address"
        },
        {
          "indexed": true,
          "internalType": "address",
          "name": "to",
          "type": "address"
        }
      ],
      "name": "OwnershipTransferred",
      "type": "event"
    },
    {
      "anonymous": false,
      "inputs": [
        {
          "indexed": true,
          "internalType": "address",
          "name": "player",
          "type": "address"
        },
        {
          "indexed": false,
          "internalType": "uint256[5]",
          "name": "combination",
          "type": "uint256[5]"
        }
      ],
      "name": "PlayerCombinationSubmitted",
      "type": "event"
    },
    {
      "anonymous": false,
      "inputs": [
        {
          "indexed": true,
          "internalType": "uint256",
          "name": "ticketId",
          "type": "uint256"
        }
      ],
      "name": "RandomNumberGenerated",
      "type": "event"
    },
    {
      "anonymous": false,
      "inputs": [
        {
          "indexed": true,
          "internalType": "address",
          "name": "player",
          "type": "address"
        },
        {
          "indexed": true,
          "internalType": "uint256",
          "name": "ticketId",
          "type": "uint256"
        },
        {
          "indexed": true,
          "internalType": "uint256",
          "name": "amount",
          "type": "uint256"
        }
      ],
      "name": "RewardClaimed",
      "type": "event"
    },
    {
      "anonymous": false,
      "inputs": [
        {
          "indexed": true,
          "internalType": "address",
          "name": "player",
          "type": "address"
        },
        {
          "indexed": true,
          "internalType": "uint256",
          "name": "ticketNumber",
          "type": "uint256"
        }
      ],
      "name": "TicketPurchased",
      "type": "event"
    },
    {
      "stateMutability": "payable",
      "type": "fallback"
    },
    {
      "inputs": [],
      "name": "CALLBACK_GAS_LIMIT",
      "outputs": [
        {
          "internalType": "uint32",
          "name": "",
          "type": "uint32"
        }
      ],
      "stateMutability": "view",
      "type": "function"
    },
    {
      "inputs": [],
      "name": "NUMBER_OF_WORDS",
      "outputs": [
        {
          "internalType": "uint8",
          "name": "",
          "type": "uint8"
        }
      ],
      "stateMutability": "view",
      "type": "function"
    },
    {
      "inputs": [],
      "name": "NUMBER_RANGE",
      "outputs": [
        {
          "internalType": "uint8",
          "name": "",
          "type": "uint8"
        }
      ],
      "stateMutability": "view",
      "type": "function"
    },
    {
      "inputs": [],
      "name": "REQUEST_CONFIRMATIONS",
      "outputs": [
        {
          "internalType": "uint16",
          "name": "",
          "type": "uint16"
        }
      ],
      "stateMutability": "view",
      "type": "function"
    },
    {
      "inputs": [],
      "name": "TICKET_PRICE_WEI",
      "outputs": [
        {
          "internalType": "uint256",
          "name": "",
          "type": "uint256"
        }
      ],
      "stateMutability": "view",
      "type": "function"
    },
    {
      "inputs": [],
      "name": "acceptOwnership",
      "outputs": [],
      "stateMutability": "nonpayable",
      "type": "function"
    },
    {
      "inputs": [
        {
          "internalType": "uint256",
          "name": "",
          "type": "uint256"
        }
      ],
      "name": "allTicketIds",
      "outputs": [
        {
          "internalType": "uint256",
          "name": "",
          "type": "uint256"
        }
      ],
      "stateMutability": "view",
      "type": "function"
    },
    {
      "inputs": [],
      "name": "buyBatchTickets",
      "outputs": [
        {
          "components": [
            {
              "internalType": "uint256",
              "name": "id",
              "type": "uint256"
            },
            {
              "internalType": "address",
              "name": "owner",
              "type": "address"
            },
            {
              "internalType": "uint256",
              "name": "purchaseTimestamp",
              "type": "uint256"
            },
            {
              "internalType": "uint256[5]",
              "name": "playerCombination",
              "type": "uint256[5]"
            },
            {
              "internalType": "uint256[5]",
              "name": "winningCombination",
              "type": "uint256[5]"
            },
            {
              "internalType": "uint8",
              "name": "matchingNumbers",
              "type": "uint8"
            },
            {
              "internalType": "uint256",
              "name": "potentialReward",
              "type": "uint256"
            },
            {
              "internalType": "uint256",
              "name": "actualReward",
              "type": "uint256"
            },
            {
              "internalType": "bool",
              "name": "isRewardClaimed",
              "type": "bool"
            },
            {
              "internalType": "bool",
              "name": "playerCombinationSubmitted",
              "type": "bool"
            },
            {
              "internalType": "bool",
              "name": "winningCombinationGenerated",
              "type": "bool"
            },
            {
              "internalType": "bool",
              "name": "randomNumberRequested",
              "type": "bool"
            }
          ],
          "internalType": "struct Lottery.LotteryTicket[]",
          "name": "",
          "type": "tuple[]"
        }
      ],
      "stateMutability": "payable",
      "type": "function"
    },
    {
      "inputs": [],
      "name": "buyTicket",
      "outputs": [
        {
          "components": [
            {
              "internalType": "uint256",
              "name": "id",
              "type": "uint256"
            },
            {
              "internalType": "address",
              "name": "owner",
              "type": "address"
            },
            {
              "internalType": "uint256",
              "name": "purchaseTimestamp",
              "type": "uint256"
            },
            {
              "internalType": "uint256[5]",
              "name": "playerCombination",
              "type": "uint256[5]"
            },
            {
              "internalType": "uint256[5]",
              "name": "winningCombination",
              "type": "uint256[5]"
            },
            {
              "internalType": "uint8",
              "name": "matchingNumbers",
              "type": "uint8"
            },
            {
              "internalType": "uint256",
              "name": "potentialReward",
              "type": "uint256"
            },
            {
              "internalType": "uint256",
              "name": "actualReward",
              "type": "uint256"
            },
            {
              "internalType": "bool",
              "name": "isRewardClaimed",
              "type": "bool"
            },
            {
              "internalType": "bool",
              "name": "playerCombinationSubmitted",
              "type": "bool"
            },
            {
              "internalType": "bool",
              "name": "winningCombinationGenerated",
              "type": "bool"
            },
            {
              "internalType": "bool",
              "name": "randomNumberRequested",
              "type": "bool"
            }
          ],
          "internalType": "struct Lottery.LotteryTicket[]",
          "name": "",
          "type": "tuple[]"
        }
      ],
      "stateMutability": "payable",
      "type": "function"
    },
    {
      "inputs": [
        {
          "internalType": "uint8",
          "name": "count",
          "type": "uint8"
        }
      ],
      "name": "buyTickets",
      "outputs": [
        {
          "components": [
            {
              "internalType": "uint256",
              "name": "id",
              "type": "uint256"
            },
            {
              "internalType": "address",
              "name": "owner",
              "type": "address"
            },
            {
              "internalType": "uint256",
              "name": "purchaseTimestamp",
              "type": "uint256"
            },
            {
              "internalType": "uint256[5]",
              "name": "playerCombination",
              "type": "uint256[5]"
            },
            {
              "internalType": "uint256[5]",
              "name": "winningCombination",
              "type": "uint256[5]"
            },
            {
              "internalType": "uint8",
              "name": "matchingNumbers",
              "type": "uint8"
            },
            {
              "internalType": "uint256",
              "name": "potentialReward",
              "type": "uint256"
            },
            {
              "internalType": "uint256",
              "name": "actualReward",
              "type": "uint256"
            },
            {
              "internalType": "bool",
              "name": "isRewardClaimed",
              "type": "bool"
            },
            {
              "internalType": "bool",
              "name": "playerCombinationSubmitted",
              "type": "bool"
            },
            {
              "internalType": "bool",
              "name": "winningCombinationGenerated",
              "type": "bool"
            },
            {
              "internalType": "bool",
              "name": "randomNumberRequested",
              "type": "bool"
            }
          ],
          "internalType": "struct Lottery.LotteryTicket[]",
          "name": "",
          "type": "tuple[]"
        }
      ],
      "stateMutability": "payable",
      "type": "function"
    },
    {
      "inputs": [
        {
          "internalType": "uint256",
          "name": "ticketId",
          "type": "uint256"
        }
      ],
      "name": "claimReward",
      "outputs": [],
      "stateMutability": "nonpayable",
      "type": "function"
    },
    {
      "inputs": [
        {
          "internalType": "uint256",
          "name": "amount",
          "type": "uint256"
        }
      ],
      "name": "fundJackpot",
      "outputs": [],
      "stateMutability": "payable",
      "type": "function"
    },
    {
      "inputs": [],
      "name": "getAllTickets",
      "outputs": [
        {
          "components": [
            {
              "internalType": "uint256",
              "name": "id",
              "type": "uint256"
            },
            {
              "internalType": "address",
              "name": "owner",
              "type": "address"
            },
            {
              "internalType": "uint256",
              "name": "purchaseTimestamp",
              "type": "uint256"
            },
            {
              "internalType": "uint256[5]",
              "name": "playerCombination",
              "type": "uint256[5]"
            },
            {
              "internalType": "uint256[5]",
              "name": "winningCombination",
              "type": "uint256[5]"
            },
            {
              "internalType": "uint8",
              "name": "matchingNumbers",
              "type": "uint8"
            },
            {
              "internalType": "uint256",
              "name": "potentialReward",
              "type": "uint256"
            },
            {
              "internalType": "uint256",
              "name": "actualReward",
              "type": "uint256"
            },
            {
              "internalType": "bool",
              "name": "isRewardClaimed",
              "type": "bool"
            },
            {
              "internalType": "bool",
              "name": "playerCombinationSubmitted",
              "type": "bool"
            },
            {
              "internalType": "bool",
              "name": "winningCombinationGenerated",
              "type": "bool"
            },
            {
              "internalType": "bool",
              "name": "randomNumberRequested",
              "type": "bool"
            }
          ],
          "internalType": "struct Lottery.LotteryTicket[]",
          "name": "",
          "type": "tuple[]"
        }
      ],
      "stateMutability": "view",
      "type": "function"
    },
    {
      "inputs": [],
      "name": "getContractOwner",
      "outputs": [
        {
          "internalType": "address",
          "name": "",
          "type": "address"
        }
      ],
      "stateMutability": "view",
      "type": "function"
    },
    {
      "inputs": [],
      "name": "getJackpot",
      "outputs": [
        {
          "internalType": "uint256",
          "name": "",
          "type": "uint256"
        }
      ],
      "stateMutability": "view",
      "type": "function"
    },
    {
      "inputs": [],
      "name": "getPlayerTickets",
      "outputs": [
        {
          "components": [
            {
              "internalType": "uint256",
              "name": "id",
              "type": "uint256"
            },
            {
              "internalType": "address",
              "name": "owner",
              "type": "address"
            },
            {
              "internalType": "uint256",
              "name": "purchaseTimestamp",
              "type": "uint256"
            },
            {
              "internalType": "uint256[5]",
              "name": "playerCombination",
              "type": "uint256[5]"
            },
            {
              "internalType": "uint256[5]",
              "name": "winningCombination",
              "type": "uint256[5]"
            },
            {
              "internalType": "uint8",
              "name": "matchingNumbers",
              "type": "uint8"
            },
            {
              "internalType": "uint256",
              "name": "potentialReward",
              "type": "uint256"
            },
            {
              "internalType": "uint256",
              "name": "actualReward",
              "type": "uint256"
            },
            {
              "internalType": "bool",
              "name": "isRewardClaimed",
              "type": "bool"
            },
            {
              "internalType": "bool",
              "name": "playerCombinationSubmitted",
              "type": "bool"
            },
            {
              "internalType": "bool",
              "name": "winningCombinationGenerated",
              "type": "bool"
            },
            {
              "internalType": "bool",
              "name": "randomNumberRequested",
              "type": "bool"
            }
          ],
          "internalType": "struct Lottery.LotteryTicket[]",
          "name": "",
          "type": "tuple[]"
        }
      ],
      "stateMutability": "view",
      "type": "function"
    },
    {
      "inputs": [
        {
          "internalType": "uint256",
          "name": "ticketId",
          "type": "uint256"
        }
      ],
      "name": "getTicketById",
      "outputs": [
        {
          "components": [
            {
              "internalType": "uint256",
              "name": "id",
              "type": "uint256"
            },
            {
              "internalType": "address",
              "name": "owner",
              "type": "address"
            },
            {
              "internalType": "uint256",
              "name": "purchaseTimestamp",
              "type": "uint256"
            },
            {
              "internalType": "uint256[5]",
              "name": "playerCombination",
              "type": "uint256[5]"
            },
            {
              "internalType": "uint256[5]",
              "name": "winningCombination",
              "type": "uint256[5]"
            },
            {
              "internalType": "uint8",
              "name": "matchingNumbers",
              "type": "uint8"
            },
            {
              "internalType": "uint256",
              "name": "potentialReward",
              "type": "uint256"
            },
            {
              "internalType": "uint256",
              "name": "actualReward",
              "type": "uint256"
            },
            {
              "internalType": "bool",
              "name": "isRewardClaimed",
              "type": "bool"
            },
            {
              "internalType": "bool",
              "name": "playerCombinationSubmitted",
              "type": "bool"
            },
            {
              "internalType": "bool",
              "name": "winningCombinationGenerated",
              "type": "bool"
            },
            {
              "internalType": "bool",
              "name": "randomNumberRequested",
              "type": "bool"
            }
          ],
          "internalType": "struct Lottery.LotteryTicket",
          "name": "",
          "type": "tuple"
        }
      ],
      "stateMutability": "view",
      "type": "function"
    },
    {
      "inputs": [],
      "name": "jackpot",
      "outputs": [
        {
          "internalType": "uint256",
          "name": "",
          "type": "uint256"
        }
      ],
      "stateMutability": "view",
      "type": "function"
    },
    {
      "inputs": [],
      "name": "nextTicketId",
      "outputs": [
        {
          "internalType": "uint256",
          "name": "",
          "type": "uint256"
        }
      ],
      "stateMutability": "view",
      "type": "function"
    },
    {
      "inputs": [],
      "name": "owner",
      "outputs": [
        {
          "internalType": "address",
          "name": "",
          "type": "address"
        }
      ],
      "stateMutability": "view",
      "type": "function"
    },
    {
      "inputs": [
        {
          "internalType": "address",
          "name": "",
          "type": "address"
        },
        {
          "internalType": "uint256",
          "name": "",
          "type": "uint256"
        }
      ],
      "name": "playerTicketIds",
      "outputs": [
        {
          "internalType": "uint256",
          "name": "",
          "type": "uint256"
        }
      ],
      "stateMutability": "view",
      "type": "function"
    },
    {
      "inputs": [
        {
          "internalType": "uint256",
          "name": "requestId",
          "type": "uint256"
        },
        {
          "internalType": "uint256[]",
          "name": "randomWords",
          "type": "uint256[]"
        }
      ],
      "name": "rawFulfillRandomWords",
      "outputs": [],
      "stateMutability": "nonpayable",
      "type": "function"
    },
    {
      "inputs": [
        {
          "internalType": "uint256",
          "name": "",
          "type": "uint256"
        }
      ],
      "name": "requestIdToTicketId",
      "outputs": [
        {
          "internalType": "uint256",
          "name": "",
          "type": "uint256"
        }
      ],
      "stateMutability": "view",
      "type": "function"
    },
    {
      "inputs": [],
      "name": "s_vrfCoordinator",
      "outputs": [
        {
          "internalType": "contract IVRFCoordinatorV2Plus",
          "name": "",
          "type": "address"
        }
      ],
      "stateMutability": "view",
      "type": "function"
    },
    {
      "inputs": [
        {
          "internalType": "address",
          "name": "_vrfCoordinator",
          "type": "address"
        }
      ],
      "name": "setCoordinator",
      "outputs": [],
      "stateMutability": "nonpayable",
      "type": "function"
    },
    {
      "inputs": [
        {
          "internalType": "uint256",
          "name": "ticketId",
          "type": "uint256"
        },
        {
          "internalType": "uint256[5]",
          "name": "playerCombination",
          "type": "uint256[5]"
        }
      ],
      "name": "submitCombination",
      "outputs": [],
      "stateMutability": "nonpayable",
      "type": "function"
    },
    {
      "inputs": [
        {
          "internalType": "uint256",
          "name": "",
          "type": "uint256"
        }
      ],
      "name": "tickets",
      "outputs": [
        {
          "internalType": "uint256",
          "name": "id",
          "type": "uint256"
        },
        {
          "internalType": "address",
          "name": "owner",
          "type": "address"
        },
        {
          "internalType": "uint256",
          "name": "purchaseTimestamp",
          "type": "uint256"
        },
        {
          "internalType": "uint8",
          "name": "matchingNumbers",
          "type": "uint8"
        },
        {
          "internalType": "uint256",
          "name": "potentialReward",
          "type": "uint256"
        },
        {
          "internalType": "uint256",
          "name": "actualReward",
          "type": "uint256"
        },
        {
          "internalType": "bool",
          "name": "isRewardClaimed",
          "type": "bool"
        },
        {
          "internalType": "bool",
          "name": "playerCombinationSubmitted",
          "type": "bool"
        },
        {
          "internalType": "bool",
          "name": "winningCombinationGenerated",
          "type": "bool"
        },
        {
          "internalType": "bool",
          "name": "randomNumberRequested",
          "type": "bool"
        }
      ],
      "stateMutability": "view",
      "type": "function"
    },
    {
      "inputs": [
        {
          "internalType": "address",
          "name": "to",
          "type": "address"
        }
      ],
      "name": "transferOwnership",
      "outputs": [],
      "stateMutability": "nonpayable",
      "type": "function"
    },
    {
      "inputs": [],
      "name": "withdrawJackpot",
      "outputs": [],
      "stateMutability": "payable",
      "type": "function"
    },
    {
      "inputs": [],
      "name": "withdrawOperationsBalance",
      "outputs": [],
      "stateMutability": "nonpayable",
      "type": "function"
    },
    {
      "inputs": [],
      "name": "withdrawOwnerBalance",
      "outputs": [],
      "stateMutability": "nonpayable",
      "type": "function"
    },
    {
      "stateMutability": "payable",
      "type": "receive"
    }
  ],
  "bytecode": "0x60c060405234801561001057600080fd5b5060405161573b38038061573b83398181016040528101906100329190610399565b739ddfaca8183c41ad55329bdeed9f6a8d53168b1b338060008073ffffffffffffffffffffffffffffffffffffffff168273ffffffffffffffffffffffffffffffffffffffff16036100b9576040517f08c379a00000000000000000000000000000000000000000000000000000000081526004016100b090610423565b60405180910390fd5b816000806101000a81548173ffffffffffffffffffffffffffffffffffffffff021916908373ffffffffffffffffffffffffffffffffffffffff160217905550600073ffffffffffffffffffffffffffffffffffffffff168173ffffffffffffffffffffffffffffffffffffffff161461013d5761013c8161023260201b60201c565b5b505050600073ffffffffffffffffffffffffffffffffffffffff168173ffffffffffffffffffffffffffffffffffffffff16036101a6576040517fd92e233d00000000000000000000000000000000000000000000000000000000815260040160405180910390fd5b80600260006101000a81548173ffffffffffffffffffffffffffffffffffffffff021916908373ffffffffffffffffffffffffffffffffffffffff1602179055505060016003819055503373ffffffffffffffffffffffffffffffffffffffff1660808173ffffffffffffffffffffffffffffffffffffffff16815250508060a08181525050506104af565b3373ffffffffffffffffffffffffffffffffffffffff168173ffffffffffffffffffffffffffffffffffffffff16036102a0576040517f08c379a00000000000000000000000000000000000000000000000000000000081526004016102979061048f565b60405180910390fd5b80600160006101000a81548173ffffffffffffffffffffffffffffffffffffffff021916908373ffffffffffffffffffffffffffffffffffffffff1602179055508073ffffffffffffffffffffffffffffffffffffffff1660008054906101000a900473ffffffffffffffffffffffffffffffffffffffff1673ffffffffffffffffffffffffffffffffffffffff167fed8889f560326eb138920d842192f0eb3dd22b4f139c87a2c57538e05bae127860405160405180910390a350565b600080fd5b6000819050919050565b61037681610363565b811461038157600080fd5b50565b6000815190506103938161036d565b92915050565b6000602082840312156103af576103ae61035e565b5b60006103bd84828501610384565b91505092915050565b600082825260208201905092915050565b7f43616e6e6f7420736574206f776e657220746f207a65726f0000000000000000600082015250565b600061040d6018836103c6565b9150610418826103d7565b602082019050919050565b6000602082019050818103600083015261043c81610400565b9050919050565b7f43616e6e6f74207472616e7366657220746f2073656c66000000000000000000600082015250565b60006104796017836103c6565b915061048482610443565b602082019050919050565b600060208201905081810360008301526104a88161046c565b9050919050565b60805160a05161522161051a600039600061313a01526000818161081201528181610e1a015281816116790152818161175d015281816118280152818161226e015281816123520152818161241d015281816124f0015281816125d4015261269f01526152216000f3fe6080604052600436106101dc5760003560e01c80638ea9811711610102578063c0b3870a11610095578063f163915a11610064578063f163915a146106a0578063f2fde38b146106cb578063f403251d146106f4578063f926c5d81461070b576101ec565b8063c0b3870a146105fe578063c3e9bf0014610608578063d6296f7514610645578063edca914c14610682576101ec565b80639eccacf6116100d15780639eccacf61461055c578063ae169a5014610587578063ae6b8ea9146105b0578063c081edd8146105ce576101ec565b80638ea98117146104c65780639329066c146104ef578063941b80ac1461051a57806395e888c414610531576101ec565b80636031a52f1161017a5780638571c441116101495780638571c4411461041757806385c9d67314610433578063864c407c1461045e5780638da5cb5b1461049b576101ec565b80636031a52f1461037f57806367f082b0146103aa5780636b31ee01146103d557806379ba509714610400576101ec565b806333d608f1116101b657806333d608f1146102b85780633aac0fa9146102e3578063442890d51461030e57806350b4471214610339576101ec565b806303e96fe3146102275780631fe543e31461025257806327b7aabc1461027b576101ec565b366101ec576101ea34610734565b005b6040517f08c379a000000000000000000000000000000000000000000000000000000000815260040161021e906135c4565b60405180910390fd5b34801561023357600080fd5b5061023c61080e565b60405161024991906138bb565b60405180910390f35b34801561025e57600080fd5b5061027960048036038101906102749190613982565b610b0d565b005b34801561028757600080fd5b506102a2600480360381019061029d91906139e2565b610bd3565b6040516102af9190613b09565b60405180910390f35b3480156102c457600080fd5b506102cd610e0a565b6040516102da9190613b44565b60405180910390f35b3480156102ef57600080fd5b506102f8610e11565b6040516103059190613b6e565b60405180910390f35b34801561031a57600080fd5b50610323610e16565b6040516103309190613b98565b60405180910390f35b34801561034557600080fd5b50610360600480360381019061035b91906139e2565b610e3e565b6040516103769a99989796959493929190613bd1565b60405180910390f35b34801561038b57600080fd5b50610394610ef3565b6040516103a19190613c6d565b60405180910390f35b3480156103b657600080fd5b506103bf610ef9565b6040516103cc9190613ca5565b60405180910390f35b3480156103e157600080fd5b506103ea610efe565b6040516103f79190613c6d565b60405180910390f35b34801561040c57600080fd5b50610415610f04565b005b610431600480360381019061042c91906139e2565b611099565b005b34801561043f57600080fd5b5061044861113b565b60405161045591906138bb565b60405180910390f35b34801561046a57600080fd5b5061048560048036038101906104809190613cec565b611432565b6040516104929190613c6d565b60405180910390f35b3480156104a757600080fd5b506104b0611463565b6040516104bd9190613b98565b60405180910390f35b3480156104d257600080fd5b506104ed60048036038101906104e89190613d2c565b61148c565b005b3480156104fb57600080fd5b5061050461166d565b6040516105119190613c6d565b60405180910390f35b34801561052657600080fd5b5061052f611677565b005b34801561053d57600080fd5b5061054661188d565b6040516105539190613b6e565b60405180910390f35b34801561056857600080fd5b50610571611892565b60405161057e9190613db8565b60405180910390f35b34801561059357600080fd5b506105ae60048036038101906105a991906139e2565b6118b8565b005b6105b8611d2f565b6040516105c591906138bb565b60405180910390f35b6105e860048036038101906105e39190613dff565b611d40565b6040516105f591906138bb565b60405180910390f35b61060661226c565b005b34801561061457600080fd5b5061062f600480360381019061062a91906139e2565b612482565b60405161063c9190613c6d565b60405180910390f35b34801561065157600080fd5b5061066c600480360381019061066791906139e2565b61249a565b6040516106799190613c6d565b60405180910390f35b61068a6124be565b60405161069791906138bb565b60405180910390f35b3480156106ac57600080fd5b506106b56124cf565b6040516106c29190613c6d565b60405180910390f35b3480156106d757600080fd5b506106f260048036038101906106ed9190613d2c565b6124da565b005b34801561070057600080fd5b506107096124ee565b005b34801561071757600080fd5b50610732600480360381019061072d9190613f69565b612704565b005b6064605a826107439190613fd8565b61074d9190614049565b6004600082825461075e919061407a565b9250508190555060646005826107749190613fd8565b61077e9190614049565b6005600082825461078f919061407a565b9250508190555060646005826107a59190613fd8565b6107af9190614049565b600660008282546107c0919061407a565b92505081905550803373ffffffffffffffffffffffffffffffffffffffff167fc1d32ad5cca423e7dda2123dbf8c482f8e77d00b631c06e903a47f2cec1334df60405160405180910390a350565b60607f000000000000000000000000000000000000000000000000000000000000000073ffffffffffffffffffffffffffffffffffffffff163373ffffffffffffffffffffffffffffffffffffffff161461089e576040517f08c379a0000000000000000000000000000000000000000000000000000000008152600401610895906140fa565b60405180910390fd5b6000600880549050905060008167ffffffffffffffff8111156108c4576108c3613e3d565b5b6040519080825280602002602001820160405280156108fd57816020015b6108ea613415565b8152602001906001900390816108e25790505b50905060005b82811015610b0457600f6000600883815481106109235761092261411a565b5b9060005260206000200154815260200190815260200160002060405180610180016040529081600082015481526020016001820160009054906101000a900473ffffffffffffffffffffffffffffffffffffffff1673ffffffffffffffffffffffffffffffffffffffff1673ffffffffffffffffffffffffffffffffffffffff16815260200160028201548152602001600382016005806020026040519081016040528092919082600580156109ee576020028201915b8154815260200190600101908083116109da575b5050505050815260200160088201600580602002604051908101604052809291908260058015610a33576020028201915b815481526020019060010190808311610a1f575b50505050508152602001600d820160009054906101000a900460ff1660ff1660ff168152602001600e8201548152602001600f82015481526020016010820160009054906101000a900460ff161515151581526020016010820160019054906101000a900460ff161515151581526020016010820160029054906101000a900460ff161515151581526020016010820160039054906101000a900460ff161515151581525050828281518110610aec57610aeb61411a565b5b60200260200101819052508080600101915050610903565b50809250505090565b600260009054906101000a900473ffffffffffffffffffffffffffffffffffffffff1673ffffffffffffffffffffffffffffffffffffffff163373ffffffffffffffffffffffffffffffffffffffff1614610bc35733600260009054906101000a900473ffffffffffffffffffffffffffffffffffffffff166040517f1cf993f4000000000000000000000000000000000000000000000000000000008152600401610bba929190614149565b60405180910390fd5b610bce838383612a2e565b505050565b610bdb613415565b6000600f600084815260200190815260200160002060405180610180016040529081600082015481526020016001820160009054906101000a900473ffffffffffffffffffffffffffffffffffffffff1673ffffffffffffffffffffffffffffffffffffffff1673ffffffffffffffffffffffffffffffffffffffff1681526020016002820154815260200160038201600580602002604051908101604052809291908260058015610ca2576020028201915b815481526020019060010190808311610c8e575b5050505050815260200160088201600580602002604051908101604052809291908260058015610ce7576020028201915b815481526020019060010190808311610cd3575b50505050508152602001600d820160009054906101000a900460ff1660ff1660ff168152602001600e8201548152602001600f82015481526020016010820160009054906101000a900460ff161515151581526020016010820160019054906101000a900460ff161515151581526020016010820160029054906101000a900460ff161515151581526020016010820160039054906101000a900460ff16151515158152505090503373ffffffffffffffffffffffffffffffffffffffff16816020015173ffffffffffffffffffffffffffffffffffffffff1614610e01576040517f08c379a0000000000000000000000000000000000000000000000000000000008152600401610df8906141be565b60405180910390fd5b80915050919050565b622625a081565b602581565b60007f0000000000000000000000000000000000000000000000000000000000000000905090565b600f6020528060005260406000206000915090508060000154908060010160009054906101000a900473ffffffffffffffffffffffffffffffffffffffff169080600201549080600d0160009054906101000a900460ff169080600e01549080600f0154908060100160009054906101000a900460ff16908060100160019054906101000a900460ff16908060100160029054906101000a900460ff16908060100160039054906101000a900460ff1690508a565b60075481565b600381565b60045481565b600160009054906101000a900473ffffffffffffffffffffffffffffffffffffffff1673ffffffffffffffffffffffffffffffffffffffff163373ffffffffffffffffffffffffffffffffffffffff1614610f94576040517f08c379a0000000000000000000000000000000000000000000000000000000008152600401610f8b9061422a565b60405180910390fd5b60008060009054906101000a900473ffffffffffffffffffffffffffffffffffffffff169050336000806101000a81548173ffffffffffffffffffffffffffffffffffffffff021916908373ffffffffffffffffffffffffffffffffffffffff1602179055506000600160006101000a81548173ffffffffffffffffffffffffffffffffffffffff021916908373ffffffffffffffffffffffffffffffffffffffff1602179055503373ffffffffffffffffffffffffffffffffffffffff168173ffffffffffffffffffffffffffffffffffffffff167f8be0079c531659141344cd1fd0a4f28419497f9722a3daafe3b4186f6b6457e060405160405180910390a350565b8034146110db576040517f08c379a00000000000000000000000000000000000000000000000000000000081526004016110d290614296565b60405180910390fd5b80600460008282546110ed919061407a565b92505081905550803373ffffffffffffffffffffffffffffffffffffffff167f670e95b8055d07efacb517c9eaf38144c6d3095de67c4aae5598c7679d71628760405160405180910390a350565b60606000600e60003373ffffffffffffffffffffffffffffffffffffffff1673ffffffffffffffffffffffffffffffffffffffff1681526020019081526020016000208054806020026020016040519081016040528092919081815260200182805480156111c857602002820191906000526020600020905b8154815260200190600101908083116111b4575b505050505090506000815167ffffffffffffffff8111156111ec576111eb613e3d565b5b60405190808252806020026020018201604052801561122557816020015b611212613415565b81526020019060019003908161120a5790505b50905060005b825181101561142957600f600084838151811061124b5761124a61411a565b5b6020026020010151815260200190815260200160002060405180610180016040529081600082015481526020016001820160009054906101000a900473ffffffffffffffffffffffffffffffffffffffff1673ffffffffffffffffffffffffffffffffffffffff1673ffffffffffffffffffffffffffffffffffffffff1681526020016002820154815260200160038201600580602002604051908101604052809291908260058015611313576020028201915b8154815260200190600101908083116112ff575b5050505050815260200160088201600580602002604051908101604052809291908260058015611358576020028201915b815481526020019060010190808311611344575b50505050508152602001600d820160009054906101000a900460ff1660ff1660ff168152602001600e8201548152602001600f82015481526020016010820160009054906101000a900460ff161515151581526020016010820160019054906101000a900460ff161515151581526020016010820160029054906101000a900460ff161515151581526020016010820160039054906101000a900460ff1615151515815250508282815181106114115761141061411a565b5b6020026020010181905250808060010191505061122b565b50809250505090565b600e602052816000526040600020818154811061144e57600080fd5b90600052602060002001600091509150505481565b60008060009054906101000a900473ffffffffffffffffffffffffffffffffffffffff16905090565b611494611463565b73ffffffffffffffffffffffffffffffffffffffff163373ffffffffffffffffffffffffffffffffffffffff161415801561151d5750600260009054906101000a900473ffffffffffffffffffffffffffffffffffffffff1673ffffffffffffffffffffffffffffffffffffffff163373ffffffffffffffffffffffffffffffffffffffff1614155b1561158c573361152b611463565b600260009054906101000a900473ffffffffffffffffffffffffffffffffffffffff166040517f061db9c1000000000000000000000000000000000000000000000000000000008152600401611583939291906142b6565b60405180910390fd5b600073ffffffffffffffffffffffffffffffffffffffff168173ffffffffffffffffffffffffffffffffffffffff16036115f2576040517fd92e233d00000000000000000000000000000000000000000000000000000000815260040160405180910390fd5b80600260006101000a81548173ffffffffffffffffffffffffffffffffffffffff021916908373ffffffffffffffffffffffffffffffffffffffff1602179055507fd1a6a14209a385a964d036e404cb5cfb71f4000cdb03c9366292430787261be6816040516116629190613b98565b60405180910390a150565b6000600454905090565b7f000000000000000000000000000000000000000000000000000000000000000073ffffffffffffffffffffffffffffffffffffffff163373ffffffffffffffffffffffffffffffffffffffff1614611705576040517f08c379a00000000000000000000000000000000000000000000000000000000081526004016116fc906140fa565b60405180910390fd5b60006006541161174a576040517f08c379a000000000000000000000000000000000000000000000000000000000815260040161174190614339565b60405180910390fd5b60006006549050600060068190555060007f000000000000000000000000000000000000000000000000000000000000000073ffffffffffffffffffffffffffffffffffffffff168260405161179f9061438a565b60006040518083038185875af1925050503d80600081146117dc576040519150601f19603f3d011682016040523d82523d6000602084013e6117e1565b606091505b5050905080611825576040517f08c379a000000000000000000000000000000000000000000000000000000000815260040161181c906143eb565b60405180910390fd5b817f000000000000000000000000000000000000000000000000000000000000000073ffffffffffffffffffffffffffffffffffffffff167fa711dcbee5590122b88ae65f697adf2f2824e323782fa8df939898d7eb6c1c2b60405160405180910390a35050565b600181565b600260009054906101000a900473ffffffffffffffffffffffffffffffffffffffff1681565b6118c0612c02565b6000600f600083815260200190815260200160002090503373ffffffffffffffffffffffffffffffffffffffff168160010160009054906101000a900473ffffffffffffffffffffffffffffffffffffffff1673ffffffffffffffffffffffffffffffffffffffff1614611969576040517f08c379a000000000000000000000000000000000000000000000000000000000815260040161196090614457565b60405180910390fd5b600073ffffffffffffffffffffffffffffffffffffffff168160010160009054906101000a900473ffffffffffffffffffffffffffffffffffffffff1673ffffffffffffffffffffffffffffffffffffffff16036119fc576040517f08c379a00000000000000000000000000000000000000000000000000000000081526004016119f3906144c3565b60405180910390fd5b8060100160019054906101000a900460ff16611a4d576040517f08c379a0000000000000000000000000000000000000000000000000000000008152600401611a449061452f565b60405180910390fd5b8060100160029054906101000a900460ff16611a9e576040517f08c379a0000000000000000000000000000000000000000000000000000000008152600401611a959061459b565b60405180910390fd5b8060100160009054906101000a900460ff1615611af0576040517f08c379a0000000000000000000000000000000000000000000000000000000008152600401611ae790614607565b60405180910390fd5b6000611b7a82600301600580602002604051908101604052809291908260058015611b30576020028201915b815481526020019060010190808311611b1c575b505050505083600801600580602002604051908101604052809291908260058015611b70576020028201915b815481526020019060010190808311611b5c575b5050505050612c51565b905081600d0160009054906101000a900460ff1660ff168160ff1614611bd5576040517f08c379a0000000000000000000000000000000000000000000000000000000008152600401611bcc90614673565b60405180910390fd5b6000611be082612d4c565b905060008111611c25576040517f08c379a0000000000000000000000000000000000000000000000000000000008152600401611c1c906146df565b60405180910390fd5b6000600454821115611c3957600454611c3b565b815b9050806004541015611c4e576000611c5d565b80600454611c5c91906146ff565b5b6004819055508084600f018190555060018460100160006101000a81548160ff021916908315150217905550611cb78460010160009054906101000a900473ffffffffffffffffffffffffffffffffffffffff1682612e09565b80858560010160009054906101000a900473ffffffffffffffffffffffffffffffffffffffff1673ffffffffffffffffffffffffffffffffffffffff167ff01da32686223933d8a18a391060918c7f11a3648639edd87ae013e2e273174360405160405180910390a450505050611d2c612efd565b50565b6060611d3b600a611d40565b905090565b60603373ffffffffffffffffffffffffffffffffffffffff163273ffffffffffffffffffffffffffffffffffffffff1614611db0576040517f08c379a0000000000000000000000000000000000000000000000000000000008152600401611da79061477f565b60405180910390fd5b60008260ff1611611df6576040517f08c379a0000000000000000000000000000000000000000000000000000000008152600401611ded906147eb565b60405180910390fd5b60008260ff1666038d7ea4c68000611e0e9190613fd8565b9050600a8360ff1603611e3257600966038d7ea4c68000611e2f9190613fd8565b90505b803414611e74576040517f08c379a0000000000000000000000000000000000000000000000000000000008152600401611e6b90614857565b60405180910390fd5b60008360ff1667ffffffffffffffff811115611e9357611e92613e3d565b5b604051908082528060200260200182016040528015611ecc57816020015b611eb9613415565b815260200190600190039081611eb15790505b50905060005b8460ff168160ff16101561225857600060405180610180016040528060075481526020013373ffffffffffffffffffffffffffffffffffffffff1681526020014281526020016009600580602002604051908101604052809291908260058015611f51576020028201915b815481526020019060010190808311611f3d575b505050505081526020016009600580602002604051908101604052809291908260058015611f94576020028201915b815481526020019060010190808311611f80575b50505050508152602001600060ff168152602001600081526020016000815260200160001515815260200160001515815260200160001515815260200160001515815250905080600f600060075481526020019081526020016000206000820151816000015560208201518160010160006101000a81548173ffffffffffffffffffffffffffffffffffffffff021916908373ffffffffffffffffffffffffffffffffffffffff160217905550604082015181600201556060820151816003019060056120629291906134a3565b5060808201518160080190600561207a9291906134a3565b5060a082015181600d0160006101000a81548160ff021916908360ff16021790555060c082015181600e015560e082015181600f01556101008201518160100160006101000a81548160ff0219169083151502179055506101208201518160100160016101000a81548160ff0219169083151502179055506101408201518160100160026101000a81548160ff0219169083151502179055506101608201518160100160036101000a81548160ff021916908315150217905550905050600e60003373ffffffffffffffffffffffffffffffffffffffff1673ffffffffffffffffffffffffffffffffffffffff16815260200190815260200160002060075490806001815401808255809150506001900390600052602060002001600090919091909150556008600754908060018154018082558091505060019003906000526020600020016000909190919091505580838360ff16815181106121e1576121e061411a565b5b60200260200101819052506007543373ffffffffffffffffffffffffffffffffffffffff167f0668f5b446eb814fe35b3206f43f14bd8567ba04ddaf7a3ee56516929ab22ccb60405160405180910390a36007600081548092919061224590614877565b9190505550508080600101915050611ed2565b5061226234610734565b8092505050919050565b7f000000000000000000000000000000000000000000000000000000000000000073ffffffffffffffffffffffffffffffffffffffff163373ffffffffffffffffffffffffffffffffffffffff16146122fa576040517f08c379a00000000000000000000000000000000000000000000000000000000081526004016122f1906140fa565b60405180910390fd5b60006004541161233f576040517f08c379a000000000000000000000000000000000000000000000000000000000815260040161233690614339565b60405180910390fd5b60006004549050600060048190555060007f000000000000000000000000000000000000000000000000000000000000000073ffffffffffffffffffffffffffffffffffffffff16826040516123949061438a565b60006040518083038185875af1925050503d80600081146123d1576040519150601f19603f3d011682016040523d82523d6000602084013e6123d6565b606091505b505090508061241a576040517f08c379a00000000000000000000000000000000000000000000000000000000081526004016124119061490b565b60405180910390fd5b817f000000000000000000000000000000000000000000000000000000000000000073ffffffffffffffffffffffffffffffffffffffff167fff984e4ec57c8aefc4fbea6499d5cb891883e5c1589aba926f8da3f675f0ee2f60405160405180910390a35050565b60106020528060005260406000206000915090505481565b600881815481106124aa57600080fd5b906000526020600020016000915090505481565b60606124ca6001611d40565b905090565b66038d7ea4c6800081565b6124e2612f07565b6124eb81612f97565b50565b7f000000000000000000000000000000000000000000000000000000000000000073ffffffffffffffffffffffffffffffffffffffff163373ffffffffffffffffffffffffffffffffffffffff161461257c576040517f08c379a0000000000000000000000000000000000000000000000000000000008152600401612573906140fa565b60405180910390fd5b6000600554116125c1576040517f08c379a00000000000000000000000000000000000000000000000000000000081526004016125b890614339565b60405180910390fd5b60006005549050600060058190555060007f000000000000000000000000000000000000000000000000000000000000000073ffffffffffffffffffffffffffffffffffffffff16826040516126169061438a565b60006040518083038185875af1925050503d8060008114612653576040519150601f19603f3d011682016040523d82523d6000602084013e612658565b606091505b505090508061269c576040517f08c379a00000000000000000000000000000000000000000000000000000000081526004016126939061499d565b60405180910390fd5b817f000000000000000000000000000000000000000000000000000000000000000073ffffffffffffffffffffffffffffffffffffffff167fa760777eb358393d33a518ec33e1187940af7f3cbffb09c53db5ee4b7e7e402560405160405180910390a35050565b6000600f600084815260200190815260200160002090503373ffffffffffffffffffffffffffffffffffffffff168160010160009054906101000a900473ffffffffffffffffffffffffffffffffffffffff1673ffffffffffffffffffffffffffffffffffffffff16146127ad576040517f08c379a00000000000000000000000000000000000000000000000000000000081526004016127a490614a09565b60405180910390fd5b8060100160019054906101000a900460ff16156127ff576040517f08c379a00000000000000000000000000000000000000000000000000000000081526004016127f690614a75565b60405180910390fd5b60005b60058110156129305760008382600581106128205761281f61411a565b5b60200201511015801561284b575060248382600581106128435761284261411a565b5b602002015111155b61288a576040517f08c379a000000000000000000000000000000000000000000000000000000000815260040161288190614ae1565b60405180910390fd5b6000600182612899919061407a565b90505b6005811015612922578381600581106128b8576128b761411a565b5b60200201518483600581106128d0576128cf61411a565b5b602002015103612915576040517f08c379a000000000000000000000000000000000000000000000000000000000815260040161290c90614b4d565b60405180910390fd5b808060010191505061289c565b508080600101915050612802565b5081816003019060056129449291906134a3565b5060018160100160016101000a81548160ff0219169083151502179055503373ffffffffffffffffffffffffffffffffffffffff167f26aa7c18051e08a0cf3f3b6f17d2953735d99eab33c5d55efdf08ef510de455e836040516129a89190614bcf565b60405180910390a28060100160039054906101000a900460ff1615612a02576040517f08c379a00000000000000000000000000000000000000000000000000000000081526004016129f990614c36565b60405180910390fd5b60018160100160036101000a81548160ff021916908315150217905550612a28836130c3565b50505050565b6000601060008581526020019081526020016000205490506000600f600083815260200190815260200160002090508060100160029054906101000a900460ff1615612aaf576040517f08c379a0000000000000000000000000000000000000000000000000000000008152600401612aa690614ca2565b60405180910390fd5b600084846000818110612ac557612ac461411a565b5b90506020020135905060018260100160026101000a81548160ff021916908315150217905550612af481613227565b82600801906005612b069291906134a3565b50612b8f82600301600580602002604051908101604052809291908260058015612b45576020028201915b815481526020019060010190808311612b31575b505050505083600801600580602002604051908101604052809291908260058015612b85576020028201915b815481526020019060010190808311612b71575b5050505050612c51565b82600d0160006101000a81548160ff021916908360ff160217905550612bc582600d0160009054906101000a900460ff16612d4c565b82600e0181905550827facb85192b17e57cdd6ffdc2af021cc70c3a2269771b37b82dd36695fec903af560405160405180910390a2505050505050565b600260035403612c47576040517f08c379a0000000000000000000000000000000000000000000000000000000008152600401612c3e90614d0e565b60405180910390fd5b6002600381905550565b60008060009050612c606134e3565b60005b60058160ff161015612d405760005b60058160ff161015612d2c57828160ff1660058110612c9457612c9361411a565b5b6020020151158015612cd95750858160ff1660058110612cb757612cb661411a565b5b6020020151878360ff1660058110612cd257612cd161411a565b5b6020020151145b15612d1957600184612ceb9190614d2e565b93506001838260ff1660058110612d0557612d0461411a565b5b602002019015159081151581525050612d2c565b8080612d2490614d63565b915050612c72565b508080612d3890614d63565b915050612c63565b50819250505092915050565b600060058260ff161115612d95576040517f08c379a0000000000000000000000000000000000000000000000000000000008152600401612d8c90614dd8565b60405180910390fd5b60006040518060c001604052806000815260200166027ca57357c000815260200166044364c5bb00008152602001662386f26fc10000815260200167016345785d8a000081526020016004548152509050808360ff1660068110612dfc57612dfb61411a565b5b6020020151915050919050565b60008111612e4c576040517f08c379a0000000000000000000000000000000000000000000000000000000008152600401612e4390614e44565b60405180910390fd5b60008273ffffffffffffffffffffffffffffffffffffffff1682604051612e729061438a565b60006040518083038185875af1925050503d8060008114612eaf576040519150601f19603f3d011682016040523d82523d6000602084013e612eb4565b606091505b5050905080612ef8576040517f08c379a0000000000000000000000000000000000000000000000000000000008152600401612eef90614eb0565b60405180910390fd5b505050565b6001600381905550565b60008054906101000a900473ffffffffffffffffffffffffffffffffffffffff1673ffffffffffffffffffffffffffffffffffffffff163373ffffffffffffffffffffffffffffffffffffffff1614612f95576040517f08c379a0000000000000000000000000000000000000000000000000000000008152600401612f8c90614f1c565b60405180910390fd5b565b3373ffffffffffffffffffffffffffffffffffffffff168173ffffffffffffffffffffffffffffffffffffffff1603613005576040517f08c379a0000000000000000000000000000000000000000000000000000000008152600401612ffc90614f88565b60405180910390fd5b80600160006101000a81548173ffffffffffffffffffffffffffffffffffffffff021916908373ffffffffffffffffffffffffffffffffffffffff1602179055508073ffffffffffffffffffffffffffffffffffffffff1660008054906101000a900473ffffffffffffffffffffffffffffffffffffffff1673ffffffffffffffffffffffffffffffffffffffff167fed8889f560326eb138920d842192f0eb3dd22b4f139c87a2c57538e05bae127860405160405180910390a350565b600080600260009054906101000a900473ffffffffffffffffffffffffffffffffffffffff1673ffffffffffffffffffffffffffffffffffffffff16639b1c385e6040518060c001604052807f787d74caea10b2b357790d5b5247c2f63d1d91572a9846f780606e4d953677ae60001b81526020017f00000000000000000000000000000000000000000000000000000000000000008152602001600361ffff168152602001622625a063ffffffff168152602001600160ff1663ffffffff1681526020016131a260405180602001604052806000151581525061337d565b8152506040518263ffffffff1660e01b81526004016131c191906150e7565b6020604051808303816000875af11580156131e0573d6000803e3d6000fd5b505050506040513d601f19601f82011682018060405250810190613204919061511e565b905082601060008381526020019081526020016000208190555080915050919050565b61322f613505565b613237613527565b61323f613505565b600080856040516020016132539190613c6d565b60405160208183030381529060405280519060200120905060005b60058310156133705760208160ff16106132b257818160405160200161329592919061515a565b604051602081830303815290604052805190602001209150600090505b60006025838360ff16602081106132cc576132cb61411a565b5b1a60f81b60f81c6132dd9190615183565b905081806132ea90614d63565b9250506000868260ff16602581106133055761330461411a565b5b602002015160ff160361336a576001868260ff166025811061332a5761332961411a565b5b602002019060ff16908160ff16815250508060ff168585600581106133525761335161411a565b5b602002018181525050838061336690614877565b9450505b5061326e565b8395505050505050919050565b60607f92fd13387c7fe7befbc38d303d6468778fb9731bc4583f17d92989c6fcfdeaaa826040516024016133b191906151d0565b604051602081830303815290604052907bffffffffffffffffffffffffffffffffffffffffffffffffffffffff19166020820180517bffffffffffffffffffffffffffffffffffffffffffffffffffffffff83818316178352505050509050919050565b60405180610180016040528060008152602001600073ffffffffffffffffffffffffffffffffffffffff16815260200160008152602001613454613505565b8152602001613461613505565b8152602001600060ff16815260200160008152602001600081526020016000151581526020016000151581526020016000151581526020016000151581525090565b82600581019282156134d2579160200282015b828111156134d15782518255916020019190600101906134b6565b5b5090506134df919061354a565b5090565b6040518060a00160405280600590602082028036833780820191505090505090565b6040518060a00160405280600590602082028036833780820191505090505090565b604051806104a00160405280602590602082028036833780820191505090505090565b5b8082111561356357600081600090555060010161354b565b5090565b600082825260208201905092915050565b7f496e76616c69642063616c6c0000000000000000000000000000000000000000600082015250565b60006135ae600c83613567565b91506135b982613578565b602082019050919050565b600060208201905081810360008301526135dd816135a1565b9050919050565b600081519050919050565b600082825260208201905092915050565b6000819050602082019050919050565b6000819050919050565b61362381613610565b82525050565b600073ffffffffffffffffffffffffffffffffffffffff82169050919050565b600061365482613629565b9050919050565b61366481613649565b82525050565b600060059050919050565b600081905092915050565b6000819050919050565b6000613696838361361a565b60208301905092915050565b6000602082019050919050565b6136b88161366a565b6136c28184613675565b92506136cd82613680565b8060005b838110156136fe5781516136e5878261368a565b96506136f0836136a2565b9250506001810190506136d1565b505050505050565b600060ff82169050919050565b61371c81613706565b82525050565b60008115159050919050565b61373781613722565b82525050565b61028082016000820151613754600085018261361a565b506020820151613767602085018261365b565b50604082015161377a604085018261361a565b50606082015161378d60608501826136af565b5060808201516137a16101008501826136af565b5060a08201516137b56101a0850182613713565b5060c08201516137c96101c085018261361a565b5060e08201516137dd6101e085018261361a565b506101008201516137f261020085018261372e565b5061012082015161380761022085018261372e565b5061014082015161381c61024085018261372e565b5061016082015161383161026085018261372e565b50505050565b6000613843838361373d565b6102808301905092915050565b6000602082019050919050565b6000613868826135e4565b61387281856135ef565b935061387d83613600565b8060005b838110156138ae5781516138958882613837565b97506138a083613850565b925050600181019050613881565b5085935050505092915050565b600060208201905081810360008301526138d5818461385d565b905092915050565b6000604051905090565b600080fd5b600080fd5b6138fa81613610565b811461390557600080fd5b50565b600081359050613917816138f1565b92915050565b600080fd5b600080fd5b600080fd5b60008083601f8401126139425761394161391d565b5b8235905067ffffffffffffffff81111561395f5761395e613922565b5b60208301915083602082028301111561397b5761397a613927565b5b9250929050565b60008060006040848603121561399b5761399a6138e7565b5b60006139a986828701613908565b935050602084013567ffffffffffffffff8111156139ca576139c96138ec565b5b6139d68682870161392c565b92509250509250925092565b6000602082840312156139f8576139f76138e7565b5b6000613a0684828501613908565b91505092915050565b61028082016000820151613a26600085018261361a565b506020820151613a39602085018261365b565b506040820151613a4c604085018261361a565b506060820151613a5f60608501826136af565b506080820151613a736101008501826136af565b5060a0820151613a876101a0850182613713565b5060c0820151613a9b6101c085018261361a565b5060e0820151613aaf6101e085018261361a565b50610100820151613ac461020085018261372e565b50610120820151613ad961022085018261372e565b50610140820151613aee61024085018261372e565b50610160820151613b0361026085018261372e565b50505050565b600061028082019050613b1f6000830184613a0f565b92915050565b600063ffffffff82169050919050565b613b3e81613b25565b82525050565b6000602082019050613b596000830184613b35565b92915050565b613b6881613706565b82525050565b6000602082019050613b836000830184613b5f565b92915050565b613b9281613649565b82525050565b6000602082019050613bad6000830184613b89565b92915050565b613bbc81613610565b82525050565b613bcb81613722565b82525050565b600061014082019050613be7600083018d613bb3565b613bf4602083018c613b89565b613c01604083018b613bb3565b613c0e606083018a613b5f565b613c1b6080830189613bb3565b613c2860a0830188613bb3565b613c3560c0830187613bc2565b613c4260e0830186613bc2565b613c50610100830185613bc2565b613c5e610120830184613bc2565b9b9a5050505050505050505050565b6000602082019050613c826000830184613bb3565b92915050565b600061ffff82169050919050565b613c9f81613c88565b82525050565b6000602082019050613cba6000830184613c96565b92915050565b613cc981613649565b8114613cd457600080fd5b50565b600081359050613ce681613cc0565b92915050565b60008060408385031215613d0357613d026138e7565b5b6000613d1185828601613cd7565b9250506020613d2285828601613908565b9150509250929050565b600060208284031215613d4257613d416138e7565b5b6000613d5084828501613cd7565b91505092915050565b6000819050919050565b6000613d7e613d79613d7484613629565b613d59565b613629565b9050919050565b6000613d9082613d63565b9050919050565b6000613da282613d85565b9050919050565b613db281613d97565b82525050565b6000602082019050613dcd6000830184613da9565b92915050565b613ddc81613706565b8114613de757600080fd5b50565b600081359050613df981613dd3565b92915050565b600060208284031215613e1557613e146138e7565b5b6000613e2384828501613dea565b91505092915050565b6000601f19601f8301169050919050565b7f4e487b7100000000000000000000000000000000000000000000000000000000600052604160045260246000fd5b613e7582613e2c565b810181811067ffffffffffffffff82111715613e9457613e93613e3d565b5b80604052505050565b6000613ea76138dd565b9050613eb38282613e6c565b919050565b600067ffffffffffffffff821115613ed357613ed2613e3d565b5b602082029050919050565b6000613ef1613eec84613eb8565b613e9d565b90508060208402830185811115613f0b57613f0a613927565b5b835b81811015613f345780613f208882613908565b845260208401935050602081019050613f0d565b5050509392505050565b600082601f830112613f5357613f5261391d565b5b6005613f60848285613ede565b91505092915050565b60008060c08385031215613f8057613f7f6138e7565b5b6000613f8e85828601613908565b9250506020613f9f85828601613f3e565b9150509250929050565b7f4e487b7100000000000000000000000000000000000000000000000000000000600052601160045260246000fd5b6000613fe382613610565b9150613fee83613610565b9250828202613ffc81613610565b9150828204841483151761401357614012613fa9565b5b5092915050565b7f4e487b7100000000000000000000000000000000000000000000000000000000600052601260045260246000fd5b600061405482613610565b915061405f83613610565b92508261406f5761406e61401a565b5b828204905092915050565b600061408582613610565b915061409083613610565b92508282019050808211156140a8576140a7613fa9565b5b92915050565b7f4f6e6c7920666f72206f776e6572000000000000000000000000000000000000600082015250565b60006140e4600e83613567565b91506140ef826140ae565b602082019050919050565b60006020820190508181036000830152614113816140d7565b9050919050565b7f4e487b7100000000000000000000000000000000000000000000000000000000600052603260045260246000fd5b600060408201905061415e6000830185613b89565b61416b6020830184613b89565b9392505050565b7f596f7520617265206e6f7420746865207469636b6574206f776e657200000000600082015250565b60006141a8601c83613567565b91506141b382614172565b602082019050919050565b600060208201905081810360008301526141d78161419b565b9050919050565b7f4d7573742062652070726f706f736564206f776e657200000000000000000000600082015250565b6000614214601683613567565b915061421f826141de565b602082019050919050565b6000602082019050818103600083015261424381614207565b9050919050565b7f496e636f72726563742045544820616d6f756e742073656e7400000000000000600082015250565b6000614280601983613567565b915061428b8261424a565b602082019050919050565b600060208201905081810360008301526142af81614273565b9050919050565b60006060820190506142cb6000830186613b89565b6142d86020830185613b89565b6142e56040830184613b89565b949350505050565b7f4e6f7468696e6720746f20776974686472617700000000000000000000000000600082015250565b6000614323601383613567565b915061432e826142ed565b602082019050919050565b6000602082019050818103600083015261435281614316565b9050919050565b600081905092915050565b50565b6000614374600083614359565b915061437f82614364565b600082019050919050565b600061439582614367565b9150819050919050565b7f4f776e657242616c616e6365207769746864726177616c206661696c65640000600082015250565b60006143d5601e83613567565b91506143e08261439f565b602082019050919050565b60006020820190508181036000830152614404816143c8565b9050919050565b7f4f6e6c79207469636b6574206f776e65722063616e20636c61696d0000000000600082015250565b6000614441601b83613567565b915061444c8261440b565b602082019050919050565b6000602082019050818103600083015261447081614434565b9050919050565b7f5469636b657420646f6573206e6f742065786973740000000000000000000000600082015250565b60006144ad601583613567565b91506144b882614477565b602082019050919050565b600060208201905081810360008301526144dc816144a0565b9050919050565b7f436f6d62696e6174696f6e206e6f74207375626d697474656400000000000000600082015250565b6000614519601983613567565b9150614524826144e3565b602082019050919050565b600060208201905081810360008301526145488161450c565b9050919050565b7f57696e6e696e67206e6f742067656e6572617465640000000000000000000000600082015250565b6000614585601583613567565b91506145908261454f565b602082019050919050565b600060208201905081810360008301526145b481614578565b9050919050565b7f52657761726420616c726561647920636c61696d656400000000000000000000600082015250565b60006145f1601683613567565b91506145fc826145bb565b602082019050919050565b60006020820190508181036000830152614620816145e4565b9050919050565b7f54616d706572696e672064657465637465640000000000000000000000000000600082015250565b600061465d601283613567565b915061466882614627565b602082019050919050565b6000602082019050818103600083015261468c81614650565b9050919050565b7f4e6f2072657761726420746f20636c61696d0000000000000000000000000000600082015250565b60006146c9601283613567565b91506146d482614693565b602082019050919050565b600060208201905081810360008301526146f8816146bc565b9050919050565b600061470a82613610565b915061471583613610565b925082820390508181111561472d5761472c613fa9565b5b92915050565b7f4f6e6c79207265616c20706c6179657273210000000000000000000000000000600082015250565b6000614769601283613567565b915061477482614733565b602082019050919050565b600060208201905081810360008301526147988161475c565b9050919050565b7f4d75737420627579206174206c65617374206f6e65207469636b657400000000600082015250565b60006147d5601c83613567565b91506147e08261479f565b602082019050919050565b60006020820190508181036000830152614804816147c8565b9050919050565b7f496e636f7272656374207472616e73616374696f6e2076616c75652100000000600082015250565b6000614841601c83613567565b915061484c8261480b565b602082019050919050565b6000602082019050818103600083015261487081614834565b9050919050565b600061488282613610565b91507fffffffffffffffffffffffffffffffffffffffffffffffffffffffffffffffff82036148b4576148b3613fa9565b5b600182019050919050565b7f4a61636b706f74207769746864726177616c206661696c656400000000000000600082015250565b60006148f5601983613567565b9150614900826148bf565b602082019050919050565b60006020820190508181036000830152614924816148e8565b9050919050565b7f4f7065726174696f6e7342616c616e6365207769746864726177616c2066616960008201527f6c65640000000000000000000000000000000000000000000000000000000000602082015250565b6000614987602383613567565b91506149928261492b565b604082019050919050565b600060208201905081810360008301526149b68161497a565b9050919050565b7f596f7520617265206e6f7420746865206f776e65720000000000000000000000600082015250565b60006149f3601583613567565b91506149fe826149bd565b602082019050919050565b60006020820190508181036000830152614a22816149e6565b9050919050565b7f416c7265616479207375626d6974746564000000000000000000000000000000600082015250565b6000614a5f601183613567565b9150614a6a82614a29565b602082019050919050565b60006020820190508181036000830152614a8e81614a52565b9050919050565b7f4e756d626572206f7574206f662072616e67652028302d333629000000000000600082015250565b6000614acb601a83613567565b9150614ad682614a95565b602082019050919050565b60006020820190508181036000830152614afa81614abe565b9050919050565b7f4475706c6963617465206e756d62657273206e6f7420616c6c6f776564000000600082015250565b6000614b37601d83613567565b9150614b4282614b01565b602082019050919050565b60006020820190508181036000830152614b6681614b2a565b9050919050565b600081905092915050565b614b818161366a565b614b8b8184614b6d565b9250614b9682613680565b8060005b83811015614bc7578151614bae878261368a565b9650614bb9836136a2565b925050600181019050614b9a565b505050505050565b600060a082019050614be46000830184614b78565b92915050565b7f416c726561647920726571756573746564000000000000000000000000000000600082015250565b6000614c20601183613567565b9150614c2b82614bea565b602082019050919050565b60006020820190508181036000830152614c4f81614c13565b9050919050565b7f416c72656164792067656e657261746564000000000000000000000000000000600082015250565b6000614c8c601183613567565b9150614c9782614c56565b602082019050919050565b60006020820190508181036000830152614cbb81614c7f565b9050919050565b7f5265656e7472616e637947756172643a207265656e7472616e742063616c6c00600082015250565b6000614cf8601f83613567565b9150614d0382614cc2565b602082019050919050565b60006020820190508181036000830152614d2781614ceb565b9050919050565b6000614d3982613706565b9150614d4483613706565b9250828201905060ff811115614d5d57614d5c613fa9565b5b92915050565b6000614d6e82613706565b915060ff8203614d8157614d80613fa9565b5b600182019050919050565b7f556e6578706563746564206d61746368696e67206e756d62657220636f756e74600082015250565b6000614dc2602083613567565b9150614dcd82614d8c565b602082019050919050565b60006020820190508181036000830152614df181614db5565b9050919050565b7f4e6f2072657761726420746f2073656e64000000000000000000000000000000600082015250565b6000614e2e601183613567565b9150614e3982614df8565b602082019050919050565b60006020820190508181036000830152614e5d81614e21565b9050919050565b7f526577617264207472616e73666572206661696c656400000000000000000000600082015250565b6000614e9a601683613567565b9150614ea582614e64565b602082019050919050565b60006020820190508181036000830152614ec981614e8d565b9050919050565b7f4f6e6c792063616c6c61626c65206279206f776e657200000000000000000000600082015250565b6000614f06601683613567565b9150614f1182614ed0565b602082019050919050565b60006020820190508181036000830152614f3581614ef9565b9050919050565b7f43616e6e6f74207472616e7366657220746f2073656c66000000000000000000600082015250565b6000614f72601783613567565b9150614f7d82614f3c565b602082019050919050565b60006020820190508181036000830152614fa181614f65565b9050919050565b6000819050919050565b614fbb81614fa8565b82525050565b614fca81613c88565b82525050565b614fd981613b25565b82525050565b600081519050919050565b600082825260208201905092915050565b60005b83811015615019578082015181840152602081019050614ffe565b60008484015250505050565b600061503082614fdf565b61503a8185614fea565b935061504a818560208601614ffb565b61505381613e2c565b840191505092915050565b600060c0830160008301516150766000860182614fb2565b506020830151615089602086018261361a565b50604083015161509c6040860182614fc1565b5060608301516150af6060860182614fd0565b5060808301516150c26080860182614fd0565b5060a083015184820360a08601526150da8282615025565b9150508091505092915050565b60006020820190508181036000830152615101818461505e565b905092915050565b600081519050615118816138f1565b92915050565b600060208284031215615134576151336138e7565b5b600061514284828501615109565b91505092915050565b61515481614fa8565b82525050565b600060408201905061516f600083018561514b565b61517c6020830184613b5f565b9392505050565b600061518e82613706565b915061519983613706565b9250826151a9576151a861401a565b5b828206905092915050565b6020820160008201516151ca600085018261372e565b50505050565b60006020820190506151e560008301846151b4565b9291505056fea26469706673582212200e64c5f080a24627e62406a41da90b76b5f8d144eb429a03e1bd581e31aec50a64736f6c634300081c0033",
  "linkReferences": {},
  "deployedLinkReferences": {}
}