{"contracts/LotteryTest.sol":{"LotteryTest":{"abi":[{"inputs":[{"internalType":"address","name":"_vrfCoordinator","type":"address"},{"internalType":"uint256","name":"_subscriptionId","type":"uint256"}],"stateMutability":"nonpayable","type":"constructor"},{"inputs":[{"internalType":"address","name":"have","type":"address"},{"internalType":"address","name":"want","type":"address"}],"name":"OnlyCoordinatorCanFulfill","type":"error"},{"inputs":[{"internalType":"address","name":"have","type":"address"},{"internalType":"address","name":"owner","type":"address"},{"internalType":"address","name":"coordinator","type":"address"}],"name":"OnlyOwnerOrCoordinator","type":"error"},{"inputs":[],"name":"ZeroAddress","type":"error"},{"anonymous":false,"inputs":[{"indexed":false,"internalType":"address","name":"vrfCoordinator","type":"address"}],"name":"CoordinatorSet","type":"event"},{"anonymous":false,"inputs":[{"indexed":true,"internalType":"address","name":"owner","type":"address"},{"indexed":true,"internalType":"uint256","name":"amount","type":"uint256"}],"name":"Distribute","type":"event"},{"anonymous":false,"inputs":[{"indexed":true,"internalType":"address","name":"owner","type":"address"},{"indexed":true,"internalType":"uint256","name":"ticketNumber","type":"uint256"},{"indexed":false,"internalType":"uint256[5]","name":"playerCombination","type":"uint256[5]"},{"indexed":false,"internalType":"uint256[5]","name":"winningCombination","type":"uint256[5]"},{"indexed":false,"internalType":"uint8","name":"matchingNumbers","type":"uint8"},{"indexed":true,"internalType":"uint256","name":"rewardAmount","type":"uint256"}],"name":"LotteryResults","type":"event"},{"anonymous":false,"inputs":[{"indexed":true,"internalType":"address","name":"owner","type":"address"},{"indexed":true,"internalType":"uint256","name":"amount","type":"uint256"}],"name":"OperationsBalanceWithdraw","type":"event"},{"anonymous":false,"inputs":[{"indexed":true,"internalType":"address","name":"owner","type":"address"},{"indexed":true,"internalType":"uint256","name":"amount","type":"uint256"}],"name":"OwnerBalanceWithdraw","type":"event"},{"anonymous":false,"inputs":[{"indexed":true,"internalType":"address","name":"from","type":"address"},{"indexed":true,"internalType":"address","name":"to","type":"address"}],"name":"OwnershipTransferRequested","type":"event"},{"anonymous":false,"inputs":[{"indexed":true,"internalType":"address","name":"from","type":"address"},{"indexed":true,"internalType":"address","name":"to","type":"address"}],"name":"OwnershipTransferred","type":"event"},{"anonymous":false,"inputs":[{"indexed":true,"internalType":"address","name":"player","type":"address"},{"indexed":false,"internalType":"uint256[5]","name":"combination","type":"uint256[5]"}],"name":"PlayerCombinationSubmitted","type":"event"},{"anonymous":false,"inputs":[{"indexed":true,"internalType":"uint256","name":"requestId","type":"uint256"},{"indexed":true,"internalType":"uint256","name":"ticketNumber","type":"uint256"},{"indexed":false,"internalType":"uint256","name":"number","type":"uint256"}],"name":"RandomNumberGenerated","type":"event"},{"anonymous":false,"inputs":[{"indexed":true,"internalType":"uint256","name":"requestId","type":"uint256"},{"indexed":true,"internalType":"uint256","name":"ticketId","type":"uint256"}],"name":"RandomWordsRequested","type":"event"},{"anonymous":false,"inputs":[{"indexed":true,"internalType":"address","name":"player","type":"address"},{"indexed":true,"internalType":"uint256","name":"ticketId","type":"uint256"},{"indexed":true,"internalType":"uint256","name":"amount","type":"uint256"}],"name":"RewardClaimed","type":"event"},{"anonymous":false,"inputs":[{"indexed":true,"internalType":"address","name":"player","type":"address"},{"indexed":true,"internalType":"uint256","name":"ticketNumber","type":"uint256"}],"name":"TicketPurchased","type":"event"},{"anonymous":false,"inputs":[{"indexed":true,"internalType":"uint256","name":"ticketNumber","type":"uint256"},{"indexed":false,"internalType":"uint256[5]","name":"combination","type":"uint256[5]"}],"name":"WinningCombinationGenerated","type":"event"},{"stateMutability":"payable","type":"fallback"},{"inputs":[],"name":"CALLBACK_GAS_LIMIT","outputs":[{"internalType":"uint32","name":"","type":"uint32"}],"stateMutability":"view","type":"function"},{"inputs":[],"name":"NUMBER_OF_WORDS","outputs":[{"internalType":"uint8","name":"","type":"uint8"}],"stateMutability":"view","type":"function"},{"inputs":[],"name":"NUMBER_RANGE","outputs":[{"internalType":"uint8","name":"","type":"uint8"}],"stateMutability":"view","type":"function"},{"inputs":[],"name":"REQUEST_CONFIRMATIONS","outputs":[{"internalType":"uint16","name":"","type":"uint16"}],"stateMutability":"view","type":"function"},{"inputs":[],"name":"TICKET_PRICE_WEI","outputs":[{"internalType":"uint256","name":"","type":"uint256"}],"stateMutability":"view","type":"function"},{"inputs":[],"name":"acceptOwnership","outputs":[],"stateMutability":"nonpayable","type":"function"},{"inputs":[{"internalType":"address","name":"","type":"address"}],"name":"addressToActiveTicketNumber","outputs":[{"internalType":"uint256","name":"","type":"uint256"}],"stateMutability":"view","type":"function"},{"inputs":[],"name":"assignTestTicket","outputs":[],"stateMutability":"nonpayable","type":"function"},{"inputs":[],"name":"buyTicket","outputs":[],"stateMutability":"payable","type":"function"},{"inputs":[{"internalType":"address","name":"walletAddress","type":"address"}],"name":"getActiveTicketNumber","outputs":[{"internalType":"uint256","name":"","type":"uint256"}],"stateMutability":"view","type":"function"},{"inputs":[],"name":"getContractOwner","outputs":[{"internalType":"address","name":"","type":"address"}],"stateMutability":"view","type":"function"},{"inputs":[],"name":"getJackpot","outputs":[{"internalType":"uint256","name":"","type":"uint256"}],"stateMutability":"view","type":"function"},{"inputs":[],"name":"getOperationsBalance","outputs":[{"internalType":"uint256","name":"","type":"uint256"}],"stateMutability":"view","type":"function"},{"inputs":[],"name":"getOwnerBalance","outputs":[{"internalType":"uint256","name":"","type":"uint256"}],"stateMutability":"view","type":"function"},{"inputs":[{"internalType":"address","name":"walletAddress","type":"address"}],"name":"getPlayerTicket","outputs":[{"components":[{"internalType":"uint256","name":"id","type":"uint256"},{"internalType":"address","name":"owner","type":"address"},{"internalType":"uint256","name":"purchaseTimestamp","type":"uint256"},{"internalType":"uint256[5]","name":"playerCombination","type":"uint256[5]"},{"internalType":"uint256[5]","name":"winningCombination","type":"uint256[5]"},{"internalType":"uint256","name":"randomWord","type":"uint256"},{"internalType":"bool","name":"isRewardClaimed","type":"bool"},{"internalType":"bool","name":"playerCombinationSubmitted","type":"bool"},{"internalType":"bool","name":"winningCombinationGenerated","type":"bool"}],"internalType":"struct LotteryTest.LotteryTicket","name":"","type":"tuple"}],"stateMutability":"view","type":"function"},{"inputs":[],"name":"getRandomWord","outputs":[{"internalType":"uint256","name":"","type":"uint256"}],"stateMutability":"view","type":"function"},{"inputs":[{"internalType":"uint256","name":"ticketId","type":"uint256"}],"name":"getResults","outputs":[],"stateMutability":"nonpayable","type":"function"},{"inputs":[],"name":"getWinningCombination","outputs":[{"internalType":"uint256[5]","name":"","type":"uint256[5]"}],"stateMutability":"view","type":"function"},{"inputs":[],"name":"jackpot","outputs":[{"internalType":"uint256","name":"","type":"uint256"}],"stateMutability":"view","type":"function"},{"inputs":[],"name":"nextTicketId","outputs":[{"internalType":"uint256","name":"","type":"uint256"}],"stateMutability":"view","type":"function"},{"inputs":[],"name":"owner","outputs":[{"internalType":"address","name":"","type":"address"}],"stateMutability":"view","type":"function"},{"inputs":[{"internalType":"uint256","name":"requestId","type":"uint256"},{"internalType":"uint256[]","name":"randomWords","type":"uint256[]"}],"name":"rawFulfillRandomWords","outputs":[],"stateMutability":"nonpayable","type":"function"},{"inputs":[{"internalType":"uint256","name":"","type":"uint256"}],"name":"requestIdToTicketId","outputs":[{"internalType":"uint256","name":"","type":"uint256"}],"stateMutability":"view","type":"function"},{"inputs":[],"name":"s_vrfCoordinator","outputs":[{"internalType":"contract IVRFCoordinatorV2Plus","name":"","type":"address"}],"stateMutability":"view","type":"function"},{"inputs":[{"internalType":"address","name":"_vrfCoordinator","type":"address"}],"name":"setCoordinator","outputs":[],"stateMutability":"nonpayable","type":"function"},{"inputs":[{"internalType":"uint256","name":"ticketId","type":"uint256"},{"internalType":"uint256[5]","name":"playerCombination","type":"uint256[5]"}],"name":"submitCombination","outputs":[],"stateMutability":"nonpayable","type":"function"},{"inputs":[{"internalType":"uint256","name":"amount","type":"uint256"}],"name":"testDistribute","outputs":[],"stateMutability":"nonpayable","type":"function"},{"inputs":[],"name":"testTicket","outputs":[{"internalType":"uint256","name":"id","type":"uint256"},{"internalType":"address","name":"owner","type":"address"},{"internalType":"uint256","name":"purchaseTimestamp","type":"uint256"},{"internalType":"uint256","name":"randomWord","type":"uint256"},{"internalType":"bool","name":"isRewardClaimed","type":"bool"},{"internalType":"bool","name":"playerCombinationSubmitted","type":"bool"},{"internalType":"bool","name":"winningCombinationGenerated","type":"bool"}],"stateMutability":"view","type":"function"},{"inputs":[{"internalType":"uint8","name":"matchingNumbers","type":"uint8"}],"name":"test_calculateReward","outputs":[{"internalType":"uint256","name":"","type":"uint256"}],"stateMutability":"view","type":"function"},{"inputs":[{"internalType":"uint256[5]","name":"playerCombination","type":"uint256[5]"},{"internalType":"uint256[5]","name":"winningCombination","type":"uint256[5]"}],"name":"test_checkWinningCombination","outputs":[{"internalType":"uint8","name":"","type":"uint8"}],"stateMutability":"pure","type":"function"},{"inputs":[{"internalType":"uint256","name":"requestId","type":"uint256"},{"internalType":"uint256[]","name":"randomWords","type":"uint256[]"}],"name":"test_fulfillRandomWords","outputs":[],"stateMutability":"nonpayable","type":"function"},{"inputs":[],"name":"test_generateWinningCombination","outputs":[],"stateMutability":"nonpayable","type":"function"},{"inputs":[{"internalType":"uint256","name":"ticketId","type":"uint256"}],"name":"test_requestRandomNumber","outputs":[{"internalType":"uint256","name":"","type":"uint256"}],"stateMutability":"nonpayable","type":"function"},{"inputs":[{"internalType":"address","name":"recipient","type":"address"},{"internalType":"uint256","name":"amount","type":"uint256"}],"name":"test_sendReward","outputs":[],"stateMutability":"nonpayable","type":"function"},{"inputs":[{"internalType":"uint256","name":"","type":"uint256"}],"name":"tickets","outputs":[{"internalType":"uint256","name":"id","type":"uint256"},{"internalType":"address","name":"owner","type":"address"},{"internalType":"uint256","name":"purchaseTimestamp","type":"uint256"},{"internalType":"uint256","name":"randomWord","type":"uint256"},{"internalType":"bool","name":"isRewardClaimed","type":"bool"},{"internalType":"bool","name":"playerCombinationSubmitted","type":"bool"},{"internalType":"bool","name":"winningCombinationGenerated","type":"bool"}],"stateMutability":"view","type":"function"},{"inputs":[{"internalType":"address","name":"to","type":"address"}],"name":"transferOwnership","outputs":[],"stateMutability":"nonpayable","type":"function"},{"inputs":[],"name":"withdrawOperationsBalance","outputs":[],"stateMutability":"payable","type":"function"},{"inputs":[],"name":"withdrawOwnerBalance","outputs":[],"stateMutability":"payable","type":"function"},{"stateMutability":"payable","type":"receive"}],"evm":{"bytecode":{"linkReferences":{},"object":"60e0604052600160165534801561001557600080fd5b50604051614ae5380380614ae58339818101604052810190610037919061041d565b81338060008073ffffffffffffffffffffffffffffffffffffffff168273ffffffffffffffffffffffffffffffffffffffff16036100aa576040517f08c379a00000000000000000000000000000000000000000000000000000000081526004016100a1906104ba565b60405180910390fd5b816000806101000a81548173ffffffffffffffffffffffffffffffffffffffff021916908373ffffffffffffffffffffffffffffffffffffffff160217905550600073ffffffffffffffffffffffffffffffffffffffff168173ffffffffffffffffffffffffffffffffffffffff161461012e5761012d8161025860201b60201c565b5b505050600073ffffffffffffffffffffffffffffffffffffffff168173ffffffffffffffffffffffffffffffffffffffff1603610197576040517fd92e233d00000000000000000000000000000000000000000000000000000000815260040160405180910390fd5b80600260006101000a81548173ffffffffffffffffffffffffffffffffffffffff021916908373ffffffffffffffffffffffffffffffffffffffff1602179055505060016003819055503373ffffffffffffffffffffffffffffffffffffffff1660808173ffffffffffffffffffffffffffffffffffffffff16815250508060a081815250508173ffffffffffffffffffffffffffffffffffffffff1660c08173ffffffffffffffffffffffffffffffffffffffff16815250505050610546565b3373ffffffffffffffffffffffffffffffffffffffff168173ffffffffffffffffffffffffffffffffffffffff16036102c6576040517f08c379a00000000000000000000000000000000000000000000000000000000081526004016102bd90610526565b60405180910390fd5b80600160006101000a81548173ffffffffffffffffffffffffffffffffffffffff021916908373ffffffffffffffffffffffffffffffffffffffff1602179055508073ffffffffffffffffffffffffffffffffffffffff1660008054906101000a900473ffffffffffffffffffffffffffffffffffffffff1673ffffffffffffffffffffffffffffffffffffffff167fed8889f560326eb138920d842192f0eb3dd22b4f139c87a2c57538e05bae127860405160405180910390a350565b600080fd5b600073ffffffffffffffffffffffffffffffffffffffff82169050919050565b60006103b482610389565b9050919050565b6103c4816103a9565b81146103cf57600080fd5b50565b6000815190506103e1816103bb565b92915050565b6000819050919050565b6103fa816103e7565b811461040557600080fd5b50565b600081519050610417816103f1565b92915050565b6000806040838503121561043457610433610384565b5b6000610442858286016103d2565b925050602061045385828601610408565b9150509250929050565b600082825260208201905092915050565b7f43616e6e6f7420736574206f776e657220746f207a65726f0000000000000000600082015250565b60006104a460188361045d565b91506104af8261046e565b602082019050919050565b600060208201905081810360008301526104d381610497565b9050919050565b7f43616e6e6f74207472616e7366657220746f2073656c66000000000000000000600082015250565b600061051060178361045d565b915061051b826104da565b602082019050919050565b6000602082019050818103600083015261053f81610503565b9050919050565b60805160a05160c05161454961059c600039600050506000612abe015260008181610df40152818161195201528181611a3601528181611b0101528181611f660152818161204a015261211501526145496000f3fe6080604052600436106102295760003560e01c80638da5cb5b11610123578063c3e9bf00116100ab578063f403251d1161006f578063f403251d146107ed578063f8ccb9c5146107f7578063f926c5d814610820578063fdab0b6c14610849578063fdd0094b1461088657610239565b8063c3e9bf0014610715578063da8dc67414610752578063edca914c1461078f578063f163915a14610799578063f2fde38b146107c457610239565b806395e888c4116100f257806395e888c41461064057806398fd29fb1461066b5780639eccacf614610694578063a32bb20f146106bf578063a75454f4146106ea57610239565b80638da5cb5b146105b75780638ea98117146105e25780639329066c1461060b578063941b80ac1461063657610239565b80634e90d36d116101b157806367f082b01161017557806367f082b0146104f65780636b31ee011461052157806379ba50971461054c57806381a60c0d146105635780638284190c1461058c57610239565b80634e90d36d146103e357806350b4471214610420578063590791f2146104635780635ff5b7f91461048e5780636031a52f146104cb57610239565b806332039770116101f8578063320397701461033457806333d608f11461034b5780633aac0fa9146103765780633cac60e5146103a1578063442890d5146103b857610239565b80631ade4244146102745780631fe543e3146102a5578063238a0954146102ce5780632b4c55721461030b57610239565b3661023957610237346108c3565b005b6040517f08c379a000000000000000000000000000000000000000000000000000000000815260040161026b90612e06565b60405180910390fd5b34801561028057600080fd5b5061028961099d565b60405161029c9796959493929190612e9b565b60405180910390f35b3480156102b157600080fd5b506102cc60048036038101906102c79190612faf565b610a14565b005b3480156102da57600080fd5b506102f560048036038101906102f0919061303b565b610ada565b6040516103029190613068565b60405180910390f35b34801561031757600080fd5b50610332600480360381019061032d9190612faf565b610af2565b005b34801561034057600080fd5b50610349610b02565b005b34801561035757600080fd5b50610360610b0e565b60405161036d91906130a2565b60405180910390f35b34801561038257600080fd5b5061038b610b15565b60405161039891906130d9565b60405180910390f35b3480156103ad57600080fd5b506103b6610b1a565b005b3480156103c457600080fd5b506103cd610df0565b6040516103da91906130f4565b60405180910390f35b3480156103ef57600080fd5b5061040a6004803603810190610405919061324c565b610e18565b60405161041791906130d9565b60405180910390f35b34801561042c57600080fd5b506104476004803603810190610442919061328d565b610e2c565b60405161045a9796959493929190612e9b565b60405180910390f35b34801561046f57600080fd5b50610478610eb5565b6040516104859190613068565b60405180910390f35b34801561049a57600080fd5b506104b560048036038101906104b0919061303b565b610ebf565b6040516104c2919061343e565b60405180910390f35b3480156104d757600080fd5b506104e0611081565b6040516104ed9190613068565b60405180910390f35b34801561050257600080fd5b5061050b611087565b6040516105189190613477565b60405180910390f35b34801561052d57600080fd5b5061053661108c565b6040516105439190613068565b60405180910390f35b34801561055857600080fd5b50610561611092565b005b34801561056f57600080fd5b5061058a6004803603810190610585919061328d565b611227565b005b34801561059857600080fd5b506105a16116ee565b6040516105ae91906134f4565b60405180910390f35b3480156105c357600080fd5b506105cc61173c565b6040516105d991906130f4565b60405180910390f35b3480156105ee57600080fd5b506106096004803603810190610604919061303b565b611765565b005b34801561061757600080fd5b50610620611946565b60405161062d9190613068565b60405180910390f35b61063e611950565b005b34801561064c57600080fd5b50610655611b66565b60405161066291906130d9565b60405180910390f35b34801561067757600080fd5b50610692600480360381019061068d919061328d565b611b6b565b005b3480156106a057600080fd5b506106a9611b77565b6040516106b6919061356e565b60405180910390f35b3480156106cb57600080fd5b506106d4611b9d565b6040516106e19190613068565b60405180910390f35b3480156106f657600080fd5b506106ff611ba7565b60405161070c9190613068565b60405180910390f35b34801561072157600080fd5b5061073c6004803603810190610737919061328d565b611bc5565b6040516107499190613068565b60405180910390f35b34801561075e57600080fd5b50610779600480360381019061077491906135b5565b611bdd565b6040516107869190613068565b60405180910390f35b610797611bef565b005b3480156107a557600080fd5b506107ae611f46565b6040516107bb9190613068565b60405180910390f35b3480156107d057600080fd5b506107eb60048036038101906107e6919061303b565b611f50565b005b6107f5611f64565b005b34801561080357600080fd5b5061081e600480360381019061081991906135e2565b61217a565b005b34801561082c57600080fd5b5061084760048036038101906108429190613622565b612188565b005b34801561085557600080fd5b50610870600480360381019061086b919061328d565b612311565b60405161087d9190613068565b60405180910390f35b34801561089257600080fd5b506108ad60048036038101906108a8919061303b565b612323565b6040516108ba9190613068565b60405180910390f35b60646055826108d29190613691565b6108dc9190613702565b601360008282546108ed9190613733565b925050819055506064600a826109039190613691565b61090d9190613702565b6014600082825461091e9190613733565b9250508190555060646005826109349190613691565b61093e9190613702565b6015600082825461094f9190613733565b92505081905550803373ffffffffffffffffffffffffffffffffffffffff167fc1d32ad5cca423e7dda2123dbf8c482f8e77d00b631c06e903a47f2cec1334df60405160405180910390a350565b60048060000154908060010160009054906101000a900473ffffffffffffffffffffffffffffffffffffffff169080600201549080600d01549080600e0160009054906101000a900460ff169080600e0160019054906101000a900460ff169080600e0160029054906101000a900460ff16905087565b600260009054906101000a900473ffffffffffffffffffffffffffffffffffffffff1673ffffffffffffffffffffffffffffffffffffffff163373ffffffffffffffffffffffffffffffffffffffff1614610aca5733600260009054906101000a900473ffffffffffffffffffffffffffffffffffffffff166040517f1cf993f4000000000000000000000000000000000000000000000000000000008152600401610ac1929190613767565b60405180910390fd5b610ad583838361236c565b505050565b601c6020528060005260406000206000915090505481565b610afd83838361236c565b505050565b610b0c6004612412565b565b62030d4081565b602581565b33600460010160006101000a81548173ffffffffffffffffffffffffffffffffffffffff021916908373ffffffffffffffffffffffffffffffffffffffff160217905550600060166000815480929190610b7390613790565b91905055905060006040518061012001604052808381526020013373ffffffffffffffffffffffffffffffffffffffff1681526020014281526020016017600580602002604051908101604052809291908260058015610be8576020028201915b815481526020019060010190808311610bd4575b505050505081526020016017600580602002604051908101604052809291908260058015610c2b576020028201915b815481526020019060010190808311610c17575b505050505081526020016000815260200160001515815260200160001515815260200160001515815250905080601d60008481526020019081526020016000206000820151816000015560208201518160010160006101000a81548173ffffffffffffffffffffffffffffffffffffffff021916908373ffffffffffffffffffffffffffffffffffffffff16021790555060408201518160020155606082015181600301906005610cdd929190612c71565b50608082015181600801906005610cf5929190612c71565b5060a082015181600d015560c082015181600e0160006101000a81548160ff02191690831515021790555060e082015181600e0160016101000a81548160ff02191690831515021790555061010082015181600e0160026101000a81548160ff02191690831515021790555090505081601c60003373ffffffffffffffffffffffffffffffffffffffff1673ffffffffffffffffffffffffffffffffffffffff16815260200190815260200160002081905550813373ffffffffffffffffffffffffffffffffffffffff167f0668f5b446eb814fe35b3206f43f14bd8567ba04ddaf7a3ee56516929ab22ccb60405160405180910390a35050565b60007f0000000000000000000000000000000000000000000000000000000000000000905090565b6000610e248383612557565b905092915050565b601d6020528060005260406000206000915090508060000154908060010160009054906101000a900473ffffffffffffffffffffffffffffffffffffffff169080600201549080600d01549080600e0160009054906101000a900460ff169080600e0160019054906101000a900460ff169080600e0160029054906101000a900460ff16905087565b6000601554905090565b610ec7612cb1565b6000601c60008473ffffffffffffffffffffffffffffffffffffffff1673ffffffffffffffffffffffffffffffffffffffff168152602001908152602001600020549050601d600082815260200190815260200160002060405180610120016040529081600082015481526020016001820160009054906101000a900473ffffffffffffffffffffffffffffffffffffffff1673ffffffffffffffffffffffffffffffffffffffff1673ffffffffffffffffffffffffffffffffffffffff1681526020016002820154815260200160038201600580602002604051908101604052809291908260058015610fd0576020028201915b815481526020019060010190808311610fbc575b5050505050815260200160088201600580602002604051908101604052809291908260058015611015576020028201915b815481526020019060010190808311611001575b50505050508152602001600d8201548152602001600e820160009054906101000a900460ff16151515158152602001600e820160019054906101000a900460ff16151515158152602001600e820160029054906101000a900460ff161515151581525050915050919050565b60165481565b600381565b60135481565b600160009054906101000a900473ffffffffffffffffffffffffffffffffffffffff1673ffffffffffffffffffffffffffffffffffffffff163373ffffffffffffffffffffffffffffffffffffffff1614611122576040517f08c379a000000000000000000000000000000000000000000000000000000000815260040161111990613824565b60405180910390fd5b60008060009054906101000a900473ffffffffffffffffffffffffffffffffffffffff169050336000806101000a81548173ffffffffffffffffffffffffffffffffffffffff021916908373ffffffffffffffffffffffffffffffffffffffff1602179055506000600160006101000a81548173ffffffffffffffffffffffffffffffffffffffff021916908373ffffffffffffffffffffffffffffffffffffffff1602179055503373ffffffffffffffffffffffffffffffffffffffff168173ffffffffffffffffffffffffffffffffffffffff167f8be0079c531659141344cd1fd0a4f28419497f9722a3daafe3b4186f6b6457e060405160405180910390a350565b61122f612652565b6000601d600083815260200190815260200160002090503373ffffffffffffffffffffffffffffffffffffffff168160010160009054906101000a900473ffffffffffffffffffffffffffffffffffffffff1673ffffffffffffffffffffffffffffffffffffffff16146112d8576040517f08c379a00000000000000000000000000000000000000000000000000000000081526004016112cf906138b6565b60405180910390fd5b600073ffffffffffffffffffffffffffffffffffffffff168160010160009054906101000a900473ffffffffffffffffffffffffffffffffffffffff1673ffffffffffffffffffffffffffffffffffffffff160361136b576040517f08c379a000000000000000000000000000000000000000000000000000000000815260040161136290613922565b60405180910390fd5b600081600d0154036113b2576040517f08c379a00000000000000000000000000000000000000000000000000000000081526004016113a99061398e565b60405180910390fd5b80600e0160029054906101000a900460ff1615611404576040517f08c379a00000000000000000000000000000000000000000000000000000000081526004016113fb90613a20565b60405180910390fd5b61140d81612412565b600181600e0160026101000a81548160ff021916908315150217905550817f2494e4e30a1be024d23d544675a8f3854431c769078a2013818000b48b7031fc8260080160405161145d9190613b04565b60405180910390a260006114ef826003016005806020026040519081016040528092919082600580156114a5576020028201915b815481526020019060010190808311611491575b5050505050836008016005806020026040519081016040528092919082600580156114e5576020028201915b8154815260200190600101908083116114d1575b5050505050612557565b905060006114fc826126a1565b90508083600001548460010160009054906101000a900473ffffffffffffffffffffffffffffffffffffffff1673ffffffffffffffffffffffffffffffffffffffff167f91b28dbf49eca9b12d8a651f5381548b182d9d531d2ac4056dc4a29d2c3a7efe86600301876008018760405161157893929190613b1f565b60405180910390a4600081905060008211156116765781601354106115b55781601360008282546115a99190613b58565b925050819055506115c3565b601354905060006013819055505b600184600e0160006101000a81548160ff021916908315150217905550601c60008560010160009054906101000a900473ffffffffffffffffffffffffffffffffffffffff1673ffffffffffffffffffffffffffffffffffffffff1673ffffffffffffffffffffffffffffffffffffffff168152602001908152602001600020600090556116758460010160009054906101000a900473ffffffffffffffffffffffffffffffffffffffff168261278d565b5b80858560010160009054906101000a900473ffffffffffffffffffffffffffffffffffffffff1673ffffffffffffffffffffffffffffffffffffffff167ff01da32686223933d8a18a391060918c7f11a3648639edd87ae013e2e273174360405160405180910390a4505050506116eb612881565b50565b6116f6612d25565b6004600801600580602002604051908101604052809291908260058015611732576020028201915b81548152602001906001019080831161171e575b5050505050905090565b60008060009054906101000a900473ffffffffffffffffffffffffffffffffffffffff16905090565b61176d61173c565b73ffffffffffffffffffffffffffffffffffffffff163373ffffffffffffffffffffffffffffffffffffffff16141580156117f65750600260009054906101000a900473ffffffffffffffffffffffffffffffffffffffff1673ffffffffffffffffffffffffffffffffffffffff163373ffffffffffffffffffffffffffffffffffffffff1614155b15611865573361180461173c565b600260009054906101000a900473ffffffffffffffffffffffffffffffffffffffff166040517f061db9c100000000000000000000000000000000000000000000000000000000815260040161185c93929190613b8c565b60405180910390fd5b600073ffffffffffffffffffffffffffffffffffffffff168173ffffffffffffffffffffffffffffffffffffffff16036118cb576040517fd92e233d00000000000000000000000000000000000000000000000000000000815260040160405180910390fd5b80600260006101000a81548173ffffffffffffffffffffffffffffffffffffffff021916908373ffffffffffffffffffffffffffffffffffffffff1602179055507fd1a6a14209a385a964d036e404cb5cfb71f4000cdb03c9366292430787261be68160405161193b91906130f4565b60405180910390a150565b6000601354905090565b7f000000000000000000000000000000000000000000000000000000000000000073ffffffffffffffffffffffffffffffffffffffff163373ffffffffffffffffffffffffffffffffffffffff16146119de576040517f08c379a00000000000000000000000000000000000000000000000000000000081526004016119d590613c0f565b60405180910390fd5b600060155411611a23576040517f08c379a0000000000000000000000000000000000000000000000000000000008152600401611a1a90613c7b565b60405180910390fd5b60006015549050600060158190555060007f000000000000000000000000000000000000000000000000000000000000000073ffffffffffffffffffffffffffffffffffffffff1682604051611a7890613ccc565b60006040518083038185875af1925050503d8060008114611ab5576040519150601f19603f3d011682016040523d82523d6000602084013e611aba565b606091505b5050905080611afe576040517f08c379a0000000000000000000000000000000000000000000000000000000008152600401611af590613d2d565b60405180910390fd5b817f000000000000000000000000000000000000000000000000000000000000000073ffffffffffffffffffffffffffffffffffffffff167fa711dcbee5590122b88ae65f697adf2f2824e323782fa8df939898d7eb6c1c2b60405160405180910390a35050565b600181565b611b74816108c3565b50565b600260009054906101000a900473ffffffffffffffffffffffffffffffffffffffff1681565b6000601454905090565b6000601d6000808152602001908152602001600020600d0154905090565b601e6020528060005260406000206000915090505481565b6000611be8826126a1565b9050919050565b3373ffffffffffffffffffffffffffffffffffffffff163273ffffffffffffffffffffffffffffffffffffffff1614611c5d576040517f08c379a0000000000000000000000000000000000000000000000000000000008152600401611c5490613d99565b60405180910390fd5b655af3107a40003414611ca5576040517f08c379a0000000000000000000000000000000000000000000000000000000008152600401611c9c90613e05565b60405180910390fd5b600060405180610120016040528060166000815480929190611cc690613790565b9190505581526020013373ffffffffffffffffffffffffffffffffffffffff1681526020014281526020016017600580602002604051908101604052809291908260058015611d2a576020028201915b815481526020019060010190808311611d16575b505050505081526020016017600580602002604051908101604052809291908260058015611d6d576020028201915b815481526020019060010190808311611d59575b505050505081526020016000815260200160001515815260200160001515815260200160001515815250905080601d6000836000015181526020019081526020016000206000820151816000015560208201518160010160006101000a81548173ffffffffffffffffffffffffffffffffffffffff021916908373ffffffffffffffffffffffffffffffffffffffff16021790555060408201518160020155606082015181600301906005611e23929190612c71565b50608082015181600801906005611e3b929190612c71565b5060a082015181600d015560c082015181600e0160006101000a81548160ff02191690831515021790555060e082015181600e0160016101000a81548160ff02191690831515021790555061010082015181600e0160026101000a81548160ff0219169083151502179055509050508060000151601c60003373ffffffffffffffffffffffffffffffffffffffff1673ffffffffffffffffffffffffffffffffffffffff16815260200190815260200160002081905550611efb346108c3565b80600001513373ffffffffffffffffffffffffffffffffffffffff167f0668f5b446eb814fe35b3206f43f14bd8567ba04ddaf7a3ee56516929ab22ccb60405160405180910390a350565b655af3107a400081565b611f5861288b565b611f618161291b565b50565b7f000000000000000000000000000000000000000000000000000000000000000073ffffffffffffffffffffffffffffffffffffffff163373ffffffffffffffffffffffffffffffffffffffff1614611ff2576040517f08c379a0000000000000000000000000000000000000000000000000000000008152600401611fe990613c0f565b60405180910390fd5b600060145411612037576040517f08c379a000000000000000000000000000000000000000000000000000000000815260040161202e90613c7b565b60405180910390fd5b60006014549050600060148190555060007f000000000000000000000000000000000000000000000000000000000000000073ffffffffffffffffffffffffffffffffffffffff168260405161208c90613ccc565b60006040518083038185875af1925050503d80600081146120c9576040519150601f19603f3d011682016040523d82523d6000602084013e6120ce565b606091505b5050905080612112576040517f08c379a000000000000000000000000000000000000000000000000000000000815260040161210990613e97565b60405180910390fd5b817f000000000000000000000000000000000000000000000000000000000000000073ffffffffffffffffffffffffffffffffffffffff167fa760777eb358393d33a518ec33e1187940af7f3cbffb09c53db5ee4b7e7e402560405160405180910390a35050565b612184828261278d565b5050565b6000601d600084815260200190815260200160002090503373ffffffffffffffffffffffffffffffffffffffff168160010160009054906101000a900473ffffffffffffffffffffffffffffffffffffffff1673ffffffffffffffffffffffffffffffffffffffff1614612231576040517f08c379a000000000000000000000000000000000000000000000000000000000815260040161222890613f03565b60405180910390fd5b80600e0160019054906101000a900460ff1615612283576040517f08c379a000000000000000000000000000000000000000000000000000000000815260040161227a90613f6f565b60405180910390fd5b8181600301906005612296929190612c71565b50600181600e0160016101000a81548160ff0219169083151502179055503373ffffffffffffffffffffffffffffffffffffffff167f26aa7c18051e08a0cf3f3b6f17d2953735d99eab33c5d55efdf08ef510de455e836040516122fa91906134f4565b60405180910390a261230b83612a47565b50505050565b600061231c82612a47565b9050919050565b6000601c60008373ffffffffffffffffffffffffffffffffffffffff1673ffffffffffffffffffffffffffffffffffffffff168152602001908152602001600020549050919050565b6000601e60008581526020019081526020016000205490508282600081811061239857612397613f8f565b5b90506020020135601d6000838152602001908152602001600020600d018190555080847f86dc71b58256a2aebe2afe6d9153ce25cb709dff36adfd6807758636d89e0e44858560008181106123f0576123ef613f8f565b5b905060200201356040516124049190613068565b60405180910390a350505050565b61241a612d47565b60008083600d01546040516020016124329190613068565b60405160208183030381529060405280519060200120905060005b60058310156125505760208162ffffff161061249157816040516020016124749190613fd7565b604051602081830303815290604052805190602001209150600090505b60006025838362ffffff16602081106124ad576124ac613f8f565b5b1a60f81b60f81c6124be9190613ff2565b905081806124cb90614032565b9250506000858260ff16602581106124e6576124e5613f8f565b5b602002015160ff160361254a576001858260ff166025811061250b5761250a613f8f565b5b602002019060ff16908160ff16815250508060ff1686600801856005811061253657612535613f8f565b5b0181905550838061254690613790565b9450505b5061244d565b5050505050565b60008060009050612566612d6a565b60005b60058160ff1610156126465760005b60058160ff16101561263257828160ff166005811061259a57612599613f8f565b5b60200201511580156125df5750858160ff16600581106125bd576125bc613f8f565b5b6020020151878360ff16600581106125d8576125d7613f8f565b5b6020020151145b1561261f576001846125f1919061405d565b93506001838260ff166005811061260b5761260a613f8f565b5b602002019015159081151581525050612632565b808061262a90614092565b915050612578565b50808061263e90614092565b915050612569565b50819250505092915050565b600260035403612697576040517f08c379a000000000000000000000000000000000000000000000000000000000815260040161268e90614107565b60405180910390fd5b6002600381905550565b6000808260ff1614806126b7575060018260ff16145b156126c55760009050612788565b60028260ff16036126de57655af3107a40009050612788565b60038260ff160361270b57606460056013546126fa9190613691565b6127049190613702565b9050612788565b60048260ff1603612738576064601e6013546127279190613691565b6127319190613702565b9050612788565b60058260ff160361274d576013549050612788565b6040517f08c379a000000000000000000000000000000000000000000000000000000000815260040161277f90614173565b60405180910390fd5b919050565b600081116127d0576040517f08c379a00000000000000000000000000000000000000000000000000000000081526004016127c7906141df565b60405180910390fd5b60008273ffffffffffffffffffffffffffffffffffffffff16826040516127f690613ccc565b60006040518083038185875af1925050503d8060008114612833576040519150601f19603f3d011682016040523d82523d6000602084013e612838565b606091505b505090508061287c576040517f08c379a00000000000000000000000000000000000000000000000000000000081526004016128739061424b565b60405180910390fd5b505050565b6001600381905550565b60008054906101000a900473ffffffffffffffffffffffffffffffffffffffff1673ffffffffffffffffffffffffffffffffffffffff163373ffffffffffffffffffffffffffffffffffffffff1614612919576040517f08c379a0000000000000000000000000000000000000000000000000000000008152600401612910906142b7565b60405180910390fd5b565b3373ffffffffffffffffffffffffffffffffffffffff168173ffffffffffffffffffffffffffffffffffffffff1603612989576040517f08c379a000000000000000000000000000000000000000000000000000000000815260040161298090614323565b60405180910390fd5b80600160006101000a81548173ffffffffffffffffffffffffffffffffffffffff021916908373ffffffffffffffffffffffffffffffffffffffff1602179055508073ffffffffffffffffffffffffffffffffffffffff1660008054906101000a900473ffffffffffffffffffffffffffffffffffffffff1673ffffffffffffffffffffffffffffffffffffffff167fed8889f560326eb138920d842192f0eb3dd22b4f139c87a2c57538e05bae127860405160405180910390a350565b600080600260009054906101000a900473ffffffffffffffffffffffffffffffffffffffff1673ffffffffffffffffffffffffffffffffffffffff16639b1c385e6040518060c001604052807f787d74caea10b2b357790d5b5247c2f63d1d91572a9846f780606e4d953677ae60001b81526020017f00000000000000000000000000000000000000000000000000000000000000008152602001600361ffff16815260200162030d4063ffffffff168152602001600160ff1663ffffffff168152602001612b26604051806020016040528060001515815250612bd9565b8152506040518263ffffffff1660e01b8152600401612b459190614478565b6020604051808303816000875af1158015612b64573d6000803e3d6000fd5b505050506040513d601f19601f82011682018060405250810190612b8891906144af565b905082601e60008381526020019081526020016000208190555082817fc904ef81354df41ed9256aa2ab862017f6ab3f33f3f7ca50016a1786083d086d60405160405180910390a380915050919050565b60607f92fd13387c7fe7befbc38d303d6468778fb9731bc4583f17d92989c6fcfdeaaa82604051602401612c0d91906144f8565b604051602081830303815290604052907bffffffffffffffffffffffffffffffffffffffffffffffffffffffff19166020820180517bffffffffffffffffffffffffffffffffffffffffffffffffffffffff83818316178352505050509050919050565b8260058101928215612ca0579160200282015b82811115612c9f578251825591602001919060010190612c84565b5b509050612cad9190612d8c565b5090565b60405180610120016040528060008152602001600073ffffffffffffffffffffffffffffffffffffffff16815260200160008152602001612cf0612d25565b8152602001612cfd612d25565b8152602001600081526020016000151581526020016000151581526020016000151581525090565b6040518060a00160405280600590602082028036833780820191505090505090565b604051806104a00160405280602590602082028036833780820191505090505090565b6040518060a00160405280600590602082028036833780820191505090505090565b5b80821115612da5576000816000905550600101612d8d565b5090565b600082825260208201905092915050565b7f496e76616c69642063616c6c0000000000000000000000000000000000000000600082015250565b6000612df0600c83612da9565b9150612dfb82612dba565b602082019050919050565b60006020820190508181036000830152612e1f81612de3565b9050919050565b6000819050919050565b612e3981612e26565b82525050565b600073ffffffffffffffffffffffffffffffffffffffff82169050919050565b6000612e6a82612e3f565b9050919050565b612e7a81612e5f565b82525050565b60008115159050919050565b612e9581612e80565b82525050565b600060e082019050612eb0600083018a612e30565b612ebd6020830189612e71565b612eca6040830188612e30565b612ed76060830187612e30565b612ee46080830186612e8c565b612ef160a0830185612e8c565b612efe60c0830184612e8c565b98975050505050505050565b6000604051905090565b600080fd5b600080fd5b612f2781612e26565b8114612f3257600080fd5b50565b600081359050612f4481612f1e565b92915050565b600080fd5b600080fd5b600080fd5b60008083601f840112612f6f57612f6e612f4a565b5b8235905067ffffffffffffffff811115612f8c57612f8b612f4f565b5b602083019150836020820283011115612fa857612fa7612f54565b5b9250929050565b600080600060408486031215612fc857612fc7612f14565b5b6000612fd686828701612f35565b935050602084013567ffffffffffffffff811115612ff757612ff6612f19565b5b61300386828701612f59565b92509250509250925092565b61301881612e5f565b811461302357600080fd5b50565b6000813590506130358161300f565b92915050565b60006020828403121561305157613050612f14565b5b600061305f84828501613026565b91505092915050565b600060208201905061307d6000830184612e30565b92915050565b600063ffffffff82169050919050565b61309c81613083565b82525050565b60006020820190506130b76000830184613093565b92915050565b600060ff82169050919050565b6130d3816130bd565b82525050565b60006020820190506130ee60008301846130ca565b92915050565b60006020820190506131096000830184612e71565b92915050565b6000601f19601f8301169050919050565b7f4e487b7100000000000000000000000000000000000000000000000000000000600052604160045260246000fd5b6131588261310f565b810181811067ffffffffffffffff8211171561317757613176613120565b5b80604052505050565b600061318a612f0a565b9050613196828261314f565b919050565b600067ffffffffffffffff8211156131b6576131b5613120565b5b602082029050919050565b60006131d46131cf8461319b565b613180565b905080602084028301858111156131ee576131ed612f54565b5b835b8181101561321757806132038882612f35565b8452602084019350506020810190506131f0565b5050509392505050565b600082601f83011261323657613235612f4a565b5b60056132438482856131c1565b91505092915050565b600080610140838503121561326457613263612f14565b5b600061327285828601613221565b92505060a061328385828601613221565b9150509250929050565b6000602082840312156132a3576132a2612f14565b5b60006132b184828501612f35565b91505092915050565b6132c381612e26565b82525050565b6132d281612e5f565b82525050565b600060059050919050565b600081905092915050565b6000819050919050565b600061330483836132ba565b60208301905092915050565b6000602082019050919050565b613326816132d8565b61333081846132e3565b925061333b826132ee565b8060005b8381101561336c57815161335387826132f8565b965061335e83613310565b92505060018101905061333f565b505050505050565b61337d81612e80565b82525050565b6102208201600082015161339a60008501826132ba565b5060208201516133ad60208501826132c9565b5060408201516133c060408501826132ba565b5060608201516133d3606085018261331d565b5060808201516133e761010085018261331d565b5060a08201516133fb6101a08501826132ba565b5060c082015161340f6101c0850182613374565b5060e08201516134236101e0850182613374565b50610100820151613438610200850182613374565b50505050565b6000610220820190506134546000830184613383565b92915050565b600061ffff82169050919050565b6134718161345a565b82525050565b600060208201905061348c6000830184613468565b92915050565b600081905092915050565b6134a6816132d8565b6134b08184613492565b92506134bb826132ee565b8060005b838110156134ec5781516134d387826132f8565b96506134de83613310565b9250506001810190506134bf565b505050505050565b600060a082019050613509600083018461349d565b92915050565b6000819050919050565b600061353461352f61352a84612e3f565b61350f565b612e3f565b9050919050565b600061354682613519565b9050919050565b60006135588261353b565b9050919050565b6135688161354d565b82525050565b6000602082019050613583600083018461355f565b92915050565b613592816130bd565b811461359d57600080fd5b50565b6000813590506135af81613589565b92915050565b6000602082840312156135cb576135ca612f14565b5b60006135d9848285016135a0565b91505092915050565b600080604083850312156135f9576135f8612f14565b5b600061360785828601613026565b925050602061361885828601612f35565b9150509250929050565b60008060c0838503121561363957613638612f14565b5b600061364785828601612f35565b925050602061365885828601613221565b9150509250929050565b7f4e487b7100000000000000000000000000000000000000000000000000000000600052601160045260246000fd5b600061369c82612e26565b91506136a783612e26565b92508282026136b581612e26565b915082820484148315176136cc576136cb613662565b5b5092915050565b7f4e487b7100000000000000000000000000000000000000000000000000000000600052601260045260246000fd5b600061370d82612e26565b915061371883612e26565b925082613728576137276136d3565b5b828204905092915050565b600061373e82612e26565b915061374983612e26565b925082820190508082111561376157613760613662565b5b92915050565b600060408201905061377c6000830185612e71565b6137896020830184612e71565b9392505050565b600061379b82612e26565b91507fffffffffffffffffffffffffffffffffffffffffffffffffffffffffffffffff82036137cd576137cc613662565b5b600182019050919050565b7f4d7573742062652070726f706f736564206f776e657200000000000000000000600082015250565b600061380e601683612da9565b9150613819826137d8565b602082019050919050565b6000602082019050818103600083015261383d81613801565b9050919050565b7f4f6e6c79207469636b6574206f776e65722063616e207573652074686520746960008201527f636b657400000000000000000000000000000000000000000000000000000000602082015250565b60006138a0602483612da9565b91506138ab82613844565b604082019050919050565b600060208201905081810360008301526138cf81613893565b9050919050565b7f5469636b657420646f6573206e6f742065786973740000000000000000000000600082015250565b600061390c601583612da9565b9150613917826138d6565b602082019050919050565b6000602082019050818103600083015261393b816138ff565b9050919050565b7f436f6d62696e6174696f6e206973206e6f742067656e65726174656420796574600082015250565b6000613978602083612da9565b915061398382613942565b602082019050919050565b600060208201905081810360008301526139a78161396b565b9050919050565b7f57696e6e696e6720636f6d62696e6174696f6e20616c72656164792067656e6560008201527f7261746564000000000000000000000000000000000000000000000000000000602082015250565b6000613a0a602583612da9565b9150613a15826139ae565b604082019050919050565b60006020820190508181036000830152613a39816139fd565b9050919050565b600060059050919050565b6000819050919050565b60008160001c9050919050565b6000819050919050565b6000613a7f613a7a83613a55565b613a62565b9050919050565b6000613a928254613a6c565b9050919050565b6000600182019050919050565b613aaf81613a40565b613ab98184613492565b9250613ac482613a4b565b8060005b83811015613afc57613ad982613a86565b613ae387826132f8565b9650613aee83613a99565b925050600181019050613ac8565b505050505050565b600060a082019050613b196000830184613aa6565b92915050565b600061016082019050613b356000830186613aa6565b613b4260a0830185613aa6565b613b506101408301846130ca565b949350505050565b6000613b6382612e26565b9150613b6e83612e26565b9250828203905081811115613b8657613b85613662565b5b92915050565b6000606082019050613ba16000830186612e71565b613bae6020830185612e71565b613bbb6040830184612e71565b949350505050565b7f4f6e6c7920666f72206f776e6572000000000000000000000000000000000000600082015250565b6000613bf9600e83612da9565b9150613c0482613bc3565b602082019050919050565b60006020820190508181036000830152613c2881613bec565b9050919050565b7f4e6f7468696e6720746f20776974686472617700000000000000000000000000600082015250565b6000613c65601383612da9565b9150613c7082613c2f565b602082019050919050565b60006020820190508181036000830152613c9481613c58565b9050919050565b600081905092915050565b50565b6000613cb6600083613c9b565b9150613cc182613ca6565b600082019050919050565b6000613cd782613ca9565b9150819050919050565b7f4f776e657242616c616e6365207769746864726177616c206661696c65640000600082015250565b6000613d17601e83612da9565b9150613d2282613ce1565b602082019050919050565b60006020820190508181036000830152613d4681613d0a565b9050919050565b7f4f6e6c79207265616c2075736572732100000000000000000000000000000000600082015250565b6000613d83601083612da9565b9150613d8e82613d4d565b602082019050919050565b60006020820190508181036000830152613db281613d76565b9050919050565b7f5472616e73616374696f6e2076616c756520697320746f6f206c6f7721000000600082015250565b6000613def601d83612da9565b9150613dfa82613db9565b602082019050919050565b60006020820190508181036000830152613e1e81613de2565b9050919050565b7f4f7065726174696f6e7342616c616e6365207769746864726177616c2066616960008201527f6c65640000000000000000000000000000000000000000000000000000000000602082015250565b6000613e81602383612da9565b9150613e8c82613e25565b604082019050919050565b60006020820190508181036000830152613eb081613e74565b9050919050565b7f596f7520617265206e6f7420746865206f776e65720000000000000000000000600082015250565b6000613eed601583612da9565b9150613ef882613eb7565b602082019050919050565b60006020820190508181036000830152613f1c81613ee0565b9050919050565b7f416c7265616479207375626d6974746564000000000000000000000000000000600082015250565b6000613f59601183612da9565b9150613f6482613f23565b602082019050919050565b60006020820190508181036000830152613f8881613f4c565b9050919050565b7f4e487b7100000000000000000000000000000000000000000000000000000000600052603260045260246000fd5b6000819050919050565b613fd181613fbe565b82525050565b6000602082019050613fec6000830184613fc8565b92915050565b6000613ffd826130bd565b9150614008836130bd565b925082614018576140176136d3565b5b828206905092915050565b600062ffffff82169050919050565b600061403d82614023565b915062ffffff820361405257614051613662565b5b600182019050919050565b6000614068826130bd565b9150614073836130bd565b9250828201905060ff81111561408c5761408b613662565b5b92915050565b600061409d826130bd565b915060ff82036140b0576140af613662565b5b600182019050919050565b7f5265656e7472616e637947756172643a207265656e7472616e742063616c6c00600082015250565b60006140f1601f83612da9565b91506140fc826140bb565b602082019050919050565b60006020820190508181036000830152614120816140e4565b9050919050565b7f556e6578706563746564206d61746368696e67206e756d62657220636f756e74600082015250565b600061415d602083612da9565b915061416882614127565b602082019050919050565b6000602082019050818103600083015261418c81614150565b9050919050565b7f4e6f2072657761726420746f2073656e64000000000000000000000000000000600082015250565b60006141c9601183612da9565b91506141d482614193565b602082019050919050565b600060208201905081810360008301526141f8816141bc565b9050919050565b7f526577617264207472616e73666572206661696c656400000000000000000000600082015250565b6000614235601683612da9565b9150614240826141ff565b602082019050919050565b6000602082019050818103600083015261426481614228565b9050919050565b7f4f6e6c792063616c6c61626c65206279206f776e657200000000000000000000600082015250565b60006142a1601683612da9565b91506142ac8261426b565b602082019050919050565b600060208201905081810360008301526142d081614294565b9050919050565b7f43616e6e6f74207472616e7366657220746f2073656c66000000000000000000600082015250565b600061430d601783612da9565b9150614318826142d7565b602082019050919050565b6000602082019050818103600083015261433c81614300565b9050919050565b61434c81613fbe565b82525050565b61435b8161345a565b82525050565b61436a81613083565b82525050565b600081519050919050565b600082825260208201905092915050565b60005b838110156143aa57808201518184015260208101905061438f565b60008484015250505050565b60006143c182614370565b6143cb818561437b565b93506143db81856020860161438c565b6143e48161310f565b840191505092915050565b600060c0830160008301516144076000860182614343565b50602083015161441a60208601826132ba565b50604083015161442d6040860182614352565b5060608301516144406060860182614361565b5060808301516144536080860182614361565b5060a083015184820360a086015261446b82826143b6565b9150508091505092915050565b6000602082019050818103600083015261449281846143ef565b905092915050565b6000815190506144a981612f1e565b92915050565b6000602082840312156144c5576144c4612f14565b5b60006144d38482850161449a565b91505092915050565b6020820160008201516144f26000850182613374565b50505050565b600060208201905061450d60008301846144dc565b9291505056fea2646970667358221220d34904f6cde7d183714ebb9088ead80bfcf5b4d432403e9062afade3a99c80fe64736f6c634300081c0033","opcodes":"PUSH1 0xE0 PUSH1 0x40 MSTORE PUSH1 0x1 PUSH1 0x16 SSTORE CALLVALUE DUP1 ISZERO PUSH2 0x15 JUMPI PUSH1 0x0 DUP1 REVERT JUMPDEST POP PUSH1 0x40 MLOAD PUSH2 0x4AE5 CODESIZE SUB DUP1 PUSH2 0x4AE5 DUP4 CODECOPY DUP2 DUP2 ADD PUSH1 0x40 MSTORE DUP2 ADD SWAP1 PUSH2 0x37 SWAP2 SWAP1 PUSH2 0x41D JUMP JUMPDEST DUP2 CALLER DUP1 PUSH1 0x0 DUP1 PUSH20 0xFFFFFFFFFFFFFFFFFFFFFFFFFFFFFFFFFFFFFFFF AND DUP3 PUSH20 0xFFFFFFFFFFFFFFFFFFFFFFFFFFFFFFFFFFFFFFFF AND SUB PUSH2 0xAA JUMPI PUSH1 0x40 MLOAD PUSH32 0x8C379A000000000000000000000000000000000000000000000000000000000 DUP2 MSTORE PUSH1 0x4 ADD PUSH2 0xA1 SWAP1 PUSH2 0x4BA JUMP JUMPDEST PUSH1 0x40 MLOAD DUP1 SWAP2 SUB SWAP1 REVERT JUMPDEST DUP2 PUSH1 0x0 DUP1 PUSH2 0x100 EXP DUP2 SLOAD DUP2 PUSH20 0xFFFFFFFFFFFFFFFFFFFFFFFFFFFFFFFFFFFFFFFF MUL NOT AND SWAP1 DUP4 PUSH20 0xFFFFFFFFFFFFFFFFFFFFFFFFFFFFFFFFFFFFFFFF AND MUL OR SWAP1 SSTORE POP PUSH1 0x0 PUSH20 0xFFFFFFFFFFFFFFFFFFFFFFFFFFFFFFFFFFFFFFFF AND DUP2 PUSH20 0xFFFFFFFFFFFFFFFFFFFFFFFFFFFFFFFFFFFFFFFF AND EQ PUSH2 0x12E JUMPI PUSH2 0x12D DUP2 PUSH2 0x258 PUSH1 0x20 SHL PUSH1 0x20 SHR JUMP JUMPDEST JUMPDEST POP POP POP PUSH1 0x0 PUSH20 0xFFFFFFFFFFFFFFFFFFFFFFFFFFFFFFFFFFFFFFFF AND DUP2 PUSH20 0xFFFFFFFFFFFFFFFFFFFFFFFFFFFFFFFFFFFFFFFF AND SUB PUSH2 0x197 JUMPI PUSH1 0x40 MLOAD PUSH32 0xD92E233D00000000000000000000000000000000000000000000000000000000 DUP2 MSTORE PUSH1 0x4 ADD PUSH1 0x40 MLOAD DUP1 SWAP2 SUB SWAP1 REVERT JUMPDEST DUP1 PUSH1 0x2 PUSH1 0x0 PUSH2 0x100 EXP DUP2 SLOAD DUP2 PUSH20 0xFFFFFFFFFFFFFFFFFFFFFFFFFFFFFFFFFFFFFFFF MUL NOT AND SWAP1 DUP4 PUSH20 0xFFFFFFFFFFFFFFFFFFFFFFFFFFFFFFFFFFFFFFFF AND MUL OR SWAP1 SSTORE POP POP PUSH1 0x1 PUSH1 0x3 DUP2 SWAP1 SSTORE POP CALLER PUSH20 0xFFFFFFFFFFFFFFFFFFFFFFFFFFFFFFFFFFFFFFFF AND PUSH1 0x80 DUP2 PUSH20 0xFFFFFFFFFFFFFFFFFFFFFFFFFFFFFFFFFFFFFFFF AND DUP2 MSTORE POP POP DUP1 PUSH1 0xA0 DUP2 DUP2 MSTORE POP POP DUP2 PUSH20 0xFFFFFFFFFFFFFFFFFFFFFFFFFFFFFFFFFFFFFFFF AND PUSH1 0xC0 DUP2 PUSH20 0xFFFFFFFFFFFFFFFFFFFFFFFFFFFFFFFFFFFFFFFF AND DUP2 MSTORE POP POP POP POP PUSH2 0x546 JUMP JUMPDEST CALLER PUSH20 0xFFFFFFFFFFFFFFFFFFFFFFFFFFFFFFFFFFFFFFFF AND DUP2 PUSH20 0xFFFFFFFFFFFFFFFFFFFFFFFFFFFFFFFFFFFFFFFF AND SUB PUSH2 0x2C6 JUMPI PUSH1 0x40 MLOAD PUSH32 0x8C379A000000000000000000000000000000000000000000000000000000000 DUP2 MSTORE PUSH1 0x4 ADD PUSH2 0x2BD SWAP1 PUSH2 0x526 JUMP JUMPDEST PUSH1 0x40 MLOAD DUP1 SWAP2 SUB SWAP1 REVERT JUMPDEST DUP1 PUSH1 0x1 PUSH1 0x0 PUSH2 0x100 EXP DUP2 SLOAD DUP2 PUSH20 0xFFFFFFFFFFFFFFFFFFFFFFFFFFFFFFFFFFFFFFFF MUL NOT AND SWAP1 DUP4 PUSH20 0xFFFFFFFFFFFFFFFFFFFFFFFFFFFFFFFFFFFFFFFF AND MUL OR SWAP1 SSTORE POP DUP1 PUSH20 0xFFFFFFFFFFFFFFFFFFFFFFFFFFFFFFFFFFFFFFFF AND PUSH1 0x0 DUP1 SLOAD SWAP1 PUSH2 0x100 EXP SWAP1 DIV PUSH20 0xFFFFFFFFFFFFFFFFFFFFFFFFFFFFFFFFFFFFFFFF AND PUSH20 0xFFFFFFFFFFFFFFFFFFFFFFFFFFFFFFFFFFFFFFFF AND PUSH32 0xED8889F560326EB138920D842192F0EB3DD22B4F139C87A2C57538E05BAE1278 PUSH1 0x40 MLOAD PUSH1 0x40 MLOAD DUP1 SWAP2 SUB SWAP1 LOG3 POP JUMP JUMPDEST PUSH1 0x0 DUP1 REVERT JUMPDEST PUSH1 0x0 PUSH20 0xFFFFFFFFFFFFFFFFFFFFFFFFFFFFFFFFFFFFFFFF DUP3 AND SWAP1 POP SWAP2 SWAP1 POP JUMP JUMPDEST PUSH1 0x0 PUSH2 0x3B4 DUP3 PUSH2 0x389 JUMP JUMPDEST SWAP1 POP SWAP2 SWAP1 POP JUMP JUMPDEST PUSH2 0x3C4 DUP2 PUSH2 0x3A9 JUMP JUMPDEST DUP2 EQ PUSH2 0x3CF JUMPI PUSH1 0x0 DUP1 REVERT JUMPDEST POP JUMP JUMPDEST PUSH1 0x0 DUP2 MLOAD SWAP1 POP PUSH2 0x3E1 DUP2 PUSH2 0x3BB JUMP JUMPDEST SWAP3 SWAP2 POP POP JUMP JUMPDEST PUSH1 0x0 DUP2 SWAP1 POP SWAP2 SWAP1 POP JUMP JUMPDEST PUSH2 0x3FA DUP2 PUSH2 0x3E7 JUMP JUMPDEST DUP2 EQ PUSH2 0x405 JUMPI PUSH1 0x0 DUP1 REVERT JUMPDEST POP JUMP JUMPDEST PUSH1 0x0 DUP2 MLOAD SWAP1 POP PUSH2 0x417 DUP2 PUSH2 0x3F1 JUMP JUMPDEST SWAP3 SWAP2 POP POP JUMP JUMPDEST PUSH1 0x0 DUP1 PUSH1 0x40 DUP4 DUP6 SUB SLT ISZERO PUSH2 0x434 JUMPI PUSH2 0x433 PUSH2 0x384 JUMP JUMPDEST JUMPDEST PUSH1 0x0 PUSH2 0x442 DUP6 DUP3 DUP7 ADD PUSH2 0x3D2 JUMP JUMPDEST SWAP3 POP POP PUSH1 0x20 PUSH2 0x453 DUP6 DUP3 DUP7 ADD PUSH2 0x408 JUMP JUMPDEST SWAP2 POP POP SWAP3 POP SWAP3 SWAP1 POP JUMP JUMPDEST PUSH1 0x0 DUP3 DUP3 MSTORE PUSH1 0x20 DUP3 ADD SWAP1 POP SWAP3 SWAP2 POP POP JUMP JUMPDEST PUSH32 0x43616E6E6F7420736574206F776E657220746F207A65726F0000000000000000 PUSH1 0x0 DUP3 ADD MSTORE POP JUMP JUMPDEST PUSH1 0x0 PUSH2 0x4A4 PUSH1 0x18 DUP4 PUSH2 0x45D JUMP JUMPDEST SWAP2 POP PUSH2 0x4AF DUP3 PUSH2 0x46E JUMP JUMPDEST PUSH1 0x20 DUP3 ADD SWAP1 POP SWAP2 SWAP1 POP JUMP JUMPDEST PUSH1 0x0 PUSH1 0x20 DUP3 ADD SWAP1 POP DUP2 DUP2 SUB PUSH1 0x0 DUP4 ADD MSTORE PUSH2 0x4D3 DUP2 PUSH2 0x497 JUMP JUMPDEST SWAP1 POP SWAP2 SWAP1 POP JUMP JUMPDEST PUSH32 0x43616E6E6F74207472616E7366657220746F2073656C66000000000000000000 PUSH1 0x0 DUP3 ADD MSTORE POP JUMP JUMPDEST PUSH1 0x0 PUSH2 0x510 PUSH1 0x17 DUP4 PUSH2 0x45D JUMP JUMPDEST SWAP2 POP PUSH2 0x51B DUP3 PUSH2 0x4DA JUMP JUMPDEST PUSH1 0x20 DUP3 ADD SWAP1 POP SWAP2 SWAP1 POP JUMP JUMPDEST PUSH1 0x0 PUSH1 0x20 DUP3 ADD SWAP1 POP DUP2 DUP2 SUB PUSH1 0x0 DUP4 ADD MSTORE PUSH2 0x53F DUP2 PUSH2 0x503 JUMP JUMPDEST SWAP1 POP SWAP2 SWAP1 POP JUMP JUMPDEST PUSH1 0x80 MLOAD PUSH1 0xA0 MLOAD PUSH1 0xC0 MLOAD PUSH2 0x4549 PUSH2 0x59C PUSH1 0x0 CODECOPY PUSH1 0x0 POP POP PUSH1 0x0 PUSH2 0x2ABE ADD MSTORE PUSH1 0x0 DUP2 DUP2 PUSH2 0xDF4 ADD MSTORE DUP2 DUP2 PUSH2 0x1952 ADD MSTORE DUP2 DUP2 PUSH2 0x1A36 ADD MSTORE DUP2 DUP2 PUSH2 0x1B01 ADD MSTORE DUP2 DUP2 PUSH2 0x1F66 ADD MSTORE DUP2 DUP2 PUSH2 0x204A ADD MSTORE PUSH2 0x2115 ADD MSTORE PUSH2 0x4549 PUSH1 0x0 RETURN INVALID PUSH1 0x80 PUSH1 0x40 MSTORE PUSH1 0x4 CALLDATASIZE LT PUSH2 0x229 JUMPI PUSH1 0x0 CALLDATALOAD PUSH1 0xE0 SHR DUP1 PUSH4 0x8DA5CB5B GT PUSH2 0x123 JUMPI DUP1 PUSH4 0xC3E9BF00 GT PUSH2 0xAB JUMPI DUP1 PUSH4 0xF403251D GT PUSH2 0x6F JUMPI DUP1 PUSH4 0xF403251D EQ PUSH2 0x7ED JUMPI DUP1 PUSH4 0xF8CCB9C5 EQ PUSH2 0x7F7 JUMPI DUP1 PUSH4 0xF926C5D8 EQ PUSH2 0x820 JUMPI DUP1 PUSH4 0xFDAB0B6C EQ PUSH2 0x849 JUMPI DUP1 PUSH4 0xFDD0094B EQ PUSH2 0x886 JUMPI PUSH2 0x239 JUMP JUMPDEST DUP1 PUSH4 0xC3E9BF00 EQ PUSH2 0x715 JUMPI DUP1 PUSH4 0xDA8DC674 EQ PUSH2 0x752 JUMPI DUP1 PUSH4 0xEDCA914C EQ PUSH2 0x78F JUMPI DUP1 PUSH4 0xF163915A EQ PUSH2 0x799 JUMPI DUP1 PUSH4 0xF2FDE38B EQ PUSH2 0x7C4 JUMPI PUSH2 0x239 JUMP JUMPDEST DUP1 PUSH4 0x95E888C4 GT PUSH2 0xF2 JUMPI DUP1 PUSH4 0x95E888C4 EQ PUSH2 0x640 JUMPI DUP1 PUSH4 0x98FD29FB EQ PUSH2 0x66B JUMPI DUP1 PUSH4 0x9ECCACF6 EQ PUSH2 0x694 JUMPI DUP1 PUSH4 0xA32BB20F EQ PUSH2 0x6BF JUMPI DUP1 PUSH4 0xA75454F4 EQ PUSH2 0x6EA JUMPI PUSH2 0x239 JUMP JUMPDEST DUP1 PUSH4 0x8DA5CB5B EQ PUSH2 0x5B7 JUMPI DUP1 PUSH4 0x8EA98117 EQ PUSH2 0x5E2 JUMPI DUP1 PUSH4 0x9329066C EQ PUSH2 0x60B JUMPI DUP1 PUSH4 0x941B80AC EQ PUSH2 0x636 JUMPI PUSH2 0x239 JUMP JUMPDEST DUP1 PUSH4 0x4E90D36D GT PUSH2 0x1B1 JUMPI DUP1 PUSH4 0x67F082B0 GT PUSH2 0x175 JUMPI DUP1 PUSH4 0x67F082B0 EQ PUSH2 0x4F6 JUMPI DUP1 PUSH4 0x6B31EE01 EQ PUSH2 0x521 JUMPI DUP1 PUSH4 0x79BA5097 EQ PUSH2 0x54C JUMPI DUP1 PUSH4 0x81A60C0D EQ PUSH2 0x563 JUMPI DUP1 PUSH4 0x8284190C EQ PUSH2 0x58C JUMPI PUSH2 0x239 JUMP JUMPDEST DUP1 PUSH4 0x4E90D36D EQ PUSH2 0x3E3 JUMPI DUP1 PUSH4 0x50B44712 EQ PUSH2 0x420 JUMPI DUP1 PUSH4 0x590791F2 EQ PUSH2 0x463 JUMPI DUP1 PUSH4 0x5FF5B7F9 EQ PUSH2 0x48E JUMPI DUP1 PUSH4 0x6031A52F EQ PUSH2 0x4CB JUMPI PUSH2 0x239 JUMP JUMPDEST DUP1 PUSH4 0x32039770 GT PUSH2 0x1F8 JUMPI DUP1 PUSH4 0x32039770 EQ PUSH2 0x334 JUMPI DUP1 PUSH4 0x33D608F1 EQ PUSH2 0x34B JUMPI DUP1 PUSH4 0x3AAC0FA9 EQ PUSH2 0x376 JUMPI DUP1 PUSH4 0x3CAC60E5 EQ PUSH2 0x3A1 JUMPI DUP1 PUSH4 0x442890D5 EQ PUSH2 0x3B8 JUMPI PUSH2 0x239 JUMP JUMPDEST DUP1 PUSH4 0x1ADE4244 EQ PUSH2 0x274 JUMPI DUP1 PUSH4 0x1FE543E3 EQ PUSH2 0x2A5 JUMPI DUP1 PUSH4 0x238A0954 EQ PUSH2 0x2CE JUMPI DUP1 PUSH4 0x2B4C5572 EQ PUSH2 0x30B JUMPI PUSH2 0x239 JUMP JUMPDEST CALLDATASIZE PUSH2 0x239 JUMPI PUSH2 0x237 CALLVALUE PUSH2 0x8C3 JUMP JUMPDEST STOP JUMPDEST PUSH1 0x40 MLOAD PUSH32 0x8C379A000000000000000000000000000000000000000000000000000000000 DUP2 MSTORE PUSH1 0x4 ADD PUSH2 0x26B SWAP1 PUSH2 0x2E06 JUMP JUMPDEST PUSH1 0x40 MLOAD DUP1 SWAP2 SUB SWAP1 REVERT JUMPDEST CALLVALUE DUP1 ISZERO PUSH2 0x280 JUMPI PUSH1 0x0 DUP1 REVERT JUMPDEST POP PUSH2 0x289 PUSH2 0x99D JUMP JUMPDEST PUSH1 0x40 MLOAD PUSH2 0x29C SWAP8 SWAP7 SWAP6 SWAP5 SWAP4 SWAP3 SWAP2 SWAP1 PUSH2 0x2E9B JUMP JUMPDEST PUSH1 0x40 MLOAD DUP1 SWAP2 SUB SWAP1 RETURN JUMPDEST CALLVALUE DUP1 ISZERO PUSH2 0x2B1 JUMPI PUSH1 0x0 DUP1 REVERT JUMPDEST POP PUSH2 0x2CC PUSH1 0x4 DUP1 CALLDATASIZE SUB DUP2 ADD SWAP1 PUSH2 0x2C7 SWAP2 SWAP1 PUSH2 0x2FAF JUMP JUMPDEST PUSH2 0xA14 JUMP JUMPDEST STOP JUMPDEST CALLVALUE DUP1 ISZERO PUSH2 0x2DA JUMPI PUSH1 0x0 DUP1 REVERT JUMPDEST POP PUSH2 0x2F5 PUSH1 0x4 DUP1 CALLDATASIZE SUB DUP2 ADD SWAP1 PUSH2 0x2F0 SWAP2 SWAP1 PUSH2 0x303B JUMP JUMPDEST PUSH2 0xADA JUMP JUMPDEST PUSH1 0x40 MLOAD PUSH2 0x302 SWAP2 SWAP1 PUSH2 0x3068 JUMP JUMPDEST PUSH1 0x40 MLOAD DUP1 SWAP2 SUB SWAP1 RETURN JUMPDEST CALLVALUE DUP1 ISZERO PUSH2 0x317 JUMPI PUSH1 0x0 DUP1 REVERT JUMPDEST POP PUSH2 0x332 PUSH1 0x4 DUP1 CALLDATASIZE SUB DUP2 ADD SWAP1 PUSH2 0x32D SWAP2 SWAP1 PUSH2 0x2FAF JUMP JUMPDEST PUSH2 0xAF2 JUMP JUMPDEST STOP JUMPDEST CALLVALUE DUP1 ISZERO PUSH2 0x340 JUMPI PUSH1 0x0 DUP1 REVERT JUMPDEST POP PUSH2 0x349 PUSH2 0xB02 JUMP JUMPDEST STOP JUMPDEST CALLVALUE DUP1 ISZERO PUSH2 0x357 JUMPI PUSH1 0x0 DUP1 REVERT JUMPDEST POP PUSH2 0x360 PUSH2 0xB0E JUMP JUMPDEST PUSH1 0x40 MLOAD PUSH2 0x36D SWAP2 SWAP1 PUSH2 0x30A2 JUMP JUMPDEST PUSH1 0x40 MLOAD DUP1 SWAP2 SUB SWAP1 RETURN JUMPDEST CALLVALUE DUP1 ISZERO PUSH2 0x382 JUMPI PUSH1 0x0 DUP1 REVERT JUMPDEST POP PUSH2 0x38B PUSH2 0xB15 JUMP JUMPDEST PUSH1 0x40 MLOAD PUSH2 0x398 SWAP2 SWAP1 PUSH2 0x30D9 JUMP JUMPDEST PUSH1 0x40 MLOAD DUP1 SWAP2 SUB SWAP1 RETURN JUMPDEST CALLVALUE DUP1 ISZERO PUSH2 0x3AD JUMPI PUSH1 0x0 DUP1 REVERT JUMPDEST POP PUSH2 0x3B6 PUSH2 0xB1A JUMP JUMPDEST STOP JUMPDEST CALLVALUE DUP1 ISZERO PUSH2 0x3C4 JUMPI PUSH1 0x0 DUP1 REVERT JUMPDEST POP PUSH2 0x3CD PUSH2 0xDF0 JUMP JUMPDEST PUSH1 0x40 MLOAD PUSH2 0x3DA SWAP2 SWAP1 PUSH2 0x30F4 JUMP JUMPDEST PUSH1 0x40 MLOAD DUP1 SWAP2 SUB SWAP1 RETURN JUMPDEST CALLVALUE DUP1 ISZERO PUSH2 0x3EF JUMPI PUSH1 0x0 DUP1 REVERT JUMPDEST POP PUSH2 0x40A PUSH1 0x4 DUP1 CALLDATASIZE SUB DUP2 ADD SWAP1 PUSH2 0x405 SWAP2 SWAP1 PUSH2 0x324C JUMP JUMPDEST PUSH2 0xE18 JUMP JUMPDEST PUSH1 0x40 MLOAD PUSH2 0x417 SWAP2 SWAP1 PUSH2 0x30D9 JUMP JUMPDEST PUSH1 0x40 MLOAD DUP1 SWAP2 SUB SWAP1 RETURN JUMPDEST CALLVALUE DUP1 ISZERO PUSH2 0x42C JUMPI PUSH1 0x0 DUP1 REVERT JUMPDEST POP PUSH2 0x447 PUSH1 0x4 DUP1 CALLDATASIZE SUB DUP2 ADD SWAP1 PUSH2 0x442 SWAP2 SWAP1 PUSH2 0x328D JUMP JUMPDEST PUSH2 0xE2C JUMP JUMPDEST PUSH1 0x40 MLOAD PUSH2 0x45A SWAP8 SWAP7 SWAP6 SWAP5 SWAP4 SWAP3 SWAP2 SWAP1 PUSH2 0x2E9B JUMP JUMPDEST PUSH1 0x40 MLOAD DUP1 SWAP2 SUB SWAP1 RETURN JUMPDEST CALLVALUE DUP1 ISZERO PUSH2 0x46F JUMPI PUSH1 0x0 DUP1 REVERT JUMPDEST POP PUSH2 0x478 PUSH2 0xEB5 JUMP JUMPDEST PUSH1 0x40 MLOAD PUSH2 0x485 SWAP2 SWAP1 PUSH2 0x3068 JUMP JUMPDEST PUSH1 0x40 MLOAD DUP1 SWAP2 SUB SWAP1 RETURN JUMPDEST CALLVALUE DUP1 ISZERO PUSH2 0x49A JUMPI PUSH1 0x0 DUP1 REVERT JUMPDEST POP PUSH2 0x4B5 PUSH1 0x4 DUP1 CALLDATASIZE SUB DUP2 ADD SWAP1 PUSH2 0x4B0 SWAP2 SWAP1 PUSH2 0x303B JUMP JUMPDEST PUSH2 0xEBF JUMP JUMPDEST PUSH1 0x40 MLOAD PUSH2 0x4C2 SWAP2 SWAP1 PUSH2 0x343E JUMP JUMPDEST PUSH1 0x40 MLOAD DUP1 SWAP2 SUB SWAP1 RETURN JUMPDEST CALLVALUE DUP1 ISZERO PUSH2 0x4D7 JUMPI PUSH1 0x0 DUP1 REVERT JUMPDEST POP PUSH2 0x4E0 PUSH2 0x1081 JUMP JUMPDEST PUSH1 0x40 MLOAD PUSH2 0x4ED SWAP2 SWAP1 PUSH2 0x3068 JUMP JUMPDEST PUSH1 0x40 MLOAD DUP1 SWAP2 SUB SWAP1 RETURN JUMPDEST CALLVALUE DUP1 ISZERO PUSH2 0x502 JUMPI PUSH1 0x0 DUP1 REVERT JUMPDEST POP PUSH2 0x50B PUSH2 0x1087 JUMP JUMPDEST PUSH1 0x40 MLOAD PUSH2 0x518 SWAP2 SWAP1 PUSH2 0x3477 JUMP JUMPDEST PUSH1 0x40 MLOAD DUP1 SWAP2 SUB SWAP1 RETURN JUMPDEST CALLVALUE DUP1 ISZERO PUSH2 0x52D JUMPI PUSH1 0x0 DUP1 REVERT JUMPDEST POP PUSH2 0x536 PUSH2 0x108C JUMP JUMPDEST PUSH1 0x40 MLOAD PUSH2 0x543 SWAP2 SWAP1 PUSH2 0x3068 JUMP JUMPDEST PUSH1 0x40 MLOAD DUP1 SWAP2 SUB SWAP1 RETURN JUMPDEST CALLVALUE DUP1 ISZERO PUSH2 0x558 JUMPI PUSH1 0x0 DUP1 REVERT JUMPDEST POP PUSH2 0x561 PUSH2 0x1092 JUMP JUMPDEST STOP JUMPDEST CALLVALUE DUP1 ISZERO PUSH2 0x56F JUMPI PUSH1 0x0 DUP1 REVERT JUMPDEST POP PUSH2 0x58A PUSH1 0x4 DUP1 CALLDATASIZE SUB DUP2 ADD SWAP1 PUSH2 0x585 SWAP2 SWAP1 PUSH2 0x328D JUMP JUMPDEST PUSH2 0x1227 JUMP JUMPDEST STOP JUMPDEST CALLVALUE DUP1 ISZERO PUSH2 0x598 JUMPI PUSH1 0x0 DUP1 REVERT JUMPDEST POP PUSH2 0x5A1 PUSH2 0x16EE JUMP JUMPDEST PUSH1 0x40 MLOAD PUSH2 0x5AE SWAP2 SWAP1 PUSH2 0x34F4 JUMP JUMPDEST PUSH1 0x40 MLOAD DUP1 SWAP2 SUB SWAP1 RETURN JUMPDEST CALLVALUE DUP1 ISZERO PUSH2 0x5C3 JUMPI PUSH1 0x0 DUP1 REVERT JUMPDEST POP PUSH2 0x5CC PUSH2 0x173C JUMP JUMPDEST PUSH1 0x40 MLOAD PUSH2 0x5D9 SWAP2 SWAP1 PUSH2 0x30F4 JUMP JUMPDEST PUSH1 0x40 MLOAD DUP1 SWAP2 SUB SWAP1 RETURN JUMPDEST CALLVALUE DUP1 ISZERO PUSH2 0x5EE JUMPI PUSH1 0x0 DUP1 REVERT JUMPDEST POP PUSH2 0x609 PUSH1 0x4 DUP1 CALLDATASIZE SUB DUP2 ADD SWAP1 PUSH2 0x604 SWAP2 SWAP1 PUSH2 0x303B JUMP JUMPDEST PUSH2 0x1765 JUMP JUMPDEST STOP JUMPDEST CALLVALUE DUP1 ISZERO PUSH2 0x617 JUMPI PUSH1 0x0 DUP1 REVERT JUMPDEST POP PUSH2 0x620 PUSH2 0x1946 JUMP JUMPDEST PUSH1 0x40 MLOAD PUSH2 0x62D SWAP2 SWAP1 PUSH2 0x3068 JUMP JUMPDEST PUSH1 0x40 MLOAD DUP1 SWAP2 SUB SWAP1 RETURN JUMPDEST PUSH2 0x63E PUSH2 0x1950 JUMP JUMPDEST STOP JUMPDEST CALLVALUE DUP1 ISZERO PUSH2 0x64C JUMPI PUSH1 0x0 DUP1 REVERT JUMPDEST POP PUSH2 0x655 PUSH2 0x1B66 JUMP JUMPDEST PUSH1 0x40 MLOAD PUSH2 0x662 SWAP2 SWAP1 PUSH2 0x30D9 JUMP JUMPDEST PUSH1 0x40 MLOAD DUP1 SWAP2 SUB SWAP1 RETURN JUMPDEST CALLVALUE DUP1 ISZERO PUSH2 0x677 JUMPI PUSH1 0x0 DUP1 REVERT JUMPDEST POP PUSH2 0x692 PUSH1 0x4 DUP1 CALLDATASIZE SUB DUP2 ADD SWAP1 PUSH2 0x68D SWAP2 SWAP1 PUSH2 0x328D JUMP JUMPDEST PUSH2 0x1B6B JUMP JUMPDEST STOP JUMPDEST CALLVALUE DUP1 ISZERO PUSH2 0x6A0 JUMPI PUSH1 0x0 DUP1 REVERT JUMPDEST POP PUSH2 0x6A9 PUSH2 0x1B77 JUMP JUMPDEST PUSH1 0x40 MLOAD PUSH2 0x6B6 SWAP2 SWAP1 PUSH2 0x356E JUMP JUMPDEST PUSH1 0x40 MLOAD DUP1 SWAP2 SUB SWAP1 RETURN JUMPDEST CALLVALUE DUP1 ISZERO PUSH2 0x6CB JUMPI PUSH1 0x0 DUP1 REVERT JUMPDEST POP PUSH2 0x6D4 PUSH2 0x1B9D JUMP JUMPDEST PUSH1 0x40 MLOAD PUSH2 0x6E1 SWAP2 SWAP1 PUSH2 0x3068 JUMP JUMPDEST PUSH1 0x40 MLOAD DUP1 SWAP2 SUB SWAP1 RETURN JUMPDEST CALLVALUE DUP1 ISZERO PUSH2 0x6F6 JUMPI PUSH1 0x0 DUP1 REVERT JUMPDEST POP PUSH2 0x6FF PUSH2 0x1BA7 JUMP JUMPDEST PUSH1 0x40 MLOAD PUSH2 0x70C SWAP2 SWAP1 PUSH2 0x3068 JUMP JUMPDEST PUSH1 0x40 MLOAD DUP1 SWAP2 SUB SWAP1 RETURN JUMPDEST CALLVALUE DUP1 ISZERO PUSH2 0x721 JUMPI PUSH1 0x0 DUP1 REVERT JUMPDEST POP PUSH2 0x73C PUSH1 0x4 DUP1 CALLDATASIZE SUB DUP2 ADD SWAP1 PUSH2 0x737 SWAP2 SWAP1 PUSH2 0x328D JUMP JUMPDEST PUSH2 0x1BC5 JUMP JUMPDEST PUSH1 0x40 MLOAD PUSH2 0x749 SWAP2 SWAP1 PUSH2 0x3068 JUMP JUMPDEST PUSH1 0x40 MLOAD DUP1 SWAP2 SUB SWAP1 RETURN JUMPDEST CALLVALUE DUP1 ISZERO PUSH2 0x75E JUMPI PUSH1 0x0 DUP1 REVERT JUMPDEST POP PUSH2 0x779 PUSH1 0x4 DUP1 CALLDATASIZE SUB DUP2 ADD SWAP1 PUSH2 0x774 SWAP2 SWAP1 PUSH2 0x35B5 JUMP JUMPDEST PUSH2 0x1BDD JUMP JUMPDEST PUSH1 0x40 MLOAD PUSH2 0x786 SWAP2 SWAP1 PUSH2 0x3068 JUMP JUMPDEST PUSH1 0x40 MLOAD DUP1 SWAP2 SUB SWAP1 RETURN JUMPDEST PUSH2 0x797 PUSH2 0x1BEF JUMP JUMPDEST STOP JUMPDEST CALLVALUE DUP1 ISZERO PUSH2 0x7A5 JUMPI PUSH1 0x0 DUP1 REVERT JUMPDEST POP PUSH2 0x7AE PUSH2 0x1F46 JUMP JUMPDEST PUSH1 0x40 MLOAD PUSH2 0x7BB SWAP2 SWAP1 PUSH2 0x3068 JUMP JUMPDEST PUSH1 0x40 MLOAD DUP1 SWAP2 SUB SWAP1 RETURN JUMPDEST CALLVALUE DUP1 ISZERO PUSH2 0x7D0 JUMPI PUSH1 0x0 DUP1 REVERT JUMPDEST POP PUSH2 0x7EB PUSH1 0x4 DUP1 CALLDATASIZE SUB DUP2 ADD SWAP1 PUSH2 0x7E6 SWAP2 SWAP1 PUSH2 0x303B JUMP JUMPDEST PUSH2 0x1F50 JUMP JUMPDEST STOP JUMPDEST PUSH2 0x7F5 PUSH2 0x1F64 JUMP JUMPDEST STOP JUMPDEST CALLVALUE DUP1 ISZERO PUSH2 0x803 JUMPI PUSH1 0x0 DUP1 REVERT JUMPDEST POP PUSH2 0x81E PUSH1 0x4 DUP1 CALLDATASIZE SUB DUP2 ADD SWAP1 PUSH2 0x819 SWAP2 SWAP1 PUSH2 0x35E2 JUMP JUMPDEST PUSH2 0x217A JUMP JUMPDEST STOP JUMPDEST CALLVALUE DUP1 ISZERO PUSH2 0x82C JUMPI PUSH1 0x0 DUP1 REVERT JUMPDEST POP PUSH2 0x847 PUSH1 0x4 DUP1 CALLDATASIZE SUB DUP2 ADD SWAP1 PUSH2 0x842 SWAP2 SWAP1 PUSH2 0x3622 JUMP JUMPDEST PUSH2 0x2188 JUMP JUMPDEST STOP JUMPDEST CALLVALUE DUP1 ISZERO PUSH2 0x855 JUMPI PUSH1 0x0 DUP1 REVERT JUMPDEST POP PUSH2 0x870 PUSH1 0x4 DUP1 CALLDATASIZE SUB DUP2 ADD SWAP1 PUSH2 0x86B SWAP2 SWAP1 PUSH2 0x328D JUMP JUMPDEST PUSH2 0x2311 JUMP JUMPDEST PUSH1 0x40 MLOAD PUSH2 0x87D SWAP2 SWAP1 PUSH2 0x3068 JUMP JUMPDEST PUSH1 0x40 MLOAD DUP1 SWAP2 SUB SWAP1 RETURN JUMPDEST CALLVALUE DUP1 ISZERO PUSH2 0x892 JUMPI PUSH1 0x0 DUP1 REVERT JUMPDEST POP PUSH2 0x8AD PUSH1 0x4 DUP1 CALLDATASIZE SUB DUP2 ADD SWAP1 PUSH2 0x8A8 SWAP2 SWAP1 PUSH2 0x303B JUMP JUMPDEST PUSH2 0x2323 JUMP JUMPDEST PUSH1 0x40 MLOAD PUSH2 0x8BA SWAP2 SWAP1 PUSH2 0x3068 JUMP JUMPDEST PUSH1 0x40 MLOAD DUP1 SWAP2 SUB SWAP1 RETURN JUMPDEST PUSH1 0x64 PUSH1 0x55 DUP3 PUSH2 0x8D2 SWAP2 SWAP1 PUSH2 0x3691 JUMP JUMPDEST PUSH2 0x8DC SWAP2 SWAP1 PUSH2 0x3702 JUMP JUMPDEST PUSH1 0x13 PUSH1 0x0 DUP3 DUP3 SLOAD PUSH2 0x8ED SWAP2 SWAP1 PUSH2 0x3733 JUMP JUMPDEST SWAP3 POP POP DUP2 SWAP1 SSTORE POP PUSH1 0x64 PUSH1 0xA DUP3 PUSH2 0x903 SWAP2 SWAP1 PUSH2 0x3691 JUMP JUMPDEST PUSH2 0x90D SWAP2 SWAP1 PUSH2 0x3702 JUMP JUMPDEST PUSH1 0x14 PUSH1 0x0 DUP3 DUP3 SLOAD PUSH2 0x91E SWAP2 SWAP1 PUSH2 0x3733 JUMP JUMPDEST SWAP3 POP POP DUP2 SWAP1 SSTORE POP PUSH1 0x64 PUSH1 0x5 DUP3 PUSH2 0x934 SWAP2 SWAP1 PUSH2 0x3691 JUMP JUMPDEST PUSH2 0x93E SWAP2 SWAP1 PUSH2 0x3702 JUMP JUMPDEST PUSH1 0x15 PUSH1 0x0 DUP3 DUP3 SLOAD PUSH2 0x94F SWAP2 SWAP1 PUSH2 0x3733 JUMP JUMPDEST SWAP3 POP POP DUP2 SWAP1 SSTORE POP DUP1 CALLER PUSH20 0xFFFFFFFFFFFFFFFFFFFFFFFFFFFFFFFFFFFFFFFF AND PUSH32 0xC1D32AD5CCA423E7DDA2123DBF8C482F8E77D00B631C06E903A47F2CEC1334DF PUSH1 0x40 MLOAD PUSH1 0x40 MLOAD DUP1 SWAP2 SUB SWAP1 LOG3 POP JUMP JUMPDEST PUSH1 0x4 DUP1 PUSH1 0x0 ADD SLOAD SWAP1 DUP1 PUSH1 0x1 ADD PUSH1 0x0 SWAP1 SLOAD SWAP1 PUSH2 0x100 EXP SWAP1 DIV PUSH20 0xFFFFFFFFFFFFFFFFFFFFFFFFFFFFFFFFFFFFFFFF AND SWAP1 DUP1 PUSH1 0x2 ADD SLOAD SWAP1 DUP1 PUSH1 0xD ADD SLOAD SWAP1 DUP1 PUSH1 0xE ADD PUSH1 0x0 SWAP1 SLOAD SWAP1 PUSH2 0x100 EXP SWAP1 DIV PUSH1 0xFF AND SWAP1 DUP1 PUSH1 0xE ADD PUSH1 0x1 SWAP1 SLOAD SWAP1 PUSH2 0x100 EXP SWAP1 DIV PUSH1 0xFF AND SWAP1 DUP1 PUSH1 0xE ADD PUSH1 0x2 SWAP1 SLOAD SWAP1 PUSH2 0x100 EXP SWAP1 DIV PUSH1 0xFF AND SWAP1 POP DUP8 JUMP JUMPDEST PUSH1 0x2 PUSH1 0x0 SWAP1 SLOAD SWAP1 PUSH2 0x100 EXP SWAP1 DIV PUSH20 0xFFFFFFFFFFFFFFFFFFFFFFFFFFFFFFFFFFFFFFFF AND PUSH20 0xFFFFFFFFFFFFFFFFFFFFFFFFFFFFFFFFFFFFFFFF AND CALLER PUSH20 0xFFFFFFFFFFFFFFFFFFFFFFFFFFFFFFFFFFFFFFFF AND EQ PUSH2 0xACA JUMPI CALLER PUSH1 0x2 PUSH1 0x0 SWAP1 SLOAD SWAP1 PUSH2 0x100 EXP SWAP1 DIV PUSH20 0xFFFFFFFFFFFFFFFFFFFFFFFFFFFFFFFFFFFFFFFF AND PUSH1 0x40 MLOAD PUSH32 0x1CF993F400000000000000000000000000000000000000000000000000000000 DUP2 MSTORE PUSH1 0x4 ADD PUSH2 0xAC1 SWAP3 SWAP2 SWAP1 PUSH2 0x3767 JUMP JUMPDEST PUSH1 0x40 MLOAD DUP1 SWAP2 SUB SWAP1 REVERT JUMPDEST PUSH2 0xAD5 DUP4 DUP4 DUP4 PUSH2 0x236C JUMP JUMPDEST POP POP POP JUMP JUMPDEST PUSH1 0x1C PUSH1 0x20 MSTORE DUP1 PUSH1 0x0 MSTORE PUSH1 0x40 PUSH1 0x0 KECCAK256 PUSH1 0x0 SWAP2 POP SWAP1 POP SLOAD DUP2 JUMP JUMPDEST PUSH2 0xAFD DUP4 DUP4 DUP4 PUSH2 0x236C JUMP JUMPDEST POP POP POP JUMP JUMPDEST PUSH2 0xB0C PUSH1 0x4 PUSH2 0x2412 JUMP JUMPDEST JUMP JUMPDEST PUSH3 0x30D40 DUP2 JUMP JUMPDEST PUSH1 0x25 DUP2 JUMP JUMPDEST CALLER PUSH1 0x4 PUSH1 0x1 ADD PUSH1 0x0 PUSH2 0x100 EXP DUP2 SLOAD DUP2 PUSH20 0xFFFFFFFFFFFFFFFFFFFFFFFFFFFFFFFFFFFFFFFF MUL NOT AND SWAP1 DUP4 PUSH20 0xFFFFFFFFFFFFFFFFFFFFFFFFFFFFFFFFFFFFFFFF AND MUL OR SWAP1 SSTORE POP PUSH1 0x0 PUSH1 0x16 PUSH1 0x0 DUP2 SLOAD DUP1 SWAP3 SWAP2 SWAP1 PUSH2 0xB73 SWAP1 PUSH2 0x3790 JUMP JUMPDEST SWAP2 SWAP1 POP SSTORE SWAP1 POP PUSH1 0x0 PUSH1 0x40 MLOAD DUP1 PUSH2 0x120 ADD PUSH1 0x40 MSTORE DUP1 DUP4 DUP2 MSTORE PUSH1 0x20 ADD CALLER PUSH20 0xFFFFFFFFFFFFFFFFFFFFFFFFFFFFFFFFFFFFFFFF AND DUP2 MSTORE PUSH1 0x20 ADD TIMESTAMP DUP2 MSTORE PUSH1 0x20 ADD PUSH1 0x17 PUSH1 0x5 DUP1 PUSH1 0x20 MUL PUSH1 0x40 MLOAD SWAP1 DUP2 ADD PUSH1 0x40 MSTORE DUP1 SWAP3 SWAP2 SWAP1 DUP3 PUSH1 0x5 DUP1 ISZERO PUSH2 0xBE8 JUMPI PUSH1 0x20 MUL DUP3 ADD SWAP2 JUMPDEST DUP2 SLOAD DUP2 MSTORE PUSH1 0x20 ADD SWAP1 PUSH1 0x1 ADD SWAP1 DUP1 DUP4 GT PUSH2 0xBD4 JUMPI JUMPDEST POP POP POP POP POP DUP2 MSTORE PUSH1 0x20 ADD PUSH1 0x17 PUSH1 0x5 DUP1 PUSH1 0x20 MUL PUSH1 0x40 MLOAD SWAP1 DUP2 ADD PUSH1 0x40 MSTORE DUP1 SWAP3 SWAP2 SWAP1 DUP3 PUSH1 0x5 DUP1 ISZERO PUSH2 0xC2B JUMPI PUSH1 0x20 MUL DUP3 ADD SWAP2 JUMPDEST DUP2 SLOAD DUP2 MSTORE PUSH1 0x20 ADD SWAP1 PUSH1 0x1 ADD SWAP1 DUP1 DUP4 GT PUSH2 0xC17 JUMPI JUMPDEST POP POP POP POP POP DUP2 MSTORE PUSH1 0x20 ADD PUSH1 0x0 DUP2 MSTORE PUSH1 0x20 ADD PUSH1 0x0 ISZERO ISZERO DUP2 MSTORE PUSH1 0x20 ADD PUSH1 0x0 ISZERO ISZERO DUP2 MSTORE PUSH1 0x20 ADD PUSH1 0x0 ISZERO ISZERO DUP2 MSTORE POP SWAP1 POP DUP1 PUSH1 0x1D PUSH1 0x0 DUP5 DUP2 MSTORE PUSH1 0x20 ADD SWAP1 DUP2 MSTORE PUSH1 0x20 ADD PUSH1 0x0 KECCAK256 PUSH1 0x0 DUP3 ADD MLOAD DUP2 PUSH1 0x0 ADD SSTORE PUSH1 0x20 DUP3 ADD MLOAD DUP2 PUSH1 0x1 ADD PUSH1 0x0 PUSH2 0x100 EXP DUP2 SLOAD DUP2 PUSH20 0xFFFFFFFFFFFFFFFFFFFFFFFFFFFFFFFFFFFFFFFF MUL NOT AND SWAP1 DUP4 PUSH20 0xFFFFFFFFFFFFFFFFFFFFFFFFFFFFFFFFFFFFFFFF AND MUL OR SWAP1 SSTORE POP PUSH1 0x40 DUP3 ADD MLOAD DUP2 PUSH1 0x2 ADD SSTORE PUSH1 0x60 DUP3 ADD MLOAD DUP2 PUSH1 0x3 ADD SWAP1 PUSH1 0x5 PUSH2 0xCDD SWAP3 SWAP2 SWAP1 PUSH2 0x2C71 JUMP JUMPDEST POP PUSH1 0x80 DUP3 ADD MLOAD DUP2 PUSH1 0x8 ADD SWAP1 PUSH1 0x5 PUSH2 0xCF5 SWAP3 SWAP2 SWAP1 PUSH2 0x2C71 JUMP JUMPDEST POP PUSH1 0xA0 DUP3 ADD MLOAD DUP2 PUSH1 0xD ADD SSTORE PUSH1 0xC0 DUP3 ADD MLOAD DUP2 PUSH1 0xE ADD PUSH1 0x0 PUSH2 0x100 EXP DUP2 SLOAD DUP2 PUSH1 0xFF MUL NOT AND SWAP1 DUP4 ISZERO ISZERO MUL OR SWAP1 SSTORE POP PUSH1 0xE0 DUP3 ADD MLOAD DUP2 PUSH1 0xE ADD PUSH1 0x1 PUSH2 0x100 EXP DUP2 SLOAD DUP2 PUSH1 0xFF MUL NOT AND SWAP1 DUP4 ISZERO ISZERO MUL OR SWAP1 SSTORE POP PUSH2 0x100 DUP3 ADD MLOAD DUP2 PUSH1 0xE ADD PUSH1 0x2 PUSH2 0x100 EXP DUP2 SLOAD DUP2 PUSH1 0xFF MUL NOT AND SWAP1 DUP4 ISZERO ISZERO MUL OR SWAP1 SSTORE POP SWAP1 POP POP DUP2 PUSH1 0x1C PUSH1 0x0 CALLER PUSH20 0xFFFFFFFFFFFFFFFFFFFFFFFFFFFFFFFFFFFFFFFF AND PUSH20 0xFFFFFFFFFFFFFFFFFFFFFFFFFFFFFFFFFFFFFFFF AND DUP2 MSTORE PUSH1 0x20 ADD SWAP1 DUP2 MSTORE PUSH1 0x20 ADD PUSH1 0x0 KECCAK256 DUP2 SWAP1 SSTORE POP DUP2 CALLER PUSH20 0xFFFFFFFFFFFFFFFFFFFFFFFFFFFFFFFFFFFFFFFF AND PUSH32 0x668F5B446EB814FE35B3206F43F14BD8567BA04DDAF7A3EE56516929AB22CCB PUSH1 0x40 MLOAD PUSH1 0x40 MLOAD DUP1 SWAP2 SUB SWAP1 LOG3 POP POP JUMP JUMPDEST PUSH1 0x0 PUSH32 0x0 SWAP1 POP SWAP1 JUMP JUMPDEST PUSH1 0x0 PUSH2 0xE24 DUP4 DUP4 PUSH2 0x2557 JUMP JUMPDEST SWAP1 POP SWAP3 SWAP2 POP POP JUMP JUMPDEST PUSH1 0x1D PUSH1 0x20 MSTORE DUP1 PUSH1 0x0 MSTORE PUSH1 0x40 PUSH1 0x0 KECCAK256 PUSH1 0x0 SWAP2 POP SWAP1 POP DUP1 PUSH1 0x0 ADD SLOAD SWAP1 DUP1 PUSH1 0x1 ADD PUSH1 0x0 SWAP1 SLOAD SWAP1 PUSH2 0x100 EXP SWAP1 DIV PUSH20 0xFFFFFFFFFFFFFFFFFFFFFFFFFFFFFFFFFFFFFFFF AND SWAP1 DUP1 PUSH1 0x2 ADD SLOAD SWAP1 DUP1 PUSH1 0xD ADD SLOAD SWAP1 DUP1 PUSH1 0xE ADD PUSH1 0x0 SWAP1 SLOAD SWAP1 PUSH2 0x100 EXP SWAP1 DIV PUSH1 0xFF AND SWAP1 DUP1 PUSH1 0xE ADD PUSH1 0x1 SWAP1 SLOAD SWAP1 PUSH2 0x100 EXP SWAP1 DIV PUSH1 0xFF AND SWAP1 DUP1 PUSH1 0xE ADD PUSH1 0x2 SWAP1 SLOAD SWAP1 PUSH2 0x100 EXP SWAP1 DIV PUSH1 0xFF AND SWAP1 POP DUP8 JUMP JUMPDEST PUSH1 0x0 PUSH1 0x15 SLOAD SWAP1 POP SWAP1 JUMP JUMPDEST PUSH2 0xEC7 PUSH2 0x2CB1 JUMP JUMPDEST PUSH1 0x0 PUSH1 0x1C PUSH1 0x0 DUP5 PUSH20 0xFFFFFFFFFFFFFFFFFFFFFFFFFFFFFFFFFFFFFFFF AND PUSH20 0xFFFFFFFFFFFFFFFFFFFFFFFFFFFFFFFFFFFFFFFF AND DUP2 MSTORE PUSH1 0x20 ADD SWAP1 DUP2 MSTORE PUSH1 0x20 ADD PUSH1 0x0 KECCAK256 SLOAD SWAP1 POP PUSH1 0x1D PUSH1 0x0 DUP3 DUP2 MSTORE PUSH1 0x20 ADD SWAP1 DUP2 MSTORE PUSH1 0x20 ADD PUSH1 0x0 KECCAK256 PUSH1 0x40 MLOAD DUP1 PUSH2 0x120 ADD PUSH1 0x40 MSTORE SWAP1 DUP2 PUSH1 0x0 DUP3 ADD SLOAD DUP2 MSTORE PUSH1 0x20 ADD PUSH1 0x1 DUP3 ADD PUSH1 0x0 SWAP1 SLOAD SWAP1 PUSH2 0x100 EXP SWAP1 DIV PUSH20 0xFFFFFFFFFFFFFFFFFFFFFFFFFFFFFFFFFFFFFFFF AND PUSH20 0xFFFFFFFFFFFFFFFFFFFFFFFFFFFFFFFFFFFFFFFF AND PUSH20 0xFFFFFFFFFFFFFFFFFFFFFFFFFFFFFFFFFFFFFFFF AND DUP2 MSTORE PUSH1 0x20 ADD PUSH1 0x2 DUP3 ADD SLOAD DUP2 MSTORE PUSH1 0x20 ADD PUSH1 0x3 DUP3 ADD PUSH1 0x5 DUP1 PUSH1 0x20 MUL PUSH1 0x40 MLOAD SWAP1 DUP2 ADD PUSH1 0x40 MSTORE DUP1 SWAP3 SWAP2 SWAP1 DUP3 PUSH1 0x5 DUP1 ISZERO PUSH2 0xFD0 JUMPI PUSH1 0x20 MUL DUP3 ADD SWAP2 JUMPDEST DUP2 SLOAD DUP2 MSTORE PUSH1 0x20 ADD SWAP1 PUSH1 0x1 ADD SWAP1 DUP1 DUP4 GT PUSH2 0xFBC JUMPI JUMPDEST POP POP POP POP POP DUP2 MSTORE PUSH1 0x20 ADD PUSH1 0x8 DUP3 ADD PUSH1 0x5 DUP1 PUSH1 0x20 MUL PUSH1 0x40 MLOAD SWAP1 DUP2 ADD PUSH1 0x40 MSTORE DUP1 SWAP3 SWAP2 SWAP1 DUP3 PUSH1 0x5 DUP1 ISZERO PUSH2 0x1015 JUMPI PUSH1 0x20 MUL DUP3 ADD SWAP2 JUMPDEST DUP2 SLOAD DUP2 MSTORE PUSH1 0x20 ADD SWAP1 PUSH1 0x1 ADD SWAP1 DUP1 DUP4 GT PUSH2 0x1001 JUMPI JUMPDEST POP POP POP POP POP DUP2 MSTORE PUSH1 0x20 ADD PUSH1 0xD DUP3 ADD SLOAD DUP2 MSTORE PUSH1 0x20 ADD PUSH1 0xE DUP3 ADD PUSH1 0x0 SWAP1 SLOAD SWAP1 PUSH2 0x100 EXP SWAP1 DIV PUSH1 0xFF AND ISZERO ISZERO ISZERO ISZERO DUP2 MSTORE PUSH1 0x20 ADD PUSH1 0xE DUP3 ADD PUSH1 0x1 SWAP1 SLOAD SWAP1 PUSH2 0x100 EXP SWAP1 DIV PUSH1 0xFF AND ISZERO ISZERO ISZERO ISZERO DUP2 MSTORE PUSH1 0x20 ADD PUSH1 0xE DUP3 ADD PUSH1 0x2 SWAP1 SLOAD SWAP1 PUSH2 0x100 EXP SWAP1 DIV PUSH1 0xFF AND ISZERO ISZERO ISZERO ISZERO DUP2 MSTORE POP POP SWAP2 POP POP SWAP2 SWAP1 POP JUMP JUMPDEST PUSH1 0x16 SLOAD DUP2 JUMP JUMPDEST PUSH1 0x3 DUP2 JUMP JUMPDEST PUSH1 0x13 SLOAD DUP2 JUMP JUMPDEST PUSH1 0x1 PUSH1 0x0 SWAP1 SLOAD SWAP1 PUSH2 0x100 EXP SWAP1 DIV PUSH20 0xFFFFFFFFFFFFFFFFFFFFFFFFFFFFFFFFFFFFFFFF AND PUSH20 0xFFFFFFFFFFFFFFFFFFFFFFFFFFFFFFFFFFFFFFFF AND CALLER PUSH20 0xFFFFFFFFFFFFFFFFFFFFFFFFFFFFFFFFFFFFFFFF AND EQ PUSH2 0x1122 JUMPI PUSH1 0x40 MLOAD PUSH32 0x8C379A000000000000000000000000000000000000000000000000000000000 DUP2 MSTORE PUSH1 0x4 ADD PUSH2 0x1119 SWAP1 PUSH2 0x3824 JUMP JUMPDEST PUSH1 0x40 MLOAD DUP1 SWAP2 SUB SWAP1 REVERT JUMPDEST PUSH1 0x0 DUP1 PUSH1 0x0 SWAP1 SLOAD SWAP1 PUSH2 0x100 EXP SWAP1 DIV PUSH20 0xFFFFFFFFFFFFFFFFFFFFFFFFFFFFFFFFFFFFFFFF AND SWAP1 POP CALLER PUSH1 0x0 DUP1 PUSH2 0x100 EXP DUP2 SLOAD DUP2 PUSH20 0xFFFFFFFFFFFFFFFFFFFFFFFFFFFFFFFFFFFFFFFF MUL NOT AND SWAP1 DUP4 PUSH20 0xFFFFFFFFFFFFFFFFFFFFFFFFFFFFFFFFFFFFFFFF AND MUL OR SWAP1 SSTORE POP PUSH1 0x0 PUSH1 0x1 PUSH1 0x0 PUSH2 0x100 EXP DUP2 SLOAD DUP2 PUSH20 0xFFFFFFFFFFFFFFFFFFFFFFFFFFFFFFFFFFFFFFFF MUL NOT AND SWAP1 DUP4 PUSH20 0xFFFFFFFFFFFFFFFFFFFFFFFFFFFFFFFFFFFFFFFF AND MUL OR SWAP1 SSTORE POP CALLER PUSH20 0xFFFFFFFFFFFFFFFFFFFFFFFFFFFFFFFFFFFFFFFF AND DUP2 PUSH20 0xFFFFFFFFFFFFFFFFFFFFFFFFFFFFFFFFFFFFFFFF AND PUSH32 0x8BE0079C531659141344CD1FD0A4F28419497F9722A3DAAFE3B4186F6B6457E0 PUSH1 0x40 MLOAD PUSH1 0x40 MLOAD DUP1 SWAP2 SUB SWAP1 LOG3 POP JUMP JUMPDEST PUSH2 0x122F PUSH2 0x2652 JUMP JUMPDEST PUSH1 0x0 PUSH1 0x1D PUSH1 0x0 DUP4 DUP2 MSTORE PUSH1 0x20 ADD SWAP1 DUP2 MSTORE PUSH1 0x20 ADD PUSH1 0x0 KECCAK256 SWAP1 POP CALLER PUSH20 0xFFFFFFFFFFFFFFFFFFFFFFFFFFFFFFFFFFFFFFFF AND DUP2 PUSH1 0x1 ADD PUSH1 0x0 SWAP1 SLOAD SWAP1 PUSH2 0x100 EXP SWAP1 DIV PUSH20 0xFFFFFFFFFFFFFFFFFFFFFFFFFFFFFFFFFFFFFFFF AND PUSH20 0xFFFFFFFFFFFFFFFFFFFFFFFFFFFFFFFFFFFFFFFF AND EQ PUSH2 0x12D8 JUMPI PUSH1 0x40 MLOAD PUSH32 0x8C379A000000000000000000000000000000000000000000000000000000000 DUP2 MSTORE PUSH1 0x4 ADD PUSH2 0x12CF SWAP1 PUSH2 0x38B6 JUMP JUMPDEST PUSH1 0x40 MLOAD DUP1 SWAP2 SUB SWAP1 REVERT JUMPDEST PUSH1 0x0 PUSH20 0xFFFFFFFFFFFFFFFFFFFFFFFFFFFFFFFFFFFFFFFF AND DUP2 PUSH1 0x1 ADD PUSH1 0x0 SWAP1 SLOAD SWAP1 PUSH2 0x100 EXP SWAP1 DIV PUSH20 0xFFFFFFFFFFFFFFFFFFFFFFFFFFFFFFFFFFFFFFFF AND PUSH20 0xFFFFFFFFFFFFFFFFFFFFFFFFFFFFFFFFFFFFFFFF AND SUB PUSH2 0x136B JUMPI PUSH1 0x40 MLOAD PUSH32 0x8C379A000000000000000000000000000000000000000000000000000000000 DUP2 MSTORE PUSH1 0x4 ADD PUSH2 0x1362 SWAP1 PUSH2 0x3922 JUMP JUMPDEST PUSH1 0x40 MLOAD DUP1 SWAP2 SUB SWAP1 REVERT JUMPDEST PUSH1 0x0 DUP2 PUSH1 0xD ADD SLOAD SUB PUSH2 0x13B2 JUMPI PUSH1 0x40 MLOAD PUSH32 0x8C379A000000000000000000000000000000000000000000000000000000000 DUP2 MSTORE PUSH1 0x4 ADD PUSH2 0x13A9 SWAP1 PUSH2 0x398E JUMP JUMPDEST PUSH1 0x40 MLOAD DUP1 SWAP2 SUB SWAP1 REVERT JUMPDEST DUP1 PUSH1 0xE ADD PUSH1 0x2 SWAP1 SLOAD SWAP1 PUSH2 0x100 EXP SWAP1 DIV PUSH1 0xFF AND ISZERO PUSH2 0x1404 JUMPI PUSH1 0x40 MLOAD PUSH32 0x8C379A000000000000000000000000000000000000000000000000000000000 DUP2 MSTORE PUSH1 0x4 ADD PUSH2 0x13FB SWAP1 PUSH2 0x3A20 JUMP JUMPDEST PUSH1 0x40 MLOAD DUP1 SWAP2 SUB SWAP1 REVERT JUMPDEST PUSH2 0x140D DUP2 PUSH2 0x2412 JUMP JUMPDEST PUSH1 0x1 DUP2 PUSH1 0xE ADD PUSH1 0x2 PUSH2 0x100 EXP DUP2 SLOAD DUP2 PUSH1 0xFF MUL NOT AND SWAP1 DUP4 ISZERO ISZERO MUL OR SWAP1 SSTORE POP DUP2 PUSH32 0x2494E4E30A1BE024D23D544675A8F3854431C769078A2013818000B48B7031FC DUP3 PUSH1 0x8 ADD PUSH1 0x40 MLOAD PUSH2 0x145D SWAP2 SWAP1 PUSH2 0x3B04 JUMP JUMPDEST PUSH1 0x40 MLOAD DUP1 SWAP2 SUB SWAP1 LOG2 PUSH1 0x0 PUSH2 0x14EF DUP3 PUSH1 0x3 ADD PUSH1 0x5 DUP1 PUSH1 0x20 MUL PUSH1 0x40 MLOAD SWAP1 DUP2 ADD PUSH1 0x40 MSTORE DUP1 SWAP3 SWAP2 SWAP1 DUP3 PUSH1 0x5 DUP1 ISZERO PUSH2 0x14A5 JUMPI PUSH1 0x20 MUL DUP3 ADD SWAP2 JUMPDEST DUP2 SLOAD DUP2 MSTORE PUSH1 0x20 ADD SWAP1 PUSH1 0x1 ADD SWAP1 DUP1 DUP4 GT PUSH2 0x1491 JUMPI JUMPDEST POP POP POP POP POP DUP4 PUSH1 0x8 ADD PUSH1 0x5 DUP1 PUSH1 0x20 MUL PUSH1 0x40 MLOAD SWAP1 DUP2 ADD PUSH1 0x40 MSTORE DUP1 SWAP3 SWAP2 SWAP1 DUP3 PUSH1 0x5 DUP1 ISZERO PUSH2 0x14E5 JUMPI PUSH1 0x20 MUL DUP3 ADD SWAP2 JUMPDEST DUP2 SLOAD DUP2 MSTORE PUSH1 0x20 ADD SWAP1 PUSH1 0x1 ADD SWAP1 DUP1 DUP4 GT PUSH2 0x14D1 JUMPI JUMPDEST POP POP POP POP POP PUSH2 0x2557 JUMP JUMPDEST SWAP1 POP PUSH1 0x0 PUSH2 0x14FC DUP3 PUSH2 0x26A1 JUMP JUMPDEST SWAP1 POP DUP1 DUP4 PUSH1 0x0 ADD SLOAD DUP5 PUSH1 0x1 ADD PUSH1 0x0 SWAP1 SLOAD SWAP1 PUSH2 0x100 EXP SWAP1 DIV PUSH20 0xFFFFFFFFFFFFFFFFFFFFFFFFFFFFFFFFFFFFFFFF AND PUSH20 0xFFFFFFFFFFFFFFFFFFFFFFFFFFFFFFFFFFFFFFFF AND PUSH32 0x91B28DBF49ECA9B12D8A651F5381548B182D9D531D2AC4056DC4A29D2C3A7EFE DUP7 PUSH1 0x3 ADD DUP8 PUSH1 0x8 ADD DUP8 PUSH1 0x40 MLOAD PUSH2 0x1578 SWAP4 SWAP3 SWAP2 SWAP1 PUSH2 0x3B1F JUMP JUMPDEST PUSH1 0x40 MLOAD DUP1 SWAP2 SUB SWAP1 LOG4 PUSH1 0x0 DUP2 SWAP1 POP PUSH1 0x0 DUP3 GT ISZERO PUSH2 0x1676 JUMPI DUP2 PUSH1 0x13 SLOAD LT PUSH2 0x15B5 JUMPI DUP2 PUSH1 0x13 PUSH1 0x0 DUP3 DUP3 SLOAD PUSH2 0x15A9 SWAP2 SWAP1 PUSH2 0x3B58 JUMP JUMPDEST SWAP3 POP POP DUP2 SWAP1 SSTORE POP PUSH2 0x15C3 JUMP JUMPDEST PUSH1 0x13 SLOAD SWAP1 POP PUSH1 0x0 PUSH1 0x13 DUP2 SWAP1 SSTORE POP JUMPDEST PUSH1 0x1 DUP5 PUSH1 0xE ADD PUSH1 0x0 PUSH2 0x100 EXP DUP2 SLOAD DUP2 PUSH1 0xFF MUL NOT AND SWAP1 DUP4 ISZERO ISZERO MUL OR SWAP1 SSTORE POP PUSH1 0x1C PUSH1 0x0 DUP6 PUSH1 0x1 ADD PUSH1 0x0 SWAP1 SLOAD SWAP1 PUSH2 0x100 EXP SWAP1 DIV PUSH20 0xFFFFFFFFFFFFFFFFFFFFFFFFFFFFFFFFFFFFFFFF AND PUSH20 0xFFFFFFFFFFFFFFFFFFFFFFFFFFFFFFFFFFFFFFFF AND PUSH20 0xFFFFFFFFFFFFFFFFFFFFFFFFFFFFFFFFFFFFFFFF AND DUP2 MSTORE PUSH1 0x20 ADD SWAP1 DUP2 MSTORE PUSH1 0x20 ADD PUSH1 0x0 KECCAK256 PUSH1 0x0 SWAP1 SSTORE PUSH2 0x1675 DUP5 PUSH1 0x1 ADD PUSH1 0x0 SWAP1 SLOAD SWAP1 PUSH2 0x100 EXP SWAP1 DIV PUSH20 0xFFFFFFFFFFFFFFFFFFFFFFFFFFFFFFFFFFFFFFFF AND DUP3 PUSH2 0x278D JUMP JUMPDEST JUMPDEST DUP1 DUP6 DUP6 PUSH1 0x1 ADD PUSH1 0x0 SWAP1 SLOAD SWAP1 PUSH2 0x100 EXP SWAP1 DIV PUSH20 0xFFFFFFFFFFFFFFFFFFFFFFFFFFFFFFFFFFFFFFFF AND PUSH20 0xFFFFFFFFFFFFFFFFFFFFFFFFFFFFFFFFFFFFFFFF AND PUSH32 0xF01DA32686223933D8A18A391060918C7F11A3648639EDD87AE013E2E2731743 PUSH1 0x40 MLOAD PUSH1 0x40 MLOAD DUP1 SWAP2 SUB SWAP1 LOG4 POP POP POP POP PUSH2 0x16EB PUSH2 0x2881 JUMP JUMPDEST POP JUMP JUMPDEST PUSH2 0x16F6 PUSH2 0x2D25 JUMP JUMPDEST PUSH1 0x4 PUSH1 0x8 ADD PUSH1 0x5 DUP1 PUSH1 0x20 MUL PUSH1 0x40 MLOAD SWAP1 DUP2 ADD PUSH1 0x40 MSTORE DUP1 SWAP3 SWAP2 SWAP1 DUP3 PUSH1 0x5 DUP1 ISZERO PUSH2 0x1732 JUMPI PUSH1 0x20 MUL DUP3 ADD SWAP2 JUMPDEST DUP2 SLOAD DUP2 MSTORE PUSH1 0x20 ADD SWAP1 PUSH1 0x1 ADD SWAP1 DUP1 DUP4 GT PUSH2 0x171E JUMPI JUMPDEST POP POP POP POP POP SWAP1 POP SWAP1 JUMP JUMPDEST PUSH1 0x0 DUP1 PUSH1 0x0 SWAP1 SLOAD SWAP1 PUSH2 0x100 EXP SWAP1 DIV PUSH20 0xFFFFFFFFFFFFFFFFFFFFFFFFFFFFFFFFFFFFFFFF AND SWAP1 POP SWAP1 JUMP JUMPDEST PUSH2 0x176D PUSH2 0x173C JUMP JUMPDEST PUSH20 0xFFFFFFFFFFFFFFFFFFFFFFFFFFFFFFFFFFFFFFFF AND CALLER PUSH20 0xFFFFFFFFFFFFFFFFFFFFFFFFFFFFFFFFFFFFFFFF AND EQ ISZERO DUP1 ISZERO PUSH2 0x17F6 JUMPI POP PUSH1 0x2 PUSH1 0x0 SWAP1 SLOAD SWAP1 PUSH2 0x100 EXP SWAP1 DIV PUSH20 0xFFFFFFFFFFFFFFFFFFFFFFFFFFFFFFFFFFFFFFFF AND PUSH20 0xFFFFFFFFFFFFFFFFFFFFFFFFFFFFFFFFFFFFFFFF AND CALLER PUSH20 0xFFFFFFFFFFFFFFFFFFFFFFFFFFFFFFFFFFFFFFFF AND EQ ISZERO JUMPDEST ISZERO PUSH2 0x1865 JUMPI CALLER PUSH2 0x1804 PUSH2 0x173C JUMP JUMPDEST PUSH1 0x2 PUSH1 0x0 SWAP1 SLOAD SWAP1 PUSH2 0x100 EXP SWAP1 DIV PUSH20 0xFFFFFFFFFFFFFFFFFFFFFFFFFFFFFFFFFFFFFFFF AND PUSH1 0x40 MLOAD PUSH32 0x61DB9C100000000000000000000000000000000000000000000000000000000 DUP2 MSTORE PUSH1 0x4 ADD PUSH2 0x185C SWAP4 SWAP3 SWAP2 SWAP1 PUSH2 0x3B8C JUMP JUMPDEST PUSH1 0x40 MLOAD DUP1 SWAP2 SUB SWAP1 REVERT JUMPDEST PUSH1 0x0 PUSH20 0xFFFFFFFFFFFFFFFFFFFFFFFFFFFFFFFFFFFFFFFF AND DUP2 PUSH20 0xFFFFFFFFFFFFFFFFFFFFFFFFFFFFFFFFFFFFFFFF AND SUB PUSH2 0x18CB JUMPI PUSH1 0x40 MLOAD PUSH32 0xD92E233D00000000000000000000000000000000000000000000000000000000 DUP2 MSTORE PUSH1 0x4 ADD PUSH1 0x40 MLOAD DUP1 SWAP2 SUB SWAP1 REVERT JUMPDEST DUP1 PUSH1 0x2 PUSH1 0x0 PUSH2 0x100 EXP DUP2 SLOAD DUP2 PUSH20 0xFFFFFFFFFFFFFFFFFFFFFFFFFFFFFFFFFFFFFFFF MUL NOT AND SWAP1 DUP4 PUSH20 0xFFFFFFFFFFFFFFFFFFFFFFFFFFFFFFFFFFFFFFFF AND MUL OR SWAP1 SSTORE POP PUSH32 0xD1A6A14209A385A964D036E404CB5CFB71F4000CDB03C9366292430787261BE6 DUP2 PUSH1 0x40 MLOAD PUSH2 0x193B SWAP2 SWAP1 PUSH2 0x30F4 JUMP JUMPDEST PUSH1 0x40 MLOAD DUP1 SWAP2 SUB SWAP1 LOG1 POP JUMP JUMPDEST PUSH1 0x0 PUSH1 0x13 SLOAD SWAP1 POP SWAP1 JUMP JUMPDEST PUSH32 0x0 PUSH20 0xFFFFFFFFFFFFFFFFFFFFFFFFFFFFFFFFFFFFFFFF AND CALLER PUSH20 0xFFFFFFFFFFFFFFFFFFFFFFFFFFFFFFFFFFFFFFFF AND EQ PUSH2 0x19DE JUMPI PUSH1 0x40 MLOAD PUSH32 0x8C379A000000000000000000000000000000000000000000000000000000000 DUP2 MSTORE PUSH1 0x4 ADD PUSH2 0x19D5 SWAP1 PUSH2 0x3C0F JUMP JUMPDEST PUSH1 0x40 MLOAD DUP1 SWAP2 SUB SWAP1 REVERT JUMPDEST PUSH1 0x0 PUSH1 0x15 SLOAD GT PUSH2 0x1A23 JUMPI PUSH1 0x40 MLOAD PUSH32 0x8C379A000000000000000000000000000000000000000000000000000000000 DUP2 MSTORE PUSH1 0x4 ADD PUSH2 0x1A1A SWAP1 PUSH2 0x3C7B JUMP JUMPDEST PUSH1 0x40 MLOAD DUP1 SWAP2 SUB SWAP1 REVERT JUMPDEST PUSH1 0x0 PUSH1 0x15 SLOAD SWAP1 POP PUSH1 0x0 PUSH1 0x15 DUP2 SWAP1 SSTORE POP PUSH1 0x0 PUSH32 0x0 PUSH20 0xFFFFFFFFFFFFFFFFFFFFFFFFFFFFFFFFFFFFFFFF AND DUP3 PUSH1 0x40 MLOAD PUSH2 0x1A78 SWAP1 PUSH2 0x3CCC JUMP JUMPDEST PUSH1 0x0 PUSH1 0x40 MLOAD DUP1 DUP4 SUB DUP2 DUP6 DUP8 GAS CALL SWAP3 POP POP POP RETURNDATASIZE DUP1 PUSH1 0x0 DUP2 EQ PUSH2 0x1AB5 JUMPI PUSH1 0x40 MLOAD SWAP2 POP PUSH1 0x1F NOT PUSH1 0x3F RETURNDATASIZE ADD AND DUP3 ADD PUSH1 0x40 MSTORE RETURNDATASIZE DUP3 MSTORE RETURNDATASIZE PUSH1 0x0 PUSH1 0x20 DUP5 ADD RETURNDATACOPY PUSH2 0x1ABA JUMP JUMPDEST PUSH1 0x60 SWAP2 POP JUMPDEST POP POP SWAP1 POP DUP1 PUSH2 0x1AFE JUMPI PUSH1 0x40 MLOAD PUSH32 0x8C379A000000000000000000000000000000000000000000000000000000000 DUP2 MSTORE PUSH1 0x4 ADD PUSH2 0x1AF5 SWAP1 PUSH2 0x3D2D JUMP JUMPDEST PUSH1 0x40 MLOAD DUP1 SWAP2 SUB SWAP1 REVERT JUMPDEST DUP2 PUSH32 0x0 PUSH20 0xFFFFFFFFFFFFFFFFFFFFFFFFFFFFFFFFFFFFFFFF AND PUSH32 0xA711DCBEE5590122B88AE65F697ADF2F2824E323782FA8DF939898D7EB6C1C2B PUSH1 0x40 MLOAD PUSH1 0x40 MLOAD DUP1 SWAP2 SUB SWAP1 LOG3 POP POP JUMP JUMPDEST PUSH1 0x1 DUP2 JUMP JUMPDEST PUSH2 0x1B74 DUP2 PUSH2 0x8C3 JUMP JUMPDEST POP JUMP JUMPDEST PUSH1 0x2 PUSH1 0x0 SWAP1 SLOAD SWAP1 PUSH2 0x100 EXP SWAP1 DIV PUSH20 0xFFFFFFFFFFFFFFFFFFFFFFFFFFFFFFFFFFFFFFFF AND DUP2 JUMP JUMPDEST PUSH1 0x0 PUSH1 0x14 SLOAD SWAP1 POP SWAP1 JUMP JUMPDEST PUSH1 0x0 PUSH1 0x1D PUSH1 0x0 DUP1 DUP2 MSTORE PUSH1 0x20 ADD SWAP1 DUP2 MSTORE PUSH1 0x20 ADD PUSH1 0x0 KECCAK256 PUSH1 0xD ADD SLOAD SWAP1 POP SWAP1 JUMP JUMPDEST PUSH1 0x1E PUSH1 0x20 MSTORE DUP1 PUSH1 0x0 MSTORE PUSH1 0x40 PUSH1 0x0 KECCAK256 PUSH1 0x0 SWAP2 POP SWAP1 POP SLOAD DUP2 JUMP JUMPDEST PUSH1 0x0 PUSH2 0x1BE8 DUP3 PUSH2 0x26A1 JUMP JUMPDEST SWAP1 POP SWAP2 SWAP1 POP JUMP JUMPDEST CALLER PUSH20 0xFFFFFFFFFFFFFFFFFFFFFFFFFFFFFFFFFFFFFFFF AND ORIGIN PUSH20 0xFFFFFFFFFFFFFFFFFFFFFFFFFFFFFFFFFFFFFFFF AND EQ PUSH2 0x1C5D JUMPI PUSH1 0x40 MLOAD PUSH32 0x8C379A000000000000000000000000000000000000000000000000000000000 DUP2 MSTORE PUSH1 0x4 ADD PUSH2 0x1C54 SWAP1 PUSH2 0x3D99 JUMP JUMPDEST PUSH1 0x40 MLOAD DUP1 SWAP2 SUB SWAP1 REVERT JUMPDEST PUSH6 0x5AF3107A4000 CALLVALUE EQ PUSH2 0x1CA5 JUMPI PUSH1 0x40 MLOAD PUSH32 0x8C379A000000000000000000000000000000000000000000000000000000000 DUP2 MSTORE PUSH1 0x4 ADD PUSH2 0x1C9C SWAP1 PUSH2 0x3E05 JUMP JUMPDEST PUSH1 0x40 MLOAD DUP1 SWAP2 SUB SWAP1 REVERT JUMPDEST PUSH1 0x0 PUSH1 0x40 MLOAD DUP1 PUSH2 0x120 ADD PUSH1 0x40 MSTORE DUP1 PUSH1 0x16 PUSH1 0x0 DUP2 SLOAD DUP1 SWAP3 SWAP2 SWAP1 PUSH2 0x1CC6 SWAP1 PUSH2 0x3790 JUMP JUMPDEST SWAP2 SWAP1 POP SSTORE DUP2 MSTORE PUSH1 0x20 ADD CALLER PUSH20 0xFFFFFFFFFFFFFFFFFFFFFFFFFFFFFFFFFFFFFFFF AND DUP2 MSTORE PUSH1 0x20 ADD TIMESTAMP DUP2 MSTORE PUSH1 0x20 ADD PUSH1 0x17 PUSH1 0x5 DUP1 PUSH1 0x20 MUL PUSH1 0x40 MLOAD SWAP1 DUP2 ADD PUSH1 0x40 MSTORE DUP1 SWAP3 SWAP2 SWAP1 DUP3 PUSH1 0x5 DUP1 ISZERO PUSH2 0x1D2A JUMPI PUSH1 0x20 MUL DUP3 ADD SWAP2 JUMPDEST DUP2 SLOAD DUP2 MSTORE PUSH1 0x20 ADD SWAP1 PUSH1 0x1 ADD SWAP1 DUP1 DUP4 GT PUSH2 0x1D16 JUMPI JUMPDEST POP POP POP POP POP DUP2 MSTORE PUSH1 0x20 ADD PUSH1 0x17 PUSH1 0x5 DUP1 PUSH1 0x20 MUL PUSH1 0x40 MLOAD SWAP1 DUP2 ADD PUSH1 0x40 MSTORE DUP1 SWAP3 SWAP2 SWAP1 DUP3 PUSH1 0x5 DUP1 ISZERO PUSH2 0x1D6D JUMPI PUSH1 0x20 MUL DUP3 ADD SWAP2 JUMPDEST DUP2 SLOAD DUP2 MSTORE PUSH1 0x20 ADD SWAP1 PUSH1 0x1 ADD SWAP1 DUP1 DUP4 GT PUSH2 0x1D59 JUMPI JUMPDEST POP POP POP POP POP DUP2 MSTORE PUSH1 0x20 ADD PUSH1 0x0 DUP2 MSTORE PUSH1 0x20 ADD PUSH1 0x0 ISZERO ISZERO DUP2 MSTORE PUSH1 0x20 ADD PUSH1 0x0 ISZERO ISZERO DUP2 MSTORE PUSH1 0x20 ADD PUSH1 0x0 ISZERO ISZERO DUP2 MSTORE POP SWAP1 POP DUP1 PUSH1 0x1D PUSH1 0x0 DUP4 PUSH1 0x0 ADD MLOAD DUP2 MSTORE PUSH1 0x20 ADD SWAP1 DUP2 MSTORE PUSH1 0x20 ADD PUSH1 0x0 KECCAK256 PUSH1 0x0 DUP3 ADD MLOAD DUP2 PUSH1 0x0 ADD SSTORE PUSH1 0x20 DUP3 ADD MLOAD DUP2 PUSH1 0x1 ADD PUSH1 0x0 PUSH2 0x100 EXP DUP2 SLOAD DUP2 PUSH20 0xFFFFFFFFFFFFFFFFFFFFFFFFFFFFFFFFFFFFFFFF MUL NOT AND SWAP1 DUP4 PUSH20 0xFFFFFFFFFFFFFFFFFFFFFFFFFFFFFFFFFFFFFFFF AND MUL OR SWAP1 SSTORE POP PUSH1 0x40 DUP3 ADD MLOAD DUP2 PUSH1 0x2 ADD SSTORE PUSH1 0x60 DUP3 ADD MLOAD DUP2 PUSH1 0x3 ADD SWAP1 PUSH1 0x5 PUSH2 0x1E23 SWAP3 SWAP2 SWAP1 PUSH2 0x2C71 JUMP JUMPDEST POP PUSH1 0x80 DUP3 ADD MLOAD DUP2 PUSH1 0x8 ADD SWAP1 PUSH1 0x5 PUSH2 0x1E3B SWAP3 SWAP2 SWAP1 PUSH2 0x2C71 JUMP JUMPDEST POP PUSH1 0xA0 DUP3 ADD MLOAD DUP2 PUSH1 0xD ADD SSTORE PUSH1 0xC0 DUP3 ADD MLOAD DUP2 PUSH1 0xE ADD PUSH1 0x0 PUSH2 0x100 EXP DUP2 SLOAD DUP2 PUSH1 0xFF MUL NOT AND SWAP1 DUP4 ISZERO ISZERO MUL OR SWAP1 SSTORE POP PUSH1 0xE0 DUP3 ADD MLOAD DUP2 PUSH1 0xE ADD PUSH1 0x1 PUSH2 0x100 EXP DUP2 SLOAD DUP2 PUSH1 0xFF MUL NOT AND SWAP1 DUP4 ISZERO ISZERO MUL OR SWAP1 SSTORE POP PUSH2 0x100 DUP3 ADD MLOAD DUP2 PUSH1 0xE ADD PUSH1 0x2 PUSH2 0x100 EXP DUP2 SLOAD DUP2 PUSH1 0xFF MUL NOT AND SWAP1 DUP4 ISZERO ISZERO MUL OR SWAP1 SSTORE POP SWAP1 POP POP DUP1 PUSH1 0x0 ADD MLOAD PUSH1 0x1C PUSH1 0x0 CALLER PUSH20 0xFFFFFFFFFFFFFFFFFFFFFFFFFFFFFFFFFFFFFFFF AND PUSH20 0xFFFFFFFFFFFFFFFFFFFFFFFFFFFFFFFFFFFFFFFF AND DUP2 MSTORE PUSH1 0x20 ADD SWAP1 DUP2 MSTORE PUSH1 0x20 ADD PUSH1 0x0 KECCAK256 DUP2 SWAP1 SSTORE POP PUSH2 0x1EFB CALLVALUE PUSH2 0x8C3 JUMP JUMPDEST DUP1 PUSH1 0x0 ADD MLOAD CALLER PUSH20 0xFFFFFFFFFFFFFFFFFFFFFFFFFFFFFFFFFFFFFFFF AND PUSH32 0x668F5B446EB814FE35B3206F43F14BD8567BA04DDAF7A3EE56516929AB22CCB PUSH1 0x40 MLOAD PUSH1 0x40 MLOAD DUP1 SWAP2 SUB SWAP1 LOG3 POP JUMP JUMPDEST PUSH6 0x5AF3107A4000 DUP2 JUMP JUMPDEST PUSH2 0x1F58 PUSH2 0x288B JUMP JUMPDEST PUSH2 0x1F61 DUP2 PUSH2 0x291B JUMP JUMPDEST POP JUMP JUMPDEST PUSH32 0x0 PUSH20 0xFFFFFFFFFFFFFFFFFFFFFFFFFFFFFFFFFFFFFFFF AND CALLER PUSH20 0xFFFFFFFFFFFFFFFFFFFFFFFFFFFFFFFFFFFFFFFF AND EQ PUSH2 0x1FF2 JUMPI PUSH1 0x40 MLOAD PUSH32 0x8C379A000000000000000000000000000000000000000000000000000000000 DUP2 MSTORE PUSH1 0x4 ADD PUSH2 0x1FE9 SWAP1 PUSH2 0x3C0F JUMP JUMPDEST PUSH1 0x40 MLOAD DUP1 SWAP2 SUB SWAP1 REVERT JUMPDEST PUSH1 0x0 PUSH1 0x14 SLOAD GT PUSH2 0x2037 JUMPI PUSH1 0x40 MLOAD PUSH32 0x8C379A000000000000000000000000000000000000000000000000000000000 DUP2 MSTORE PUSH1 0x4 ADD PUSH2 0x202E SWAP1 PUSH2 0x3C7B JUMP JUMPDEST PUSH1 0x40 MLOAD DUP1 SWAP2 SUB SWAP1 REVERT JUMPDEST PUSH1 0x0 PUSH1 0x14 SLOAD SWAP1 POP PUSH1 0x0 PUSH1 0x14 DUP2 SWAP1 SSTORE POP PUSH1 0x0 PUSH32 0x0 PUSH20 0xFFFFFFFFFFFFFFFFFFFFFFFFFFFFFFFFFFFFFFFF AND DUP3 PUSH1 0x40 MLOAD PUSH2 0x208C SWAP1 PUSH2 0x3CCC JUMP JUMPDEST PUSH1 0x0 PUSH1 0x40 MLOAD DUP1 DUP4 SUB DUP2 DUP6 DUP8 GAS CALL SWAP3 POP POP POP RETURNDATASIZE DUP1 PUSH1 0x0 DUP2 EQ PUSH2 0x20C9 JUMPI PUSH1 0x40 MLOAD SWAP2 POP PUSH1 0x1F NOT PUSH1 0x3F RETURNDATASIZE ADD AND DUP3 ADD PUSH1 0x40 MSTORE RETURNDATASIZE DUP3 MSTORE RETURNDATASIZE PUSH1 0x0 PUSH1 0x20 DUP5 ADD RETURNDATACOPY PUSH2 0x20CE JUMP JUMPDEST PUSH1 0x60 SWAP2 POP JUMPDEST POP POP SWAP1 POP DUP1 PUSH2 0x2112 JUMPI PUSH1 0x40 MLOAD PUSH32 0x8C379A000000000000000000000000000000000000000000000000000000000 DUP2 MSTORE PUSH1 0x4 ADD PUSH2 0x2109 SWAP1 PUSH2 0x3E97 JUMP JUMPDEST PUSH1 0x40 MLOAD DUP1 SWAP2 SUB SWAP1 REVERT JUMPDEST DUP2 PUSH32 0x0 PUSH20 0xFFFFFFFFFFFFFFFFFFFFFFFFFFFFFFFFFFFFFFFF AND PUSH32 0xA760777EB358393D33A518EC33E1187940AF7F3CBFFB09C53DB5EE4B7E7E4025 PUSH1 0x40 MLOAD PUSH1 0x40 MLOAD DUP1 SWAP2 SUB SWAP1 LOG3 POP POP JUMP JUMPDEST PUSH2 0x2184 DUP3 DUP3 PUSH2 0x278D JUMP JUMPDEST POP POP JUMP JUMPDEST PUSH1 0x0 PUSH1 0x1D PUSH1 0x0 DUP5 DUP2 MSTORE PUSH1 0x20 ADD SWAP1 DUP2 MSTORE PUSH1 0x20 ADD PUSH1 0x0 KECCAK256 SWAP1 POP CALLER PUSH20 0xFFFFFFFFFFFFFFFFFFFFFFFFFFFFFFFFFFFFFFFF AND DUP2 PUSH1 0x1 ADD PUSH1 0x0 SWAP1 SLOAD SWAP1 PUSH2 0x100 EXP SWAP1 DIV PUSH20 0xFFFFFFFFFFFFFFFFFFFFFFFFFFFFFFFFFFFFFFFF AND PUSH20 0xFFFFFFFFFFFFFFFFFFFFFFFFFFFFFFFFFFFFFFFF AND EQ PUSH2 0x2231 JUMPI PUSH1 0x40 MLOAD PUSH32 0x8C379A000000000000000000000000000000000000000000000000000000000 DUP2 MSTORE PUSH1 0x4 ADD PUSH2 0x2228 SWAP1 PUSH2 0x3F03 JUMP JUMPDEST PUSH1 0x40 MLOAD DUP1 SWAP2 SUB SWAP1 REVERT JUMPDEST DUP1 PUSH1 0xE ADD PUSH1 0x1 SWAP1 SLOAD SWAP1 PUSH2 0x100 EXP SWAP1 DIV PUSH1 0xFF AND ISZERO PUSH2 0x2283 JUMPI PUSH1 0x40 MLOAD PUSH32 0x8C379A000000000000000000000000000000000000000000000000000000000 DUP2 MSTORE PUSH1 0x4 ADD PUSH2 0x227A SWAP1 PUSH2 0x3F6F JUMP JUMPDEST PUSH1 0x40 MLOAD DUP1 SWAP2 SUB SWAP1 REVERT JUMPDEST DUP2 DUP2 PUSH1 0x3 ADD SWAP1 PUSH1 0x5 PUSH2 0x2296 SWAP3 SWAP2 SWAP1 PUSH2 0x2C71 JUMP JUMPDEST POP PUSH1 0x1 DUP2 PUSH1 0xE ADD PUSH1 0x1 PUSH2 0x100 EXP DUP2 SLOAD DUP2 PUSH1 0xFF MUL NOT AND SWAP1 DUP4 ISZERO ISZERO MUL OR SWAP1 SSTORE POP CALLER PUSH20 0xFFFFFFFFFFFFFFFFFFFFFFFFFFFFFFFFFFFFFFFF AND PUSH32 0x26AA7C18051E08A0CF3F3B6F17D2953735D99EAB33C5D55EFDF08EF510DE455E DUP4 PUSH1 0x40 MLOAD PUSH2 0x22FA SWAP2 SWAP1 PUSH2 0x34F4 JUMP JUMPDEST PUSH1 0x40 MLOAD DUP1 SWAP2 SUB SWAP1 LOG2 PUSH2 0x230B DUP4 PUSH2 0x2A47 JUMP JUMPDEST POP POP POP POP JUMP JUMPDEST PUSH1 0x0 PUSH2 0x231C DUP3 PUSH2 0x2A47 JUMP JUMPDEST SWAP1 POP SWAP2 SWAP1 POP JUMP JUMPDEST PUSH1 0x0 PUSH1 0x1C PUSH1 0x0 DUP4 PUSH20 0xFFFFFFFFFFFFFFFFFFFFFFFFFFFFFFFFFFFFFFFF AND PUSH20 0xFFFFFFFFFFFFFFFFFFFFFFFFFFFFFFFFFFFFFFFF AND DUP2 MSTORE PUSH1 0x20 ADD SWAP1 DUP2 MSTORE PUSH1 0x20 ADD PUSH1 0x0 KECCAK256 SLOAD SWAP1 POP SWAP2 SWAP1 POP JUMP JUMPDEST PUSH1 0x0 PUSH1 0x1E PUSH1 0x0 DUP6 DUP2 MSTORE PUSH1 0x20 ADD SWAP1 DUP2 MSTORE PUSH1 0x20 ADD PUSH1 0x0 KECCAK256 SLOAD SWAP1 POP DUP3 DUP3 PUSH1 0x0 DUP2 DUP2 LT PUSH2 0x2398 JUMPI PUSH2 0x2397 PUSH2 0x3F8F JUMP JUMPDEST JUMPDEST SWAP1 POP PUSH1 0x20 MUL ADD CALLDATALOAD PUSH1 0x1D PUSH1 0x0 DUP4 DUP2 MSTORE PUSH1 0x20 ADD SWAP1 DUP2 MSTORE PUSH1 0x20 ADD PUSH1 0x0 KECCAK256 PUSH1 0xD ADD DUP2 SWAP1 SSTORE POP DUP1 DUP5 PUSH32 0x86DC71B58256A2AEBE2AFE6D9153CE25CB709DFF36ADFD6807758636D89E0E44 DUP6 DUP6 PUSH1 0x0 DUP2 DUP2 LT PUSH2 0x23F0 JUMPI PUSH2 0x23EF PUSH2 0x3F8F JUMP JUMPDEST JUMPDEST SWAP1 POP PUSH1 0x20 MUL ADD CALLDATALOAD PUSH1 0x40 MLOAD PUSH2 0x2404 SWAP2 SWAP1 PUSH2 0x3068 JUMP JUMPDEST PUSH1 0x40 MLOAD DUP1 SWAP2 SUB SWAP1 LOG3 POP POP POP POP JUMP JUMPDEST PUSH2 0x241A PUSH2 0x2D47 JUMP JUMPDEST PUSH1 0x0 DUP1 DUP4 PUSH1 0xD ADD SLOAD PUSH1 0x40 MLOAD PUSH1 0x20 ADD PUSH2 0x2432 SWAP2 SWAP1 PUSH2 0x3068 JUMP JUMPDEST PUSH1 0x40 MLOAD PUSH1 0x20 DUP2 DUP4 SUB SUB DUP2 MSTORE SWAP1 PUSH1 0x40 MSTORE DUP1 MLOAD SWAP1 PUSH1 0x20 ADD KECCAK256 SWAP1 POP PUSH1 0x0 JUMPDEST PUSH1 0x5 DUP4 LT ISZERO PUSH2 0x2550 JUMPI PUSH1 0x20 DUP2 PUSH3 0xFFFFFF AND LT PUSH2 0x2491 JUMPI DUP2 PUSH1 0x40 MLOAD PUSH1 0x20 ADD PUSH2 0x2474 SWAP2 SWAP1 PUSH2 0x3FD7 JUMP JUMPDEST PUSH1 0x40 MLOAD PUSH1 0x20 DUP2 DUP4 SUB SUB DUP2 MSTORE SWAP1 PUSH1 0x40 MSTORE DUP1 MLOAD SWAP1 PUSH1 0x20 ADD KECCAK256 SWAP2 POP PUSH1 0x0 SWAP1 POP JUMPDEST PUSH1 0x0 PUSH1 0x25 DUP4 DUP4 PUSH3 0xFFFFFF AND PUSH1 0x20 DUP2 LT PUSH2 0x24AD JUMPI PUSH2 0x24AC PUSH2 0x3F8F JUMP JUMPDEST JUMPDEST BYTE PUSH1 0xF8 SHL PUSH1 0xF8 SHR PUSH2 0x24BE SWAP2 SWAP1 PUSH2 0x3FF2 JUMP JUMPDEST SWAP1 POP DUP2 DUP1 PUSH2 0x24CB SWAP1 PUSH2 0x4032 JUMP JUMPDEST SWAP3 POP POP PUSH1 0x0 DUP6 DUP3 PUSH1 0xFF AND PUSH1 0x25 DUP2 LT PUSH2 0x24E6 JUMPI PUSH2 0x24E5 PUSH2 0x3F8F JUMP JUMPDEST JUMPDEST PUSH1 0x20 MUL ADD MLOAD PUSH1 0xFF AND SUB PUSH2 0x254A JUMPI PUSH1 0x1 DUP6 DUP3 PUSH1 0xFF AND PUSH1 0x25 DUP2 LT PUSH2 0x250B JUMPI PUSH2 0x250A PUSH2 0x3F8F JUMP JUMPDEST JUMPDEST PUSH1 0x20 MUL ADD SWAP1 PUSH1 0xFF AND SWAP1 DUP2 PUSH1 0xFF AND DUP2 MSTORE POP POP DUP1 PUSH1 0xFF AND DUP7 PUSH1 0x8 ADD DUP6 PUSH1 0x5 DUP2 LT PUSH2 0x2536 JUMPI PUSH2 0x2535 PUSH2 0x3F8F JUMP JUMPDEST JUMPDEST ADD DUP2 SWAP1 SSTORE POP DUP4 DUP1 PUSH2 0x2546 SWAP1 PUSH2 0x3790 JUMP JUMPDEST SWAP5 POP POP JUMPDEST POP PUSH2 0x244D JUMP JUMPDEST POP POP POP POP POP JUMP JUMPDEST PUSH1 0x0 DUP1 PUSH1 0x0 SWAP1 POP PUSH2 0x2566 PUSH2 0x2D6A JUMP JUMPDEST PUSH1 0x0 JUMPDEST PUSH1 0x5 DUP2 PUSH1 0xFF AND LT ISZERO PUSH2 0x2646 JUMPI PUSH1 0x0 JUMPDEST PUSH1 0x5 DUP2 PUSH1 0xFF AND LT ISZERO PUSH2 0x2632 JUMPI DUP3 DUP2 PUSH1 0xFF AND PUSH1 0x5 DUP2 LT PUSH2 0x259A JUMPI PUSH2 0x2599 PUSH2 0x3F8F JUMP JUMPDEST JUMPDEST PUSH1 0x20 MUL ADD MLOAD ISZERO DUP1 ISZERO PUSH2 0x25DF JUMPI POP DUP6 DUP2 PUSH1 0xFF AND PUSH1 0x5 DUP2 LT PUSH2 0x25BD JUMPI PUSH2 0x25BC PUSH2 0x3F8F JUMP JUMPDEST JUMPDEST PUSH1 0x20 MUL ADD MLOAD DUP8 DUP4 PUSH1 0xFF AND PUSH1 0x5 DUP2 LT PUSH2 0x25D8 JUMPI PUSH2 0x25D7 PUSH2 0x3F8F JUMP JUMPDEST JUMPDEST PUSH1 0x20 MUL ADD MLOAD EQ JUMPDEST ISZERO PUSH2 0x261F JUMPI PUSH1 0x1 DUP5 PUSH2 0x25F1 SWAP2 SWAP1 PUSH2 0x405D JUMP JUMPDEST SWAP4 POP PUSH1 0x1 DUP4 DUP3 PUSH1 0xFF AND PUSH1 0x5 DUP2 LT PUSH2 0x260B JUMPI PUSH2 0x260A PUSH2 0x3F8F JUMP JUMPDEST JUMPDEST PUSH1 0x20 MUL ADD SWAP1 ISZERO ISZERO SWAP1 DUP2 ISZERO ISZERO DUP2 MSTORE POP POP PUSH2 0x2632 JUMP JUMPDEST DUP1 DUP1 PUSH2 0x262A SWAP1 PUSH2 0x4092 JUMP JUMPDEST SWAP2 POP POP PUSH2 0x2578 JUMP JUMPDEST POP DUP1 DUP1 PUSH2 0x263E SWAP1 PUSH2 0x4092 JUMP JUMPDEST SWAP2 POP POP PUSH2 0x2569 JUMP JUMPDEST POP DUP2 SWAP3 POP POP POP SWAP3 SWAP2 POP POP JUMP JUMPDEST PUSH1 0x2 PUSH1 0x3 SLOAD SUB PUSH2 0x2697 JUMPI PUSH1 0x40 MLOAD PUSH32 0x8C379A000000000000000000000000000000000000000000000000000000000 DUP2 MSTORE PUSH1 0x4 ADD PUSH2 0x268E SWAP1 PUSH2 0x4107 JUMP JUMPDEST PUSH1 0x40 MLOAD DUP1 SWAP2 SUB SWAP1 REVERT JUMPDEST PUSH1 0x2 PUSH1 0x3 DUP2 SWAP1 SSTORE POP JUMP JUMPDEST PUSH1 0x0 DUP1 DUP3 PUSH1 0xFF AND EQ DUP1 PUSH2 0x26B7 JUMPI POP PUSH1 0x1 DUP3 PUSH1 0xFF AND EQ JUMPDEST ISZERO PUSH2 0x26C5 JUMPI PUSH1 0x0 SWAP1 POP PUSH2 0x2788 JUMP JUMPDEST PUSH1 0x2 DUP3 PUSH1 0xFF AND SUB PUSH2 0x26DE JUMPI PUSH6 0x5AF3107A4000 SWAP1 POP PUSH2 0x2788 JUMP JUMPDEST PUSH1 0x3 DUP3 PUSH1 0xFF AND SUB PUSH2 0x270B JUMPI PUSH1 0x64 PUSH1 0x5 PUSH1 0x13 SLOAD PUSH2 0x26FA SWAP2 SWAP1 PUSH2 0x3691 JUMP JUMPDEST PUSH2 0x2704 SWAP2 SWAP1 PUSH2 0x3702 JUMP JUMPDEST SWAP1 POP PUSH2 0x2788 JUMP JUMPDEST PUSH1 0x4 DUP3 PUSH1 0xFF AND SUB PUSH2 0x2738 JUMPI PUSH1 0x64 PUSH1 0x1E PUSH1 0x13 SLOAD PUSH2 0x2727 SWAP2 SWAP1 PUSH2 0x3691 JUMP JUMPDEST PUSH2 0x2731 SWAP2 SWAP1 PUSH2 0x3702 JUMP JUMPDEST SWAP1 POP PUSH2 0x2788 JUMP JUMPDEST PUSH1 0x5 DUP3 PUSH1 0xFF AND SUB PUSH2 0x274D JUMPI PUSH1 0x13 SLOAD SWAP1 POP PUSH2 0x2788 JUMP JUMPDEST PUSH1 0x40 MLOAD PUSH32 0x8C379A000000000000000000000000000000000000000000000000000000000 DUP2 MSTORE PUSH1 0x4 ADD PUSH2 0x277F SWAP1 PUSH2 0x4173 JUMP JUMPDEST PUSH1 0x40 MLOAD DUP1 SWAP2 SUB SWAP1 REVERT JUMPDEST SWAP2 SWAP1 POP JUMP JUMPDEST PUSH1 0x0 DUP2 GT PUSH2 0x27D0 JUMPI PUSH1 0x40 MLOAD PUSH32 0x8C379A000000000000000000000000000000000000000000000000000000000 DUP2 MSTORE PUSH1 0x4 ADD PUSH2 0x27C7 SWAP1 PUSH2 0x41DF JUMP JUMPDEST PUSH1 0x40 MLOAD DUP1 SWAP2 SUB SWAP1 REVERT JUMPDEST PUSH1 0x0 DUP3 PUSH20 0xFFFFFFFFFFFFFFFFFFFFFFFFFFFFFFFFFFFFFFFF AND DUP3 PUSH1 0x40 MLOAD PUSH2 0x27F6 SWAP1 PUSH2 0x3CCC JUMP JUMPDEST PUSH1 0x0 PUSH1 0x40 MLOAD DUP1 DUP4 SUB DUP2 DUP6 DUP8 GAS CALL SWAP3 POP POP POP RETURNDATASIZE DUP1 PUSH1 0x0 DUP2 EQ PUSH2 0x2833 JUMPI PUSH1 0x40 MLOAD SWAP2 POP PUSH1 0x1F NOT PUSH1 0x3F RETURNDATASIZE ADD AND DUP3 ADD PUSH1 0x40 MSTORE RETURNDATASIZE DUP3 MSTORE RETURNDATASIZE PUSH1 0x0 PUSH1 0x20 DUP5 ADD RETURNDATACOPY PUSH2 0x2838 JUMP JUMPDEST PUSH1 0x60 SWAP2 POP JUMPDEST POP POP SWAP1 POP DUP1 PUSH2 0x287C JUMPI PUSH1 0x40 MLOAD PUSH32 0x8C379A000000000000000000000000000000000000000000000000000000000 DUP2 MSTORE PUSH1 0x4 ADD PUSH2 0x2873 SWAP1 PUSH2 0x424B JUMP JUMPDEST PUSH1 0x40 MLOAD DUP1 SWAP2 SUB SWAP1 REVERT JUMPDEST POP POP POP JUMP JUMPDEST PUSH1 0x1 PUSH1 0x3 DUP2 SWAP1 SSTORE POP JUMP JUMPDEST PUSH1 0x0 DUP1 SLOAD SWAP1 PUSH2 0x100 EXP SWAP1 DIV PUSH20 0xFFFFFFFFFFFFFFFFFFFFFFFFFFFFFFFFFFFFFFFF AND PUSH20 0xFFFFFFFFFFFFFFFFFFFFFFFFFFFFFFFFFFFFFFFF AND CALLER PUSH20 0xFFFFFFFFFFFFFFFFFFFFFFFFFFFFFFFFFFFFFFFF AND EQ PUSH2 0x2919 JUMPI PUSH1 0x40 MLOAD PUSH32 0x8C379A000000000000000000000000000000000000000000000000000000000 DUP2 MSTORE PUSH1 0x4 ADD PUSH2 0x2910 SWAP1 PUSH2 0x42B7 JUMP JUMPDEST PUSH1 0x40 MLOAD DUP1 SWAP2 SUB SWAP1 REVERT JUMPDEST JUMP JUMPDEST CALLER PUSH20 0xFFFFFFFFFFFFFFFFFFFFFFFFFFFFFFFFFFFFFFFF AND DUP2 PUSH20 0xFFFFFFFFFFFFFFFFFFFFFFFFFFFFFFFFFFFFFFFF AND SUB PUSH2 0x2989 JUMPI PUSH1 0x40 MLOAD PUSH32 0x8C379A000000000000000000000000000000000000000000000000000000000 DUP2 MSTORE PUSH1 0x4 ADD PUSH2 0x2980 SWAP1 PUSH2 0x4323 JUMP JUMPDEST PUSH1 0x40 MLOAD DUP1 SWAP2 SUB SWAP1 REVERT JUMPDEST DUP1 PUSH1 0x1 PUSH1 0x0 PUSH2 0x100 EXP DUP2 SLOAD DUP2 PUSH20 0xFFFFFFFFFFFFFFFFFFFFFFFFFFFFFFFFFFFFFFFF MUL NOT AND SWAP1 DUP4 PUSH20 0xFFFFFFFFFFFFFFFFFFFFFFFFFFFFFFFFFFFFFFFF AND MUL OR SWAP1 SSTORE POP DUP1 PUSH20 0xFFFFFFFFFFFFFFFFFFFFFFFFFFFFFFFFFFFFFFFF AND PUSH1 0x0 DUP1 SLOAD SWAP1 PUSH2 0x100 EXP SWAP1 DIV PUSH20 0xFFFFFFFFFFFFFFFFFFFFFFFFFFFFFFFFFFFFFFFF AND PUSH20 0xFFFFFFFFFFFFFFFFFFFFFFFFFFFFFFFFFFFFFFFF AND PUSH32 0xED8889F560326EB138920D842192F0EB3DD22B4F139C87A2C57538E05BAE1278 PUSH1 0x40 MLOAD PUSH1 0x40 MLOAD DUP1 SWAP2 SUB SWAP1 LOG3 POP JUMP JUMPDEST PUSH1 0x0 DUP1 PUSH1 0x2 PUSH1 0x0 SWAP1 SLOAD SWAP1 PUSH2 0x100 EXP SWAP1 DIV PUSH20 0xFFFFFFFFFFFFFFFFFFFFFFFFFFFFFFFFFFFFFFFF AND PUSH20 0xFFFFFFFFFFFFFFFFFFFFFFFFFFFFFFFFFFFFFFFF AND PUSH4 0x9B1C385E PUSH1 0x40 MLOAD DUP1 PUSH1 0xC0 ADD PUSH1 0x40 MSTORE DUP1 PUSH32 0x787D74CAEA10B2B357790D5B5247C2F63D1D91572A9846F780606E4D953677AE PUSH1 0x0 SHL DUP2 MSTORE PUSH1 0x20 ADD PUSH32 0x0 DUP2 MSTORE PUSH1 0x20 ADD PUSH1 0x3 PUSH2 0xFFFF AND DUP2 MSTORE PUSH1 0x20 ADD PUSH3 0x30D40 PUSH4 0xFFFFFFFF AND DUP2 MSTORE PUSH1 0x20 ADD PUSH1 0x1 PUSH1 0xFF AND PUSH4 0xFFFFFFFF AND DUP2 MSTORE PUSH1 0x20 ADD PUSH2 0x2B26 PUSH1 0x40 MLOAD DUP1 PUSH1 0x20 ADD PUSH1 0x40 MSTORE DUP1 PUSH1 0x0 ISZERO ISZERO DUP2 MSTORE POP PUSH2 0x2BD9 JUMP JUMPDEST DUP2 MSTORE POP PUSH1 0x40 MLOAD DUP3 PUSH4 0xFFFFFFFF AND PUSH1 0xE0 SHL DUP2 MSTORE PUSH1 0x4 ADD PUSH2 0x2B45 SWAP2 SWAP1 PUSH2 0x4478 JUMP JUMPDEST PUSH1 0x20 PUSH1 0x40 MLOAD DUP1 DUP4 SUB DUP2 PUSH1 0x0 DUP8 GAS CALL ISZERO DUP1 ISZERO PUSH2 0x2B64 JUMPI RETURNDATASIZE PUSH1 0x0 DUP1 RETURNDATACOPY RETURNDATASIZE PUSH1 0x0 REVERT JUMPDEST POP POP POP POP PUSH1 0x40 MLOAD RETURNDATASIZE PUSH1 0x1F NOT PUSH1 0x1F DUP3 ADD AND DUP3 ADD DUP1 PUSH1 0x40 MSTORE POP DUP2 ADD SWAP1 PUSH2 0x2B88 SWAP2 SWAP1 PUSH2 0x44AF JUMP JUMPDEST SWAP1 POP DUP3 PUSH1 0x1E PUSH1 0x0 DUP4 DUP2 MSTORE PUSH1 0x20 ADD SWAP1 DUP2 MSTORE PUSH1 0x20 ADD PUSH1 0x0 KECCAK256 DUP2 SWAP1 SSTORE POP DUP3 DUP2 PUSH32 0xC904EF81354DF41ED9256AA2AB862017F6AB3F33F3F7CA50016A1786083D086D PUSH1 0x40 MLOAD PUSH1 0x40 MLOAD DUP1 SWAP2 SUB SWAP1 LOG3 DUP1 SWAP2 POP POP SWAP2 SWAP1 POP JUMP JUMPDEST PUSH1 0x60 PUSH32 0x92FD13387C7FE7BEFBC38D303D6468778FB9731BC4583F17D92989C6FCFDEAAA DUP3 PUSH1 0x40 MLOAD PUSH1 0x24 ADD PUSH2 0x2C0D SWAP2 SWAP1 PUSH2 0x44F8 JUMP JUMPDEST PUSH1 0x40 MLOAD PUSH1 0x20 DUP2 DUP4 SUB SUB DUP2 MSTORE SWAP1 PUSH1 0x40 MSTORE SWAP1 PUSH28 0xFFFFFFFFFFFFFFFFFFFFFFFFFFFFFFFFFFFFFFFFFFFFFFFFFFFFFFFF NOT AND PUSH1 0x20 DUP3 ADD DUP1 MLOAD PUSH28 0xFFFFFFFFFFFFFFFFFFFFFFFFFFFFFFFFFFFFFFFFFFFFFFFFFFFFFFFF DUP4 DUP2 DUP4 AND OR DUP4 MSTORE POP POP POP POP SWAP1 POP SWAP2 SWAP1 POP JUMP JUMPDEST DUP3 PUSH1 0x5 DUP2 ADD SWAP3 DUP3 ISZERO PUSH2 0x2CA0 JUMPI SWAP2 PUSH1 0x20 MUL DUP3 ADD JUMPDEST DUP3 DUP2 GT ISZERO PUSH2 0x2C9F JUMPI DUP3 MLOAD DUP3 SSTORE SWAP2 PUSH1 0x20 ADD SWAP2 SWAP1 PUSH1 0x1 ADD SWAP1 PUSH2 0x2C84 JUMP JUMPDEST JUMPDEST POP SWAP1 POP PUSH2 0x2CAD SWAP2 SWAP1 PUSH2 0x2D8C JUMP JUMPDEST POP SWAP1 JUMP JUMPDEST PUSH1 0x40 MLOAD DUP1 PUSH2 0x120 ADD PUSH1 0x40 MSTORE DUP1 PUSH1 0x0 DUP2 MSTORE PUSH1 0x20 ADD PUSH1 0x0 PUSH20 0xFFFFFFFFFFFFFFFFFFFFFFFFFFFFFFFFFFFFFFFF AND DUP2 MSTORE PUSH1 0x20 ADD PUSH1 0x0 DUP2 MSTORE PUSH1 0x20 ADD PUSH2 0x2CF0 PUSH2 0x2D25 JUMP JUMPDEST DUP2 MSTORE PUSH1 0x20 ADD PUSH2 0x2CFD PUSH2 0x2D25 JUMP JUMPDEST DUP2 MSTORE PUSH1 0x20 ADD PUSH1 0x0 DUP2 MSTORE PUSH1 0x20 ADD PUSH1 0x0 ISZERO ISZERO DUP2 MSTORE PUSH1 0x20 ADD PUSH1 0x0 ISZERO ISZERO DUP2 MSTORE PUSH1 0x20 ADD PUSH1 0x0 ISZERO ISZERO DUP2 MSTORE POP SWAP1 JUMP JUMPDEST PUSH1 0x40 MLOAD DUP1 PUSH1 0xA0 ADD PUSH1 0x40 MSTORE DUP1 PUSH1 0x5 SWAP1 PUSH1 0x20 DUP3 MUL DUP1 CALLDATASIZE DUP4 CALLDATACOPY DUP1 DUP3 ADD SWAP2 POP POP SWAP1 POP POP SWAP1 JUMP JUMPDEST PUSH1 0x40 MLOAD DUP1 PUSH2 0x4A0 ADD PUSH1 0x40 MSTORE DUP1 PUSH1 0x25 SWAP1 PUSH1 0x20 DUP3 MUL DUP1 CALLDATASIZE DUP4 CALLDATACOPY DUP1 DUP3 ADD SWAP2 POP POP SWAP1 POP POP SWAP1 JUMP JUMPDEST PUSH1 0x40 MLOAD DUP1 PUSH1 0xA0 ADD PUSH1 0x40 MSTORE DUP1 PUSH1 0x5 SWAP1 PUSH1 0x20 DUP3 MUL DUP1 CALLDATASIZE DUP4 CALLDATACOPY DUP1 DUP3 ADD SWAP2 POP POP SWAP1 POP POP SWAP1 JUMP JUMPDEST JUMPDEST DUP1 DUP3 GT ISZERO PUSH2 0x2DA5 JUMPI PUSH1 0x0 DUP2 PUSH1 0x0 SWAP1 SSTORE POP PUSH1 0x1 ADD PUSH2 0x2D8D JUMP JUMPDEST POP SWAP1 JUMP JUMPDEST PUSH1 0x0 DUP3 DUP3 MSTORE PUSH1 0x20 DUP3 ADD SWAP1 POP SWAP3 SWAP2 POP POP JUMP JUMPDEST PUSH32 0x496E76616C69642063616C6C0000000000000000000000000000000000000000 PUSH1 0x0 DUP3 ADD MSTORE POP JUMP JUMPDEST PUSH1 0x0 PUSH2 0x2DF0 PUSH1 0xC DUP4 PUSH2 0x2DA9 JUMP JUMPDEST SWAP2 POP PUSH2 0x2DFB DUP3 PUSH2 0x2DBA JUMP JUMPDEST PUSH1 0x20 DUP3 ADD SWAP1 POP SWAP2 SWAP1 POP JUMP JUMPDEST PUSH1 0x0 PUSH1 0x20 DUP3 ADD SWAP1 POP DUP2 DUP2 SUB PUSH1 0x0 DUP4 ADD MSTORE PUSH2 0x2E1F DUP2 PUSH2 0x2DE3 JUMP JUMPDEST SWAP1 POP SWAP2 SWAP1 POP JUMP JUMPDEST PUSH1 0x0 DUP2 SWAP1 POP SWAP2 SWAP1 POP JUMP JUMPDEST PUSH2 0x2E39 DUP2 PUSH2 0x2E26 JUMP JUMPDEST DUP3 MSTORE POP POP JUMP JUMPDEST PUSH1 0x0 PUSH20 0xFFFFFFFFFFFFFFFFFFFFFFFFFFFFFFFFFFFFFFFF DUP3 AND SWAP1 POP SWAP2 SWAP1 POP JUMP JUMPDEST PUSH1 0x0 PUSH2 0x2E6A DUP3 PUSH2 0x2E3F JUMP JUMPDEST SWAP1 POP SWAP2 SWAP1 POP JUMP JUMPDEST PUSH2 0x2E7A DUP2 PUSH2 0x2E5F JUMP JUMPDEST DUP3 MSTORE POP POP JUMP JUMPDEST PUSH1 0x0 DUP2 ISZERO ISZERO SWAP1 POP SWAP2 SWAP1 POP JUMP JUMPDEST PUSH2 0x2E95 DUP2 PUSH2 0x2E80 JUMP JUMPDEST DUP3 MSTORE POP POP JUMP JUMPDEST PUSH1 0x0 PUSH1 0xE0 DUP3 ADD SWAP1 POP PUSH2 0x2EB0 PUSH1 0x0 DUP4 ADD DUP11 PUSH2 0x2E30 JUMP JUMPDEST PUSH2 0x2EBD PUSH1 0x20 DUP4 ADD DUP10 PUSH2 0x2E71 JUMP JUMPDEST PUSH2 0x2ECA PUSH1 0x40 DUP4 ADD DUP9 PUSH2 0x2E30 JUMP JUMPDEST PUSH2 0x2ED7 PUSH1 0x60 DUP4 ADD DUP8 PUSH2 0x2E30 JUMP JUMPDEST PUSH2 0x2EE4 PUSH1 0x80 DUP4 ADD DUP7 PUSH2 0x2E8C JUMP JUMPDEST PUSH2 0x2EF1 PUSH1 0xA0 DUP4 ADD DUP6 PUSH2 0x2E8C JUMP JUMPDEST PUSH2 0x2EFE PUSH1 0xC0 DUP4 ADD DUP5 PUSH2 0x2E8C JUMP JUMPDEST SWAP9 SWAP8 POP POP POP POP POP POP POP POP JUMP JUMPDEST PUSH1 0x0 PUSH1 0x40 MLOAD SWAP1 POP SWAP1 JUMP JUMPDEST PUSH1 0x0 DUP1 REVERT JUMPDEST PUSH1 0x0 DUP1 REVERT JUMPDEST PUSH2 0x2F27 DUP2 PUSH2 0x2E26 JUMP JUMPDEST DUP2 EQ PUSH2 0x2F32 JUMPI PUSH1 0x0 DUP1 REVERT JUMPDEST POP JUMP JUMPDEST PUSH1 0x0 DUP2 CALLDATALOAD SWAP1 POP PUSH2 0x2F44 DUP2 PUSH2 0x2F1E JUMP JUMPDEST SWAP3 SWAP2 POP POP JUMP JUMPDEST PUSH1 0x0 DUP1 REVERT JUMPDEST PUSH1 0x0 DUP1 REVERT JUMPDEST PUSH1 0x0 DUP1 REVERT JUMPDEST PUSH1 0x0 DUP1 DUP4 PUSH1 0x1F DUP5 ADD SLT PUSH2 0x2F6F JUMPI PUSH2 0x2F6E PUSH2 0x2F4A JUMP JUMPDEST JUMPDEST DUP3 CALLDATALOAD SWAP1 POP PUSH8 0xFFFFFFFFFFFFFFFF DUP2 GT ISZERO PUSH2 0x2F8C JUMPI PUSH2 0x2F8B PUSH2 0x2F4F JUMP JUMPDEST JUMPDEST PUSH1 0x20 DUP4 ADD SWAP2 POP DUP4 PUSH1 0x20 DUP3 MUL DUP4 ADD GT ISZERO PUSH2 0x2FA8 JUMPI PUSH2 0x2FA7 PUSH2 0x2F54 JUMP JUMPDEST JUMPDEST SWAP3 POP SWAP3 SWAP1 POP JUMP JUMPDEST PUSH1 0x0 DUP1 PUSH1 0x0 PUSH1 0x40 DUP5 DUP7 SUB SLT ISZERO PUSH2 0x2FC8 JUMPI PUSH2 0x2FC7 PUSH2 0x2F14 JUMP JUMPDEST JUMPDEST PUSH1 0x0 PUSH2 0x2FD6 DUP7 DUP3 DUP8 ADD PUSH2 0x2F35 JUMP JUMPDEST SWAP4 POP POP PUSH1 0x20 DUP5 ADD CALLDATALOAD PUSH8 0xFFFFFFFFFFFFFFFF DUP2 GT ISZERO PUSH2 0x2FF7 JUMPI PUSH2 0x2FF6 PUSH2 0x2F19 JUMP JUMPDEST JUMPDEST PUSH2 0x3003 DUP7 DUP3 DUP8 ADD PUSH2 0x2F59 JUMP JUMPDEST SWAP3 POP SWAP3 POP POP SWAP3 POP SWAP3 POP SWAP3 JUMP JUMPDEST PUSH2 0x3018 DUP2 PUSH2 0x2E5F JUMP JUMPDEST DUP2 EQ PUSH2 0x3023 JUMPI PUSH1 0x0 DUP1 REVERT JUMPDEST POP JUMP JUMPDEST PUSH1 0x0 DUP2 CALLDATALOAD SWAP1 POP PUSH2 0x3035 DUP2 PUSH2 0x300F JUMP JUMPDEST SWAP3 SWAP2 POP POP JUMP JUMPDEST PUSH1 0x0 PUSH1 0x20 DUP3 DUP5 SUB SLT ISZERO PUSH2 0x3051 JUMPI PUSH2 0x3050 PUSH2 0x2F14 JUMP JUMPDEST JUMPDEST PUSH1 0x0 PUSH2 0x305F DUP5 DUP3 DUP6 ADD PUSH2 0x3026 JUMP JUMPDEST SWAP2 POP POP SWAP3 SWAP2 POP POP JUMP JUMPDEST PUSH1 0x0 PUSH1 0x20 DUP3 ADD SWAP1 POP PUSH2 0x307D PUSH1 0x0 DUP4 ADD DUP5 PUSH2 0x2E30 JUMP JUMPDEST SWAP3 SWAP2 POP POP JUMP JUMPDEST PUSH1 0x0 PUSH4 0xFFFFFFFF DUP3 AND SWAP1 POP SWAP2 SWAP1 POP JUMP JUMPDEST PUSH2 0x309C DUP2 PUSH2 0x3083 JUMP JUMPDEST DUP3 MSTORE POP POP JUMP JUMPDEST PUSH1 0x0 PUSH1 0x20 DUP3 ADD SWAP1 POP PUSH2 0x30B7 PUSH1 0x0 DUP4 ADD DUP5 PUSH2 0x3093 JUMP JUMPDEST SWAP3 SWAP2 POP POP JUMP JUMPDEST PUSH1 0x0 PUSH1 0xFF DUP3 AND SWAP1 POP SWAP2 SWAP1 POP JUMP JUMPDEST PUSH2 0x30D3 DUP2 PUSH2 0x30BD JUMP JUMPDEST DUP3 MSTORE POP POP JUMP JUMPDEST PUSH1 0x0 PUSH1 0x20 DUP3 ADD SWAP1 POP PUSH2 0x30EE PUSH1 0x0 DUP4 ADD DUP5 PUSH2 0x30CA JUMP JUMPDEST SWAP3 SWAP2 POP POP JUMP JUMPDEST PUSH1 0x0 PUSH1 0x20 DUP3 ADD SWAP1 POP PUSH2 0x3109 PUSH1 0x0 DUP4 ADD DUP5 PUSH2 0x2E71 JUMP JUMPDEST SWAP3 SWAP2 POP POP JUMP JUMPDEST PUSH1 0x0 PUSH1 0x1F NOT PUSH1 0x1F DUP4 ADD AND SWAP1 POP SWAP2 SWAP1 POP JUMP JUMPDEST PUSH32 0x4E487B7100000000000000000000000000000000000000000000000000000000 PUSH1 0x0 MSTORE PUSH1 0x41 PUSH1 0x4 MSTORE PUSH1 0x24 PUSH1 0x0 REVERT JUMPDEST PUSH2 0x3158 DUP3 PUSH2 0x310F JUMP JUMPDEST DUP2 ADD DUP2 DUP2 LT PUSH8 0xFFFFFFFFFFFFFFFF DUP3 GT OR ISZERO PUSH2 0x3177 JUMPI PUSH2 0x3176 PUSH2 0x3120 JUMP JUMPDEST JUMPDEST DUP1 PUSH1 0x40 MSTORE POP POP POP JUMP JUMPDEST PUSH1 0x0 PUSH2 0x318A PUSH2 0x2F0A JUMP JUMPDEST SWAP1 POP PUSH2 0x3196 DUP3 DUP3 PUSH2 0x314F JUMP JUMPDEST SWAP2 SWAP1 POP JUMP JUMPDEST PUSH1 0x0 PUSH8 0xFFFFFFFFFFFFFFFF DUP3 GT ISZERO PUSH2 0x31B6 JUMPI PUSH2 0x31B5 PUSH2 0x3120 JUMP JUMPDEST JUMPDEST PUSH1 0x20 DUP3 MUL SWAP1 POP SWAP2 SWAP1 POP JUMP JUMPDEST PUSH1 0x0 PUSH2 0x31D4 PUSH2 0x31CF DUP5 PUSH2 0x319B JUMP JUMPDEST PUSH2 0x3180 JUMP JUMPDEST SWAP1 POP DUP1 PUSH1 0x20 DUP5 MUL DUP4 ADD DUP6 DUP2 GT ISZERO PUSH2 0x31EE JUMPI PUSH2 0x31ED PUSH2 0x2F54 JUMP JUMPDEST JUMPDEST DUP4 JUMPDEST DUP2 DUP2 LT ISZERO PUSH2 0x3217 JUMPI DUP1 PUSH2 0x3203 DUP9 DUP3 PUSH2 0x2F35 JUMP JUMPDEST DUP5 MSTORE PUSH1 0x20 DUP5 ADD SWAP4 POP POP PUSH1 0x20 DUP2 ADD SWAP1 POP PUSH2 0x31F0 JUMP JUMPDEST POP POP POP SWAP4 SWAP3 POP POP POP JUMP JUMPDEST PUSH1 0x0 DUP3 PUSH1 0x1F DUP4 ADD SLT PUSH2 0x3236 JUMPI PUSH2 0x3235 PUSH2 0x2F4A JUMP JUMPDEST JUMPDEST PUSH1 0x5 PUSH2 0x3243 DUP5 DUP3 DUP6 PUSH2 0x31C1 JUMP JUMPDEST SWAP2 POP POP SWAP3 SWAP2 POP POP JUMP JUMPDEST PUSH1 0x0 DUP1 PUSH2 0x140 DUP4 DUP6 SUB SLT ISZERO PUSH2 0x3264 JUMPI PUSH2 0x3263 PUSH2 0x2F14 JUMP JUMPDEST JUMPDEST PUSH1 0x0 PUSH2 0x3272 DUP6 DUP3 DUP7 ADD PUSH2 0x3221 JUMP JUMPDEST SWAP3 POP POP PUSH1 0xA0 PUSH2 0x3283 DUP6 DUP3 DUP7 ADD PUSH2 0x3221 JUMP JUMPDEST SWAP2 POP POP SWAP3 POP SWAP3 SWAP1 POP JUMP JUMPDEST PUSH1 0x0 PUSH1 0x20 DUP3 DUP5 SUB SLT ISZERO PUSH2 0x32A3 JUMPI PUSH2 0x32A2 PUSH2 0x2F14 JUMP JUMPDEST JUMPDEST PUSH1 0x0 PUSH2 0x32B1 DUP5 DUP3 DUP6 ADD PUSH2 0x2F35 JUMP JUMPDEST SWAP2 POP POP SWAP3 SWAP2 POP POP JUMP JUMPDEST PUSH2 0x32C3 DUP2 PUSH2 0x2E26 JUMP JUMPDEST DUP3 MSTORE POP POP JUMP JUMPDEST PUSH2 0x32D2 DUP2 PUSH2 0x2E5F JUMP JUMPDEST DUP3 MSTORE POP POP JUMP JUMPDEST PUSH1 0x0 PUSH1 0x5 SWAP1 POP SWAP2 SWAP1 POP JUMP JUMPDEST PUSH1 0x0 DUP2 SWAP1 POP SWAP3 SWAP2 POP POP JUMP JUMPDEST PUSH1 0x0 DUP2 SWAP1 POP SWAP2 SWAP1 POP JUMP JUMPDEST PUSH1 0x0 PUSH2 0x3304 DUP4 DUP4 PUSH2 0x32BA JUMP JUMPDEST PUSH1 0x20 DUP4 ADD SWAP1 POP SWAP3 SWAP2 POP POP JUMP JUMPDEST PUSH1 0x0 PUSH1 0x20 DUP3 ADD SWAP1 POP SWAP2 SWAP1 POP JUMP JUMPDEST PUSH2 0x3326 DUP2 PUSH2 0x32D8 JUMP JUMPDEST PUSH2 0x3330 DUP2 DUP5 PUSH2 0x32E3 JUMP JUMPDEST SWAP3 POP PUSH2 0x333B DUP3 PUSH2 0x32EE JUMP JUMPDEST DUP1 PUSH1 0x0 JUMPDEST DUP4 DUP2 LT ISZERO PUSH2 0x336C JUMPI DUP2 MLOAD PUSH2 0x3353 DUP8 DUP3 PUSH2 0x32F8 JUMP JUMPDEST SWAP7 POP PUSH2 0x335E DUP4 PUSH2 0x3310 JUMP JUMPDEST SWAP3 POP POP PUSH1 0x1 DUP2 ADD SWAP1 POP PUSH2 0x333F JUMP JUMPDEST POP POP POP POP POP POP JUMP JUMPDEST PUSH2 0x337D DUP2 PUSH2 0x2E80 JUMP JUMPDEST DUP3 MSTORE POP POP JUMP JUMPDEST PUSH2 0x220 DUP3 ADD PUSH1 0x0 DUP3 ADD MLOAD PUSH2 0x339A PUSH1 0x0 DUP6 ADD DUP3 PUSH2 0x32BA JUMP JUMPDEST POP PUSH1 0x20 DUP3 ADD MLOAD PUSH2 0x33AD PUSH1 0x20 DUP6 ADD DUP3 PUSH2 0x32C9 JUMP JUMPDEST POP PUSH1 0x40 DUP3 ADD MLOAD PUSH2 0x33C0 PUSH1 0x40 DUP6 ADD DUP3 PUSH2 0x32BA JUMP JUMPDEST POP PUSH1 0x60 DUP3 ADD MLOAD PUSH2 0x33D3 PUSH1 0x60 DUP6 ADD DUP3 PUSH2 0x331D JUMP JUMPDEST POP PUSH1 0x80 DUP3 ADD MLOAD PUSH2 0x33E7 PUSH2 0x100 DUP6 ADD DUP3 PUSH2 0x331D JUMP JUMPDEST POP PUSH1 0xA0 DUP3 ADD MLOAD PUSH2 0x33FB PUSH2 0x1A0 DUP6 ADD DUP3 PUSH2 0x32BA JUMP JUMPDEST POP PUSH1 0xC0 DUP3 ADD MLOAD PUSH2 0x340F PUSH2 0x1C0 DUP6 ADD DUP3 PUSH2 0x3374 JUMP JUMPDEST POP PUSH1 0xE0 DUP3 ADD MLOAD PUSH2 0x3423 PUSH2 0x1E0 DUP6 ADD DUP3 PUSH2 0x3374 JUMP JUMPDEST POP PUSH2 0x100 DUP3 ADD MLOAD PUSH2 0x3438 PUSH2 0x200 DUP6 ADD DUP3 PUSH2 0x3374 JUMP JUMPDEST POP POP POP POP JUMP JUMPDEST PUSH1 0x0 PUSH2 0x220 DUP3 ADD SWAP1 POP PUSH2 0x3454 PUSH1 0x0 DUP4 ADD DUP5 PUSH2 0x3383 JUMP JUMPDEST SWAP3 SWAP2 POP POP JUMP JUMPDEST PUSH1 0x0 PUSH2 0xFFFF DUP3 AND SWAP1 POP SWAP2 SWAP1 POP JUMP JUMPDEST PUSH2 0x3471 DUP2 PUSH2 0x345A JUMP JUMPDEST DUP3 MSTORE POP POP JUMP JUMPDEST PUSH1 0x0 PUSH1 0x20 DUP3 ADD SWAP1 POP PUSH2 0x348C PUSH1 0x0 DUP4 ADD DUP5 PUSH2 0x3468 JUMP JUMPDEST SWAP3 SWAP2 POP POP JUMP JUMPDEST PUSH1 0x0 DUP2 SWAP1 POP SWAP3 SWAP2 POP POP JUMP JUMPDEST PUSH2 0x34A6 DUP2 PUSH2 0x32D8 JUMP JUMPDEST PUSH2 0x34B0 DUP2 DUP5 PUSH2 0x3492 JUMP JUMPDEST SWAP3 POP PUSH2 0x34BB DUP3 PUSH2 0x32EE JUMP JUMPDEST DUP1 PUSH1 0x0 JUMPDEST DUP4 DUP2 LT ISZERO PUSH2 0x34EC JUMPI DUP2 MLOAD PUSH2 0x34D3 DUP8 DUP3 PUSH2 0x32F8 JUMP JUMPDEST SWAP7 POP PUSH2 0x34DE DUP4 PUSH2 0x3310 JUMP JUMPDEST SWAP3 POP POP PUSH1 0x1 DUP2 ADD SWAP1 POP PUSH2 0x34BF JUMP JUMPDEST POP POP POP POP POP POP JUMP JUMPDEST PUSH1 0x0 PUSH1 0xA0 DUP3 ADD SWAP1 POP PUSH2 0x3509 PUSH1 0x0 DUP4 ADD DUP5 PUSH2 0x349D JUMP JUMPDEST SWAP3 SWAP2 POP POP JUMP JUMPDEST PUSH1 0x0 DUP2 SWAP1 POP SWAP2 SWAP1 POP JUMP JUMPDEST PUSH1 0x0 PUSH2 0x3534 PUSH2 0x352F PUSH2 0x352A DUP5 PUSH2 0x2E3F JUMP JUMPDEST PUSH2 0x350F JUMP JUMPDEST PUSH2 0x2E3F JUMP JUMPDEST SWAP1 POP SWAP2 SWAP1 POP JUMP JUMPDEST PUSH1 0x0 PUSH2 0x3546 DUP3 PUSH2 0x3519 JUMP JUMPDEST SWAP1 POP SWAP2 SWAP1 POP JUMP JUMPDEST PUSH1 0x0 PUSH2 0x3558 DUP3 PUSH2 0x353B JUMP JUMPDEST SWAP1 POP SWAP2 SWAP1 POP JUMP JUMPDEST PUSH2 0x3568 DUP2 PUSH2 0x354D JUMP JUMPDEST DUP3 MSTORE POP POP JUMP JUMPDEST PUSH1 0x0 PUSH1 0x20 DUP3 ADD SWAP1 POP PUSH2 0x3583 PUSH1 0x0 DUP4 ADD DUP5 PUSH2 0x355F JUMP JUMPDEST SWAP3 SWAP2 POP POP JUMP JUMPDEST PUSH2 0x3592 DUP2 PUSH2 0x30BD JUMP JUMPDEST DUP2 EQ PUSH2 0x359D JUMPI PUSH1 0x0 DUP1 REVERT JUMPDEST POP JUMP JUMPDEST PUSH1 0x0 DUP2 CALLDATALOAD SWAP1 POP PUSH2 0x35AF DUP2 PUSH2 0x3589 JUMP JUMPDEST SWAP3 SWAP2 POP POP JUMP JUMPDEST PUSH1 0x0 PUSH1 0x20 DUP3 DUP5 SUB SLT ISZERO PUSH2 0x35CB JUMPI PUSH2 0x35CA PUSH2 0x2F14 JUMP JUMPDEST JUMPDEST PUSH1 0x0 PUSH2 0x35D9 DUP5 DUP3 DUP6 ADD PUSH2 0x35A0 JUMP JUMPDEST SWAP2 POP POP SWAP3 SWAP2 POP POP JUMP JUMPDEST PUSH1 0x0 DUP1 PUSH1 0x40 DUP4 DUP6 SUB SLT ISZERO PUSH2 0x35F9 JUMPI PUSH2 0x35F8 PUSH2 0x2F14 JUMP JUMPDEST JUMPDEST PUSH1 0x0 PUSH2 0x3607 DUP6 DUP3 DUP7 ADD PUSH2 0x3026 JUMP JUMPDEST SWAP3 POP POP PUSH1 0x20 PUSH2 0x3618 DUP6 DUP3 DUP7 ADD PUSH2 0x2F35 JUMP JUMPDEST SWAP2 POP POP SWAP3 POP SWAP3 SWAP1 POP JUMP JUMPDEST PUSH1 0x0 DUP1 PUSH1 0xC0 DUP4 DUP6 SUB SLT ISZERO PUSH2 0x3639 JUMPI PUSH2 0x3638 PUSH2 0x2F14 JUMP JUMPDEST JUMPDEST PUSH1 0x0 PUSH2 0x3647 DUP6 DUP3 DUP7 ADD PUSH2 0x2F35 JUMP JUMPDEST SWAP3 POP POP PUSH1 0x20 PUSH2 0x3658 DUP6 DUP3 DUP7 ADD PUSH2 0x3221 JUMP JUMPDEST SWAP2 POP POP SWAP3 POP SWAP3 SWAP1 POP JUMP JUMPDEST PUSH32 0x4E487B7100000000000000000000000000000000000000000000000000000000 PUSH1 0x0 MSTORE PUSH1 0x11 PUSH1 0x4 MSTORE PUSH1 0x24 PUSH1 0x0 REVERT JUMPDEST PUSH1 0x0 PUSH2 0x369C DUP3 PUSH2 0x2E26 JUMP JUMPDEST SWAP2 POP PUSH2 0x36A7 DUP4 PUSH2 0x2E26 JUMP JUMPDEST SWAP3 POP DUP3 DUP3 MUL PUSH2 0x36B5 DUP2 PUSH2 0x2E26 JUMP JUMPDEST SWAP2 POP DUP3 DUP3 DIV DUP5 EQ DUP4 ISZERO OR PUSH2 0x36CC JUMPI PUSH2 0x36CB PUSH2 0x3662 JUMP JUMPDEST JUMPDEST POP SWAP3 SWAP2 POP POP JUMP JUMPDEST PUSH32 0x4E487B7100000000000000000000000000000000000000000000000000000000 PUSH1 0x0 MSTORE PUSH1 0x12 PUSH1 0x4 MSTORE PUSH1 0x24 PUSH1 0x0 REVERT JUMPDEST PUSH1 0x0 PUSH2 0x370D DUP3 PUSH2 0x2E26 JUMP JUMPDEST SWAP2 POP PUSH2 0x3718 DUP4 PUSH2 0x2E26 JUMP JUMPDEST SWAP3 POP DUP3 PUSH2 0x3728 JUMPI PUSH2 0x3727 PUSH2 0x36D3 JUMP JUMPDEST JUMPDEST DUP3 DUP3 DIV SWAP1 POP SWAP3 SWAP2 POP POP JUMP JUMPDEST PUSH1 0x0 PUSH2 0x373E DUP3 PUSH2 0x2E26 JUMP JUMPDEST SWAP2 POP PUSH2 0x3749 DUP4 PUSH2 0x2E26 JUMP JUMPDEST SWAP3 POP DUP3 DUP3 ADD SWAP1 POP DUP1 DUP3 GT ISZERO PUSH2 0x3761 JUMPI PUSH2 0x3760 PUSH2 0x3662 JUMP JUMPDEST JUMPDEST SWAP3 SWAP2 POP POP JUMP JUMPDEST PUSH1 0x0 PUSH1 0x40 DUP3 ADD SWAP1 POP PUSH2 0x377C PUSH1 0x0 DUP4 ADD DUP6 PUSH2 0x2E71 JUMP JUMPDEST PUSH2 0x3789 PUSH1 0x20 DUP4 ADD DUP5 PUSH2 0x2E71 JUMP JUMPDEST SWAP4 SWAP3 POP POP POP JUMP JUMPDEST PUSH1 0x0 PUSH2 0x379B DUP3 PUSH2 0x2E26 JUMP JUMPDEST SWAP2 POP PUSH32 0xFFFFFFFFFFFFFFFFFFFFFFFFFFFFFFFFFFFFFFFFFFFFFFFFFFFFFFFFFFFFFFFF DUP3 SUB PUSH2 0x37CD JUMPI PUSH2 0x37CC PUSH2 0x3662 JUMP JUMPDEST JUMPDEST PUSH1 0x1 DUP3 ADD SWAP1 POP SWAP2 SWAP1 POP JUMP JUMPDEST PUSH32 0x4D7573742062652070726F706F736564206F776E657200000000000000000000 PUSH1 0x0 DUP3 ADD MSTORE POP JUMP JUMPDEST PUSH1 0x0 PUSH2 0x380E PUSH1 0x16 DUP4 PUSH2 0x2DA9 JUMP JUMPDEST SWAP2 POP PUSH2 0x3819 DUP3 PUSH2 0x37D8 JUMP JUMPDEST PUSH1 0x20 DUP3 ADD SWAP1 POP SWAP2 SWAP1 POP JUMP JUMPDEST PUSH1 0x0 PUSH1 0x20 DUP3 ADD SWAP1 POP DUP2 DUP2 SUB PUSH1 0x0 DUP4 ADD MSTORE PUSH2 0x383D DUP2 PUSH2 0x3801 JUMP JUMPDEST SWAP1 POP SWAP2 SWAP1 POP JUMP JUMPDEST PUSH32 0x4F6E6C79207469636B6574206F776E65722063616E2075736520746865207469 PUSH1 0x0 DUP3 ADD MSTORE PUSH32 0x636B657400000000000000000000000000000000000000000000000000000000 PUSH1 0x20 DUP3 ADD MSTORE POP JUMP JUMPDEST PUSH1 0x0 PUSH2 0x38A0 PUSH1 0x24 DUP4 PUSH2 0x2DA9 JUMP JUMPDEST SWAP2 POP PUSH2 0x38AB DUP3 PUSH2 0x3844 JUMP JUMPDEST PUSH1 0x40 DUP3 ADD SWAP1 POP SWAP2 SWAP1 POP JUMP JUMPDEST PUSH1 0x0 PUSH1 0x20 DUP3 ADD SWAP1 POP DUP2 DUP2 SUB PUSH1 0x0 DUP4 ADD MSTORE PUSH2 0x38CF DUP2 PUSH2 0x3893 JUMP JUMPDEST SWAP1 POP SWAP2 SWAP1 POP JUMP JUMPDEST PUSH32 0x5469636B657420646F6573206E6F742065786973740000000000000000000000 PUSH1 0x0 DUP3 ADD MSTORE POP JUMP JUMPDEST PUSH1 0x0 PUSH2 0x390C PUSH1 0x15 DUP4 PUSH2 0x2DA9 JUMP JUMPDEST SWAP2 POP PUSH2 0x3917 DUP3 PUSH2 0x38D6 JUMP JUMPDEST PUSH1 0x20 DUP3 ADD SWAP1 POP SWAP2 SWAP1 POP JUMP JUMPDEST PUSH1 0x0 PUSH1 0x20 DUP3 ADD SWAP1 POP DUP2 DUP2 SUB PUSH1 0x0 DUP4 ADD MSTORE PUSH2 0x393B DUP2 PUSH2 0x38FF JUMP JUMPDEST SWAP1 POP SWAP2 SWAP1 POP JUMP JUMPDEST PUSH32 0x436F6D62696E6174696F6E206973206E6F742067656E65726174656420796574 PUSH1 0x0 DUP3 ADD MSTORE POP JUMP JUMPDEST PUSH1 0x0 PUSH2 0x3978 PUSH1 0x20 DUP4 PUSH2 0x2DA9 JUMP JUMPDEST SWAP2 POP PUSH2 0x3983 DUP3 PUSH2 0x3942 JUMP JUMPDEST PUSH1 0x20 DUP3 ADD SWAP1 POP SWAP2 SWAP1 POP JUMP JUMPDEST PUSH1 0x0 PUSH1 0x20 DUP3 ADD SWAP1 POP DUP2 DUP2 SUB PUSH1 0x0 DUP4 ADD MSTORE PUSH2 0x39A7 DUP2 PUSH2 0x396B JUMP JUMPDEST SWAP1 POP SWAP2 SWAP1 POP JUMP JUMPDEST PUSH32 0x57696E6E696E6720636F6D62696E6174696F6E20616C72656164792067656E65 PUSH1 0x0 DUP3 ADD MSTORE PUSH32 0x7261746564000000000000000000000000000000000000000000000000000000 PUSH1 0x20 DUP3 ADD MSTORE POP JUMP JUMPDEST PUSH1 0x0 PUSH2 0x3A0A PUSH1 0x25 DUP4 PUSH2 0x2DA9 JUMP JUMPDEST SWAP2 POP PUSH2 0x3A15 DUP3 PUSH2 0x39AE JUMP JUMPDEST PUSH1 0x40 DUP3 ADD SWAP1 POP SWAP2 SWAP1 POP JUMP JUMPDEST PUSH1 0x0 PUSH1 0x20 DUP3 ADD SWAP1 POP DUP2 DUP2 SUB PUSH1 0x0 DUP4 ADD MSTORE PUSH2 0x3A39 DUP2 PUSH2 0x39FD JUMP JUMPDEST SWAP1 POP SWAP2 SWAP1 POP JUMP JUMPDEST PUSH1 0x0 PUSH1 0x5 SWAP1 POP SWAP2 SWAP1 POP JUMP JUMPDEST PUSH1 0x0 DUP2 SWAP1 POP SWAP2 SWAP1 POP JUMP JUMPDEST PUSH1 0x0 DUP2 PUSH1 0x0 SHR SWAP1 POP SWAP2 SWAP1 POP JUMP JUMPDEST PUSH1 0x0 DUP2 SWAP1 POP SWAP2 SWAP1 POP JUMP JUMPDEST PUSH1 0x0 PUSH2 0x3A7F PUSH2 0x3A7A DUP4 PUSH2 0x3A55 JUMP JUMPDEST PUSH2 0x3A62 JUMP JUMPDEST SWAP1 POP SWAP2 SWAP1 POP JUMP JUMPDEST PUSH1 0x0 PUSH2 0x3A92 DUP3 SLOAD PUSH2 0x3A6C JUMP JUMPDEST SWAP1 POP SWAP2 SWAP1 POP JUMP JUMPDEST PUSH1 0x0 PUSH1 0x1 DUP3 ADD SWAP1 POP SWAP2 SWAP1 POP JUMP JUMPDEST PUSH2 0x3AAF DUP2 PUSH2 0x3A40 JUMP JUMPDEST PUSH2 0x3AB9 DUP2 DUP5 PUSH2 0x3492 JUMP JUMPDEST SWAP3 POP PUSH2 0x3AC4 DUP3 PUSH2 0x3A4B JUMP JUMPDEST DUP1 PUSH1 0x0 JUMPDEST DUP4 DUP2 LT ISZERO PUSH2 0x3AFC JUMPI PUSH2 0x3AD9 DUP3 PUSH2 0x3A86 JUMP JUMPDEST PUSH2 0x3AE3 DUP8 DUP3 PUSH2 0x32F8 JUMP JUMPDEST SWAP7 POP PUSH2 0x3AEE DUP4 PUSH2 0x3A99 JUMP JUMPDEST SWAP3 POP POP PUSH1 0x1 DUP2 ADD SWAP1 POP PUSH2 0x3AC8 JUMP JUMPDEST POP POP POP POP POP POP JUMP JUMPDEST PUSH1 0x0 PUSH1 0xA0 DUP3 ADD SWAP1 POP PUSH2 0x3B19 PUSH1 0x0 DUP4 ADD DUP5 PUSH2 0x3AA6 JUMP JUMPDEST SWAP3 SWAP2 POP POP JUMP JUMPDEST PUSH1 0x0 PUSH2 0x160 DUP3 ADD SWAP1 POP PUSH2 0x3B35 PUSH1 0x0 DUP4 ADD DUP7 PUSH2 0x3AA6 JUMP JUMPDEST PUSH2 0x3B42 PUSH1 0xA0 DUP4 ADD DUP6 PUSH2 0x3AA6 JUMP JUMPDEST PUSH2 0x3B50 PUSH2 0x140 DUP4 ADD DUP5 PUSH2 0x30CA JUMP JUMPDEST SWAP5 SWAP4 POP POP POP POP JUMP JUMPDEST PUSH1 0x0 PUSH2 0x3B63 DUP3 PUSH2 0x2E26 JUMP JUMPDEST SWAP2 POP PUSH2 0x3B6E DUP4 PUSH2 0x2E26 JUMP JUMPDEST SWAP3 POP DUP3 DUP3 SUB SWAP1 POP DUP2 DUP2 GT ISZERO PUSH2 0x3B86 JUMPI PUSH2 0x3B85 PUSH2 0x3662 JUMP JUMPDEST JUMPDEST SWAP3 SWAP2 POP POP JUMP JUMPDEST PUSH1 0x0 PUSH1 0x60 DUP3 ADD SWAP1 POP PUSH2 0x3BA1 PUSH1 0x0 DUP4 ADD DUP7 PUSH2 0x2E71 JUMP JUMPDEST PUSH2 0x3BAE PUSH1 0x20 DUP4 ADD DUP6 PUSH2 0x2E71 JUMP JUMPDEST PUSH2 0x3BBB PUSH1 0x40 DUP4 ADD DUP5 PUSH2 0x2E71 JUMP JUMPDEST SWAP5 SWAP4 POP POP POP POP JUMP JUMPDEST PUSH32 0x4F6E6C7920666F72206F776E6572000000000000000000000000000000000000 PUSH1 0x0 DUP3 ADD MSTORE POP JUMP JUMPDEST PUSH1 0x0 PUSH2 0x3BF9 PUSH1 0xE DUP4 PUSH2 0x2DA9 JUMP JUMPDEST SWAP2 POP PUSH2 0x3C04 DUP3 PUSH2 0x3BC3 JUMP JUMPDEST PUSH1 0x20 DUP3 ADD SWAP1 POP SWAP2 SWAP1 POP JUMP JUMPDEST PUSH1 0x0 PUSH1 0x20 DUP3 ADD SWAP1 POP DUP2 DUP2 SUB PUSH1 0x0 DUP4 ADD MSTORE PUSH2 0x3C28 DUP2 PUSH2 0x3BEC JUMP JUMPDEST SWAP1 POP SWAP2 SWAP1 POP JUMP JUMPDEST PUSH32 0x4E6F7468696E6720746F20776974686472617700000000000000000000000000 PUSH1 0x0 DUP3 ADD MSTORE POP JUMP JUMPDEST PUSH1 0x0 PUSH2 0x3C65 PUSH1 0x13 DUP4 PUSH2 0x2DA9 JUMP JUMPDEST SWAP2 POP PUSH2 0x3C70 DUP3 PUSH2 0x3C2F JUMP JUMPDEST PUSH1 0x20 DUP3 ADD SWAP1 POP SWAP2 SWAP1 POP JUMP JUMPDEST PUSH1 0x0 PUSH1 0x20 DUP3 ADD SWAP1 POP DUP2 DUP2 SUB PUSH1 0x0 DUP4 ADD MSTORE PUSH2 0x3C94 DUP2 PUSH2 0x3C58 JUMP JUMPDEST SWAP1 POP SWAP2 SWAP1 POP JUMP JUMPDEST PUSH1 0x0 DUP2 SWAP1 POP SWAP3 SWAP2 POP POP JUMP JUMPDEST POP JUMP JUMPDEST PUSH1 0x0 PUSH2 0x3CB6 PUSH1 0x0 DUP4 PUSH2 0x3C9B JUMP JUMPDEST SWAP2 POP PUSH2 0x3CC1 DUP3 PUSH2 0x3CA6 JUMP JUMPDEST PUSH1 0x0 DUP3 ADD SWAP1 POP SWAP2 SWAP1 POP JUMP JUMPDEST PUSH1 0x0 PUSH2 0x3CD7 DUP3 PUSH2 0x3CA9 JUMP JUMPDEST SWAP2 POP DUP2 SWAP1 POP SWAP2 SWAP1 POP JUMP JUMPDEST PUSH32 0x4F776E657242616C616E6365207769746864726177616C206661696C65640000 PUSH1 0x0 DUP3 ADD MSTORE POP JUMP JUMPDEST PUSH1 0x0 PUSH2 0x3D17 PUSH1 0x1E DUP4 PUSH2 0x2DA9 JUMP JUMPDEST SWAP2 POP PUSH2 0x3D22 DUP3 PUSH2 0x3CE1 JUMP JUMPDEST PUSH1 0x20 DUP3 ADD SWAP1 POP SWAP2 SWAP1 POP JUMP JUMPDEST PUSH1 0x0 PUSH1 0x20 DUP3 ADD SWAP1 POP DUP2 DUP2 SUB PUSH1 0x0 DUP4 ADD MSTORE PUSH2 0x3D46 DUP2 PUSH2 0x3D0A JUMP JUMPDEST SWAP1 POP SWAP2 SWAP1 POP JUMP JUMPDEST PUSH32 0x4F6E6C79207265616C2075736572732100000000000000000000000000000000 PUSH1 0x0 DUP3 ADD MSTORE POP JUMP JUMPDEST PUSH1 0x0 PUSH2 0x3D83 PUSH1 0x10 DUP4 PUSH2 0x2DA9 JUMP JUMPDEST SWAP2 POP PUSH2 0x3D8E DUP3 PUSH2 0x3D4D JUMP JUMPDEST PUSH1 0x20 DUP3 ADD SWAP1 POP SWAP2 SWAP1 POP JUMP JUMPDEST PUSH1 0x0 PUSH1 0x20 DUP3 ADD SWAP1 POP DUP2 DUP2 SUB PUSH1 0x0 DUP4 ADD MSTORE PUSH2 0x3DB2 DUP2 PUSH2 0x3D76 JUMP JUMPDEST SWAP1 POP SWAP2 SWAP1 POP JUMP JUMPDEST PUSH32 0x5472616E73616374696F6E2076616C756520697320746F6F206C6F7721000000 PUSH1 0x0 DUP3 ADD MSTORE POP JUMP JUMPDEST PUSH1 0x0 PUSH2 0x3DEF PUSH1 0x1D DUP4 PUSH2 0x2DA9 JUMP JUMPDEST SWAP2 POP PUSH2 0x3DFA DUP3 PUSH2 0x3DB9 JUMP JUMPDEST PUSH1 0x20 DUP3 ADD SWAP1 POP SWAP2 SWAP1 POP JUMP JUMPDEST PUSH1 0x0 PUSH1 0x20 DUP3 ADD SWAP1 POP DUP2 DUP2 SUB PUSH1 0x0 DUP4 ADD MSTORE PUSH2 0x3E1E DUP2 PUSH2 0x3DE2 JUMP JUMPDEST SWAP1 POP SWAP2 SWAP1 POP JUMP JUMPDEST PUSH32 0x4F7065726174696F6E7342616C616E6365207769746864726177616C20666169 PUSH1 0x0 DUP3 ADD MSTORE PUSH32 0x6C65640000000000000000000000000000000000000000000000000000000000 PUSH1 0x20 DUP3 ADD MSTORE POP JUMP JUMPDEST PUSH1 0x0 PUSH2 0x3E81 PUSH1 0x23 DUP4 PUSH2 0x2DA9 JUMP JUMPDEST SWAP2 POP PUSH2 0x3E8C DUP3 PUSH2 0x3E25 JUMP JUMPDEST PUSH1 0x40 DUP3 ADD SWAP1 POP SWAP2 SWAP1 POP JUMP JUMPDEST PUSH1 0x0 PUSH1 0x20 DUP3 ADD SWAP1 POP DUP2 DUP2 SUB PUSH1 0x0 DUP4 ADD MSTORE PUSH2 0x3EB0 DUP2 PUSH2 0x3E74 JUMP JUMPDEST SWAP1 POP SWAP2 SWAP1 POP JUMP JUMPDEST PUSH32 0x596F7520617265206E6F7420746865206F776E65720000000000000000000000 PUSH1 0x0 DUP3 ADD MSTORE POP JUMP JUMPDEST PUSH1 0x0 PUSH2 0x3EED PUSH1 0x15 DUP4 PUSH2 0x2DA9 JUMP JUMPDEST SWAP2 POP PUSH2 0x3EF8 DUP3 PUSH2 0x3EB7 JUMP JUMPDEST PUSH1 0x20 DUP3 ADD SWAP1 POP SWAP2 SWAP1 POP JUMP JUMPDEST PUSH1 0x0 PUSH1 0x20 DUP3 ADD SWAP1 POP DUP2 DUP2 SUB PUSH1 0x0 DUP4 ADD MSTORE PUSH2 0x3F1C DUP2 PUSH2 0x3EE0 JUMP JUMPDEST SWAP1 POP SWAP2 SWAP1 POP JUMP JUMPDEST PUSH32 0x416C7265616479207375626D6974746564000000000000000000000000000000 PUSH1 0x0 DUP3 ADD MSTORE POP JUMP JUMPDEST PUSH1 0x0 PUSH2 0x3F59 PUSH1 0x11 DUP4 PUSH2 0x2DA9 JUMP JUMPDEST SWAP2 POP PUSH2 0x3F64 DUP3 PUSH2 0x3F23 JUMP JUMPDEST PUSH1 0x20 DUP3 ADD SWAP1 POP SWAP2 SWAP1 POP JUMP JUMPDEST PUSH1 0x0 PUSH1 0x20 DUP3 ADD SWAP1 POP DUP2 DUP2 SUB PUSH1 0x0 DUP4 ADD MSTORE PUSH2 0x3F88 DUP2 PUSH2 0x3F4C JUMP JUMPDEST SWAP1 POP SWAP2 SWAP1 POP JUMP JUMPDEST PUSH32 0x4E487B7100000000000000000000000000000000000000000000000000000000 PUSH1 0x0 MSTORE PUSH1 0x32 PUSH1 0x4 MSTORE PUSH1 0x24 PUSH1 0x0 REVERT JUMPDEST PUSH1 0x0 DUP2 SWAP1 POP SWAP2 SWAP1 POP JUMP JUMPDEST PUSH2 0x3FD1 DUP2 PUSH2 0x3FBE JUMP JUMPDEST DUP3 MSTORE POP POP JUMP JUMPDEST PUSH1 0x0 PUSH1 0x20 DUP3 ADD SWAP1 POP PUSH2 0x3FEC PUSH1 0x0 DUP4 ADD DUP5 PUSH2 0x3FC8 JUMP JUMPDEST SWAP3 SWAP2 POP POP JUMP JUMPDEST PUSH1 0x0 PUSH2 0x3FFD DUP3 PUSH2 0x30BD JUMP JUMPDEST SWAP2 POP PUSH2 0x4008 DUP4 PUSH2 0x30BD JUMP JUMPDEST SWAP3 POP DUP3 PUSH2 0x4018 JUMPI PUSH2 0x4017 PUSH2 0x36D3 JUMP JUMPDEST JUMPDEST DUP3 DUP3 MOD SWAP1 POP SWAP3 SWAP2 POP POP JUMP JUMPDEST PUSH1 0x0 PUSH3 0xFFFFFF DUP3 AND SWAP1 POP SWAP2 SWAP1 POP JUMP JUMPDEST PUSH1 0x0 PUSH2 0x403D DUP3 PUSH2 0x4023 JUMP JUMPDEST SWAP2 POP PUSH3 0xFFFFFF DUP3 SUB PUSH2 0x4052 JUMPI PUSH2 0x4051 PUSH2 0x3662 JUMP JUMPDEST JUMPDEST PUSH1 0x1 DUP3 ADD SWAP1 POP SWAP2 SWAP1 POP JUMP JUMPDEST PUSH1 0x0 PUSH2 0x4068 DUP3 PUSH2 0x30BD JUMP JUMPDEST SWAP2 POP PUSH2 0x4073 DUP4 PUSH2 0x30BD JUMP JUMPDEST SWAP3 POP DUP3 DUP3 ADD SWAP1 POP PUSH1 0xFF DUP2 GT ISZERO PUSH2 0x408C JUMPI PUSH2 0x408B PUSH2 0x3662 JUMP JUMPDEST JUMPDEST SWAP3 SWAP2 POP POP JUMP JUMPDEST PUSH1 0x0 PUSH2 0x409D DUP3 PUSH2 0x30BD JUMP JUMPDEST SWAP2 POP PUSH1 0xFF DUP3 SUB PUSH2 0x40B0 JUMPI PUSH2 0x40AF PUSH2 0x3662 JUMP JUMPDEST JUMPDEST PUSH1 0x1 DUP3 ADD SWAP1 POP SWAP2 SWAP1 POP JUMP JUMPDEST PUSH32 0x5265656E7472616E637947756172643A207265656E7472616E742063616C6C00 PUSH1 0x0 DUP3 ADD MSTORE POP JUMP JUMPDEST PUSH1 0x0 PUSH2 0x40F1 PUSH1 0x1F DUP4 PUSH2 0x2DA9 JUMP JUMPDEST SWAP2 POP PUSH2 0x40FC DUP3 PUSH2 0x40BB JUMP JUMPDEST PUSH1 0x20 DUP3 ADD SWAP1 POP SWAP2 SWAP1 POP JUMP JUMPDEST PUSH1 0x0 PUSH1 0x20 DUP3 ADD SWAP1 POP DUP2 DUP2 SUB PUSH1 0x0 DUP4 ADD MSTORE PUSH2 0x4120 DUP2 PUSH2 0x40E4 JUMP JUMPDEST SWAP1 POP SWAP2 SWAP1 POP JUMP JUMPDEST PUSH32 0x556E6578706563746564206D61746368696E67206E756D62657220636F756E74 PUSH1 0x0 DUP3 ADD MSTORE POP JUMP JUMPDEST PUSH1 0x0 PUSH2 0x415D PUSH1 0x20 DUP4 PUSH2 0x2DA9 JUMP JUMPDEST SWAP2 POP PUSH2 0x4168 DUP3 PUSH2 0x4127 JUMP JUMPDEST PUSH1 0x20 DUP3 ADD SWAP1 POP SWAP2 SWAP1 POP JUMP JUMPDEST PUSH1 0x0 PUSH1 0x20 DUP3 ADD SWAP1 POP DUP2 DUP2 SUB PUSH1 0x0 DUP4 ADD MSTORE PUSH2 0x418C DUP2 PUSH2 0x4150 JUMP JUMPDEST SWAP1 POP SWAP2 SWAP1 POP JUMP JUMPDEST PUSH32 0x4E6F2072657761726420746F2073656E64000000000000000000000000000000 PUSH1 0x0 DUP3 ADD MSTORE POP JUMP JUMPDEST PUSH1 0x0 PUSH2 0x41C9 PUSH1 0x11 DUP4 PUSH2 0x2DA9 JUMP JUMPDEST SWAP2 POP PUSH2 0x41D4 DUP3 PUSH2 0x4193 JUMP JUMPDEST PUSH1 0x20 DUP3 ADD SWAP1 POP SWAP2 SWAP1 POP JUMP JUMPDEST PUSH1 0x0 PUSH1 0x20 DUP3 ADD SWAP1 POP DUP2 DUP2 SUB PUSH1 0x0 DUP4 ADD MSTORE PUSH2 0x41F8 DUP2 PUSH2 0x41BC JUMP JUMPDEST SWAP1 POP SWAP2 SWAP1 POP JUMP JUMPDEST PUSH32 0x526577617264207472616E73666572206661696C656400000000000000000000 PUSH1 0x0 DUP3 ADD MSTORE POP JUMP JUMPDEST PUSH1 0x0 PUSH2 0x4235 PUSH1 0x16 DUP4 PUSH2 0x2DA9 JUMP JUMPDEST SWAP2 POP PUSH2 0x4240 DUP3 PUSH2 0x41FF JUMP JUMPDEST PUSH1 0x20 DUP3 ADD SWAP1 POP SWAP2 SWAP1 POP JUMP JUMPDEST PUSH1 0x0 PUSH1 0x20 DUP3 ADD SWAP1 POP DUP2 DUP2 SUB PUSH1 0x0 DUP4 ADD MSTORE PUSH2 0x4264 DUP2 PUSH2 0x4228 JUMP JUMPDEST SWAP1 POP SWAP2 SWAP1 POP JUMP JUMPDEST PUSH32 0x4F6E6C792063616C6C61626C65206279206F776E657200000000000000000000 PUSH1 0x0 DUP3 ADD MSTORE POP JUMP JUMPDEST PUSH1 0x0 PUSH2 0x42A1 PUSH1 0x16 DUP4 PUSH2 0x2DA9 JUMP JUMPDEST SWAP2 POP PUSH2 0x42AC DUP3 PUSH2 0x426B JUMP JUMPDEST PUSH1 0x20 DUP3 ADD SWAP1 POP SWAP2 SWAP1 POP JUMP JUMPDEST PUSH1 0x0 PUSH1 0x20 DUP3 ADD SWAP1 POP DUP2 DUP2 SUB PUSH1 0x0 DUP4 ADD MSTORE PUSH2 0x42D0 DUP2 PUSH2 0x4294 JUMP JUMPDEST SWAP1 POP SWAP2 SWAP1 POP JUMP JUMPDEST PUSH32 0x43616E6E6F74207472616E7366657220746F2073656C66000000000000000000 PUSH1 0x0 DUP3 ADD MSTORE POP JUMP JUMPDEST PUSH1 0x0 PUSH2 0x430D PUSH1 0x17 DUP4 PUSH2 0x2DA9 JUMP JUMPDEST SWAP2 POP PUSH2 0x4318 DUP3 PUSH2 0x42D7 JUMP JUMPDEST PUSH1 0x20 DUP3 ADD SWAP1 POP SWAP2 SWAP1 POP JUMP JUMPDEST PUSH1 0x0 PUSH1 0x20 DUP3 ADD SWAP1 POP DUP2 DUP2 SUB PUSH1 0x0 DUP4 ADD MSTORE PUSH2 0x433C DUP2 PUSH2 0x4300 JUMP JUMPDEST SWAP1 POP SWAP2 SWAP1 POP JUMP JUMPDEST PUSH2 0x434C DUP2 PUSH2 0x3FBE JUMP JUMPDEST DUP3 MSTORE POP POP JUMP JUMPDEST PUSH2 0x435B DUP2 PUSH2 0x345A JUMP JUMPDEST DUP3 MSTORE POP POP JUMP JUMPDEST PUSH2 0x436A DUP2 PUSH2 0x3083 JUMP JUMPDEST DUP3 MSTORE POP POP JUMP JUMPDEST PUSH1 0x0 DUP2 MLOAD SWAP1 POP SWAP2 SWAP1 POP JUMP JUMPDEST PUSH1 0x0 DUP3 DUP3 MSTORE PUSH1 0x20 DUP3 ADD SWAP1 POP SWAP3 SWAP2 POP POP JUMP JUMPDEST PUSH1 0x0 JUMPDEST DUP4 DUP2 LT ISZERO PUSH2 0x43AA JUMPI DUP1 DUP3 ADD MLOAD DUP2 DUP5 ADD MSTORE PUSH1 0x20 DUP2 ADD SWAP1 POP PUSH2 0x438F JUMP JUMPDEST PUSH1 0x0 DUP5 DUP5 ADD MSTORE POP POP POP POP JUMP JUMPDEST PUSH1 0x0 PUSH2 0x43C1 DUP3 PUSH2 0x4370 JUMP JUMPDEST PUSH2 0x43CB DUP2 DUP6 PUSH2 0x437B JUMP JUMPDEST SWAP4 POP PUSH2 0x43DB DUP2 DUP6 PUSH1 0x20 DUP7 ADD PUSH2 0x438C JUMP JUMPDEST PUSH2 0x43E4 DUP2 PUSH2 0x310F JUMP JUMPDEST DUP5 ADD SWAP2 POP POP SWAP3 SWAP2 POP POP JUMP JUMPDEST PUSH1 0x0 PUSH1 0xC0 DUP4 ADD PUSH1 0x0 DUP4 ADD MLOAD PUSH2 0x4407 PUSH1 0x0 DUP7 ADD DUP3 PUSH2 0x4343 JUMP JUMPDEST POP PUSH1 0x20 DUP4 ADD MLOAD PUSH2 0x441A PUSH1 0x20 DUP7 ADD DUP3 PUSH2 0x32BA JUMP JUMPDEST POP PUSH1 0x40 DUP4 ADD MLOAD PUSH2 0x442D PUSH1 0x40 DUP7 ADD DUP3 PUSH2 0x4352 JUMP JUMPDEST POP PUSH1 0x60 DUP4 ADD MLOAD PUSH2 0x4440 PUSH1 0x60 DUP7 ADD DUP3 PUSH2 0x4361 JUMP JUMPDEST POP PUSH1 0x80 DUP4 ADD MLOAD PUSH2 0x4453 PUSH1 0x80 DUP7 ADD DUP3 PUSH2 0x4361 JUMP JUMPDEST POP PUSH1 0xA0 DUP4 ADD MLOAD DUP5 DUP3 SUB PUSH1 0xA0 DUP7 ADD MSTORE PUSH2 0x446B DUP3 DUP3 PUSH2 0x43B6 JUMP JUMPDEST SWAP2 POP POP DUP1 SWAP2 POP POP SWAP3 SWAP2 POP POP JUMP JUMPDEST PUSH1 0x0 PUSH1 0x20 DUP3 ADD SWAP1 POP DUP2 DUP2 SUB PUSH1 0x0 DUP4 ADD MSTORE PUSH2 0x4492 DUP2 DUP5 PUSH2 0x43EF JUMP JUMPDEST SWAP1 POP SWAP3 SWAP2 POP POP JUMP JUMPDEST PUSH1 0x0 DUP2 MLOAD SWAP1 POP PUSH2 0x44A9 DUP2 PUSH2 0x2F1E JUMP JUMPDEST SWAP3 SWAP2 POP POP JUMP JUMPDEST PUSH1 0x0 PUSH1 0x20 DUP3 DUP5 SUB SLT ISZERO PUSH2 0x44C5 JUMPI PUSH2 0x44C4 PUSH2 0x2F14 JUMP JUMPDEST JUMPDEST PUSH1 0x0 PUSH2 0x44D3 DUP5 DUP3 DUP6 ADD PUSH2 0x449A JUMP JUMPDEST SWAP2 POP POP SWAP3 SWAP2 POP POP JUMP JUMPDEST PUSH1 0x20 DUP3 ADD PUSH1 0x0 DUP3 ADD MLOAD PUSH2 0x44F2 PUSH1 0x0 DUP6 ADD DUP3 PUSH2 0x3374 JUMP JUMPDEST POP POP POP POP JUMP JUMPDEST PUSH1 0x0 PUSH1 0x20 DUP3 ADD SWAP1 POP PUSH2 0x450D PUSH1 0x0 DUP4 ADD DUP5 PUSH2 0x44DC JUMP JUMPDEST SWAP3 SWAP2 POP POP JUMP INVALID LOG2 PUSH5 0x6970667358 0x22 SLT KECCAK256 0xD3 BLOBHASH DIV 0xF6 0xCD 0xE7 0xD1 DUP4 PUSH18 0x4EBB9088EAD80BFCF5B4D432403E9062AFAD 0xE3 0xA9 SWAP13 DUP1 INVALID PUSH5 0x736F6C6343 STOP ADDMOD SHR STOP CALLER "},"methodIdentifiers":{"CALLBACK_GAS_LIMIT()":"33d608f1","NUMBER_OF_WORDS()":"95e888c4","NUMBER_RANGE()":"3aac0fa9","REQUEST_CONFIRMATIONS()":"67f082b0","TICKET_PRICE_WEI()":"f163915a","acceptOwnership()":"79ba5097","addressToActiveTicketNumber(address)":"238a0954","assignTestTicket()":"3cac60e5","buyTicket()":"edca914c","getActiveTicketNumber(address)":"fdd0094b","getContractOwner()":"442890d5","getJackpot()":"9329066c","getOperationsBalance()":"a32bb20f","getOwnerBalance()":"590791f2","getPlayerTicket(address)":"5ff5b7f9","getRandomWord()":"a75454f4","getResults(uint256)":"81a60c0d","getWinningCombination()":"8284190c","jackpot()":"6b31ee01","nextTicketId()":"6031a52f","owner()":"8da5cb5b","rawFulfillRandomWords(uint256,uint256[])":"1fe543e3","requestIdToTicketId(uint256)":"c3e9bf00","s_vrfCoordinator()":"9eccacf6","setCoordinator(address)":"8ea98117","submitCombination(uint256,uint256[5])":"f926c5d8","testDistribute(uint256)":"98fd29fb","testTicket()":"1ade4244","test_calculateReward(uint8)":"da8dc674","test_checkWinningCombination(uint256[5],uint256[5])":"4e90d36d","test_fulfillRandomWords(uint256,uint256[])":"2b4c5572","test_generateWinningCombination()":"32039770","test_requestRandomNumber(uint256)":"fdab0b6c","test_sendReward(address,uint256)":"f8ccb9c5","tickets(uint256)":"50b44712","transferOwnership(address)":"f2fde38b","withdrawOperationsBalance()":"f403251d","withdrawOwnerBalance()":"941b80ac"}}}}}